:1000000080313428013008007E1480318B1D09288E
:100010000A2812280B1C0D280E2812289C316B244C
:10002000803132280B1F1528162832282100931CF6
:100030001A281B2824282000931C1F282028242845
:100040009C31CD24803132282100911C2828292878
:1000500032282000911C2D282E2832289C31BE24C5
:10006000803132287E10090080313628003084002B
:1000700090308500A03086000030870022309C310F
:1000800042248031693084000030850007309C3183
:100090003C248031C2308400003085000A309C311D
:1000A0003C248031203084000130850020309C3198
:1000B0003C2480317E1020009F31DA2F0B30650602
:1000C000031D63286428222D4130DD002030DC0030
:1000D0000030DB000030DA009431AB2480310B308B
:1000E0002000E4002630E3005D30890B7528E30B27
:1000F0007528E40B7528003241302000DD003030D7
:10010000DC000030DB000030DA009431AB248031B9
:100110000B302000E4002630E3005D30890B8E2890
:10012000E30B8E28E40B8E28003241302000DD00E6
:100130004030DC000030DB000030DA009431AB24CA
:1001400080310B302000E4002630E3005D30890B65
:10015000A728E30BA728E40BA72800324130200092
:10016000DD005030DC000030DB000030DA0094317C
:10017000AB2480310B302000E4002630E3005D30FA
:10018000890BC028E30BC028E40BC02800324130A3
:100190002000DD006030DC000030DB000030DA00E1
:1001A0009431AB2480310B302000E4002630E30092
:1001B0005D30890BD928E30BD928E40BD92800320C
:1001C00041302000DD007030DC000030DB0000300A
:1001D000DA009431AB2480310B302000E40026306B
:1001E000E3005D30890BF228E30BF228E40BF228E0
:1001F000003241302000DD008030DC000030DB00C8
:100200000030DA009431AB2480310B302000E40060
:100210002630E3005D30890B0B29E30B0B29E40B3F
:100220000B29003241302000DD008830DC00003036
:10023000DB000030DA009431AB2480310B30200039
:10024000E4002630E3005D30890B2429E30B2429E8
:10025000E40B2429003241302000DD009030DC0026
:100260000030DB000030DA009431AB2480310B30F9
:100270002000E4002630E3005D30890B3D29E30BCC
:100280003D29E40B3D29003241302000DD0098304B
:10029000DC000030DB000030DA009431AB24803128
:1002A0000B302000E4002630E3005D30890B562936
:1002B000E30B5629E40B5629003241302000DD00C3
:1002C000A030DC000030DB000030DA009431AB24D9
:1002D00080310B302000E4002630E3005D30890BD4
:1002E0006F29E30B6F29E40B6F29003241302000A6
:1002F000DD00A830DC000030DB000030DA00943193
:10030000AB2480310B302000E4002630E3005D3068
:10031000890B8829E30B8829E40B882900324130B6
:100320002000DD00B030DC000030DB000030DA00FF
:100330009431AB2480310B302000E4002630E30000
:100340005D30890BA129E30BA129E40BA12900321F
:1003500041302000DD00B830DC000030DB00003030
:10036000DA009431AB2480310B302000E4002630D9
:10037000E3005D30890BBA29E30BBA29E40BBA29F3
:10038000003241302000DD00C030DC000030DB00F6
:100390000030DA009431AB2480310B302000E400CF
:1003A0002630E3005D30890BD329E30BD329E40B1E
:1003B000D329003241302000DD00C830DC0000309D
:1003C000DB000030DA009431AB2480310B302000A8
:1003D000E4002630E3005D30890BEC29E30BEC29C7
:1003E000E40BEC29003241302000DD00D030DC008D
:1003F0000030DB000030DA009431AB2480310B3068
:100400002000E4002630E3005D30890B052AE30B71
:10041000052AE40B052A003241302000DD00D830E7
:10042000DC000030DB000030DA009431AB24803196
:100430000B302000E4002630E3005D30890B1E2ADB
:10044000E30B1E2AE40B1E2A003241302000DD009F
:10045000E030DC000030DB000030DA009431AB2407
:1004600080310B302000E4002630E3005D30890B42
:10047000372AE30B372AE40B372A003241302000B9
:10048000DD00E830DC000030DB000030DA009431C1
:10049000AB2480310B302000E4002630E3005D30D7
:1004A000890B502AE30B502AE40B502A00324130CA
:1004B0002000DD00F030DC000030DB000030DA002E
:1004C0009431AB2480310B302000E4002630E3006F
:1004D0005D30890B692AE30B692AE40B692A003233
:1004E00041302000DD00F430DC000030DB00003063
:1004F000DA009431AB24803138302000E400CE3073
:10050000E3008F30890B822AE30B822AE40B822AD4
:10051000003241302000DD00F830DC000030DB002C
:100520000030DA009431AB24803138302000E40010
:10053000CE30E3008F30890B9B2AE30B9B2AE40B20
:100540009B2A003241302000DD00FC30DC0000300E
:10055000DB000030DA009431AB24803138302000E9
:10056000E400CE30E3008F30890BB42AE30BB42AC9
:10057000E40BB42A003242302000DD000030DC0001
:100580000030DB000030DA009431AB2480313830A9
:100590002000E400CE30E3008F30890BCD2AE30B3E
:1005A000CD2AE40BCD2A003242302000DD0002309B
:1005B000DC000030DB000030DA009431AB24803105
:1005C00038302000E400CE30E3008F30890BE62A7B
:1005D000E30BE62AE40BE62A003242302000DD007D
:1005E0000430DC000030DB000030DA009431AB2452
:1005F000803138302000E400CE30E3008F30890BAA
:10060000FF2AE30BFF2AE40BFF2A003242302000CE
:10061000DD000630DC000030DB000030DA00943111
:10062000AB24803138302000E400CE30E3008F303E
:10063000890B182BE30B182BE40B182B00324230DC
:100640002000DD000830DC000030DB000030DA0084
:100650009431AB24803138302000E400CE30E30008
:100660008F30890B312BE30B312BE40B312B003214
:1006700042302000DD000A30DC000030DB000030BA
:10068000DA009431AB24803138302000E400CE30E1
:10069000E3008F30890B4A2BE30B4A2BE40B4A2BE8
:1006A000003242302000DD000C30DC000030DB0086
:1006B0000030DA009431AB24803138302000E4007F
:1006C000CE30E3008F30890B632BE30B632BE40BFD
:1006D000632B003242302000DD001430DC0000309B
:1006E000DB000030DA009431AB2480312E30200062
:1006F000E400A930E3002F30890B7C2BE30B7C2B2B
:10070000E40B7C2B42302000DD002030DC00003088
:10071000DB000030DA009431AB2480312E30200031
:10072000E400A930E3002F30890B942BE30B942BCA
:10073000E40B942B42302000DD002830DC00003038
:10074000DB000030DA009431AB2480312E30200001
:10075000E400A930E3002F30890BAC2BE30BAC2B6A
:10076000E40BAC2B42302000DD003030DC000030E8
:10077000DB000030DA009431AB2480312E302000D1
:10078000E400A930E3002F30890BC42BE30BC42B0A
:10079000E40BC42B42302000DD003830DC00003098
:1007A000DB000030DA009431AB2480312E302000A1
:1007B000E400A930E3002F30890BDC2BE30BDC2BAA
:1007C000E40BDC2B42302000DD004030DC00003048
:1007D000DB000030DA009431AB2480312E30200071
:1007E000E400A930E3002F30890BF42BE30BF42B4A
:1007F000E40BF42B42302000DD004830DC000030F8
:10080000DB000030DA009431AB2480312E30200040
:10081000E400A930E3002F30890B0C2CE30B0C2CE7
:10082000E40B0C2C42302000DD005030DC000030A6
:10083000DB000030DA009431AB2480312E30200010
:10084000E400A930E3002F30890B242CE30B242C87
:10085000E40B242C42302000DD005830DC00003056
:10086000DB000030DA009431AB2480312E302000E0
:10087000E400A930E3002F30890B3C2CE30B3C2C27
:10088000E40B3C2C42302000DD006030DC00003006
:10089000DB000030DA009431AB2480312E302000B0
:1008A000E400A930E3002F30890B542CE30B542CC7
:1008B000E40B542C42302000DD006830DC000030B6
:1008C000DB000030DA009431AB248031333020007B
:1008D000E400BB30E300DF30890B6C2CE30B6C2CA5
:1008E000E40B6C2C003242302000DD007030DC0064
:1008F0000030DB000030DA009431AB24803133303B
:100900002000E400BB30E300DF30890B852CE30BD3
:10091000852CE40B852C003242302000DD007C3039
:10092000DC000030DB000030DA009431AB24803191
:1009300033302000E400BB30E300DF30890B9E2C15
:10094000E30B9E2CE40B9E2C003242302000DD0095
:100950008230DC000030DB000030DA009431AB2460
:10096000803133302000E400BB30E300DF30890BFE
:10097000B72CE30BB72CE40BB72C0032423020002D
:10098000DD008830DC000030DB000030DA0094311C
:10099000AB24803133302000E400BB30E300DF3093
:1009A000890BD02CE30BD02CE40BD02C003242303E
:1009B0002000DD009030DC000030DB000030DA0089
:1009C0009431AB24803133302000E400BB30E300AD
:1009D000DF30890BE92CE30BE92CE40BE92C003226
:1009E00042302000DD009630DC000030DB000030BB
:1009F000DA009431AB24803133302000E400BB3086
:100A0000E300DF30890B022DE30B022DE40B022DF6
:100A1000003242302000DD009E30DC000030DB0080
:100A20000030DA009431AB24803133302000E40010
:100A3000BB30E300DF30890B1B2DE30B1B2DE40BD8
:100A40001B2D003201309C319624803100309E31C4
:100A5000092680312000E60133302000E400BB305D
:100A6000E300DF30890B322DE30B322DE40B322D06
:100A7000003201302000E3006308E60724306602FC
:100A8000031C432D442D2C2D00309C3196248031A5
:100A900001309C318A2480310B302000E400263064
:100AA000E3005D30890B522DE30B522DE40B522DE8
:100AB000003200309C318A24803100309C31EB249C
:100AC00080310800200023088039F9007908A80047
:100AD0002335F9007908AE00A21F6F2D702D712DFE
:100AE0002E142E080319752D762D852D2E0A031D23
:100AF0007A2D7B2D832D0030A3000030A200003022
:100B0000A1000030A000A2178D2D0030A3000030FE
:100B1000A2000030A1000030A00027088039F900B1
:100B20007908A8062735F9007908AD00A61F992D88
:100B30009A2D9B2D2D142D0803199F2DA02DAF2D1F
:100B40002D0A031DA42DA52DAD2D0030A7000030CA
:100B5000A6000030A5000030A400A617B72D003075
:100B6000A7000030A6000030A5000030A4002D082A
:100B70000319BB2DBC2DC12D2E08031DC02DC12D69
:100B8000CA2D0030A3000030A2000030A1000030C8
:100B9000A000B82F2008F9007908F00026089F313E
:100BA000B727853171082000B4007008B3003308FE
:100BB000F900FA01FB01FC017C08AC007B08AB00EA
:100BC0007A08AA007908A9003408F900FA01FB01A3
:100BD000FC017C08B2007B08B1007A08B0007908FB
:100BE000AF002108F9007908F00025089F31B727E8
:100BF000853171082000B4007008B3003308F90093
:100C0000FA01FB01FC017908A9077A08AA3D7B08D3
:100C1000AB3D7C08AC3D3408F900FA01FB01FC0156
:100C20007908AF077A08B03D7B08B13D7C08B23D3A
:100C30002208F9007908F00024089F31B727853190
:100C400071082000B4007008B3003308F900FA01FD
:100C5000FB01FC017908A9077A08AA3D7B08AB3D96
:100C60007C08AC3D3408F900FA01FB01FC0179086D
:100C7000AF077A08B03D7B08B13D7C08B23D083033
:100C8000A935AA0DAB0DAC0D890B402E2108F9003A
:100C90007908F00024089F31B727853171082000BA
:100CA000B4007008B3003308A9073408AA3D003027
:100CB000AB3DAC3D2008F9007908F00025089F31D4
:100CC000B727853171082000B4007008B3003308DD
:100CD000A9073408AA3D0030AB3DAC3D0830A9352A
:100CE000AA0DAB0DAC0D890B6F2E2008F900790809
:100CF000F00024089F31B727853171082000B40027
:100D00007008B3003308A9073408AA3D0030AB3D92
:100D1000AC3D2108F9007908F00026089F31B7277B
:100D2000853171082000B4007008B3003308AF07A4
:100D30003408B03D0030B13DB23D2208F9007908D9
:100D4000F00025089F31B727853171082000B400D5
:100D50007008B3003308AF073408B03D0030B13D30
:100D6000B23D2208F9007908F00026089F31B72724
:100D7000853171082000B4007008B3003308F90011
:100D80003408FA00FB01FC010830F935FA0DFB0DBF
:100D9000FC0D890BC52E7908AF077A08B03D7B089A
:100DA000B13D7C08B23D2908F9002A08FA002B0859
:100DB000FB002C08FC001830FC36FB0CFA0CF90C7C
:100DC000890BDC2E7908AF077A08B03D7B08B13D6E
:100DD0007C08B23D0830A935AA0DAB0DAC0D890BCE
:100DE000EB2E2E082D07F900FA01FA0D7908823E44
:100DF000B300FF307A3DB400142F0130AF35B00D91
:100E0000B10DB20D890BFE2EAC1F072F082F092F35
:100E10002F140130A935AA0DAB0DAC0D890B0A2F8B
:100E2000FF30B307FF30B43DB11F172F182FFD2E31
:100E3000AD01AC1F1C2F1D2F392FFF302905F900E4
:100E4000FF302A05FA00FF302B05FB007F302C0510
:100E5000FC007C087B047A0479040319302F312FBD
:100E6000342FAD01AD0A392F2F1C372F382F392FD2
:100E7000312F2D0803193D2F3E2F662F0130AF076C
:100E80000030B03D0030B13D0030B23D321C492F42
:100E90004A2F662F2F08F9003008FA003108FB00AE
:100EA0003208FC000130FD00FC37FB0CFA0CF90C99
:100EB000FD0B542F7C08B2007B08B1007A08B0000B
:100EC0007908AF000130B3070030B43D3408803AF0
:100ED000F90080307902031D6F2FFF303302031CAD
:100EE000722F732F7D2F7F302000B2008030B10031
:100EF0000030B0000030AF00AC2F20003408803A42
:100F0000F90080307902031D872F01303302031866
:100F10008A2F8B2F962F00302000B2000030B100B6
:100F20000030B0000030AF00A801AC2F2000330823
:100F3000F9007908AE00FF30AF05FF30B0057F3013
:100F4000B1050030B2052E1CA62FA72FA82FB11770
:100F50002E36F9007908B2002808F9007908B204A1
:100F60003208A3003108A2003008A1002F08A00019
:100F7000080090314B208731013A031DC02FC12F4B
:100F8000FD2F01309E31F9268731013A031DC92F0B
:100F9000CA2FFD2FCE2F90314B20873101309E314B
:100FA000F9268731013A0319D62FD72FCB2F0130DD
:100FB0009C318A24873102302000E8000430E700A9
:100FC000BA30890BE12FE70BE12FE80BE12F00008E
:100FD00000309C318A2487310B308B312E238731AE
:100FE000F42F90314B20873101309E31F926873123
:100FF000013A0319FC2FFD2FF12F080000300800E3
:10100000080090314B208831013A031D0828092837
:10101000452800309E31F9268831013A031D1128F8
:1010200012284528162890314B20883100309E31F7
:10103000F9268831013A03191E281F281328013088
:101040009C318A24883102302000E8000430E70017
:10105000BA30890B2928E70B2928E80B292800003A
:1010600000309C318A2488310A308B312E2388311C
:101070003C2890314B20883100309E31F926883150
:10108000013A031944284528392808007D08093EFB
:101090008600013087000108803A2000A0007D080A
:1010A0000E3E8600013087000103FF3A803AA0021D
:1010B00003185B285C2889287D080A3E86000130D9
:1010C00087000130810741310318810A7D080A3EFB
:1010D000860001308700403FA000413FA100003062
:1010E0002102413003192002031C77287828C928DF
:1010F0007D080A3E8600013087000030C03FC13FB6
:101100007D0886000130870001089131282188314F
:10111000C9287D08093E8600013087000108A0002B
:10112000A101A01BA1037D080E3E860001308700AF
:101130002108803A803C031D9F28200801020318E3
:10114000A228A328C12802302000A0007D08023E6A
:10115000860001308700200881007D080A3E860055
:10116000013087000030C03FC13F7D08860001305C
:1011700087000108A0002008F0009C31102488316D
:10118000C9287D080A3E8600013087000030C03F34
:10119000C13F7D080C3E8600013087000130810789
:1011A00041310318810A7D080C3E8600013087001A
:1011B0001600403A2000A0001600A004031DE128FC
:1011C000E228EE287D080C3E8600013087000030C2
:1011D000C03FC13F7D089531BB25883108007308A9
:1011E00080392000A0002008F8007335A0002008F6
:1011F000FA00F21FFC28FD28FE287A147A08031949
:101200000229032913297A0A031D0729082910290D
:101210000030F3000030F2000030F1000030F00048
:10122000F217F3011B290030F3000030F200003008
:10123000F1000030F00077088039A0002008F900A4
:10124000790878060319252926292729781777355B
:10125000A0002008F900F61F2E292F293029791423
:1012600079080319342935294529790A031D3929B3
:101270003A2942290030F7000030F6000030F5002E
:101280000030F400F617F7014D290030F700003068
:10129000F6000030F5000030F4007A0879020318F7
:1012A000522953299729781F562957295B298030BD
:1012B000A0002008F8067A08A0002008FB007908A2
:1012C000A0002008FA007B08A0002008F9007008A0
:1012D000A0002008FB007408A0002008F0007B0894
:1012E000A0002008F4007108A0002008FB00750889
:1012F000A0002008F1007B08A0002008F50072087B
:10130000A0002008FB007608A0002008F2007B085F
:10131000A0002008F6007308A0002008FB00770852
:10132000A0002008F3007B08A0002008F700FB01C4
:101330007908A000A1012108A3007A082002A200D8
:10134000031CA3032308803AA40080302402031D59
:10135000AB291A302202031CAE29AF29E9297308F0
:10136000720471047004031DB629B8290130B9292B
:1013700000302000A0002008FB000030F300003007
:10138000F2000030F1000030F0007908A0002008E1
:10139000FA00EF297B1CCD29CE29D5297B360138CF
:1013A0002000A0002008FB00D7290310FB0C701CB4
:1013B000DA29DB29DC29FB1701302000A000F337F4
:1013C000F20CF10CF00CA00BDF290130A00020087A
:1013D000FA0779087A02031CEE29EF29CA29781B3B
:1013E000F229F3292D2A7A08031DF729F829012A61
:1013F0000030F3000030F2000030F1000030F00067
:101400002D2B7408F0077508F13D7608F23D77083A
:10141000F33D731C0C2A0D2ABA2A7B1C102A112AB0
:10142000182A7B3601382000A0002008FB001A2A69
:101430000310FB0C701C1D2A1E2A1F2AFB170130EB
:101440002000A000F337F20CF10CF00CA00B222AC4
:101450000130A0002008FA07BA2A7308803A200059
:10146000A0007708803A2002031D402A7608720205
:10147000031D402A75087102031D402A740870027A
:101480000318432A442A7C2AFF30A000FF30A10021
:10149000FF30A200FF30A30070087402A40071089E
:1014A000753BA5007208763BA6007308773BA70042
:1014B0002408A0072508A13D2608A23D2708A33D32
:1014C0002308F3002208F2002108F1002008F000B0
:1014D0008030A0002008F806FB09FB0A7B08031DEA
:1014E000722A732A842A0130F0070030F13D00305F
:1014F000F23D0030F33D842A7408F0027508F13B98
:101500007608F23B7708F33B7308720471047004A9
:10151000031D8B2A8C2AB62A7B08031D902A912A48
:10152000B62A0030F3000030F2000030F100003045
:10153000F0002D2B0130F035F10DF20DF30D890B7C
:101540009B2AFB1FA42AA52AA62A70147B1CA92A61
:10155000AA2AAD2A0314FB0DAF2A0310FB0D7A084B
:101560000319B32AB42AB62A0130FA02F21FB92AA3
:10157000BA2A9A2AF901FB1FBE2ABF2ACD2A7B0864
:101580007F390319C42AC52AC82AF901F90ACD2AC4
:10159000701CCB2ACC2ACD2AC52A79080319D12A56
:1015A000D22A002B0130F0070030F13D0030F23D2F
:1015B0000030F33D731CDD2ADE2A002B700820006A
:1015C000A0007108A1007208A2007308A3000130F6
:1015D000A400A337A20CA10CA00CA40BE92A230899
:1015E000F3002208F2002108F1002008F0007A0A36
:1015F0000319FB2AFC2A002B0130A0002008FA075F
:101600007A0A0319042B052B0A2B7A08031D092BD0
:101610000A2B182B0030F3000030F2000030F100EC
:101620000030F0007A08031D162B172B182BF80139
:101630007A1C1B2B1C2B1E2BF217232B7F30200018
:10164000A0002008F2057A362000A0002008F30050
:10165000F81F2B2B2C2B2D2BF31708002000E50057
:1016600001309C31EB248B3101309E3109268B31C6
:101670000A3020006506031D3E2B402B80315E287A
:101680004130DD002030DC000030DB000030DA00CB
:101690009431AB248B310B302000E4002630E30082
:1016A0005D30890B512BE30B512BE40B512B003296
:1016B00041302000DD003030DC000030DB00003045
:1016C000DA009431AB248B310B302000E40026305B
:1016D000E3005D30890B6A2BE30B6A2BE40B6A2B6A
:1016E000003241302000DD004030DC000030DB0003
:1016F0000030DA009431AB248B310B302000E40051
:101700002630E3005D30890B832BE30B832BE40B46
:10171000832B003241302000DD005030DC000030EF
:10172000DB000030DA009431AB248B310B30200029
:10173000E4002630E3005D30890B9C2BE30B9C2BEF
:10174000E40B9C2B003241302000DD006030DC00D7
:101750000030DB000030DA009431AB248B310B30E9
:101760002000E4002630E3005D30890BB52BE30B4D
:10177000B52BE40BB52B003241302000DD0070307A
:10178000DC000030DB000030DA009431AB248B3118
:101790000B302000E4002630E3005D30890BCE2BB7
:1017A000E30BCE2BE40BCE2B003241302000DD00CA
:1017B0008030DC000030DB000030DA009431AB24F4
:1017C0008B310B302000E4002630E3005D30890BC4
:1017D000E72BE30BE72BE40BE72B00324130200033
:1017E000DD008830DC000030DB000030DA009431AE
:1017F000AB248B310B302000E4002630E3005D3059
:10180000890B002CE30B002CE40B002C0032413040
:101810002000DD009030DC000030DB000030DA001A
:101820009431AB248B310B302000E4002630E300F0
:101830005D30890B192CE30B192CE40B192C0032A9
:1018400041302000DD009830DC000030DB0000304B
:10185000DA009431AB248B310B302000E4002630C9
:10186000E3005D30890B322CE30B322CE40B322C7D
:10187000003241302000DD00A030DC000030DB0011
:101880000030DA009431AB248B310B302000E400BF
:101890002630E3005D30890B4B2CE30B4B2CE40B23
:1018A0004B2C003241302000DD00A830DC0000303D
:1018B000DB000030DA009431AB248B310B30200098
:1018C000E4002630E3005D30890B642CE30B642CCC
:1018D000E40B642C003241302000DD00B030DC002D
:1018E0000030DB000030DA009431AB248B310B3058
:1018F0002000E4002630E3005D30890B7D2CE30BF3
:101900007D2CE40B7D2C003241302000DD00B8300E
:10191000DC000030DB000030DA009431AB248B3186
:101920000B302000E4002630E3005D30890B962C5C
:10193000E30B962CE40B962C003241302000DD00A6
:10194000C030DC000030DB000030DA009431AB2422
:101950008B310B302000E4002630E3005D30890B32
:10196000AF2CE30BAF2CE40BAF2C00324130200046
:10197000DD00C830DC000030DB000030DA009431DC
:10198000AB248B310B302000E4002630E3005D30C7
:10199000890BC82CE30BC82CE40BC82C0032413057
:1019A0002000DD00D030DC000030DB000030DA0049
:1019B0009431AB248B310B302000E4002630E3005F
:1019C0005D30890BE12CE30BE12CE40BE12C0032C0
:1019D00041302000DD00D830DC000030DB0000307A
:1019E000DA009431AB248B310B302000E400263038
:1019F000E3005D30890BFA2CE30BFA2CE40BFA2C94
:101A0000003241302000DD00E030DC000030DB003F
:101A10000030DA009431AB248B310B302000E4002D
:101A20002630E3005D30890B132DE30B132DE40BFF
:101A3000132D003241302000DD00E830DC000030A2
:101A4000DB000030DA009431AB248B310B30200006
:101A5000E4002630E3005D30890B2C2DE30B2C2DA8
:101A6000E40B2C2D003241302000DD00F030DC0092
:101A70000030DB000030DA009431AB248B310B30C6
:101A80002000E4002630E3005D30890B452DE30B98
:101A9000452DE40B452D003241302000DD00F430AF
:101AA000DC000030DB000030DA009431AB248B31F5
:101AB0002E302000E400A930E3002F30890B5E2D8A
:101AC000E30B5E2DE40B5E2D41302000DD00F8308D
:101AD000DC000030DB000030DA009431AB248B31C5
:101AE0002E302000E400A930E3002F30890B762D42
:101AF000E30B762DE40B762D41302000DD00FC3029
:101B0000DC000030DB000030DA009431AB248B3194
:101B10002E302000E400A930E3002F30890B8E2DF9
:101B2000E30B8E2DE40B8E2D42302000DD000030C3
:101B3000DC000030DB000030DA009431AB248B3164
:101B40002E302000E400A930E3002F30890BA62DB1
:101B5000E30BA62DE40BA62D42302000DD00023061
:101B6000DC000030DB000030DA009431AB248B3134
:101B70002E302000E400A930E3002F30890BBE2D69
:101B8000E30BBE2DE40BBE2D42302000DD000430FF
:101B9000DC000030DB000030DA009431AB248B3104
:101BA0002E302000E400A930E3002F30890BD62D21
:101BB000E30BD62DE40BD62D42302000DD0006309D
:101BC000DC000030DB000030DA009431AB248B31D4
:101BD0002E302000E400A930E3002F30890BEE2DD9
:101BE000E30BEE2DE40BEE2D42302000DD0008303B
:101BF000DC000030DB000030DA009431AB248B31A4
:101C00002E302000E400A930E3002F30890B062E8F
:101C1000E30B062EE40B062E42302000DD000A30D6
:101C2000DC000030DB000030DA009431AB248B3173
:101C30002E302000E400A930E3002F30890B1E2E47
:101C4000E30B1E2EE40B1E2E42302000DD000C3074
:101C5000DC000030DB000030DA009431AB248B3143
:101C60002E302000E400A930E3002F30890B362EFF
:101C7000E30B362EE40B362E42302000DD0014300C
:101C8000DC000030DB000030DA009431AB248B3113
:101C90001F302000E4007130E3001E30890B4E2E0F
:101CA000E30B4E2EE40B4E2E000042302000DD00F0
:101CB0001C30DC000030DB000030DA009431AB2453
:101CC0008B311F302000E4007130E3001E30890B9F
:101CD000672EE30B672EE40B672E000042302000D6
:101CE000DD002430DC000030DB000030DA0094310D
:101CF000AB248B311F302000E4007130E3001E3034
:101D0000890B802EE30B802EE40B802E00004230E6
:101D10002000DD002C30DC000030DB000030DA0079
:101D20009431AB248B311F302000E4007130E3008C
:101D30001E30890B992EE30B992EE40B992E00008F
:101D400042302000DD003430DC000030DB000030A9
:101D5000DA009431AB248B311F302000E400713065
:101D6000E3001E30890BB22EE30BB22EE40BB22E31
:101D7000000042302000DD003C30DC000030DB00A1
:101D80000030DA009431AB248B311F302000E400A6
:101D90007130E3001E30890BCB2EE30BCB2EE40B0E
:101DA000CB2E000042302000DD004430DC0000304B
:101DB000DB000030DA009431AB248B311F3020007F
:101DC000E4007130E3001E30890BE42EE30BE42EB7
:101DD000E40BE42E000042302000DD004C30DC003B
:101DE0000030DB000030DA009431AB248B311F303F
:101DF0002000E4007130E3001E30890BFD2EE30B60
:101E0000FD2EE40BFD2E000042302000DD0054309A
:101E1000DC000030DB000030DA009431AB248B3181
:101E20001F302000E4007130E3001E30890B162FB4
:101E3000E30B162FE40B162F000042302000DD00CC
:101E40005C30DC000030DB000030DA009431AB2481
:101E50008B311F302000E4007130E3001E30890B0D
:101E60002F2FE30B2F2FE40B2F2F000042302000E9
:101E7000DD006430DC000030DB000030DA0094313B
:101E8000AB248B311F302000E4007130E3001E30A2
:101E9000890B482FE30B482FE40B482F00004230FA
:101EA0002000DD006C30DC000030DB000030DA00A8
:101EB0009431AB248B311F302000E4007130E300FB
:101EC0001E30890B612FE30B612FE40B612F0000A3
:101ED00042302000DD007430DC000030DB000030D8
:101EE000DA009431AB248B311F302000E4007130D4
:101EF000E3001E30890B7A2FE30B7A2FE40B7A2F45
:101F0000000042302000DD007C30DC000030DB00CF
:101F10000030DA009431AB248B311F302000E40014
:101F20007130E3001E30890B932FE30B932FE40BEA
:101F3000932F000042302000DD008230DC000030B2
:101F4000DB000030DA009431AB248B311F302000ED
:101F5000E4007130E3001E30890BAC2FE30BAC2F93
:101F6000E40BAC2F000042302000DD008630DC00A6
:101F70000030DB000030DA009431AB248B311F30AD
:101F80002000E4007130E3001E30890BC52FE30B05
:101F9000C52FE40BC52F000042302000DD008A3041
:101FA000DC000030DB000030DA009431AB248B31F0
:101FB0001F302000E4007130E3001E30890BDE2F5B
:101FC000E30BDE2FE40BDE2F000042302000DD00AB
:101FD0008E30DC000030DB000030DA009431AB24BE
:101FE0008B311F302000E4007130E3001E30890B7C
:101FF000F72FE30BF72FE40BF72F00008531222D8D
:10200000D0341334463408346A34133410341C3456
:1020100010341C3497341F3457341F3400340834C0
:10202000003457341F3497341F34203400340034C4
:102030000034013437341F3477341F3420340034F3
:102040000034003422008C018D018E013F302100CC
:102050008C0070308D0003308E00033023008E0022
:1020600030308D0003308C0024008D0104308C0052
:102070008E012100951322009D019E01270013115E
:10208000121111150C30F0001C30F1009C312A2483
:1020900090318B15080021004A0803195028512857
:1020A00056289C31A22490312100CA01CB01CB0AD1
:1020B0009E316D269031003A031D5F28602862280A
:1020C000003074289D313F2590318731FE279031B3
:1020D0002000AB002B082100CB009E31DB26903185
:1020E0009C312124903101300800F2007208023E38
:1020F00086000130870002300106031D80288128F8
:102100009F2872080A3E860001308700013081074F
:1021100041310318810A72080A3E860001308700A7
:1021200016000104031D952896289F2872080A3E70
:10213000860001308700FF30C03FFF30C13F0800FC
:1021400020006903031DA528A628C8280130210006
:10215000C4070030C53D47084502031DB1284608A5
:102160004402031CB428B528BA28C401C5012200C2
:102170008E16CB2820008E1EBE28BF28CB2821001B
:10218000C401C5019C311424903122008E12CB2849
:102190002100C401C5010800FC007C0A8600013052
:1021A000870001089E31392690317408F8007508BF
:1021B000F900FA01FB017C08053E8600013087002A
:1021C0007808C03F7908C13F7A08C23F7B08C33F07
:1021D0007C08053E8600013087000430813541319E
:1021E000810D4131810D4131810D7D31890BEE2809
:1021F0000800F8007108F6007008F5007808F4008F
:102200007408F9001B297508840076088500000809
:10221000F4007408F7000130F5070030F63D770848
:10222000F4007908860001308700740881000130CD
:10223000F4007408F9070130F2020030F33B720A2F
:10224000031D2629730A031D2629272903290800AF
:10225000F2007208F0000330F035FF3E031D2C2918
:102260007035203EF1007108F3007308023E8600CD
:102270000130870081017308053E86000130870028
:102280000030C03F0030C13FC23FC33F73080A3E29
:102290008600013087000030C03FC13F73080C3E0C
:1022A0008600013087000030C03FC13F730A8600BE
:1022B0000130870001089C310F2491310800200073
:1022C000A2000530A0002008A10022089C31DC24D7
:1022D0009131003A031D6D296E297A290030A82911
:1022E00001302000A1022108031D772978297A29CD
:1022F000FC30A82920002208923153229131003A63
:10230000031D83298429702920002208063E8600A7
:102310008701403F21004802F000413F493BF10066
:102320009E315326913100307102653003197002DD
:10233000031C9B299C29A229200022089C31562499
:1023400091316E29200022089C315D2491316E2943
:102350000800FA007A08023E860001308700010872
:102360000319B329B429E8297A08033E860001300D
:102370008700403FF800413FF900F936F80CF93684
:10238000F80C7A08033E8600013087007808810245
:1023900041317908813B7F317A0A8600013087001C
:1023A00001089E31392691317408F8007508F9004A
:1023B000F936F80CF936F80C7A08033E860001303D
:1023C00087007808810741317908813D7F31F929FB
:1023D0007A0A86000130870001089E313926913142
:1023E0007A08033E8600013087007408C03F7508F4
:1023F000C13F08002000A5000930A3002308F00019
:1024000025089D31B0259131B03E2000A40024085C
:10241000A700270891315F2191312000A3002308F4
:10242000A600332A27089C31DC249131003A031995
:102430001A2A1B2A502A20006A08031D202A212A52
:10244000252A27089E3187269131200027089C31B4
:102450006424913120002508A3002308F00088316E
:1024600000209131502A2608A300A401A31BA40335
:102470002408003A0319402AFF3A0319452A502A32
:102480002308003A0319122A502A2308FD3A031997
:10249000502A033A0319502A013A0319502A502AA4
:1024A000200026080800FD00FC0121001D08F8009E
:1024B0007808F9001E08F8007808FA009C312524F5
:1024C000923100308B1B0130FB007D089D3151257E
:1024D00092317D08860087010108F8007808200005
:1024E000ED007D0886008701453FEC002100C80112
:1024F000C90120006E109D31C5259231F800780881
:102500002000EB002100C801C9012000EE108B1350
:102510009331082392317B0C031C8B1303188B1708
:102520009D318925923121009D18972A982A932A56
:1025300020006E1C9C2A9D2A872A790821009D0074
:102540007A089E002000EE1CA62AA72AAB2AFA30A1
:10255000F8007808FC007C0808002000A700270885
:10256000A5000330A535FF3E031DB22A2535203EC8
:10257000A6002608A800280A860001308700010866
:102580009D31F2259231003A0319C72AC82A072B38
:102590002000280A860001308700010880310220CF
:1025A0009231003A0319D52AD62A072B2000280891
:1025B0009D311C2592312000280895312C2592311F
:1025C00020002808023E8600013087000330010207
:1025D000031CEB2AEC2AF42A280886000130870025
:1025E000010891312821923120002808A5002508F2
:1025F000FD002808023E8600013087000135A03E1C
:1026000086008701413F8A00403F0A00933108005D
:1026100021001C08F7001B08F60020006E1C112B7F
:10262000122B132B692B6C080319172B182B622BF9
:10263000272B21002D088A002C080A009331382B03
:1026400021002B088A002A080A009331382B6C08D5
:102650000139F400F5017508003A0319302B382BC5
:102660007408003A0319192B013A0319202B382B4F
:102670000930F4007408F00020006D089D31B02589
:102680009331B53E86008701010820006C060319CE
:102690004A2B4B2B5E2B6C1C4E2B4F2B592B003097
:1026A000F4000430F50076087402F6007708753BF4
:1026B000F70076082100C8077708C93D01302000DF
:1026C000EC02692B76082100C8077708C93D200075
:1026D0006E1408007D080A3E860001308700403FE6
:1026E0002000A000413FA10003302102E83003197F
:1026F0002002031C7C2B7D2B922B7D088600013051
:10270000870001089131282193317D08860001302E
:10271000870001082000A0002008F0009C31102450
:102720009331CF2B7D08093E8600013087000108D8
:10273000803AA0007D080E3E8600013087007D08AB
:102740000E3E84000130850000360102803AA0026E
:102750000318AB2BAC2BCF2B7D08023E860001303B
:1027600087008101810A7D080A3E860001308700CA
:102770000030C03FC13F7D080C3E8600013087001D
:10278000FF30C03FFB30C13F7D088600013087002D
:102790000108A0002008F0009C31102493310800AB
:1027A0007D080A3E860001308700403F2000A000DF
:1027B000413FA10000302102093003192002031813
:1027C000E22BE32BE82B7D089031CC209331EC2BCE
:1027D0007D089531BB2593317D080A3E8600013086
:1027E00087000130810741310318810A7D080A3EC4
:1027F000860001308700403F2000A000413FA1003B
:1028000000302102103003192002031C082C092C6F
:10281000352C7D08053E860001308700403FA00032
:10282000413FA100423FA200433FA3000430A33632
:10283000A20CA10CA00C890B172C7D08033E86006E
:10284000013087002008C03F2108C13F7D08023EBB
:102850008600013087008101810A7D080A3E8600DA
:10286000013087000030C03FC13F08000310200046
:10287000510D520DD3005308D9005908031D412CA6
:10288000422C4B2C0030D2000030D1000030D00060
:102890000030CF00AA2C4F08D3005008D4005108B4
:1028A000D5005208D6001F30D636D50CD40CD30C28
:1028B000890B542C5308D7005708D800D117FF3084
:1028C000CF05FF30D005FF30D1050030D20596305E
:1028D000D902D91F6C2C6D2C852C5908803A973E53
:1028E0000318732C742C752C422C0130D236D10C69
:1028F000D00CCF0C890B762C0130D3005308D907AC
:10290000031D832C842C752C9A2C20305902031C17
:102910008A2C8B2C952C422C0130CF35D00DD10D2B
:10292000D20D890B8D2C0130D9025908031D992C29
:102930009A2C8C2C580803199E2C9F2CAA2CCF095A
:10294000D009D109D209CF0A0319D00A0319D10A33
:102950000319D20A080042302000B8004830B700FE
:102960000030B6000030B5004030A300A030A20017
:102970000030A1000030A0005D08A7005C08A600A0
:102980005B08A5005A08A400853162259431200017
:102990002308BC002208BB002108BA002008B900A7
:1029A00096314C26943120003808D2003708D100E7
:1029B0003608D0003508CF004130D6002030D50091
:1029C0000030D4000030D3009F311727943120000D
:1029D0005208E1005108E0005008DF004F08DE0017
:1029E0006108A7006008A6005F08A5005E08A400B3
:1029F0004430A3007A30A2000030A1000030A000D3
:102A000085316225943120002308BC002208BB00D8
:102A10002108BA002008B9004230B800C830B70019
:102A20000030B6000030B50096314C2694312000BD
:102A30003808D2003708D1003608D0003508CF005A
:102A4000943136249431200050082100C700200022
:102A50004F082100C60008002000A0002008053E05
:102A6000860001308700403FF000413FF100423FC7
:102A7000F200433FF3000430F336F20CF10CF00C9B
:102A8000890B3C2D2008033E860001308700403F23
:102A9000F400413FF5007408F6007508F700F801EE
:102AA000F9017008F6027108F73B7208F83B7308E9
:102AB000F93B7908A4007808A3007708A2007608FB
:102AC000A1002108F0002208F1002308F2002408E8
:102AD000F30020080F3E860001308700010A742DA4
:102AE000F337F20CF10CF00C890B702D7308A40075
:102AF0007208A3007108A2007008A100A41B8E2D0B
:102B00002408031D8F2D2308031D8F2D2208031D6C
:102B10008F2D80302102031C8E2D8F2D982D00309B
:102B20002000A4000030A3000030A2007F30A100EC
:102B30002000A41FA62D80302102FF30223BFF3051
:102B4000233BFF30243B0318A62DA72DB02DFF30CB
:102B50002000A400FF30A300FF30A2008030A100BD
:102B600020002108F0002008093E8600013087007F
:102B7000700881000800F6008B1FBF2DC02D072EA6
:102B80008B137608053E860001308700403FF00039
:102B9000413FF100423FF200433FF3000430F3367F
:102BA000F20CF10CF00C890BCF2D7608053E860057
:102BB000013087007008810241317108813B413149
:102BC0007208813B41317308813B7D317608033EB9
:102BD000860001308700403FF000413FF10070085F
:102BE000F2007108F300F401F5017608053E860055
:102BF000013087007208810741317308813D4131FE
:102C00007408813D41317508813D8B174B2E760844
:102C1000053E860001308700403FF000413FF10053
:102C2000423FF200433FF3000430F336F20CF10C64
:102C3000F00C890B152E7608053E860001308700C2
:102C40007008810241317108813B41317208813B3A
:102C500041317308813B7D317608033E86000130A7
:102C60008700403FF000413FF1007008F20071081A
:102C7000F300F401F5017608053E86000130870077
:102C80007208810741317308813D41317408813DEB
:102C900041317508813D080020003C088039BD00A5
:102CA0003D08C6003C35BD003D08CD00BB1F592E78
:102CB0005A2E5B2E4D144D0803195F2E602E702E78
:102CC0004D0A031D642E652E6D2E0030BC000030B1
:102CD000BB000030BA000030B900BB17BC01782E31
:102CE0000030BC000030BB000030BA000030B9003A
:102CF00038088039BD003D08C6063835BD003D089E
:102D0000CE00B71F842E852E862E4E144E08031932
:102D10008A2E8B2E9B2E4E0A031D8F2E902E982EC0
:102D20000030B8000030B7000030B6000030B50009
:102D3000B717B801A32E0030B8000030B70000303C
:102D4000B6000030B5003808370436043504031DDA
:102D5000AA2EAB2EC42E0030BC000030BB000030C9
:102D6000BA000030B9008030BB047F30BC04460894
:102D7000BD003D08BC043C08B8003B08B7003A0859
:102D8000B6003908B500FF2F4D08031DC82EC92E07
:102D9000D22E0030B8000030B7000030B60000304E
:102DA000B500FF2F4D08BD00BE013E08C0004E0813
:102DB0003D02BF00031CC0033F087F3EC700003038
:102DC000403DC8003C08C5003B08C4003A08C300A9
:102DD0003908C2000030BC000030BB000030BA002F
:102DE0000030B9000030CC000030CB000030CA0009
:102DF0000030C900CE013A2F4E080319002F012FD1
:102E00001B2F0130C235C30DC40DC50D890B022F18
:102E10000130B935BA0DBB0DBC0D890B092FCC1F84
:102E2000122F132F142F39140130C935CA0DCB0DB1
:102E3000CC0D890B152F38084502031D292F3708A3
:102E40004402031D292F36084302031D292F35088C
:102E50004202031C2C2F2D2F362F4C173508C2028F
:102E60003608C33B3708C43B3808C53B0130BD00BA
:102E70003D08CE071A304E02031C3F2F402FFC2E78
:102E800045084404430442040319472F482F612F87
:102E90004914612F0130B935BA0DBB0DBC0D890B3A
:102EA0004B2FCC1F542F552F562F39140130C935B5
:102EB000CA0DCB0DCC0D890B572FFF30C707FF3044
:102EC000C83DBB1F642F652F4A2FCE01CC1F692F31
:102ED0006A2F862FFF304905BD00FF304A05BE002E
:102EE000FF304B05BF007F304C05C00040083F0459
:102EF0003E043D0403197D2F7E2F812FCE01CE0A83
:102F0000862F391C842F852F862F7E2F4E0803197C
:102F10008A2F8B2FB32F0130B9070030BA3D003014
:102F2000BB3D0030BC3D3C1C962F972FB32F39087A
:102F3000BD003A08BE003B08BF003C08C00001309D
:102F4000C100C037BF0CBE0CBD0CC10BA12F400887
:102F5000BC003F08BB003E08BA003D08B900013084
:102F6000C7070030C83D4808803ABD0080303D02A8
:102F7000031DBC2FFF304702031CBF2FC02FCD2FD6
:102F8000FF302000C7000030C8000030BC00003017
:102F9000BB000030BA000030B90020004808803A79
:102FA000BD0080303D02031DD72F013047020318BA
:102FB000DA2FDB2FE72F2000C701C8010030BC004B
:102FC0000030BB000030BA000030B900C60120005C
:102FD0004708BD003D08CD004D1CEF2FF02FF22F0C
:102FE000BB17F62F7F30BD003D08BB054D36BD0039
:102FF0003D08BC004608BD003D08BC04BB2E0800CF
:103000000034003400340034003400340034003420
:103010000034003400340034003400347E34013491
:1030200001340134003400340034003400340034FE
:103030000034003400340034003400347E34013471
:1030400000340034C8344234003400342034413475
:103818000800080008000800080020001C1508001F
:1038280020001C110800280017150800280017118F
:10383800080016302100970008009E3121269C318F
:10384800080021009D0190309E00080071082100A9
:10385800D1007008D000080071082100CF0070085E
:10386800CE00080071082100CD007008CC000800C7
:10387800640080010131890B3D2C0034FE001200E8
:103888001E00FE0B432C0034F0007008083E860032
:1038980087018110080070302100990098012200EA
:1038A80096010800F0007008083E8600870101159F
:1038B8000800F0007008083E860087010111080022
:1038C800F0007008083E8600870181140800270070
:1038D800131D6F2C702C732C9C31AF249C31080065
:1038E80020006903031D792C7A2C7D2C9C3111242E
:1038F8009C310800F0007003031D832C842C872C56
:1039080022000E15892C22000E110800F000700309
:10391800031D8F2C902C932C22000E16952C220020
:103928000E120800F0007003031D9B2C9C2C9F2C8A
:1039380022008E15A12C22008E1108009C31FB2438
:103948009C319E31A2269C319E31DB269C319C31D4
:1039580025249C3108002100500851040319B52C76
:10396800B62CBB2C51088A0050080A009C3127004D
:10397800131108002000911021004E084F0403196C
:10398800C62CC72CCC2C4F088A004E080A009C3144
:1039980008002000931021004C084D040319D52C71
:1039A800D62CDB2C4D088A004C080A009C310800F4
:1039B800F00070080319E12CE22CE92C7008083E8D
:1039C8008600870101080139EA2C00300800F00060
:1039D8007003031DF02CF12CF52C9C3117249C311D
:1039E800FA2C9C311A249C3122000E110800F9018E
:1039F80079089D312D259C310130F8007808F907A8
:103A080002307902031C092D0A2DFC2C0800C7304E
:103A180020009B009A019110210091140D30F000B4
:103A28001C30F1009C3130249D3120009C0108009D
:103A3800FB008B1F202D212D282D8B137B08913106
:103A4800A9219D318B172C2D7B089131A9219D31FE
:103A58000800F70077089D319C259D310930F60054
:103A68007608F00077089D31B0259D31B03E9C3135
:103A780048249D3108002000AA012A089231AD226D
:103A88009D3101302000A9002908AA0702302A0226
:103A9800031C4F2D502D412D0800F000700A8600A0
:103AA8008701403F2100AC00413FAD007008033E54
:103AB80086008701403FAA00413FAB0008007C30E8
:103AC80028009600950120009310210093140E30D1
:103AD800F0001C30F1009C3136249D310230280062
:103AE80097000800903122209D319C314F249D3150
:103AF8009C311D249D319D3163259D319D310B25C0
:103B08009D319C31A2249D31080020006B08F000F3
:103B18007008F1007108031D922D932D942D9B2D93
:103B28000130F1027108031D9A2D9B2D942D080078
:103B3800F500023075020318A22DA32DAF2D093010
:103B4800F4007408F00075089D31B0259D31B83E29
:103B58008600870101140800F300F201731CB52DDB
:103B6800B62DBA2D7008F1007108F2070310F00D98
:103B78000310F30C7308031DC22DC32DB22D720858
:103B8800080020006F1CC92DCA2DCF2D6F36F000FC
:103B98007008EF00D82D6F36F0007008EF006F083E
:103BA800B43AF0007008EF006F080F3908000030D1
:103BB8009C317E249D3100309C31EB249D310030B6
:103BC8009C3196249D3100309C318A249D310030EF
:103BD8009E3109269D3122008E120800F500023020
:103BE80075020318F82DF92D072E0930F400740812
:103BF800F00075089D31B0259D31B83E86008701DB
:103C0800010C0139082E003008002000E200620390
:103C1800031D0F2E102E132EE901E90A202E403025
:103C2800DD004030DC000030DB000030DA00943189
:103C3800AB249E312000E9010800F4017408F30068
:103C48000330F335FF3E031D252E7335203E90319A
:103C580075209E310130F3007308F40702307402B6
:103C6800031C372E382E222E0800F7000230770268
:103C780003183F2E402E502E0930F6007608F0002B
:103C880077089D31B0259E31B63E86008701403FBA
:103C9800F400413FF500522EF401F50108007108C7
:103CA800803AF20080307202031D5C2E01307002EF
:103CB80003185F2E602E6C2E7009F2007109F30054
:103CC800F20A0319F30A7208F0007308F1006C2E67
:103CD80008002000A90129089131FA219E31003AF3
:103CE8000319772E782E7A2E0030862E0130200088
:103CF800A8002808A90702302902031C842E852E53
:103D08006F2E01300800F0008B1F8B2E8C2E982E02
:103D18008B137008063E8600870121004808C03FC3
:103D28004908C13F8B17A12E7008063E86008701FF
:103D380021004808C03F4908C13F08000030F00092
:103D48009830F1002030F2000030F300203090313C
:103D5800F9209E31FB017B08913128219E310130E9
:103D6800FA007A08FB0702307B02031CBC2EBD2E2A
:103D7800AF2E080001302100C2070030C33D0330D8
:103D88004302E83003194202031CCB2ECC2EDA2E54
:103D9800C201C301031022000E1D03140318D52EFF
:103DA800D82E22000E15DA2E22000E110800B0308F
:103DB800F1007108F200B930F100720871020318BD
:103DC800E62EE72EE82EF82E72089C3148249E3104
:103DD8000930F1007108F207B930F1007208710278
:103DE8000318F72EF82EE82E0800F10002307102B1
:103DF8000318FF2E002F152F7108F0000330F0353F
:103E0800FF3E031D032F7035223E860001308700D8
:103E1800023001060319112F132F0130142F00301F
:103E2800162F0030080080302000D2065608F30014
:103E38005508F2005408F1005308F0005208F70042
:103E48005108F6005008F5004F08F4008831EF20BB
:103E58009F3173082000D2007208D1007108D00089
:103E68007008CF00080022000E17210021309D00A5
:103E78000530890B3D2F00008E308400003085000E
:103E88000E30860001308700253080179D000032F3
:103E980000320032003221009D140032000022005E
:103EA8008E178013080022008E17210025309D00F0
:103EB8000530890B5D2F00008E30840000308500AE
:103EC8000E30860001308700213000179D00003237
:103ED80000320032003221009D140032000022001E
:103EE8000E170013080022000E13210021309D0038
:103EF8000530890B7D2F00008E308400003085004E
:103F08000E30860001308700253080179D00003272
:103F180000320032003221009D14003200002200DD
:103F28008E138013080022008E13210025309D0077
:103F38000530890B9D2F00008E30840000308500ED
:103F48000E30860001308700213000179D000032B6
:103F580000320032003221009D140032000022009D
:103F68000E1300130800F800F401F5017008F200C0
:103F7800F3017208F6007308F700781CC42FC52FE8
:103F8800C92F7608F4077708F53D0130F635F70DA7
:103F9800890BCA2F0310F80C7808031DD42FD52FCE
:103FA800C12F7508F1007408F00008009D317625CE
:103FB8009F319D31DB259F318B170B177430F00033
:103FC8001C30F1009C312A249F31A030F0001030C1
:103FD800F1009C3130249F31BE30F0001E30F100DA
:103FE8009C3136249F31883101209F318731B92790
:083FF8009F31F72F80313428BE
:020000040001F9
:08000000FF3FFF3FFF3FFF3F00
:04000E00E43DFF3E90
:00000001FF
