:08000000803102288731FB2F3B
:10000A0078302100990098012200960108008E316B
:10001A00E026803122000E1543302000ED00A0308A
:10002A00EC00FD30EB007130EA006D08C6006C0888
:10003A00C5006B08C4006A08C3005630D4005408CF
:10004A00C7000230C8000030C90082311522803151
:10005A0056308F319F27803115302000D5004B3024
:10006A00D400BE30890B3728D40B3728D50B372854
:10007A0000002D2880310228FA00F601F7017008E5
:10008A00FF3EF800FF30713DF900772876087A07BD
:10009A00F2007208860087010108F3007308F50070
:1000AA0078087A07F2007208860087010108F300CF
:1000BA0076087A07F40074088600870173088100BD
:1000CA007508F20078087A07F3007308860087013A
:1000DA00720881000130F6070030F73DFF30F8075B
:1000EA00FF30F93D7708803AF2007908803A7202C7
:1000FA00031D812878087602031C842885284B284A
:10010A000800F601F31F8A288B289228F209F309BE
:10011A00F20A0319F30AF601F60AF11F952896283E
:10012A009B28F009F109F00A0319F10A7008710411
:10013A000319A028A128CA28F501F50AAD2801301B
:10014A00F035F10D890BA5280130F4007408F50784
:10015A00F11FB028B128A42871087302031DB7281B
:10016A0070087202031CBA28BB28BF287008F20262
:10017A007108F33B0130F136F00C890BC0280130CD
:10018A00F502031DC928CA28B12876080319CE2802
:10019A00CF28D428F209F309F20A0319F30A7308DB
:1001AA00F1007208F0000800F601F11FDD28DE28D0
:1001BA00E528F009F109F00A0319F10AF601F60A2D
:1001CA00F31FE828E928F228F209F309F20A0319C9
:1001DA00F30A0130F4007408F606F701F801700812
:1001EA0071040319F928FA282929F501F50A0629BB
:1001FA000130F035F10D890BFE280130F400740846
:10020A00F507F11F09290A29FD280130F735F80DEC
:10021A00890B0B2971087302031D152970087202D4
:10022A00031C182919291E297008F2027108F33BC8
:10023A0077140130F136F00C890B1F290130F502D1
:10024A00031D282929290A29760803192D292E2967
:10025A003329F709F809F70A0319F80A7808F100A7
:10026A007708F00008002000A501A60167290A30D6
:10027A00F0000030F1002108F3002008F20080317C
:10028A00862081317008303EFB00200025082207B5
:10029A00FC007C08860087017B0881000130A507E5
:1002AA000030A63D0A30F0000030F1002108F300CA
:1002BA002008F2008031D920813171082000A10084
:1002CA007008A00020082104031D6C296D293C290F
:1002DA007D293030FB00200025082207FC007C081D
:1002EA00860087017B0881000130A5070030A63D02
:1002FA002608803AFB002408803A7B02031D8729DE
:10030A0023082502031C8A298B296E292000260826
:10031A00F1002508F00022088031412081312000B7
:10032A0025082207FB007B08860087018101260831
:10033A00A1002508A00008000310720D730DF40037
:10034A007408FA007A08031DAB29AC29B5290030D4
:10035A00F3000030F2000030F1000030F000142AFF
:10036A007008F4007108F5007208F6007308F700C7
:10037A001F30F736F60CF50CF40C890BBE297408FD
:10038A00F8007808F900F217FF30F005FF30F105A0
:10039A00FF30F2050030F3059630FA02FA1FD6292B
:1003AA00D729EF297A08803A973E0318DD29DE29F2
:1003BA00DF29AC290130F336F20CF10CF00C890B71
:1003CA00E0290130F4007408FA07031DED29EE292B
:1003DA00DF29042A20307A02031CF429F529FF298F
:1003EA00AC290130F035F10DF20DF30D890BF72927
:1003FA000130FA027A08031D032A042AF629790829
:10040A000319082A092A142AF009F109F209F30939
:10041A00F00A0319F10A0319F20A0319F30A080088
:10042A0020004608F3004508F2004408F10043089A
:10043A00F0008131A121823171082000CD007008BD
:10044A00CC004C08F0004D08F100890D893B890960
:10045A00F200F30001308231B922823173082000A0
:10046A00AB007208AA007108A9007008A800460823
:10047A00AF004508AE004408AD004308AC008F3118
:10048A003927823120002B08D3002A08D2002908F4
:10049A00D1002808D0004D08A1004C08A000470848
:1004AA00CA004A08A2000030A300A4008131382102
:1004BA00823120002108CF002008CE0048084904D4
:1004CA000319682A692AB82A2E30CA004E08470733
:1004DA00CB004B08860087014A0881005308AC000C
:1004EA005208AB005108AA005008A9004908A30005
:1004FA004808A2000A30A0000030A1008F31CB27A3
:10050A00823120002308B0002208AF002108AE0083
:10051A002008AD008531A425823120002C08D300A3
:10052A002B08D2002A08D1002908D0005308F3006A
:10053A005208F2005108F1005008F0008131A1215F
:10054A00823171082000A1007008A00047084E07F8
:10055A00013ECA004A08A2004908A4004808A300AC
:10056A008131382182310800F80078080319BE2A3F
:10057A00BF2AD32AF31FC22AC32AD32A7009FA0030
:10058A007109FB007209FC007309FD00FA0A0319DC
:10059A00FB0A0319FC0A0319FD0ADB2A7308FD008A
:1005AA007208FC007108FB007008FA0073087204F4
:1005BA0071047004031DE22AE32AEC2A0030F300D6
:1005CA000030F2000030F1000030F000642B963069
:1005DA00F4007408F900FC2A0130F4007408F907E1
:1005EA000130FD36FC0CFB0CFA0C890BF62AFE30A6
:1005FA007D05031D012B022BF12A162B0130F40075
:10060A007408F9070130FA070030FB3D0030FC3D61
:10061A000030FD3D0130FD36FC0CFB0CFA0C890B59
:10062A00102BFF307D05031D1B2B1C2B032B262BA8
:10063A000130F9020130FA35FB0DFC0DFD0D890B75
:10064A00202BFC1B292B2A2B302B02307902031872
:10065A002F2B302B1D2B7918332B342B3C2BFF30AF
:10066A00FA05FF30FB057F30FC05FF30FD0503105E
:10067A00F90C7908F400F501F601F7011830F435A0
:10068A00F50DF60DF70D890B442B7408FA0475085D
:10069A00FB047608FC047708FD0478080319562B36
:1006AA00572B5C2BF31F5A2B5B2B5C2BFD177D08FA
:1006BA00F3007C08F2007B08F1007A08F0000800D9
:1006CA00730880392000A0002008F8007335A000C4
:1006DA002008FA00F21F722B732B742B7A147A08F3
:1006EA000319782B792B892B7A0A031D7D2B7E2BF4
:1006FA00862B0030F3000030F2000030F1000030A9
:10070A00F000F217F301912B0030F3000030F200F1
:10071A000030F1000030F00077088039A00020088E
:10072A00F9007908780603199B2B9C2B9D2B7817C7
:10073A007735A0002008F900F61FA42BA52BA62BBD
:10074A00791479080319AA2BAB2BBB2B790A031D41
:10075A00AF2BB02BB82B0030F7000030F60000307A
:10076A00F5000030F400F617F701C32B0030F7004C
:10077A000030F6000030F5000030F4007A08790203
:10078A000318C82BC92B0D2C781FCC2BCD2BD12BA2
:10079A008030A0002008F8067A08A0002008FB0094
:1007AA007908A0002008FA007B08A0002008F900B8
:1007BA007008A0002008FB007408A0002008F000C0
:1007CA007B08A0002008F4007108A0002008FB00A4
:1007DA007508A0002008F1007B08A0002008F50099
:1007EA007208A0002008FB007608A0002008F2008A
:1007FA007B08A0002008F6007308A0002008FB0070
:10080A007708A0002008F3007B08A0002008F70062
:10081A00FB017908A000A1012108A3007A0820029F
:10082A00A200031CA3032308803AA40080302402F8
:10083A00031D212C1A302202031C242C252C5F2C88
:10084A007308720471047004031D2C2C2E2C0130C1
:10085A002F2C00302000A0002008FB000030F300FD
:10086A000030F2000030F1000030F0007908A000FA
:10087A002008FA00652C7B1C432C442C4B2C7B361D
:10088A0001382000A0002008FB004D2C0310FB0CAF
:10089A00701C502C512C522CFB1701302000A00048
:1008AA00F337F20CF10CF00CA00B552C0130A00020
:1008BA002008FA0779087A02031C642C652C402C5C
:1008CA00781B682C692CA32C7A08031D6D2C6E2CBE
:1008DA00772C0030F3000030F2000030F1000030D5
:1008EA00F000A32D7408F0077508F13D7608F23D73
:1008FA007708F33D731C822C832C302D7B1C862CAD
:10090A00872C8E2C7B3601382000A0002008FB00A3
:10091A00902C0310FB0C701C932C942C952CFB1719
:10092A0001302000A000F337F20CF10CF00CA00B00
:10093A00982C0130A0002008FA07302D7308803A5D
:10094A002000A0007708803A2002031DB62C760802
:10095A007202031DB62C75087102031DB62C7408A9
:10096A0070020318B92CBA2CF22CFF30A000FF3009
:10097A00A100FF30A200FF30A30070087402A40097
:10098A007108753BA5007208763BA6007308773B91
:10099A00A7002408A0072508A13D2608A23D27088C
:1009AA00A33D2308F3002208F2002108F1002008E1
:1009BA00F0008030A0002008F806FB09FB0A7B083B
:1009CA00031DE82CE92CFA2C0130F0070030F13D28
:1009DA000030F23D0030F33DFA2C7408F00275083D
:1009EA00F13B7608F23B7708F33B73087204710413
:1009FA007004031D012D022D2C2D7B08031D062DCD
:100A0A00072D2C2D0030F3000030F2000030F100E9
:100A1A000030F000A32D0130F035F10DF20DF30D89
:100A2A00890B112DFB1F1A2D1B2D1C2D70147B1CDD
:100A3A001F2D202D232D0314FB0D252D0310FB0D37
:100A4A007A080319292D2A2D2C2D0130FA02F21FBA
:100A5A002F2D302D102DF901FB1F342D352D432D4F
:100A6A007B087F3903193A2D3B2D3E2DF901F90AEE
:100A7A00432D701C412D422D432D3B2D790803191E
:100A8A00472D482D762D0130F0070030F13D00301A
:100A9A00F23D0030F33D731C532D542D762D700812
:100AAA002000A0007108A1007208A2007308A30028
:100ABA000130A400A337A20CA10CA00CA40B5F2D3B
:100ACA002308F3002208F2002108F1002008F000B0
:100ADA007A0A0319712D722D762D0130A000200893
:100AEA00FA077A0A03197A2D7B2D802D7A08031DBD
:100AFA007F2D802D8E2D0030F3000030F200003063
:100B0A00F1000030F0007A08031D8C2D8D2D8E2DFA
:100B1A00F8017A1C912D922D942DF217992D7F3080
:100B2A002000A0002008F2057A362000A000200844
:100B3A00F300F81FA12DA22DA32DF3170800200002
:100B4A002C088039B1003108B6002C35B1003108C3
:100B5A00BC00AB1FB12DB22DB32D3C143C080319B8
:100B6A00B72DB82DC72D3C0A031DBC2DBD2DC52D93
:100B7A000030AC000030AB000030AA000030A90001
:100B8A00AB17CF2D0030AC000030AB000030AA000C
:100B9A000030A90030088039B1003108B606303576
:100BAA00B1003108BB00AF1FDB2DDC2DDD2D3B145E
:100BBA003B080319E12DE22DF12D3B0A031DE62D19
:100BCA00E72DEF2D0030B0000030AF000030AE004E
:100BDA000030AD00AF17F92D0030B0000030AF0083
:100BEA000030AE000030AD003B080319FD2DFE2D8C
:100BFA00032E3C08031D022E032E0C2E0030AC00DF
:100C0A000030AB000030AA000030A900FA2F2908F2
:100C1A00B1003108F0002F088F317C278531710827
:100C2A002000C2007008C1004108B100B201B3013E
:100C3A00B4013408BA003308B9003208B8003108E0
:100C4A00B7004208B100B201B301B4013408C000D0
:100C5A003308BF003208BE003108BD002A08B100BF
:100C6A003108F0002E088F317C2785317108200069
:100C7A00C2007008C1004108B100B201B301B40159
:100C8A003108B7073208B83D3308B93D3408BA3DD0
:100C9A004208B100B201B301B4013108BD073208FC
:100CAA00BE3D3308BF3D3408C03D2B08B1003108B2
:100CBA00F0002D088F317C27853171082000C20091
:100CCA007008C1004108B100B201B301B401310892
:100CDA00B7073208B83D3308B93D3408BA3D42086F
:100CEA00B100B201B301B4013108BD073208BE3DFB
:100CFA003308BF3D3408C03D0830B735B80DB90DCB
:100D0A00BA0D890B822E2A08B1003108F0002D088D
:100D1A008F317C27853171082000C2007008C1001C
:100D2A004108B7074208B83D0030B93DBA3D290825
:100D3A00B1003108F0002E088F317C278531710807
:100D4A002000C2007008C1004108B7074208B83D38
:100D5A000030B93DBA3D0830B735B80DB90DBA0DF6
:100D6A00890BB12E2908B1003108F0002D088F3106
:100D7A007C27853171082000C2007008C100410833
:100D8A00B7074208B83D0030B93DBA3D2A08B1005C
:100D9A003108F0002F088F317C2785317108200037
:100DAA00C2007008C1004108BD074208BE3D0030BC
:100DBA00BF3DC03D2B08B1003108F0002E088F312D
:100DCA007C27853171082000C2007008C1004108E3
:100DDA00BD074208BE3D0030BF3DC03D2B08B100F3
:100DEA003108F0002F088F317C27853171082000E7
:100DFA00C2007008C1004108B1004208B200B30144
:100E0A00B4010830B135B20DB30DB40D890B072FFB
:100E1A003108BD073208BE3D3308BF3D3408C03D26
:100E2A003708B1003808B2003908B3003A08B400EC
:100E3A001830B436B30CB20CB10C890B1E2F310822
:100E4A00BD073208BE3D3308BF3D3408C03D0830F7
:100E5A00B735B80DB90DBA0D890B2D2F3C083B07D4
:100E6A00B100B201B20D3108823EC100FF30323DFD
:100E7A00C200562F0130BD35BE0DBF0DC00D890B06
:100E8A00402FBA1F492F4A2F4B2F3D140130B73537
:100E9A00B80DB90DBA0D890B4C2FFF30C107FF30C1
:100EAA00C23DBF1F592F5A2F3F2FBB01BA1F5E2FBA
:100EBA005F2F7B2FFF303705B100FF303805B200B6
:100ECA00FF303905B3007F303A05B40034083304E3
:100EDA00320431040319722F732F762FBB01BB0A18
:100EEA007B2F3D1C792F7A2F7B2F732F3B080319F9
:100EFA007F2F802FA82F0130BD070030BE3D003064
:100F0A00BF3D0030C03D401C8B2F8C2FA82F3D08C1
:100F1A00B1003E08B2003F08B3004008B4000130F7
:100F2A00B500B437B30CB20CB10CB50B962F34081C
:100F3A00C0003308BF003208BE003108BD000130CE
:100F4A00C1070030C23D4208803AB1008030310208
:100F5A00031DB12FFF304102031CB42FB52FBF2F41
:100F6A007F302000C0008030BF000030BE0000305B
:100F7A00BD00EE2F20004208803AB10080303102D5
:100F8A00031DC92F013041020318CC2FCD2FD82FB2
:100F9A0000302000C0000030BF000030BE0000302A
:100FAA00BD00B601EE2F20004108B1003108BC0097
:100FBA00FF30BD05FF30BE057F30BF050030C005DC
:100FCA003C1CE82FE92FEA2FBF173C36B100310845
:100FDA00C0003608B1003108C0044008AC003F0820
:100FEA00AB003E08AA003D08A90008002000EE0157
:060FFA00200080310C28EC
:101D2E00163021009700080071082100A1007008EC
:101D3E00A000080071082100A5007008A40008008A
:101D4E0071082100A3007008A2000800F000200016
:101D5E00111EB22EB32EAE2E700823009A0008006C
:101D6E004030240094000130950001309200210093
:101D7E000D13240095120800F1008E31D1268E31FC
:101D8E00003A0319CB2ECC2ED02E71088E31AD26F3
:101D9E008E310800F0012000111ED62ED72EDE2E19
:101DAE0023009E1EDB2EDC2EDE2EF001F00A7008C4
:101DBE0008008E31B7268E318F311E278E3180313D
:101DCE0005208E318E3197268E318F3159278E31E7
:101DDE000800F300F201731CF52EF62EFA2E700891
:101DEE00F1007108F2070310F00D0310F30C7308E5
:101DFE00031D022F032FF22E72080800F400740840
:101E0E00F2007208F3000F2F0130F2007208F4078F
:101E1E007408860087010108031D162F172F0B2F3C
:101E2E0073087402F000F101F01BF10308002200A8
:101E3E008C018D018E013F3021008C00B0308D0061
:101E4E007B308E004F3023008E008D0117308C00BA
:101E5E0024008D018C018E012100951722009D0119
:101E6E009E01080080302000AB062F08F3002E08DC
:101E7E00F2002D08F1002C08F0002B08F7002A08BC
:101E8E00F6002908F5002808F400833165238F3108
:101E9E0073082000AB007208AA007108A900700830
:101EAE00A8000800083023009F0090309D002430C9
:101EBE009E00A0309B0001309C000030F0000030EE
:101ECE00F1008E31A1268F310030F0000030F1008C
:101EDE008E31A7268F310030F0000030F1008E31A8
:101EEE009B268F312000EE010800F800F401F50169
:101EFE007008F200F3017208F6007308F700781C00
:101F0E00892F8A2F8E2F7608F4077708F53D01303A
:101F1E00F635F70D890B8F2F0310F80C7808031D7B
:101F2E00992F9A2F862F7508F1007408F00008007B
:101F3E00F70077088F3105278F317008F500750887
:101F4E00F600F801C02F78087707F50075088600AF
:101F5E00870101088E31C3268F311A30F500F83013
:101F6E00890BB72FF50BB72F00320130F50075082E
:101F7E00F80776087802031CC52FC62FAA2F0A3041
:101F8E008E31C3268F3108002000A801A80ADF2F4A
:101F9E002808A4002408F00020088E31F0268F3186
:101FAE002000A5002508A8000130A2020030A33BA6
:101FBE0022082304031DE42FE52FCF2F2808A400A9
:101FCE00A501A601A7012708F3002608F20025089F
:101FDE00F1002408F00000308231B9228F317308ED
:101FEE002000A3007208A2007108A1007008A000D2
:0A1FFE0008000134403401340034BF
:020000040001F9
:08000000FF3FFF3FFF3FFF3F00
:04000E00E43FFF3E8E
:00000001FF
