:1000000080311928003008007E1480318B190B1CB8
:100010000D288831B720803117280B1F17282100A1
:10002000911C17282000911C1728893122217E104D
:10003000090080311B28C03084008B308500A0303F
:1000400086000030870022308831D520803164302E
:1000500084000030850008308831CF208031C230E4
:100060008400003085001F308831CF20803120305F
:1000700084000130850020308831CF207E102000A0
:100080008931AB2923088039F9007908A800233584
:10009000F9007908AE00A21B2E142E0803195D2862
:1000A0002E0A031D5B280030A3000030A2000030A0
:1000B000A1000030A000A21765280030A300003086
:1000C000A2000030A1000030A00027088039F9000C
:1000D0007908A8062735F9007908A900A61B291474
:1000E000290803198028290A031D7E280030A7004B
:1000F0000030A6000030A5000030A400A617882814
:100100000030A7000030A6000030A5000030A40099
:100110002908031D2E08031D96280030A300003077
:10012000A2000030A1000030A00008002008F90063
:100130007908F00026088B31012380317108B40062
:100140007008B3003308F900FA01FB01FC017C08D8
:10015000AD007B08AC007A08AB007908AA0034082F
:10016000F900FA01FB01FC017C08B2007B08B10038
:100170007A08B0007908AF002108F9007908F0008A
:1001800025088B31012380317108B4007008B30059
:100190003308F900FA01FB01FC017908AA077A0883
:1001A000AB3D7B08AC3D7C08AD3D3408F900FA015D
:1001B000FB01FC017908AF077A08B03D7B08B13D2F
:1001C0007C08B23D2208F9007908F00024088B3140
:1001D000012380317108B4007008B3003308F900BE
:1001E000FA01FB01FC017908AA077A08AB3D7B08FC
:1001F000AC3D7C08AD3D3408F900FA01FB01FC017F
:100200007908AF077A08B03D7B08B13D7C08B23D64
:100210000830AA35AB0DAC0DAD0D890B09292108AD
:10022000F9007908F00024088B310123803171082E
:10023000B4007008B3003308AA073408AB3D00309F
:10024000AC3DAD3D2008F9007908F00025088B3160
:10025000012380317108B4007008B3003308AA0785
:100260003408AB3D0030AC3DAD3D0830AA35AB0D98
:10027000AC0DAD0D890B36292008F9007908F00086
:1002800024088B31012380317108B4007008B30059
:100290003308AA073408AB3D0030AC3DAD3D210822
:1002A000F9007908F00026088B31012380317108AC
:1002B000B4007008B3003308AF073408B03D003015
:1002C000B13DB23D2208F9007908F00025088B31D4
:1002D000012380317108B4007008B3003308AF0700
:1002E0003408B03D0030B13DB23D2208F900790834
:1002F000F00026088B31012380317108B4007008AA
:10030000B3003308F9003408FA00FB01FC0108309F
:10031000F935FA0DFB0DFC0D890B88297908AF071B
:100320007A08B03D7B08B13D7C08B23D2D08F9004C
:10033000FA01FB01FC017908AF077A08B03D7B08A0
:10034000B13D7C08B23D0830AA35AB0DAC0DAD0D0A
:10035000890BA4292E082907F900FA01FA0D79085A
:10036000823EB300FF307A3DB400B11BCC2901308E
:10037000AF35B00DB10DB20D890BB829AD1B2F14DF
:100380000130AA35AB0DAC0DAD0D890BC129FF3085
:10039000B307FF30B43DB529A901AD1FE529FF30F2
:1003A0002A05F900FF302B05FA00FF302C05FB0071
:1003B0007F302D05FC007C087B047A047904031946
:1003C0002F18E329E529A901A90A290803190E2AEA
:1003D0000130AF070030B03D0030B13D0030B23DDC
:1003E000321C0E2A2F08F9003008FA003108FB00F1
:1003F0003208FC000130FD00FC37FB0CFA0CF90C54
:10040000FD0BFC297C08B2007B08B1007A08B00023
:100410007908AF000130B3070030B43D3408803AAA
:10042000F90080307902031D172AFF303302031CC4
:10043000232A7F302000B2008030B1000030B000AD
:100440000030AF004D2A20003408803AF900803097
:100450007902031D2D2A0130330203183A2A003095
:100460002000B2000030B1000030B0000030AF001A
:10047000A8014D2A20003308F9007908AE00FF30AA
:10048000AF05FF30B0057F30B1050030B2052E1842
:10049000B1172E36F9007908B2002808F90079085A
:1004A000B2043208A3003108A2003008A1002F08CE
:1004B000A000080073088039A0002008F8007335F8
:1004C000A0002008FA00F21B7A147A080319762A91
:1004D0007A0A031D732A0030F3000030F200003066
:1004E000F1000030F000F217F3017E2A0030F30033
:1004F0000030F2000030F1000030F0007708803961
:10050000A0002008F90079087806031D78177735D0
:10051000A0002008F900F61B7914790803199E2A17
:10052000790A031D9B2A0030F7000030F6000030E6
:10053000F5000030F400F617F701A62A0030F700A6
:100540000030F6000030F5000030F4007A0879023F
:100550000318EC2A781FB02A8030A0002008F80683
:100560007A08A0002008FB007908A0002008FA0003
:100570007B08A0002008F9007008A0002008FB00FC
:100580007408A0002008F0007B08A0002008F400F8
:100590007108A0002008FB007508A0002008F100E9
:1005A0007B08A0002008F5007208A0002008FB00CE
:1005B0007608A0002008F2007B08A0002008F600C2
:1005C0007308A0002008FB007708A0002008F300B3
:1005D0007B08A0002008F700FB017908A000A1011A
:1005E0002108A3007A082002A200031CA303230809
:1005F000803AA40080302402031D002B1A3022020E
:10060000031C362B730872047104700403190A2B3F
:1006100001300B2B00302000A0002008FB00003030
:10062000F3000030F2000030F1000030F0007908F3
:10063000A0002008FA003A2B7B1C252B7B360138C2
:100640002000A0002008FB00272B0310FB0C7018D3
:10065000FB1701302000A000F337F20CF10CF00C76
:10066000A00B2C2B0130A0002008FA0779087A0291
:10067000031C1C2B781B6D2B7A08031D482B0030A4
:10068000F3000030F2000030F1000030F00008000C
:100690007408F0077508F13D7608F23D7708F33DE0
:1006A000731CE82B7B1C5B2B7B3601382000A000E1
:1006B0002008FB005D2B0310FB0C7018FB170130AA
:1006C0002000A000F337F20CF10CF00CA00B622B11
:1006D0000130A0002008FA07E82B7308803A2000B8
:1006E000A0007708803A2002031D802B7608720252
:1006F000031D802B75087102031D802B7408700286
:100700000318B82BFF30A000FF30A100FF30A2007B
:10071000FF30A30070087402A4007108753BA500A7
:100720007208763BA6007308773BA7002408A00751
:100730002508A13D2608A23D2708A33D2308F30074
:100740002208F2002108F1002008F0008030A0000B
:100750002008F806FB09FB0A7B08031DC02B0130AB
:10076000F0070030F13D0030F23D0030F33DC02B8A
:100770007408F0027508F13B7608F23B7708F33B0A
:100780007308720471047004031DE62B7B08031DBB
:10079000E62B0030F3000030F2000030F1000030B2
:1007A000F00008000130F035F10DF20DF30D890B6A
:1007B000D32BFB1B70147B1CDF2B0314E02B0310CB
:1007C000FB0D7A080319E62B0130FA02F21FD22B37
:1007D000F901FB1FF32B7B087F3903197018F12BEC
:1007E000F32BF901F90A79080319202C0130F007DD
:1007F0000030F13D0030F23D0030F33D731C202C01
:1008000070082000A0007108A1007208A2007308FF
:10081000A3000130A400A337A20CA10CA00CA40BD0
:100820000B2C2308F3002208F2002108F100200815
:10083000F0007A0A0319202C0130A0002008FA07E2
:100840007A0A031D7A08031D302C0030F3000030B3
:10085000F2000030F1000030F0007A080319F801CE
:100860007A1C342CF217392C7F302000A00020088D
:10087000F2057A362000A0002008F300F81F0800D7
:10088000F31708003C088039BD003D08C6003C3520
:10089000BD003D08CD00BB1B4D144D0803195E2C57
:1008A0004D0A031D5B2C0030BC000030BB00003043
:1008B000BA000030B900BB17BC01662C0030BC0088
:1008C0000030BB000030BA000030B9003808803971
:1008D000BD003D08C6063835BD003D08CE00B71B3B
:1008E0004E144E080319822C4E0A031D7F2C003033
:1008F000B8000030B7000030B6000030B500B717C0
:10090000B8018A2C0030B8000030B7000030B600C3
:100910000030B5003808370436043504031DA92C0F
:100920000030BC000030BB000030BA000030B9001D
:100930008030BB047F30BC044608BD003D08BC04C9
:100940003C08B8003B08B7003A08B6003908B500C3
:1009500008004D08031DB52C0030B8000030B7006A
:100960000030B6000030B50008004D08BD00BE01E3
:100970003E08C0004E083D02BF00031CC0033F08F4
:100980007F3EC7000030403DC8003C08C5003B0822
:10099000C4003A08C3003908C2000030BC0000306F
:1009A000BB000030BA000030B9000030CC0000308D
:1009B000CB000030CA000030C900CE011A304E0210
:1009C00003181A2D4E080319FC2C0130C235C30D33
:1009D000C40DC50D890BE62C0130B935BA0DBB0D20
:1009E000BC0D890BED2CCC1B39140130C935CA0D57
:1009F000CB0DCC0D890BF62C38084502031D0A2DB2
:100A000037084402031D0A2D36084302031D0A2D30
:100A100035084202031C152D4C173508C202360852
:100A2000C33B3708C43B3808C53B0130BD003D0817
:100A3000CE07DE2C4508440443044204031D491438
:100A4000BB1B372D0130B935BA0DBB0DBC0D890B61
:100A5000232DCC1B39140130C935CA0DCB0DCC0D5B
:100A6000890B2C2DFF30C707FF30C83D202DCE014C
:100A7000CC1F502DFF304905BD00FF304A05BE0098
:100A8000FF304B05BF007F304C05C00040083F04DD
:100A90003E043D04031939184E2D502DCE01CE0AC7
:100AA0004E080319792D0130B9070030BA3D0030E6
:100AB000BB3D0030BC3D3C1C792D3908BD003A08D7
:100AC000BE003B08BF003C08C0000130C100C03779
:100AD000BF0CBE0CBD0CC10B672D4008BC003F080D
:100AE000BB003E08BA003D08B9000130C70700301E
:100AF000C83D4808803ABD0080303D02031D822D6C
:100B0000FF304702031C912DFF302000C70000304A
:100B1000C8000030BC000030BB000030BA0000301C
:100B2000B90020004808803ABD0080303D02031D16
:100B30009B2D013047020318A92D2000C701C801D1
:100B40000030BC000030BB000030BA000030B900FB
:100B5000C60120004708BD003D08CD004D1CB22D48
:100B6000BB17B62D7F30BD003D08BB054D36BD001F
:100B70003D08BC009C2C7D08093E860001308700A2
:100B80000108803AA0007D080E3E860001308700F3
:100B90000103FF3A803AA0020318F92D7D080A3EAE
:100BA0008600013087000130810741310318810A36
:100BB0007D080A3E860001308700403FA000413F8B
:100BC000A10000302102413003192002031C372EFE
:100BD0007D080A3E8600013087000030C03FC13FDB
:100BE0007D0886000130870001088C31D0248531D2
:100BF000372E7D08093E8600013087000108A000DD
:100C0000A101A01BA1037D080E3E860001308700D4
:100C10002108803A803C031D0F2E20080102031892
:100C20002F2E02302000A0007D08023E86000130F9
:100C30008700200881007D080A3E86000130870079
:100C40000030C03FC13F7D088600013087000108A9
:100C5000A0002008F000883198208531372E7D08CB
:100C60000A3E8600013087000030C03FC13F7D084A
:100C70000C3E8600013087000130810741310318A6
:100C8000810A7D080C3E8600013087001600403A3C
:100C90002000A0001600A004031D08007D080C3EE3
:100CA0008600013087000030C03FC13F7D0886319B
:100CB0005A260800F6008B1FA42E8B137608053EDB
:100CC000860001308700403FF000413FF100423F85
:100CD000F200433FF3000430F336F20CF10CF00C59
:100CE000890B6C2E7608053E86000130870070085F
:100CF000810241317108813B41317208813B4131B0
:100D00007308813B7D317608033E86000130870001
:100D1000403FF000413FF1007008F2007108F3001D
:100D2000F401F5017608053E86000130870072085F
:100D3000810741317308813D41317408813D413162
:100D40007508813D8B1708007608053E8600013046
:100D50008700403FF000413FF100423FF200433F37
:100D6000F3000430F336F20CF10CF00C890BB22EC8
:100D70007608053E86000130870070088102413107
:100D80007108813B41317208813B41317308813BDD
:100D90007D317608033E860001308700403FF00039
:100DA000413FF1007008F2007108F300F401F50111
:100DB0007608053E860001308700720881074131C0
:100DC0007308813D41317408813D41317508813D91
:100DD0000800A0002008053E860001308700403F43
:100DE000F000413FF100423FF200433FF300043086
:100DF000F336F20CF10CF00C890BF82E2008033EB0
:100E0000860001308700403FF400413FF500740840
:100E1000F6007508F700F801F9017008F60271088C
:100E2000F73B7208F83B7308F93B7908A40078088F
:100E3000A3007708A2007608A1002108F00022088C
:100E4000F1002308F2002408F30020080F3E86007A
:100E500001308700010A302FF337F20CF10CF00C4F
:100E6000890B2C2F7308A4007208A3007108A2003C
:100E70007008A100A41B522F2408031D492F23082A
:100E8000031D492F2208031D492F80302102031C16
:100E9000522F00302000A4000030A3000030A20038
:100EA0007F30A1002000A41F682F80302102FF3076
:100EB000223BFF30233BFF30243B0318682FFF30D9
:100EC0002000A400FF30A300FF30A2008030A1006A
:100ED00020002108F0002008093E8600013087002C
:100EE0007008810008004230B8004830B700003078
:100EF000B6000030B5004030A300A030A2000030A2
:100F0000A1000030A0005D08A7005C08A6005B08F7
:100F1000A5005A08A4008031422087312308BC0074
:100F20002208BB002108BA002008B90084314224FD
:100F300087313808D2003708D1003608D00035088C
:100F4000CF004130D6002030D5000030D400003032
:100F5000D3008A31E32287315208E1005108E000D2
:100F60005008DF004F08DE006108A7006008A600F7
:100F70005F08A5005E08A4004430A3007A30A200F8
:100F80000030A1000030A0008031422087312308CA
:100F9000BC002208BB002108BA002008B90042307A
:100FA000B800C830B7000030B6000030B50084315A
:100FB000422487313808D2003708D1003608D000E3
:100FC0003508CF008F319B275008E3004F08E2001F
:100FD0006308DB006208DA000800B030F100710835
:100FE000F200B930F10072087102031C08007208A7
:100FF0008831E22087310930F1007108F207F12FC2
:10112A0008000800080008000800013008008A3199
:10113A005122080016302100970008007108E400C7
:10114A007008E30008007108E6007008E50008006E
:10115A0021009D0190309E0008007108E20070088D
:10116A00E10008002700131D080089313A21080010
:10117A0071082100E8007008E70008007030990043
:10118A00980122009601080071082100EA007008FF
:10119A00E9000800640080010131890BD02800347D
:1011AA00FE0012001E00FE0BD628003410309E00EE
:1011BA009B019C0101309D000800F0007008083E68
:1011CA008600870181100800F0007008083E86003A
:1011DA00870101150800F0007008083E86008701A3
:1011EA0001110800F0007008083E8600870181148A
:1011FA000800F0007003031D04290E1608000E12E1
:10120A000800F0007003031D0C298E1508008E11CA
:10121A000800F0007003031D152922000E150800AE
:10122A0022000E1108006708F0007008F10071082A
:10123A00031908000130F1021C29911021006108EC
:10124A0062040319080062088A0061080A008931E9
:10125A00080089316E2189318A31AE22893187317C
:10126A00ED2789318831AD200800210069086A0418
:10127A00031944296A088A0069080A008931270083
:10128A0013110800F1007108F000F00DF00D2100B3
:10129A001D087006833970069D001D140800FB00A6
:1012AA008B1F5D298B137B088D3143258B17080013
:1012BA007B088D3143250800F000700803196C295A
:1012CA007008083E860087010108013908000030CD
:1012DA000800F90179088931DD2189310130F800E6
:1012EA007808F90702307902031808006F29AA0161
:1012FA002A088D31DD25893101302000A90029080D
:10130A00AA0702302A02031808007D29C7302000E4
:10131A009B009A019110210091149630F000083038
:10132A00F1008831B22020009C0108006B1C9F2923
:10133A006B36A5296B36F0007008EB006B08B43ADF
:10134A00F0007008EB006B080F3908008A31272279
:10135A0089318C3105248931013089310E21893155
:10136A008B170B178A313C228931B729F300F20116
:10137A00731CC3297008F1007108F2070310F00DFD
:10138A000310F30C7308031DBD2972080800F50049
:10139A0002307502031808000930F4007408F000DE
:1013AA0075088931BB21B83E8600870101140800FF
:1013BA00F70077088931CC2189310930F60076089F
:1013CA00F00077088931BB218931B03E8831E220AB
:1013DA000800F000700A86008701403FAC00413FD8
:1013EA00AD007008033E86008701403FAA00413FD6
:1013FA00AB000800F500023075020318112A093003
:10140A00F4007408F00075088931BB21B83E8600E3
:10141A008701010C0139080000300800A9012908D8
:10142A008D3190258A31003A03191D2A00300800AF
:10143A000130A8002808A90702302902031C142A2F
:10144A00013008008C3150248A318831C3208A3116
:10145A0088319F208A318831DB208A3189318B217A
:10146A008A318B3120238A3189312E2108008B3130
:10147A00E2238A31013A031D080001308A31C82269
:10148A008A31013A031D4D2A013089310E210800A3
:10149A00003089310E210800F4017408F30003308A
:1014AA00F335FF3E031D552A7335203E8C3129241E
:1014BA008A310130F3007308F4070230740203180A
:1014CA000800522AF7000230770203187B2A0930F3
:1014DA00F6007608F00077088931BB21B63E86000F
:1014EA008701403FF400413FF5000800F401F5018F
:1014FA0008007108803AF20080307202031D872AC0
:10150A0001307002031808007009F2007109F30033
:10151A00F20A0319F30A7208F0007308F1000800CE
:10152A00F0008B1FA42A8B137008063E86008701E1
:10153A0021005E08C03F5F08C13F8B170800700892
:10154A00063E8600870121005E08C03F5F08C13F52
:10155A0008000030F0009030F1002030F200003036
:10156A00F30020308C3178248A31FB017B088C31DE
:10157A00D0248A310130FA007A08FB0702307B0254
:10158A0003180800BB2AF100023071020318E12A8D
:10159A007108F0000330F035FF3E031DD02A703584
:1015AA00223E86000130870002300106031DDF2A31
:1015BA000130080000300800003008008030D206F0
:1015CA005608F3005508F2005408F1005308F000D9
:1015DA005208F7005108F6005008F5004F08F400C9
:1015EA0082315A2273082000D2007208D100710891
:1015FA00D0007008CF000800F800F401F501700867
:10160A00F200F3017208F6007308F700781C112B38
:10161A007608F4077708F53D0130F635F70D890BA2
:10162A00122B0310F80C7808031D0B2B7508F10018
:10163A007408F0000800083023009F0090309D00D5
:10164A0024309E00CF309B009C010030F000003017
:10165A00F1008831BD208B310030F0000030F100FC
:10166A008831A8208B310030F0000030F100883139
:10167A00A320E001080022000E17210021309D005E
:10168A000530890B462B00008E308400003085001F
:10169A000E30860001308700253080179D00003209
:1016AA0000320032003221009D1400320000220074
:1016BA008E178013080022008E17210025309D0006
:1016CA000530890B662B00008E30840000308500BF
:1016DA000E30860001308700213000179D0000324D
:1016EA0000320032003221009D1400320000220034
:1016FA000E170013080022000E13210021309D004E
:10170A000530890B862B00008E308400003085005E
:10171A000E30860001308700253080179D00003288
:10172A0000320032003221009D14003200002200F3
:10173A008E138013080022008E13210025309D008D
:10174A000530890BA62B00008E30840000308500FE
:10175A000E30860001308700213000179D000032CC
:10176A0000320032003221009D14003200002200B3
:10177A000E13001308003A340F34BB340534DB343B
:10178A000E349834083498340834A0340B34603456
:10179A000B3499340834003460340B34A0340B34DD
:1017AA002034003400340034013440340B348034A3
:1017BA000B34203400340034003420006408031948
:1017CA00EB2B89312E218B312000E401E501E50A5A
:1017DA008A3113228B31003A031DF52B00300800A1
:1017EA0089317C218B31803102208B31AB002B086F
:1017FA00E5008731ED278B3188319C2001300800C4
:10180A00003089310E218C310030893106218C312A
:10181A0000308831FE208C318E120A3089314721FE
:10182A008C3141302000DD00C830DC000030DB00A4
:10183A000030DA00873173275B082100DB002000C3
:10184A005A082100DA000800F2007208023E8600F7
:10185A000130870002300106031D080072080A3EA3
:10186A008600013087000130810741310318810A5F
:10187A0072080A3E86000130870016000104031D23
:10188A00080072080A3E860001308700FF30C03F18
:10189A00FF30C13F080022008C018D018E012F30DC
:1018AA0021008C0070308D0003308E00033023003D
:1018BA008E0010308D0003308C0024008D0104301E
:1018CA008C008E012100951322009D019E012700A4
:1018DA001311121111159530F0000830F1008831FA
:1018EA00C9208B150800F8007108F6007008F50089
:1018FA007808F4007408F9000130F2020030F33B72
:10190A00720A0319730A0319080075088400760815
:10191A0085000008F4007408F7000130F50700306C
:10192A00F63D7708F40079088600013087007408CC
:10193A0081000130F4007408F907812CFC007C0A4C
:10194A0086000130870001088A3167228C317408C9
:10195A00F8007508F900FA01FB017C08053E8600CB
:10196A00013087007808C03F7908C13F7A08C23F32
:10197A007B08C33F7C08053E86000130870004309F
:10198A0081354131810D4131810D4131810D7D31E9
:10199A00890BC52C0800F2007208F0000330F035FC
:1019AA00FF3E031DD42C7035203EF1007108F30070
:1019BA007308023E86000130870081017308053EE4
:1019CA008600013087000030C03F0030C13FC23F6F
:1019DA00C33F73080A3E8600013087000030C03FCB
:1019EA00C13F73080C3E8600013087000030C03FBB
:1019FA00C13F730A860001308700010888319720A9
:101A0A000800A2000530A0002008A10022088931A0
:101A1A0061218D31003A031D1B2D00300800013071
:101A2A00A1022108031D1B2DFC30080022088E315B
:101A3A002F268D31003A031D142D2208063E8600FA
:101A4A008701403F21005E02F000413F5F3BF10009
:101A5A008A317E228D31003071026530031970029D
:101A6A00031C3D2D200022088831E9208D31122DDA
:101A7A00200022088831F0208D31122DFA007A08D0
:101A8A00023E860001308700010803197F2D7A087B
:101A9A00033E860001308700403FF800413FF900CD
:101AAA00F936F80CF936F80C7A08033E860001304C
:101ABA0087007808810241317908813B7F317A0AAF
:101ACA0086000130870001088A3167227408F8000D
:101ADA007508F900F936F80CF936F80C7A08033E5D
:101AEA008600013087007808810741317908813DF5
:101AFA007F3108007A0A86000130870001088A319E
:101B0A0067227A08033E8600013087007408C03FC6
:101B1A007508C13F0800A5000930A3002308F0009A
:101B2A0025088931BB218D31B03E2000A40024084C
:101B3A00A70027088D3106258D31A3002308A600AA
:101B4A00BE2D2708893161218D31003A0319DB2D19
:101B5A0027088A3195228D31200027088831F720FD
:101B6A008D312508A3002308F000883199208D3192
:101B7A00DB2D2608A300A401A31BA4032408003A12
:101B8A000319CB2DFF3A0319D02DDB2D2308003A78
:101B9A000319A62DDB2D2308FD3A0319DB2D033A81
:101BAA000319DB2D013A0319DB2DDB2D260808006A
:101BBA00A7002708A5000330A535FF3E031DE12D28
:101BCA002535203EA6002608A800280A86000130EE
:101BDA00870001088931FF218D31003A0319080075
:101BEA002000280A860001308700010888319A20DF
:101BFA008D31003A031908002808893154218D31A2
:101C0A00200028088631E9268D312808023E860000
:101C1A000130870003300102031C1B2E28088600AE
:101C2A000130870001088C31D0248D31200028082A
:101C3A00A5002508FD002808023E8600013087001D
:101C4A000135A03E86008701413F8A00403F0A00D5
:101C5A008E310800FD00FC0121001D08F8007808FB
:101C6A00F9001E08F8007808FA008831AD208E3194
:101C7A0000308B1B0130FB007D088931EE218E314B
:101C8A007D08860087010108F80078082000E9002D
:101C9A007D0886008701453FE8002100DE01DF015B
:101CAA0020006A1089319B218E31F8007808E700FC
:101CBA002100DE01DF012000EA108B138E3182261B
:101CCA008E317B0C031C8B1303188B178931182157
:101CDA008E3121009D186E2E20006A1C622E790812
:101CEA0021009D007A089E002000EA1C802EFA300E
:101CFA00F8007808FC007C08080021001C08F7009E
:101D0A001B08F60020006A1808006808031D9C2EAC
:101D1A00D32E21002D088A002C080A008E31AD2E00
:101D2A0021002B088A002A080A008E31AD2E680885
:101D3A000139F400F5017508003A0319A52EAD2EF4
:101D4A007408003A03198E2E013A0319952EAD2E06
:101D5A000930F4007408F000200069088931BB21B9
:101D6A008E31B53E860087010108200068060319F6
:101D7A00CF2E681CCA2E0030F4000430F500760815
:101D8A007402F6007708753BF70076082100DE0733
:101D9A007708DF3D01302000E802080076082100BC
:101DAA00DE077708DF3D20006A1408007D080A3E36
:101DBA00860001308700403FA000413FA100033068
:101DCA002102E83003192002031CFF2E7D08860039
:101DDA000130870001088C31D0248E317D088600BD
:101DEA000130870001082000A0002008F000883197
:101DFA00982008007D08093E860001308700010806
:101E0A00803AA0007D080E3E8600013087007D08DA
:101E1A000E3E84000130850000360102803AA0029D
:101E2A00031808007D08023E860001308700810100
:101E3A00810A7D080A3E8600013087000030C03FD3
:101E4A00C13F7D080C3E860001308700FF30C03F4D
:101E5A00FB30C13F7D088600013087000108A000E1
:101E6A002008F0008831982008007D080A3E860084
:101E7A0001308700403FA000413FA100003021020D
:101E8A0009300319200203184F2F7D088C31A3242F
:101E9A008F31532F7D0886315A268F317D080A3EAD
:101EAA008600013087000130810741310318810A19
:101EBA007D080A3E860001308700403F2000A000CE
:101ECA00413FA10000302102103003192002031CF7
:101EDA0008007D08053E860001308700403FA000CB
:101EEA00413FA100423FA200433FA3000430A33672
:101EFA00A20CA10CA00C890B7C2F7D08033E860046
:101F0A00013087002008C03F2108C13F7D08023EFA
:101F1A008600013087008101810A7D080A3E860019
:101F2A00013087000030C03FC13F08000310510D47
:101F3A00520DD3005308D9005908031DAD2F0030A4
:101F4A00D2000030D1000030D0000030CF000800AD
:101F5A004F08D3005008D4005108D5005208D600C3
:101F6A001F30D636D50CD40CD30C890BB62F530898
:101F7A00D7005708D800D117FF30CF05FF30D0055A
:101F8A00FF30D1050030D2059630D902D91FE02F93
:101F9A005908803A973E031CA42F0130D236D10C3F
:101FAA00D00CCF0C890BD32F0130D3005308D9079B
:101FBA000319F12FD22F203059020318A42F5908E0
:101FCA000319F12F0130CF35D00DD10DD20D890B68
:101FDA00E82F0130D902E42F580803190800CF0965
:101FEA00D009D109D209CF0A0319D00A0319D10A93
:101FFA000319D20A080000340034003400340034D3
:10200A000034003400340034003400340034003426
:10201A0000346434013401340134003400340034AF
:10202A000034003400340034003400340034003406
:10203A0000346434013460344234A2340D34003440
:10204A000034C834423400340034A03440340034FC
:10205A00003420344134CD34CC3414344234003486
:08206A000034C8344234003494
:020000040001F9
:08000000FF3FFF3FFF3FFF3F00
:04000E00E43DFF3E90
:00000001FF
