:1000000080312D28080008007E1480318B190B1CCC
:100010000D289A31B32280312B280B1F2B28210069
:10002000931C19282000931C19289B3150238031E0
:100030002B282100911C23282000911C23289B3170
:10004000442380312B282100111C2B282000111C57
:100050002B288731EC277E10090080312F2839307A
:1000600084009B30850064308600013087000B30AF
:100070009A31E32280317C3084009C308500A030AE
:1000800086000130870018309A31E3228031FA016E
:10009000FB012100EF014330840001308500213055
:1000A0009A31DD228031B83084000130850014306F
:1000B0009A31DD22803120308400023085004030CA
:1000C0009A31DD227E102000913124292200590826
:1000D000031D7A28D901D90A00302000A000A10010
:1000E0009F315127803121082200CC0020002008B8
:1000F0002200CB0001309B315C23803101309C31E8
:100100003824803152084C06031D882851084B06BC
:10011000031D08006E03031D0800482E4130220015
:10012000BA002030B9000030B8000030B70092317A
:100130001B228031DC302000A0000530A1009F315F
:10014000512721082200CC00200020082200CB00EB
:10015000080041302200BA003030B9000030B80049
:100160000030B70092311B228031DC302000A0002B
:100170000530A1009F31512721082200CC0020002A
:1001800020082200CB00080041302200BA00403095
:10019000B9000030B8000030B70092311B22803126
:1001A000DC302000A0000530A1009F31512721083C
:1001B0002200CC00200020082200CB0008004130A3
:1001C0002200BA005030B9000030B8000030B7004B
:1001D00092311B228031DC302000A0000530A100CC
:1001E0009F31512721082200CC0020002008220046
:1001F000CB00080041302200BA006030B900003066
:10020000B8000030B70092311B228031DC30200072
:10021000A0000530A1009F31512721082200CC0009
:10022000200020082200CB00080041302200BA0044
:100230007030B9000030B8000030B70092311B2296
:100240008031DC302000A0000530A1009F31512713
:1002500021082200CC00200020082200CB0008004A
:1002600041302200BA008030B9000030B8000030C0
:10027000B70092311B228031DC302000A000053015
:10028000A1009F31512721082200CC002000200826
:100290002200CB00080041302200BA008830B900AB
:1002A0000030B8000030B70092311B228031DC30C2
:1002B0002000A0000530A1009F3151272108220015
:1002C000CC00200020082200CB0008004130220092
:1002D000BA009030B9000030B8000030B700923159
:1002E0001B228031DC302000A0000530A1009F31AE
:1002F000512721082200CC00200020082200CB003A
:10030000080041302200BA009830B9000030B8002F
:100310000030B70092311B228031DC302000A00079
:100320000530A1009F31512721082200CC00200078
:1003300020082200CB00080041302200BA00A03083
:10034000B9000030B8000030B70092311B22803174
:10035000DC302000A0000530A1009F31512721088A
:100360002200CC00200020082200CB0008004130F1
:100370002200BA00A830B9000030B8000030B70041
:1003800092311B228031DC302000A0000530A1001A
:100390009F31512721082200CC0020002008220094
:1003A000CB00080041302200BA00B030B900003064
:1003B000B8000030B70092311B228031DC302000C1
:1003C000A0000530A1009F31512721082200CC0058
:1003D000200020082200CB00080041302200BA0093
:1003E000B830B9000030B8000030B70092311B229D
:1003F0008031DC302000A0000530A1009F31512762
:1004000021082200CC00200020082200CB00080098
:1004100041302200BA00C030B9000030B8000030CE
:10042000B70092311B228031DC302000A000053063
:10043000A1009F31512721082200CC002000200874
:100440002200CB00080041302200BA00C830B900B9
:100450000030B8000030B70092311B228031DC3010
:100460002000A0000530A1009F3151272108220063
:10047000CC00200020082200CB00080041302200E0
:10048000BA00D030B9000030B8000030B700923167
:100490001B228031DC302000A0000530A1009F31FC
:1004A000512721082200CC00200020082200CB0088
:1004B000080041302200BA00D830B9000030B8003E
:1004C0000030B70092311B228031DC302000A000C8
:1004D0000530A1009F31512721082200CC002000C7
:1004E00020082200CB00080041302200BA00E03092
:1004F000B9000030B8000030B70092311B228031C3
:10050000DC302000A0000530A1009F3151272108D8
:100510002200CC00200020082200CB00080041303F
:100520002200BA00E830B9000030B8000030B7004F
:1005300092311B228031DC302000A0000530A10068
:100540009F31512721082200CC00200020082200E2
:10055000CB00080041302200BA00F030B900003072
:10056000B8000030B70092311B228031DC3020000F
:10057000A0000530A1009F31512721082200CC00A6
:10058000200020082200CB00080041302200BA00E1
:10059000F430B9000030B8000030B70092311B22AF
:1005A000803188302000A0001330A1009F315127F6
:1005B00021082200CC00200020082200CB000800E7
:1005C00041302200BA00F830B9000030B8000030E5
:1005D000B70092311B22803188302000A0001330F8
:1005E000A1009F31512721082200CC0020002008C3
:1005F0002200CB00080041302200BA00FC30B900D4
:100600000030B8000030B70092311B2280318830B2
:100610002000A0001330A1009F31512721082200A3
:10062000CC00200020082200CB000800423022002D
:10063000BA000030B9000030B8000030B700923185
:100640001B22803188302000A0001330A1009F3190
:10065000512721082200CC00200020082200CB00D6
:10066000080042302200BA000230B9000030B80061
:100670000030B70092311B22803188302000A0006A
:100680001330A1009F31512721082200CC00200007
:1006900020082200CB00080042302200BA000430BB
:1006A000B9000030B8000030B70092311B22803111
:1006B00088302000A0001330A1009F31512721086D
:1006C0002200CC00200020082200CB00080042308D
:1006D0002200BA000630B9000030B8000030B70080
:1006E00092311B22803188302000A0001330A100FD
:1006F0009F31512721082200CC0020002008220031
:10070000CB00080042302200BA000830B9000030A7
:10071000B8000030B70092311B22803188302000B1
:10072000A0001330A1009F31512721082200CC00E6
:10073000200020082200CB00080042302200BA002E
:100740000A30B9000030B8000030B70092311B22E7
:10075000803188302000A0001330A1009F31512744
:1007600021082200CC00200020082200CB00080035
:1007700042302200BA000C30B9000030B80000301E
:10078000B70092311B22803188302000A000133046
:10079000A1009F31512721082200CC002000200811
:1007A0002200CB00080042302200BA001430B90009
:1007B0000030B8000030B70092311B228031C430C5
:1007C0002000A0000930A1009F31512721082200FC
:1007D000CC00200020082200CB000800423022007C
:1007E000BA001C30B9000030B8000030B7009231B8
:1007F0001B228031C4302000A0000930A1009F31AD
:10080000512721082200CC00200020082200CB0024
:10081000080042302200BA002430B9000030B8008D
:100820000030B70092311B228031C4302000A0007C
:100830000930A1009F31512721082200CC0020005F
:1008400020082200CB00080042302200BA002C30E1
:10085000B9000030B8000030B70092311B2280315F
:10086000C4302000A0000930A1009F315127210889
:100870002200CC00200020082200CB0008004230DB
:100880002200BA003430B9000030B8000030B700A0
:1008900092311B228031C4302000A0000930A10019
:1008A0009F31512721082200CC002000200822007F
:1008B000CB00080042302200BA003C30B9000030C2
:1008C000B8000030B70092311B228031C4302000C4
:1008D000A0000930A1009F31512721082200CC003F
:1008E000200020082200CB00080042302200BA007D
:1008F0004430B9000030B8000030B70092311B22FC
:100900008031C4302000A0000930A1009F31512760
:1009100021082200CC00200020082200CB00080083
:1009200042302200BA004C30B9000030B80000302C
:10093000B70092311B228031C4302000A000093062
:10094000A1009F31512721082200CC00200020085F
:100950002200CB00080042302200BA005430B90017
:100960000030B8000030B70092311B228031C43013
:100970002000A0000930A1009F315127210822004A
:10098000CC00200020082200CB00080042302200CA
:10099000BA005C30B9000030B8000030B7009231C6
:1009A0001B228031C4302000A0000930A1009F31FB
:1009B000512721082200CC00200020082200CB0073
:1009C000080042302200BA006430B9000030B8009C
:1009D0000030B70092311B228031C4302000A000CB
:1009E0000930A1009F31512721082200CC002000AE
:1009F00020082200CB00080042302200BA006C30F0
:100A0000B9000030B8000030B70092311B228031AD
:100A1000C4302000A0000930A1009F3151272108D7
:100A20002200CC00200020082200CB000800423029
:100A30002200BA007430B9000030B8000030B700AE
:100A400092311B228031F4302000A0000130A1003F
:100A50009F31512721082200CC00200020082200CD
:100A6000CB00080042302200BA007C30B9000030D0
:100A7000B8000030B70092311B228031F4302000E2
:100A8000A0000130A1009F31512721082200CC0095
:100A9000200020082200CB00080042302200BA00CB
:100AA0008230B9000030B8000030B70092311B220C
:100AB0008031F4302000A0000130A1009F31512787
:100AC00021082200CC00200020082200CB000800D2
:100AD00042302200BA008630B9000030B800003041
:100AE000B70092311B228031F4302000A000013089
:100AF000A1009F31512721082200CC0020002008AE
:100B00002200CB00080042302200BA008A30B9002F
:100B10000030B8000030B70092311B228031F43031
:100B20002000A0000130A1009F31512721082200A0
:100B3000CC00200020082200CB0008004230220018
:100B4000BA008E30B9000030B8000030B7009231E2
:100B50001B228031F4302000A0000130A1009F3121
:100B6000512721082200CC00200020082200CB00C1
:100B7000080042302200BA009230B9000030B800BC
:100B80000030B70092311B228031F4302000A000E9
:100B90000130A1009F31512721082200CC00200004
:100BA00020082200CB00080042302200BA00963014
:100BB000B9000030B8000030B70092311B228031FC
:100BC000F4302000A0000130A1009F3151272108FE
:100BD0002200CC00200020082200CB000800423078
:100BE0002200BA009A30B9000030B8000030B700D7
:100BF00092311B228031F4302000A0000130A1008E
:100C00009F31512721082200CC002000200822001B
:100C1000CB00080042302200BA009E30B9000030FC
:100C2000B8000030B70092311B228031F430200030
:100C3000A0000130A1009F31512721082200CC00E3
:100C4000200020082200CB00080001309B31102337
:100C5000803101309B31062380310B302100EE00C2
:100C60002630ED005D30890B332EED0B332EEE0B6D
:100C7000332E003200309B310623803100309C310E
:100C80003824803100309B315C232200EE010800C3
:100C90005A08DA0A2100ED00EE016E08003A031945
:100CA000522EF62E6D08003A03198E28013A0319C8
:100CB000A928033A0319C428013A0319DF28073A7F
:100CC0000319FA28013A03191529033A031930299F
:100CD000013A03194B290F3A03196629013A0319FE
:100CE0008129033A03199C29013A0319B729073AC4
:100CF0000319D229013A0319ED29033A0319082AE5
:100D0000013A0319232A1F3A03193E2A013A03190B
:100D1000592A033A0319742A013A03198F2A073A08
:100D20000319AA2A013A0319C52A033A0319E02A2A
:100D3000013A0319FB2A0F3A0319162B013A03193A
:100D4000312B033A03194C2B013A0319672B073A4D
:100D50000319822B013A03199D2B033A0319B82B6F
:100D6000013A0319D32B3F3A0319EE2B013A031929
:100D7000092C033A0319242C013A03193F2C073A92
:100D800003195A2C013A0319752C033A0319902CB4
:100D9000013A0319AB2C0F3A0319C62C013A031977
:100DA000E12C033A0319FC2C013A0319172D073AD9
:100DB0000319322D013A03194D2D033A0319682DF9
:100DC000013A0319832D1F3A03199E2D013A031985
:100DD000B92D033A0319D42D013A0319EF2D073A1F
:100DE00003190A2E013A0319252EF62E0800B10127
:100DF0002030860000308700473FF200F21F222F8C
:100E00002000A009A109A209A309A409A509A6090E
:100E1000A709A00A031D1F2FA10A031D1F2FA20A45
:100E2000031D1F2FA30A031D1F2FA40A031D1F2F1D
:100E3000A50A031D1F2FA60A031D1F2FA70A2000A6
:100E4000B101B10A2830860000308700473FF20028
:100E5000F21F4E2F2000A809A909AA09AB09AC0965
:100E6000AD09AE09AF09A80A031D492FA90A031D40
:100E7000492FAA0A031D492FAB0A031D492FAC0AAB
:100E8000031D492FAD0A031D492FAE0A031D492F2B
:100E9000AF0A0130F20072082000B106323086003D
:100EA000003087000830F20000301E00F20B552F92
:100EB00020002008210422042304240425042604FD
:100EC00027040319B92FB001B00AA71B742FA0354E
:100ED000A10DA20DA30DA40DA50DA60DA70D01300A
:100EE000F2007208B007652FB235B30DB40DB50D21
:100EF000B60DB70DB80DB90D27082F02031D9A2F97
:100F000026082E02031D9A2F25082D02031D9A2F55
:100F100024082C02031D9A2F23082B02031D9A2F4D
:100F200022082A02031D9A2F21082902031D9A2F45
:100F300020082802031CAD2F2008A8022108A93B85
:100F40002208AA3B2308AB3B2408AC3B2508AD3B59
:100F50002608AE3B2708AF3B3214A736A60CA50CDB
:100F6000A40CA30CA20CA10CA00C0130B002031D18
:100F7000742F31080319DA2FB209B309B409B5097E
:100F8000B609B709B809B909B20A031DDA2FB30ABD
:100F9000031DDA2FB40A031DDA2FB50A031DDA2F59
:100FA000B60A031DDA2FB70A031DDA2FB80A031D8C
:100FB000DA2FB90A20003208A0003308A100340853
:100FC000A2003508A3003608A4003708A500380899
:100FD000A6003908A7000800111023004F08F100EF
:100FE0004E08F0009B318E23873123004C084D04BE
:100FF000031908004D088A004C080A0087310800D0
:1010000008007408031D7408031D0A287208803143
:10101000032008007408033E8600870116000104BF
:1010200003192D287408033E86008701403FF50010
:10103000413FF600740A86008701403FF700413FB8
:10104000F8007808803AF9007608803A7902031DA2
:101050002B2875087702031808007208F500740839
:1010600086008701740A8400850100080107F600E4
:10107000760886000130870075088100740A8600B2
:1010800087010130810741310318810A0800F4010A
:101090002830860000308700473FF200F21F712899
:1010A0002000A809A909AA09AB09AC09AD09AE0934
:1010B000AF09A80A031D6F28A90A031D6F28AA0AF1
:1010C000031D6F28AB0A031D6F28AC0A031D6F2890
:1010D000AD0A031D6F28AE0A031D6F28AF0AF40185
:1010E000F40A2030860000308700473FF200F21FEC
:1010F00098282000A009A109A209A309A409A5090B
:10110000A609A709A00A031D9828A10A031D98286B
:10111000A20A031D9828A30A031D9828A40A031DE8
:101120009828A50A031D9828A60A031D9828A70A2F
:10113000200020082104220423042404250426047A
:1011400027040319F028F301F30AA71BB428A035DC
:10115000A10DA20DA30DA40DA50DA60DA70D013087
:10116000F2007208F307A52827082F02031DD228D2
:1011700026082E02031DD22825082D02031DD22881
:1011800024082C02031DD22823082B02031DD22879
:1011900022082A02031DD22821082902031DD22871
:1011A00020082802031CE4282008A8022108A93BE3
:1011B0002208AA3B2308AB3B2408AC3B2508AD3BE7
:1011C0002608AE3B2708AF3BA736A60CA50CA40CFF
:1011D000A30CA20CA10CA00C0130F302031DB42837
:1011E000740803191129A809A909AA09AB09AC09AE
:1011F000AD09AE09AF09A80A031D1129A90A031DEB
:101200001129AA0A031D1129AB0A031D1129AC0AD1
:10121000031D1129AD0A031D1129AE0A031D112951
:10122000AF0A20002808A0002908A1002A08A2006F
:101230002B08A3002C08A4002D08A5002E08A6004A
:101240002F08A700080043088039C8004808D000CC
:101250004335C8004808D200C21B52145208031973
:101260003F29520A031D3C290030C3000030C20050
:101270000030C1000030C000C217C3014729003050
:10128000C3000030C2000030C1000030C000470879
:101290008039C8004808D10051085006031D501776
:1012A0004735C8004808D100C61B5114510803191E
:1012B0006729510A031D64290030C7000030C600A9
:1012C0000030C5000030C400C617C7016F290030C8
:1012D000C7000030C6000030C5000030C40052080E
:1012E00051020318B529501F79298030C8004808D9
:1012F000D0065208C8004808D3005108C800480862
:10130000D2005308C8004808D1004008C800480867
:10131000D3004408C8004808C0005308C800480863
:10132000C4004108C8004808D3004508C800480860
:10133000C1005308C8004808C5004208C800480852
:10134000D3004608C8004808C2005308C80048082F
:10135000C6004308C8004808D3004708C80048082A
:10136000C3005308C8004808C700D3015108C8008B
:10137000C9014908CB0052084802CA00031CCB032C
:101380004B08803ACC0080304C02031DC9291A302A
:101390004A02031CFD292000430842044104400482
:1013A0000319D4290130D5290030C8004808D300DA
:1013B0000030C3000030C2000030C1000030C00067
:1013C0005108C8004808D200022A531CED295336A0
:1013D0000138C8004808D300EF290310D30C401887
:1013E000D3170130C800C337C20CC10CC00CC80BE6
:1013F000F3290130C8004808D207200051085202E2
:10140000031CE529501B332A5208031D102A003003
:10141000C3000030C2000030C1000030C00008002E
:101420004408C0074508C13D4608C23D4708C33DC2
:10143000431CAD2A531C222A53360138C8004808E1
:10144000D300242A0310D30C4018D3170130C8004E
:10145000C337C20CC10CC00CC80B282A0130C8000D
:101460004808D207AD2A4308803AC8004708803AA6
:101470004802031D452A46084202031D452A450825
:101480004102031D452A4408400203187D2AFF300B
:10149000C800FF30C900FF30CA00FF30CB00400851
:1014A0004402CC004108453BCD004208463BCE00FB
:1014B0004308473BCF004C08C8074D08C93D4E08BC
:1014C000CA3D4F08CB3D4B08C3004A08C20049083B
:1014D000C1004808C0008030C8004808D006D309C1
:1014E000D30A5308031D852A0130C0070030C13DCF
:1014F0000030C23D0030C33D852A4408C002450883
:10150000C13B4608C23B4708C33B43084204410471
:101510004004031DAB2A5308031DAB2A0030C3004F
:101520000030C2000030C1000030C00008000130AF
:10153000C035C10DC20DC30D890B982AD31B4014B1
:10154000531CA42A0314A52A0310D30D520803190F
:10155000AB2A0130D202C21F972AD101D31FB82A69
:1015600053087F3903194018B62AB82AD101D10A85
:1015700051080319E42A0130C0070030C13D003092
:10158000C23D0030C33D431CE42A4008C800410866
:10159000C9004208CA004308CB000130CC00CB3759
:1015A000CA0CC90CC80CCC0BCF2A4B08C3004A0884
:1015B000C2004908C1004808C000520A0319E42AC1
:1015C0000130C8004808D207520A031D5208031D03
:1015D000F42A0030C3000030C2000030C1000030E7
:1015E000C00052080319D001521CF82AC217FC2A65
:1015F0007F30C8004808C2055236C8004808C300FA
:10160000D01F0800C317080029088039AE002E0833
:10161000B3002935AE002E08B500A81B35143508D7
:1016200003191F2B350A031D1D2B0030A9000030A4
:10163000A8000030A7000030A600A817272B003014
:10164000A9000030A8000030A7000030A6002D0837
:101650008039AE002E08B3062D35AE002E08B4003A
:10166000AC1B341434080319422B340A031D402BDD
:101670000030AD000030AC000030AB000030AA00FC
:10168000AC174A2B0030AD000030AC000030AB008E
:101690000030AA003408031D3508031D582B003004
:1016A000A9000030A8000030A7000030A600080004
:1016B0002608AE002E08F2002C089D3131258B3112
:1016C0007308BF007208BE003E08AE00AF01B00153
:1016D000B1013108B9003008B8002F08B7002E0852
:1016E000B6003F08AE00AF01B001B1013108BD0046
:1016F0003008BC002F08BB002E08BA002708AE0037
:101700002E08F2002B089D3131258B317308BF0064
:101710007208BE003E08AE00AF01B001B1012E0854
:10172000B6072F08B73D3008B83D3108B93D3F082E
:10173000AE00AF01B001B1012E08BA072F08BB3DC2
:101740003008BC3D3108BD3D2808AE002E08F2002F
:101750002A089D3131258B317308BF007208BE0005
:101760003E08AE00AF01B001B1012E08B6072F0848
:10177000B73D3008B83D3108B93D3F08AE00AF0174
:10178000B001B1012E08BA072F08BB3D3008BC3D9F
:101790003108BD3D0830B635B70DB80DB90D890B10
:1017A000CB2B2708AE002E08F2002A089D313125E8
:1017B0008B317308BF007208BE003E08B6073F08B1
:1017C000B73D0030B83DB93D2608AE002E08F20006
:1017D0002B089D3131258B317308BF007208BE0084
:1017E0003E08B6073F08B73D0030B83DB93D083068
:1017F000B635B70DB80DB90D890BF82B2608AE001C
:101800002E08F2002A089D3131258B317308BF0064
:101810007208BE003E08B6073F08B73D0030B83D2D
:10182000B93D2708AE002E08F2002C089D31312565
:101830008B317308BF007208BE003E08BA073F082C
:10184000BB3D0030BC3DBD3D2808AE002E08F20077
:101850002B089D3131258B317308BF007208BE0003
:101860003E08BA073F08BB3D0030BC3DBD3D2808DF
:10187000AE002E08F2002C089D3131258B31730803
:10188000BF007208BE003E08AE003F08AF00B001C6
:10189000B1010830AE35AF0DB00DB10D890B4A2C3A
:1018A0002E08BA072F08BB3D3008BC3D3108BD3DAE
:1018B0003908AE00AF01B001B1012E08BA072F08F8
:1018C000BB3D3008BC3D3108BD3D0830B635B70DD5
:1018D000B80DB90D890B662C35083407AE00AF0181
:1018E000AF0D2E08823EBE00FF302F3DBF00BC1B57
:1018F0008E2C0130BA35BB0DBC0DBD0D890B7A2C79
:10190000B91B3A140130B635B70DB80DB90D890BB6
:10191000832CFF30BE07FF30BF3D772CB401B91FC9
:10192000A72CFF303605AE00FF303705AF00FF3083
:101930003805B0007F303905B100310830042F047C
:101940002E0403193A18A52CA72CB401B40A3408A4
:101950000319D02C0130BA070030BB3D0030BC3D2C
:101960000030BD3D3D1CD02C3A08AE003B08AF0016
:101970003C08B0003D08B1000130B200B137B00CF6
:10198000AF0CAE0CB20BBE2C3108BD003008BC0051
:101990002F08BB002E08BA000130BE070030BF3D43
:1019A0003F08803AAE0080302E02031DD92CFF3054
:1019B0003E02031CE52C7F302000BD008030BC00BF
:1019C0000030BB000030BA000F2D20003F08803AE5
:1019D000AE0080302E02031DEF2C01303E020318B2
:1019E000FC2C00302000BD000030BC000030BB00EB
:1019F0000030BA00B3010F2D20003E08AE002E08C3
:101A0000B500FF30BA05FF30BB057F30BC050030A4
:101A1000BD053518BC173536AE002E08BD0033089D
:101A2000AE002E08BD043D08A9003C08A8003B08F4
:101A3000A7003A08A600080057082100AF002000C0
:101A400056082100AE00200055082100AD002000FE
:101A500054082100AC002F08C7002E08C6002D082E
:101A6000C5002C08C400003044052000D800003018
:101A7000210045052000D9008030210046052000C6
:101A8000DA007F30210047052000DB0080305A0655
:101A90007F3003195B0658045904031D7E2D200076
:101AA0005708C3005608C2005508C1005408C000BA
:101AB0005708A9005608A8005508A7005408A60012
:101AC0005708AD005608AC005508AB005408AA00F2
:101AD0008B3104238D312908C7002808C600270848
:101AE000C5002608C400893123214308D7004208D5
:101AF000D6004108D5004008D40008002100C71BCB
:101B00008E2D4708031DC02D4608031DC02D450816
:101B1000031DC02D013044020318C02DFF302100E9
:101B200044052000D800FF30210045052000D900E1
:101B3000FF30210046052000DA007F3021004705F4
:101B40002000DB005B085A045904580403190800FC
:101B50002100C71FC02D21302200C3000030C40067
:101B60002B30F2009830F3009B31BD237508200024
:101B7000D7007408D6007308D5007208D400080096
:101B8000210044082000D800210045082000D90089
:101B9000210046082000DA00210047082000DB0071
:101BA0001730DC00DB37DA0CD90CD80CDC0BD22D6B
:101BB0005B082100BF0020005A082100BE00200061
:101BC00059082100BD00200058082100BC003F0832
:101BD0003E043D043C04031D2F2E0030AB000030BA
:101BE000AA000030A9000030A800C61B072E013053
:101BF000C435C50DC60DC70D890BF82D0130A807DA
:101C00000030A93D0030AA3D0030AB3DF52DFF303E
:101C10002000D800FF30D900FF30DA00FF30DB00B1
:101C2000210028082000D807210029082000D93DDC
:101C300021002A082000DA3D21002B082000DB3D8E
:101C400058082100BC02200059082100BD3B20009B
:101C50005A082100BE3B20005B082100BF3B8130B9
:101C6000BC07FF30BD3DFF30BE3DFF30BF3D003003
:101C70002000D8000030D9008030DA000030DB00CE
:101C8000FF30210044052000DC00FF302100450525
:101C90002000DD007F30210046052000DE000030FE
:101CA000210047052000DF005C08D8045D08D90446
:101CB0005E08DA045F08DB045B082100C70020002F
:101CC0005A082100C600200059082100C500200044
:101CD00058082100C4003C1C752E4408C407450860
:101CE000C53D4608C63D4708C73D01302000D80025
:101CF0002100BF37BE0CBD0CBC0C2000D80B782EC9
:101D000021004408C4074508C53D4608C63D4708AC
:101D1000C73D0030A7000030A6000030A50000300D
:101D2000A4002708B3002608B2002508B100240843
:101D3000B0000130C3000030C2000030C1000030EC
:101D4000C00043084204410440040319232F400803
:101D500024072000D80021004108253D2000D9009B
:101D600021004208263D2000DA0021004308273DDB
:101D70002000DB005B082100B70020005A0821008A
:101D8000B600200059082100B500200058082100A5
:101D9000B4004708803A2000D80021003708803A74
:101DA000200058022100031DDF2E36084602031DC5
:101DB000DF2E35084502031DDF2E34084402031CC4
:101DC000132F400834072000D80021004108353D7A
:101DD0002000D90021004208363D2000DA00210011
:101DE0004308373D2000DB005B082100A7002000EE
:101DF0005A082100A600200059082100A500200053
:101E000058082100A4003408C4023508C53B360830
:101E1000C63B3708C73B4008B0074108B13D420800
:101E2000B23D4308B33D4408C4074508C53D4608D4
:101E3000C63D4708C73D0130C336C20CC10CC00CBB
:101E4000890B1C2FA12E470846044504440403199E
:101E5000902F3F30BB008030BA000030B900003016
:101E6000B8003B08F5003A08F4003908F3003808D8
:101E7000F2003F30F9008030F8000030F700003009
:101E8000F60091319F218D31031C902F3F302100AE
:101E9000BB008030BA000030B9000030B8003F30DD
:101EA000F5008030F4000030F3000030F2003B0811
:101EB000F9003A08F8003908F7003808F6009131BF
:101EC0009F218D3103186D2F02302100B0070030A3
:101ED000B13D0030B23D00308F2F01302100300580
:101EE0002000D8000030210031052000D90000304A
:101EF000210032052000DA000030210033052000E7
:101F0000DB0058082100B007200059082100B13D2E
:101F100020005A082100B23D20005B082100B33D9B
:101F2000210030082000D800210031082000D9000D
:101F3000210032082000DA00210033082000DB00F5
:101F40000130DC00DB37DA0CD90CD80CDC0BA22F0B
:101F5000003058072100C40000302000593D210006
:101F6000C500003020005A3D2100C6003F3020004F
:101F70005B3D2100C7003C082000D80021003D083F
:101F80002000D90021003E082000DA0021003F088F
:101F90002000DB001730D835D90DDA0DDB0D890BA9
:101FA000CB2F58082100C407200059082100C53D47
:101FB00020005A082100C63D20005B082100C73DD3
:101FC0004708AF004608AE004508AD004408AC0025
:101FD0002F08BB002E08BA002D08B9002C08B80045
:101FE0003B082000D70021003A082000D60021003D
:101FF00039082000D500210038082000D40008004E
:102000000800F2002000111E0228720823009A0026
:102010000800F4007408F2000330F235FF3E031D9F
:102020000D287235403EF3007308F5007508023E36
:1020300086000230870081017508053E8600023067
:1020400087000030C03F0030C13FC23FC33F75082A
:102050000A3E8600023087000030C03FC13F75084D
:102060000C3E8600023087000030C03FC13F750A39
:10207000860002308700010880310220080003102A
:10208000300D310DB20032082000EE006E08031D45
:10209000532800302200B1000030B0000030AF0003
:1020A0000030AE00080022002E08B2002F08B30056
:1020B0003008B4003108B5001F30B536B40CB30C8D
:1020C000B20C890B5D283208B60036082000ED00FE
:1020D0002200B017FF30AE05FF30AF05FF30B0056E
:1020E0000030B10596302000EE02EE1F8C286E08FD
:1020F000803A973E031C492801302200B136B00CCB
:10210000AF0CAE0C890B7D280130B20032082000E4
:10211000EE0703199F287C2820306E0203184928F7
:102120006E0803199F2801302200AE35AF0DB00DA7
:10213000B10D890B942801302000EE0290286D0823
:10214000031908002200AE09AF09B009B109AE0AAF
:102150000319AF0A0319B00A0319B10A08009A312A
:10216000932290319B31CE23903175082200AD002F
:102170007408AC002D082100D60022002C08210094
:10218000D5009E31C326903158082200A3002100BB
:1021900057082200A200210056082200A1002100B9
:1021A00055082200A00023082100D80022002208A0
:1021B0002100D700220021082100D600220020089B
:1021C0002100D5009F31A127903158082200A70097
:1021D000210057082200A600210056082200A50071
:1021E000210055082200A40027082100D800220061
:1021F00026082100D700220025082100D600220051
:1022000024082100D5009431142458082200AB0082
:10221000210057082200AA00210056082200A90028
:10222000210055082200A8002B082100EC00220004
:102230002A082100EB00220029082100EA002200E0
:1022400028082100E90008000030A000A1009F310B
:102250005127913121082200C000200020082200CF
:10226000BF009C31F92491319C31AD2491318B1701
:102270000B17E930F2001A30F3009A31C522913180
:10228000B930F2001A30F3009A31CB22913171301B
:10229000F2001D30F3009A31D12291319430F200D6
:1022A0001C30F3009A31D722913180316620913170
:1022B000220052084006031D5F2951083F06031DF6
:1022C00055299031AF2091316C082200B1002100D6
:1022D0006B082200B00021006A082200AF00210034
:1022E00069082200AE0090313F20913122002F0872
:1022F000C2002E08C10020302100A0009830A100AB
:10230000220042082100A300220041082100A2006F
:10231000B8309D31DF259131B8309E315E26913144
:10232000F430A0000130A1009F31512791312108E4
:102330002200C000200020082200BF0055290030E4
:1023400072052000A00000307305A10080307405E4
:10235000A2007F307505A300230822042104200475
:10236000031DBA290030F5000030F4000030F300FE
:102370000030F20000307605A00000307705A100A3
:1023800080307805A2007F307905A300230822045D
:1023900021042004031DD4290030F9000030F80086
:1023A0000030F7000030F600F51FEE290030A000E5
:1023B0000030A1000030A2008030A3007208A0020B
:1023C0007308A13B7408A23B7508A33B2308F500E2
:1023D0002208F4002108F3002008F200F91F082A5F
:1023E0000030A0000030A1000030A2008030A30027
:1023F0007608A0027708A13B7808A23B7908A33BA6
:102400002308F9002208F8002108F7002008F60048
:102410008030F5068030F90679087502031D080042
:1024200078087402031D080077087302031D080072
:1024300076087202080042302000E3004830E200D3
:102440000030E1000030E0004030A900A030A800DA
:102450000030A7000030A60022003A082000AD009E
:10246000220039082000AC00220038082000AB0010
:10247000220037082000AA008B310423923129085A
:10248000E7002808E6002708E5002608E400963162
:10249000292692316308D7006208D6006108D5006A
:1024A0006008D4004130DB002030DA000030D90071
:1024B0000030D8009D311425923157082200BE000B
:1024C000200056082200BD00200055082200BC0054
:1024D000200054082200BB003E082000AD0022006E
:1024E0003D082000AC0022003C082000AB00220088
:1024F0003B082000AA004430A9007A30A800003030
:10250000A7000030A6008B31042392312908E70090
:102510002808E6002708E5002608E4004230E3002A
:10252000C830E2000030E1000030E000963129269A
:10253000923163082200B100200062082200B0003E
:10254000200061082200AF00200060082200AE00D9
:1025500090313F2022002F08D4002E08D30008001D
:102560002000A0002008031DF51FC62A7209A20042
:102570007309A3007409A4007509A500A20A031930
:10258000A30A0319A40A0319A50ACE2A7508A500EF
:102590007408A4007308A3007208A20075087404EC
:1025A00073047204031DDD2A0030F5000030F400CE
:1025B0000030F3000030F20008009630F600760894
:1025C000A100FE3025050319042B0130F600760822
:1025D000A1070130A536A40CA30CA20C890BEA2A92
:1025E000E12A0130F6007608A1070130A207003089
:1025F000A33D0030A43D0030A53D0130A536A40C1C
:10260000A30CA20C890BFE2AFF3025050319162BFB
:10261000F12A02302102031C182B0130A1020130E3
:10262000A235A30DA40DA50D890B102BA41F092BFA
:102630002118222BFF30A205FF30A3057F30A4050F
:10264000FF30A5050310A10C2108F600F701F801E1
:10265000F9011830F635F70DF80DF90D890B2A2B15
:102660007608A2047708A3047808A4047908A504CE
:102670002008031DF51F3D2BA5172508F50024088C
:10268000F4002308F3002208F2000800E7005808CD
:1026900086008701403FDA00413FDB005A08840092
:1026A0005B0885001200253A031DF12B58088600AF
:1026B00087010130810741310318810A2200C701D7
:1026C000C801FA01FB01FF30C900FF30CA00200039
:1026D000580886008701403FDA00413FDB005A0876
:1026E00084005B0885001200643A0319862B5808A1
:1026F00086008701403FDA00413FDB005A08840032
:102700005B0885001200693A031DBF2B580886003C
:1027100087010130810741310318810A5908860079
:10272000870101088400850102308107003FDA003B
:10273000013FDB005A08DF005B08E000890D893BA0
:102740008909E100E200E300E400E500E6005F083B
:10275000BA006008BB006108BC006208BD006308E5
:10276000BE006408BF006508C0006608C1006708B5
:102770009431E4243B08D9003A08D80008005808EE
:1027800086008701403FDA00413FDB005A088400A1
:102790005B0885001200253A031DE62B58088600C9
:1027A00087010130810741310318810A2530F20089
:1027B0000030F3006708DA005A08F400883101207D
:1027C00001302000D8000030D900080058088600E9
:1027D00087010130810741310318810AD801D901ED
:1027E0000800580886008701403FDA00413FDB00BF
:1027F0005A0884005B0885000008DC00DD015C08E5
:10280000F2005D08F3006708DE005E08F40088311E
:10281000012093312000580886008701013081078C
:1028200041310318810AE02B37302000C300933078
:10283000C2008330C1001730C000B230A900C630DA
:10284000A8006D30A7007030A600210058082000B5
:10285000AD00210057082000AC00210056082000E0
:10286000AB00210055082000AA008B3104239431CD
:102870002908C7002808C6002708C5002608C40084
:1028800089312321943143082100E00020004208CF
:102890002100DF00200041082100DE002000400868
:1028A0002100DD0060082000D70021005F08200023
:1028B000D60021005E082000D50021005D08200020
:1028C000D4008D311C25943157082100E4002000EC
:1028D00056082100E300200055082100E2002000F6
:1028E00054082100E100B5302000E3009B30E200F5
:1028F0000530E1007F30E000BB30C3008030C20013
:102900001130C1003230C000210064082000C7002F
:10291000210063082000C600210062082000C500D5
:10292000210061082000C40089312321943143082B
:10293000E7004208E6004108E5004008E40096315F
:102940002926943163082100E80020006208210054
:10295000E700200061082100E60020006008210057
:10296000E500C2302000C3001430C200CC30C100EA
:10297000CD30C000210068082000C7002100670892
:102980002000C600210066082000C500210065085F
:102990002000C4008931232143082100DC002000ED
:1029A00042082100DB00200041082100DA0020005D
:1029B00040082100D9005C08D8005B08D7005A08FD
:1029C000D6005908D5000800C5003A08CE003B08DB
:1029D000CF003C08D0003D08D1003E08D2003F089F
:1029E000D3004008D4004108D5004E3086000030A6
:1029F0008700473FC200C21FFF2C0130002D00306E
:102A00002000C300C4014308CC004408CD004C089A
:102A10004D040319292DCE09CF09D009D109D209B6
:102A2000D309D409D509CE0A031D292DCF0A031DC8
:102A3000292DD00A031D292DD10A031D292DD20AC3
:102A4000031D292DD30A031D292DD40A031D292D69
:102A5000D50A2200CA1B302DFD30FA05FF30FB05D8
:102A60004A08803A2000C20080304202031D3B2DFC
:102A70000130220049020318432D01302000C80014
:102A80000030C9004B2D22004A082000C900220056
:102A900049082000C800220048082000CB0022007E
:102AA00047082000CA004C084D04031D592D7A1D0B
:102AB0005D2DFF30CA07FF30CB3D1F30D600003000
:102AC000D7002400BF01EE2D20004E084F04500413
:102AD00051045204530454045504031D872D49081E
:102AE000803AC20080304202031D782D0130480236
:102AF0000318872D20004B08803AC2008030420224
:102B0000031D842D01304A020318FA1CFA2DFF30F0
:102B10002000D607FF30D73D0A30A000A101A20156
:102B2000A301A401A501A601A7014E08A8004F0812
:102B3000A9005008AA005108AB005208AC00530885
:102B4000AD005408AE005508AF00883147209431DD
:102B50002108F6002008F5009C31652494317508A1
:102B6000303E2000C2005608203E8600023087001A
:102B700042088100FF30C807FF30C93DFF30CA0757
:102B8000FF30CB3D0A30A000A101A201A301A401A6
:102B9000A501A601A7014E08A8004F08A9005008EA
:102BA000AA005108AB005208AC005308AD0054080D
:102BB000AE005508AF008631F72694312008CE00CC
:102BC0002108CF002208D0002308D1002408D20019
:102BD0002508D3002608D4002708D5002000570870
:102BE000803AC20080304202031DF82D01305602A7
:102BF0000318642D20004C084D04031D012E7A1D7E
:102C0000182EFF30D607FF30D73D4C084D04031D6A
:102C10000B2E2B300C2E2D30C6000030C70046087E
:102C2000C2005608203E860002308700420881001C
:102C30005608203EC2004208A8004B08AA004A08D5
:102C4000A90045089F3104272908BB002808BA00BD
:102C5000080067088039E80068082100CC002000DF
:102C60006735E80068082100D3002000E61F3A2EEF
:102C7000210053142100530803194E2E530A031D3B
:102C80004A2E00302000E7000030E6000030E5006A
:102C90000030E4002000E617E701572E0030200046
:102CA000E7000030E6000030E5000030E400630893
:102CB0008039E80068082100CC0620006335E80070
:102CC00068082100D4002000E21F682E210054145F
:102CD0002100540803197C2E540A031D782E00305D
:102CE0002000E3000030E2000030E1000030E000AE
:102CF0002000E217E301852E00302000E3000030C1
:102D0000E2000030E1000030E0006308620461048A
:102D10006004031DA62E0030E7000030E6000030FE
:102D2000E5000030E4008030E6047F30E704210055
:102D30004C082000E8006808E7046708E30066081C
:102D4000E2006508E1006408E00008002100530883
:102D5000031DB42E00302000E3000030E2000030FC
:102D6000E1000030E000080053082000E800E9011D
:102D70006908EB002100540820006802EA00031CE7
:102D8000EB036A087F3E2100CD00003020006B3D40
:102D90002100CE00200067082100CB00200066083B
:102DA0002100CA00200065082100C9002000640835
:102DB0002100C80000302000E7000030E6000030AD
:102DC000E5000030E40000302100D2000030D100E6
:102DD0000030D0000030CF00D4011A305402031864
:102DE000402F54080319102F0130C835C90DCA0DE2
:102DF000CB0D890BF52E01302000E435E50DE60DF5
:102E0000E70D890BFC2E2100D21F082F200064142F
:102E100001302100CF35D00DD10DD20D890B092FF6
:102E20002000630821004B02031D262F20006208AA
:102E300021004A02031D262F2000610821004902BB
:102E4000031D262F2000600821004802031C392F93
:102E50005217200060082100C802200061082100EC
:102E6000C93B200062082100CA3B20006308210002
:102E7000CB3B01302000E80068082100D407ED2E8C
:102E80004B084A0449044804031D4F142000E61B64
:102E9000622F0130E435E50DE60DE70D890B4A2F71
:102EA0002100D21F552F2000641401302100CF359E
:102EB000D00DD10DD20D890B562FFF30CD07FF302D
:102EC000CE3D462F2100D401D21F842FFF304F0565
:102ED0002000E800FF30210050052000E900FF300D
:102EE000210051052000EA007F302100520520001A
:102EF000EB006B086A046904680403196418812FE5
:102F0000842F2100D401D40A210054080319B02FC2
:102F100001302000E4070030E53D0030E63D0030A0
:102F2000E73D671CB02F6408E8006508E900660803
:102F3000EA006708EB000130EC00EB37EA0CE90C23
:102F4000E80CEC0B9D2F6B08E7006A08E6006908A7
:102F5000E5006808E40001302100CD070030CE3DD7
:102F600021004E08803A2000E80080306802031DEE
:102F7000BC2FFF3021004D02031CCC2FFF3021005D
:102F8000CD000030CE0000302000E7000030E60029
:102F90000030E5000030E40021004E08803A2000B7
:102FA000E80080306802031DD82F013021004D0257
:102FB0000318E82F2100CD01CE0100302000E700EA
:102FC0000030E6000030E5000030E4002100CC01D4
:102FD00021004D082000E80068082100D300531CA0
:102FE000F42F2000E617F92F7F302000E800680852
:102FF000E605210053362000E8006808E700972E18
:103000000034003400340034003400340034003420
:1030100000340034003400340034003464340134AB
:1030200001340134003400340034003400340034FE
:10303000003400340034003400340034643401348B
:10304000253464342034433465346C347334693447
:10305000753473340A34003460344234A2340D348D
:103060000034003480343F3400340034C8344234F7
:103070000034003420344134CD34CC341434423460
:0C308000FA340034FF34FF3405346434AB
:10350A000800080020001C15080020001C110800F3
:10351A0028001715080028001711080021009D141B
:10352A00080016302100970008001C08F3001B0849
:10353A00F20008007308D5007208D4000800730866
:10354A00D9007208D80008007308D7007208D6009C
:10355A00080021009D0190309E0008002700131DDD
:10356A0008009B317423080001302200D107003083
:10357A00D23D080003109D1C03140030093D0800C9
:10358A0073082300DB007208DA00080073082300BE
:10359A00CD007208CC00080073082300D30072081B
:1035AA00D200080073082300D1007208D000080076
:1035BA00640080010131890BDE2A0034FE0012000A
:1035CA001E00FE0BE42A003422005B03031D0800E0
:1035DA009A318722080010309E009B019C0101301D
:1035EA009D00080070302100990098012200960180
:1035FA000800F2007208083E860001308700811038
:10360A000800F2007203031D0D2B22000E1608009B
:10361A0022000E120800F2007203031D172B22006B
:10362A008E15080022008E110800F2007203031D95
:10363A00212B22000E15080022000E110800F201AB
:10364A00111E2C2B23009E1E2C2BF201F20A72084B
:10365A000800F3009B3124239B31003A0319080028
:10366A00730890310120080000340034003400341B
:10367A000034003400340034003400340134911032
:10368A002300520853040319080053088A005208F9
:10369A000A009B31080093102300500851040319B3
:1036AA00080051088A0050080A009B310800F200FD
:1036BA007203031D632B9A318D2208009A319022DE
:1036CA0022000E1108009B319D239B319C31DF247F
:1036DA009B319C3125249B319A31AE22080023006C
:1036EA005A085B0403197E2B5B088A005A080A00F1
:1036FA009B31270013110800F3007308F200F20D42
:10370A00F20D21001D087206833972069D001D14F0
:10371A0008002000181D982B1810710897007008CF
:10372A00960018140800710897007008960008009F
:10373A002000A10121089B31F0239B310130200098
:10374A00A0002008A10702302102031808009F2BBD
:10375A00C73020009B009A0191102100911400307B
:10376A00F2001030F3009A31D12220009C010800A7
:10377A007F30F900FF30F800FF30F700FF30F60025
:10378A007908F5007808F4007708F3007608F20063
:10379A0008009A31BF229B31003A0319CE2B9A3185
:1037AA009A227308F7007208F6007708F50076087F
:1037BA00F4000800F500F401751CE72B7208F30009
:1037CA007308F4070310F20D0310F50C7508031DB6
:1037DA00E12B74080800F90079089C3101249B3117
:1037EA000930F8007808F20079089B31DF239B3111
:1037FA00A63E9A31FE220800F7000230770203182B
:10380A0008000930F6007608F20077089B31DF23BA
:10381A00AE3E860001308700011408007C30280083
:10382A009600950120009310210093140030F200B5
:10383A000830F3009A31D722023028009700080096
:10384A00A630F3007308F400AF30F3007408730273
:10385A00031C080074089A31FE229C310930F300D7
:10386A007308F407292C2000EF006F03031D412C75
:10387A002200DB01DB0A080040302200BA00403097
:10388A00B9000030B8000030B70092311B22DB01CA
:10389A0008007308F5007208F400720886007308BD
:1038AA008700010803195E2C0130F2070030F33D4E
:1038BA00522C74087202F2007508733BF300080078
:1038CA007608803AF70080307702031D6E2C0130AB
:1038DA007502031808007509F7007609F800F70A57
:1038EA000319F80A7708F5007808F600080000348A
:1038FA00003400340034003400340034003400341E
:10390A0000340034203400340034003401340034EC
:10391A0000340034003420340034003400340130E0
:10392A002200CD070030CE3D03304E02E8300319A5
:10393A004D02031C0800CD01CE0103100E1D031415
:10394A00031CAA2C22000E15080022000E110800E2
:10395A0000309B311A239C3100309B315C239C310F
:10396A0000309B3110239C3100309B3106239C315F
:10397A0000309C3138249C318E120A309B318123CD
:10398A00080099010B309700DC30960011101708D7
:10399A002300CF00200016082300CE0021001114B6
:1039AA008630F2001A30F3009A31CB2231302000EF
:1039BA00980008000030F2009830F3002030F4003C
:1039CA000030F50040309E3106269C31F801780817
:1039DA00903109209C310130F7007708F80702304E
:1039EA00780203180800EC2C9D31B8259C319A31D5
:1039FA00F7229C319A3196229C319A31F0229C31DD
:103A0A009C3113249C319B31AD239C319C31C624BB
:103A1A009C319D3150259C319B31682308008030B0
:103A2A00D7065B08C3005A08C2005908C1005808E3
:103A3A00C0005708C7005608C6005508C5005408F4
:103A4A00C400893123214308D7004208D60041081F
:103A5A00D5004008D4000800A400A001A101720802
:103A6A00F400F5017408A2007508A300241C412D76
:103A7A002208A0072308A13D0130A235A30D890B16
:103A8A00422D0310A40C2408031D3B2D2108F3002A
:103A9A002008F2000800083023009F0090309D00A3
:103AAA0024309E00CF309B009C010030F200003091
:103ABA00F3009A31A4229D310030F2000030F30065
:103ACA009A31A9229D310030F2000030F3009A3178
:103ADA009F222200DC01080022005B03031D902DB7
:103AEA000130CF070030D03D54085002031D7F2D0E
:103AFA0053084F02031C852DCF01D0018E160800F2
:103B0A0020008E1E08002200CF01D0019A318A229D
:103B1A0022008E120800CF01D0010800A700A501DB
:103B2A00A60125082707A100210886000230870080
:103B3A000108A2002208A400240803190800240886
:103B4A00A100A2012108F2002208F3002008A30024
:103B5A002308F400883101209D3101302000A50797
:103B6A000030A63D962D8C018D018E012F3021004B
:103B7A008C0070308D0003308E00033023008E00DD
:103B8A0010308D0003308C0024008D0104308C002D
:103B9A008E012100951322009D019E012700131119
:103BAA00121111158530F2001A30F3009A31C5222C
:103BBA008B150800A800A230A4002408A700280832
:103BCA00A4002408A900AA01AB01AC01AD01210897
:103BDA002000E900210020082000E800A730210089
:103BEA00A40024082000EA00A9309E3131262100D1
:103BFA002A082807A40024088600013087008101CA
:103C0A000800A3007308A2007208A1002308F600A6
:103C1A007608A4000130F4020030F53B740A031957
:103C2A00750A031908002108840022088500000883
:103C3A00F6007608A0000130A1070030A23D200856
:103C4A00F6002408860002308700760881000130D9
:103C5A00F6007608A4070F2EED006908EF00680841
:103C6A00EE002200C501C60120006E0884006F081C
:103C7A00850012000319552E6E30EB006B08D80030
:103C8A006A08EC006C08D9006D08933146239E310E
:103C9A0058082200C507200059082200C63D392EBF
:103CAA00220046082000E900220045082000E8001A
:103CBA0008002000A2002208F2000130F3009C3123
:103CCA004E249E317308A1007208A000A3012308A4
:103CDA00F600F70121087702031D752E20087602E7
:103CEA000318080023082207F60076088600013028
:103CFA00870001089B312E239E310D30F600FC30DF
:103D0A00890B852EF60B852E0130F60076082000E9
:103D1A00A3076C2EF701F801720873040319BE2E6B
:103D2A00F901F90AF31BA32E0130F235F30D890BC1
:103D3A009A2E0130F6007608F907972E0130F735EA
:103D4A00F80D890BA42E73087502031DAE2E720896
:103D5A007402031CB52E7208F4027308F53B77143B
:103D6A000130F336F20C890BB62E0130F902031D2D
:103D7A00A32E7808F3007708F200080044302000E8
:103D8A00E3007F30E200C030E1000030E000403064
:103D9A00A900A030A8000030A7000030A60021002A
:103DAA005508F2005608F300F401F501003092318B
:103DBA00B0229E317508AD007408AC007308AB00E0
:103DCA007208AA008B3104239E312908E7002808CB
:103DDA00E6002708E5002608E4009631292663084C
:103DEA002100D800200062082100D70020006108C5
:103DFA002100D600200060082100D5000800B0008C
:103E0A007A1C0F2F3008AB002B08A00028089D3120
:103E1A0093259F31AA1B162F2A08AF002908AE0046
:103E2A00182FAE01AF01AC01AD012D08803AAB00ED
:103E3A002F08803A2B02031D242F2E082C02031868
:103E4A00382F2030F2000030F30020003008AB0099
:103E5A002B08F400883101209F3101302000AC0783
:103E6A000030AD3D1A2F7A18432F20003008AB00DE
:103E7A002B08A00028089D3193259F31200028088F
:103E8A00F2000230F3009C314E242E087207A8007B
:103E9A002F08733DA9000800FA30F2000030F30041
:103EAA002108F5002008F4009E318F269F31720800
:103EBA00AA007308AB00AC01AD012A08A2002B08C6
:103ECA00A3002C08A4002D08A500220051082000F8
:103EDA00A600220052082000A700A801A90126086E
:103EEA00A2072708A33D2808A43D2908A53D2508BF
:103EFA00031D832F01302402031C952F20002A085A
:103F0A00220051072000A2002B082200523D200067
:103F1A00A3002208013EA0000030233DA1000800B2
:103F2A0020002A08220051072000A0002B082200A6
:103F3A00523D2000A100080058082000D7002100A7
:103F4A0057082000D600210056082000D50021007D
:103F5A0055082000D4004030DB00A030DA000030E1
:103F6A00D9000030D8009D3114259F315708E3004D
:103F7A005608E2005508E1005408E0004230A90062
:103F8A00C830A8000030A7000030A6002100580859
:103F9A002000AD00210057082000AC00210056087F
:103FAA002000AB00210055082000AA008B31042311
:103FBA009F312908E7002808E6002708E5002608B7
:103FCA00E4009631292663082100DC0020006208FB
:103FDA002100DB00200061082100DA0020006008CF
:103FEA002100D9005C08D8005B08D7005A08D6001F
:063FFA005908D500080083
:020000040001F9
:08000000FF3FFF3FFF3FFF3F00
:04000E00E43DFF3E90
:00000001FF
