:1000000080314228003008007E1480318B1D092881
:100010000A2812280B1C0D280E2812289A31862235
:10002000803140280B1F1528162840282100931DD9
:100030001A281B2824282000931D1F282028242844
:100040009A31EA22803140282100931C282829284F
:1000500032282000931C2D282E2832289A31DB22AA
:10006000803140282100911C362837284028200064
:10007000911C3B283C2840289A31CC2280314028D2
:100080007E10090080314428EA3084009D308500CC
:10009000A03086000030870022309031002080316F
:1000A000693084000030850007309A315D2280314C
:1000B000C2308400003085000C309A315D228031DE
:1000C000203084000130850020309A315D2280315B
:1000D0007E1020009F31352F2000E4000A30640696
:1000E000031D732875288B313B2B4130DD002030F8
:1000F000DC000030DB000030DA00923188228031F1
:100100000B302000E3002630E2005D30890B8628AA
:10011000E20B8628E30B8628003241302000DD0008
:100120003030DC000030DB000030DA009231882211
:1001300080310B302000E3002630E2005D30890B77
:100140009F28E20B9F28E30B9F28003241302000BC
:10015000DD004030DC000030DB000030DA0092319E
:10016000882280310B302000E3002630E2005D3031
:10017000890BB828E20BB828E30BB82800324130CD
:100180002000DD005030DC000030DB000030DA0001
:100190009231882280310B302000E3002630E200CB
:1001A0005D30890BD128E20BD128E30BD128003236
:1001B00041302000DD006030DC000030DB0000302A
:1001C000DA009231882280310B302000E3002630A3
:1001D000E2005D30890BEA28E20BEA28E30BEA280B
:1001E000003241302000DD007030DC000030DB00E8
:1001F0000030DA009231882280310B302000E30099
:100200002630E2005D30890B0329E20B0329E30B62
:100210000329003241302000DD008030DC00003056
:10022000DB000030DA009231882280310B30200070
:10023000E3002630E2005D30890B1C29E20B1C290B
:10024000E30B1C29003241302000DD008830DC0047
:100250000030DB000030DA009231882280310B3030
:100260002000E3002630E2005D30890B3529E20BE7
:100270003529E30B3529003241302000DD00903074
:10028000DC000030DB000030DA009231882280315F
:100290000B302000E3002630E2005D30890B4E2950
:1002A000E20B4E29E30B4E29003241302000DD00E5
:1002B0009830DC000030DB000030DA009231882218
:1002C00080310B302000E3002630E2005D30890BE6
:1002D0006729E20B6729E30B6729003241302000D0
:1002E000DD00A030DC000030DB000030DA009231AD
:1002F000882280310B302000E3002630E2005D30A0
:10030000890B8029E20B8029E30B802900324130E0
:100310002000DD00A830DC000030DB000030DA0017
:100320009231882280310B302000E3002630E20039
:100330005D30890B9929E20B9929E30B9929003249
:1003400041302000DD00B030DC000030DB00003048
:10035000DA009231882280310B302000E300263011
:10036000E2005D30890BB229E20BB229E30BB2291E
:10037000003241302000DD00B830DC000030DB000E
:100380000030DA009231882280310B302000E30007
:100390002630E2005D30890BCB29E20BCB29E30B41
:1003A000CB29003241302000DD00C030DC000030BD
:1003B000DB000030DA009231882280310B302000DF
:1003C000E3002630E2005D30890BE429E20BE429EA
:1003D000E30BE429003241302000DD00C830DC00AE
:1003E0000030DB000030DA009231882280310B309F
:1003F0002000E3002630E2005D30890BFD29E20B8E
:10040000FD29E30BFD29003241302000DD00D03012
:10041000DC000030DB000030DA00923188228031CD
:100420000B302000E3002630E2005D30890B162AF5
:10043000E20B162AE30B162A003241302000DD00C1
:10044000D830DC000030DB000030DA009231882246
:1004500080310B302000E3002630E2005D30890B54
:100460002F2AE20B2F2AE30B2F2A003241302000E3
:10047000DD00E030DC000030DB000030DA009231DB
:10048000882280310B302000E3002630E2005D300E
:10049000890B482AE20B482AE30B482A00324130F4
:1004A0002000DD00E830DC000030DB000030DA0046
:1004B0009231882280310B302000E3002630E200A8
:1004C0005D30890B612AE20B612AE30B612A00325D
:1004D00041302000DD00F030DC000030DB00003077
:1004E000DA009231882280310B302000E300263080
:1004F000E2005D30890B7A2AE20B7A2AE30B7A2A32
:10050000003241302000DD00F430DC000030DB0040
:100510000030DA009231882280312E302000E30052
:10052000A930E2002F30890B932AE20B932AE30BC8
:10053000932A41302000DD00F830DC000030DB0081
:100540000030DA009231882280312E302000E30022
:10055000A930E2002F30890BAB2AE20BAB2AE30B68
:10056000AB2A41302000DD00FC30DC000030DB0035
:100570000030DA009231882280312E302000E300F2
:10058000A930E2002F30890BC32AE20BC32AE30B08
:10059000C32A42302000DD000030DC000030DB00E8
:1005A0000030DA009231882280312E302000E300C2
:1005B000A930E2002F30890BDB2AE20BDB2AE30BA8
:1005C000DB2A42302000DD000230DC000030DB009E
:1005D0000030DA009231882280312E302000E30092
:1005E000A930E2002F30890BF32AE20BF32AE30B48
:1005F000F32A42302000DD000430DC000030DB0054
:100600000030DA009231882280312E302000E30061
:10061000A930E2002F30890B0B2BE20B0B2BE30BE5
:100620000B2B42302000DD000630DC000030DB0008
:100630000030DA009231882280312E302000E30031
:10064000A930E2002F30890B232BE20B232BE30B85
:10065000232B42302000DD000830DC000030DB00BE
:100660000030DA009231882280312E302000E30001
:10067000A930E2002F30890B3B2BE20B3B2BE30B25
:100680003B2B42302000DD000A30DC000030DB0074
:100690000030DA009231882280312E302000E300D1
:1006A000A930E2002F30890B532BE20B532BE30BC5
:1006B000532B42302000DD000C30DC000030DB002A
:1006C0000030DA009231882280312E302000E300A1
:1006D000A930E2002F30890B6B2BE20B6B2BE30B65
:1006E0006B2B42302000DD001430DC000030DB00DA
:1006F0000030DA009231882280311F302000E30080
:100700007130E2001E30890B832BE20B832BE30B4D
:10071000832B000042302000DD001C30DC00003064
:10072000DB000030DA009231882280311F30200057
:10073000E3007130E2001E30890B9C2BE20B9C2BF6
:10074000E30B9C2B000042302000DD002430DC0055
:100750000030DB000030DA009231882280311F3017
:100760002000E3007130E2001E30890BB52BE20B54
:10077000B52BE30BB52B000042302000DD002C3000
:10078000DC000030DB000030DA009231882280315A
:100790001F302000E3007130E2001E30890BCE2BA9
:1007A000E20BCE2BE30BCE2B000042302000DD000D
:1007B0003430DC000030DB000030DA009231882277
:1007C00080311F302000E3007130E2001E30890BC1
:1007D000E72BE20BE72BE30BE72B00004230200076
:1007E000DD003C30DC000030DB000030DA0092310C
:1007F000882280311F302000E3007130E2001E307B
:10080000890B002CE20B002CE30B002C0000423083
:100810002000DD004430DC000030DB000030DA0076
:100820009231882280311F302000E3007130E200D5
:100830001E30890B192CE20B192CE30B192C00002C
:1008400042302000DD004C30DC000030DB000030A6
:10085000DA009231882280311F302000E3007130AD
:10086000E2001E30890B322CE20B322CE30B322CCF
:10087000000042302000DD005430DC000030DB009E
:100880000030DA009231882280311F302000E300EE
:100890007130E2001E30890B4B2CE20B4B2CE30B2A
:1008A0004B2C000042302000DD005C30DC000030CA
:1008B000DB000030DA009231882280311F302000C6
:1008C000E3007130E2001E30890B642CE20B642CD3
:1008D000E30B642C000042302000DD006430DC00BB
:1008E0000030DB000030DA009231882280311F3086
:1008F0002000E3007130E2001E30890B7D2CE20BFA
:100900007D2CE30B7D2C000042302000DD006C309C
:10091000DC000030DB000030DA00923188228031C8
:100920001F302000E3007130E2001E30890B962C4E
:10093000E20B962CE30B962C000042302000DD00E9
:100940007430DC000030DB000030DA0092318822A5
:1009500080311F302000E3007130E2001E30890B2F
:10096000AF2CE20BAF2CE30BAF2C00004230200089
:10097000DD007C30DC000030DB000030DA0092313A
:10098000882280311F302000E3007130E2001E30E9
:10099000890BC82CE20BC82CE30BC82C000042309A
:1009A0002000DD008230DC000030DB000030DA00A7
:1009B0009231882280311F302000E3007130E20044
:1009C0001E30890BE12CE20BE12CE30BE12C000043
:1009D00042302000DD008630DC000030DB000030DB
:1009E000DA009231882280311F302000E30071301C
:1009F000E2001E30890BFA2CE20BFA2CE30BFA2CE6
:100A0000000042302000DD008A30DC000030DB00D6
:100A10000030DA009231882280311F302000E3005C
:100A20007130E2001E30890B132DE20B132DE30B06
:100A3000132D000042302000DD008E30DC0000303D
:100A4000DB000030DA009231882280311F30200034
:100A5000E3007130E2001E30890B2C2DE20B2C2DAF
:100A6000E30B2C2D00008F31FF2F2000230880394D
:100A7000F9007908A8002335F9007908AE00A21F13
:100A8000422D432D442D2E142E080319482D492D97
:100A9000582D2E0A031D4D2D4E2D562D0030A3002E
:100AA0000030A2000030A1000030A000A217602D8D
:100AB0000030A3000030A2000030A1000030A000F0
:100AC00027088039F9007908A8062735F900790840
:100AD000AD00A61F6C2D6D2D6E2D2D142D08031944
:100AE000722D732D822D2D0A031D772D782D802DCB
:100AF0000030A7000030A6000030A5000030A400A0
:100B0000A6178A2D0030A7000030A6000030A500EF
:100B10000030A4002D0803198E2D8F2D942D2E0842
:100B2000031D932D942D9D2D0030A3000030A200B5
:100B30000030A1000030A0008B2F2008F9007908B8
:100B4000F00026089E310C26853171082000B40083
:100B50007008B3003308F900FA01FB01FC017C08BE
:100B6000AC007B08AB007A08AA007908A900340819
:100B7000F900FA01FB01FC017C08B2007B08B1001E
:100B80007A08B0007908AF002108F9007908F00070
:100B900025089E310C26853171082000B4007008AC
:100BA000B3003308F900FA01FB01FC017908A90739
:100BB0007A08AA3D7B08AB3D7C08AC3D3408F900BF
:100BC000FA01FB01FC017908AF077A08B03D7B0808
:100BD000B13D7C08B23D2208F9007908F0002408F4
:100BE0009E310C26853171082000B4007008B300D6
:100BF0003308F900FA01FB01FC017908A9077A081A
:100C0000AA3D7B08AB3D7C08AC3D3408F900FA01F5
:100C1000FB01FC017908AF077A08B03D7B08B13DC4
:100C20007C08B23D0830A935AA0DAB0DAC0D890B7F
:100C3000132E2108F9007908F00024089E310C26B3
:100C4000853171082000B4007008B3003308A9078B
:100C50003408AA3D0030AB3DAC3D2008F9007908CE
:100C6000F00025089E310C26853171082000B40063
:100C70007008B3003308A9073408AA3D0030AB3D23
:100C8000AC3D0830A935AA0DAB0DAC0D890B422E39
:100C90002008F9007908F00024089E310C268531DF
:100CA00071082000B4007008B3003308A9073408A5
:100CB000AA3D0030AB3DAC3D2108F9007908F000B9
:100CC00026089E310C26853171082000B40070087A
:100CD000B3003308AF073408B03D0030B13DB23D3A
:100CE0002208F9007908F00025089E310C2685318C
:100CF00071082000B4007008B3003308AF0734084F
:100D0000B03D0030B13DB23D2208F9007908F00055
:100D100026089E310C26853171082000B400700829
:100D2000B3003308F9003408FA00FB01FC01083075
:100D3000F935FA0DFB0DFC0D890B982E7908AF07DC
:100D40007A08B03D7B08B13D7C08B23D2908F90026
:100D50002A08FA002B08FB002C08FC001830FC368F
:100D6000FB0CFA0CF90C890BAF2E7908AF077A0847
:100D7000B03D7B08B13D7C08B23D0830A935AA0DD5
:100D8000AB0DAC0D890BBE2E2E082D07F900FA0114
:100D9000FA0D7908823EB300FF307A3DB400E72EA9
:100DA0000130AF35B00DB10DB20D890BD12EAC1F96
:100DB000DA2EDB2EDC2E2F140130A935AA0DAB0D57
:100DC000AC0D890BDD2EFF30B307FF30B43DB11FF2
:100DD000EA2EEB2ED02EAD01AC1FEF2EF02E0C2FF5
:100DE000FF302905F900FF302A05FA00FF302B05F6
:100DF000FB007F302C05FC007C087B047A0479041E
:100E00000319032F042F072FAD01AD0A0C2F2F1C40
:100E10000A2F0B2F0C2F042F2D080319102F112F21
:100E2000392F0130AF070030B03D0030B13D003008
:100E3000B23D321C1C2F1D2F392F2F08F90030080E
:100E4000FA003108FB003208FC000130FD00FC37DD
:100E5000FB0CFA0CF90CFD0B272F7C08B2007B0869
:100E6000B1007A08B0007908AF000130B307003054
:100E7000B43D3408803AF90080307902031D422FD6
:100E8000FF303302031C452F462F502F7F302000A8
:100E9000B2008030B1000030B0000030AF007F2FD2
:100EA00020003408803AF90080307902031D5A2F5F
:100EB0000130330203185D2F5E2F692F00302000B0
:100EC000B2000030B1000030B0000030AF00A80127
:100ED0007F2F20003308F9007908AE00FF30AF05FE
:100EE000FF30B0057F30B1050030B2052E1C792FE0
:100EF0007A2F7B2FB1172E36F9007908B200280817
:100F0000F9007908B2043208A3003108A2003008C1
:100F1000A1002F08A00008007D080A3E86000130CD
:100F20008700403F2000A000413FA1000030210287
:100F300009300319200203189E2F9F2FA42F7D082C
:100F40009E31D9268731A82F7D0893319823873188
:100F50007D080A3E8600013087000130810741315B
:100F60000318810A7D080A3E860001308700403F51
:100F70002000A000413FA1000030210210300319E1
:100F80002002031CC42FC52FF12F7D08053E8600CB
:100F900001308700403FA000413FA100423FA20036
:100FA000433FA3000430A336A20CA10CA00C890B74
:100FB000D32F7D08033E8600013087002008C03F04
:100FC0002108C13F7D08023E860001308700810173
:100FD000810A7D080A3E8600013087000030C03F4C
:100FE000C13F08009B31082387319C31D5248731CC
:100FF0009D312C2587319A313A228731080008002B
:101000009E3158268831013A031D07280828FB28FD
:1010100000309D310E258831013A031D102811281A
:10102000FB282100C601C70118289E3158268831A7
:1010300000309D310E258831013A031D20282128DA
:10104000342801309D310E258831013A031D2928AD
:101050002A2834280030210047025C300319460258
:10106000031C33283428152800309D310E25883183
:10107000013A031D3C283D28FB2801309D310E25F7
:101080008831013A031D45284628FB2801309A3152
:10109000992288310B302000E6002630E5005D30D3
:1010A000890B5028E50B5028E60B50280032003001
:1010B0009A319922883101309B31182388310130CF
:1010C0009C31542488310A3080316C2088312000D2
:1010D000E7014030DD004030DC000030DB00003054
:1010E000DA0092318822883133302000E600BB30AC
:1010F000E500DF30890B7A28E50B7A28E60B7A28A1
:10110000003242302000DD008E30DC000030DB0099
:101110000030DA0092318822883109302000E60060
:101120001E30E500E430890B9328E50B9328E60B8D
:101130009328000001302000E5006508E7076430CF
:101140006702031CA428A528692801309A31A5222A
:10115000883100309C31542488312000E80133303C
:101160002000E600BB30E500DF30890BB528E50B39
:10117000B528E60BB528003201302000E5006508EF
:10118000E80724306802031CC628C728AF280030AF
:101190009A31A522883101309A31992288310B3059
:1011A0002000E6002630E5005D30890BD528E50BF0
:1011B000D528E60BD528003200309A3199228831A3
:1011C00000309B3118238831E8289E315826883119
:1011D00000309D310E258831013A031DF028F12899
:1011E000FB2801309D310E258831013A0319F92879
:1011F000FA28E528FB280800730880392000A000A1
:101200002008F8007335A0002008FA00F21F092911
:101210000A290B297A147A0803190F291029202981
:101220007A0A031D142915291D290030F300003006
:10123000F2000030F1000030F000F217F30128292D
:101240000030F3000030F2000030F1000030F00018
:1012500077088039A0002008F9007908780603197A
:1012600032293329342978177735A0002008F9006E
:10127000F61F3B293C293D29791479080319412996
:1012800042295229790A031D462947294F2900304E
:10129000F7000030F6000030F5000030F400F617DB
:1012A000F7015A290030F7000030F6000030F50051
:1012B0000030F4007A08790203185F296029A42914
:1012C000781F6329642968298030A0002008F80667
:1012D0007A08A0002008FB007908A0002008FA0086
:1012E0007B08A0002008F9007008A0002008FB007F
:1012F0007408A0002008F0007B08A0002008F4007B
:101300007108A0002008FB007508A0002008F1006B
:101310007B08A0002008F5007208A0002008FB0050
:101320007608A0002008F2007B08A0002008F60044
:101330007308A0002008FB007708A0002008F30035
:101340007B08A0002008F700FB017908A000A1019C
:101350002108A3007A082002A200031CA30323088B
:10136000803AA40080302402031DB8291A302202DA
:10137000031CBB29BC29F62973087204710470048C
:10138000031DC329C5290130C62900302000A00053
:101390002008FB000030F3000030F2000030F100C4
:1013A0000030F0007908A0002008FA00FC297B1C1E
:1013B000DA29DB29E2297B3601382000A000200849
:1013C000FB00E4290310FB0C701CE729E829E9293C
:1013D000FB1701302000A000F337F20CF10CF00CE9
:1013E000A00BEC290130A0002008FA0779087A0246
:1013F000031CFB29FC29D729781BFF29002A3A2A3C
:101400007A08031D042A052A0E2A0030F300003052
:10141000F2000030F1000030F0003A2B7408F007C1
:101420007508F13D7608F23D7708F33D731C192AE3
:101430001A2AC72A7B1C1D2A1E2A252A7B36013818
:101440002000A0002008FB00272A0310FB0C701CC2
:101450002A2A2B2A2C2AFB1701302000A000F33760
:10146000F20CF10CF00CA00B2F2A0130A000200888
:10147000FA07C72A7308803A2000A0007708803A4C
:101480002002031D4D2A76087202031D4D2A75089D
:101490007102031D4D2A740870020318502A512A44
:1014A000892AFF30A000FF30A100FF30A200FF30EA
:1014B000A30070087402A4007108753BA5007208AF
:1014C000763BA6007308773BA7002408A0072508F1
:1014D000A13D2608A23D2708A33D2308F3002208CA
:1014E000F2002108F1002008F0008030A000200860
:1014F000F806FB09FB0A7B08031D7F2A802A912A34
:101500000130F0070030F13D0030F23D0030F33D96
:10151000912A7408F0027508F13B7608F23B7708CF
:10152000F33B7308720471047004031D982A992A0E
:10153000C32A7B08031D9D2A9E2AC32A0030F3007C
:101540000030F2000030F1000030F0003A2B0130A2
:10155000F035F10DF20DF30D890BA82AFB1FB12A0E
:10156000B22AB32A70147B1CB62AB72ABA2A0314EB
:10157000FB0DBC2A0310FB0D7A080319C02AC12AEF
:10158000C32A0130FA02F21FC62AC72AA72AF90184
:10159000FB1FCB2ACC2ADA2A7B087F390319D12AF0
:1015A000D22AD52AF901F90ADA2A701CD82AD92AAE
:1015B000DA2AD22A79080319DE2ADF2A0D2B013014
:1015C000F0070030F13D0030F23D0030F33D731C78
:1015D000EA2AEB2A0D2B70082000A0007108A10058
:1015E0007208A2007308A3000130A400A337A20C64
:1015F000A10CA00CA40BF62A2308F3002208F20089
:101600002108F1002008F0007A0A0319082B092BA1
:101610000D2B0130A0002008FA077A0A0319112BBC
:10162000122B172B7A08031D162B172B252B003096
:10163000F3000030F2000030F1000030F0007A08D2
:10164000031D232B242B252BF8017A1C282B292B57
:101650002B2BF217302B7F302000A0002008F20542
:101660007A362000A0002008F300F81F382B392B11
:101670003A2BF31708000B306406031D402B412B57
:10168000FF2F4130DD002030DC000030DB00003077
:10169000DA00923188228B310B302000E3002630B3
:1016A000E2005D30890B522BE20B522BE30B522BE5
:1016B000003241302000DD003030DC000030DB0043
:1016C0000030DA00923188228B310B302000E300A9
:1016D0002630E2005D30890B6B2BE20B6B2BE30BAA
:1016E0006B2B003241302000DD004030DC00003048
:1016F000DB000030DA00923188228B310B30200081
:10170000E3002630E2005D30890B842BE20B842B52
:10171000E30B842B003241302000DD005030DC0030
:101720000030DB000030DA00923188228B310B3040
:101730002000E3002630E2005D30890B9D2BE20B98
:101740009D2BE30B9D2B003241302000DD006030EB
:10175000DC000030DB000030DA00923188228B316F
:101760000B302000E3002630E2005D30890BB62B01
:10177000E20BB62BE30BB62B003241302000DD002C
:101780007030DC000030DB000030DA00923188225B
:101790008B310B302000E3002630E2005D30890BF6
:1017A000CF2BE20BCF2BE30BCF2B003241302000AD
:1017B000DD008030DC000030DB000030DA009231E8
:1017C00088228B310B302000E3002630E2005D30B0
:1017D000890BE82BE20BE82BE30BE82B00324130BE
:1017E0002000DD008830DC000030DB000030DA0053
:1017F000923188228B310B302000E3002630E2004A
:101800005D30890B012CE20B012CE30B012C003223
:1018100041302000DD009030DC000030DB00003083
:10182000DA00923188228B310B302000E300263021
:10183000E2005D30890B1A2CE20B1A2CE30B1A2CF8
:10184000003241302000DD009830DC000030DB0049
:101850000030DA00923188228B310B302000E30017
:101860002630E2005D30890B332CE20B332CE30B86
:10187000332C003241302000DD00A030DC0000308D
:10188000DB000030DA00923188228B310B302000EF
:10189000E3002630E2005D30890B4C2CE20B4C2C2F
:1018A000E30B4C2C003241302000DD00A830DC007E
:1018B0000030DB000030DA00923188228B310B30AF
:1018C0002000E3002630E2005D30890B652CE20B3E
:1018D000652CE30B652C003241302000DD00B03078
:1018E000DC000030DB000030DA00923188228B31DE
:1018F0000B302000E3002630E2005D30890B7E2CA7
:10190000E20B7E2CE30B7E2C003241302000DD0008
:10191000B830DC000030DB000030DA009231882281
:101920008B310B302000E3002630E2005D30890B64
:10193000972CE20B972CE30B972C003241302000C0
:10194000DD00C030DC000030DB000030DA00923116
:1019500088228B310B302000E3002630E2005D301E
:10196000890BB02CE20BB02CE30BB02C00324130D1
:101970002000DD00C830DC000030DB000030DA0081
:10198000923188228B310B302000E3002630E200B8
:101990005D30890BC92CE20BC92CE30BC92C00323A
:1019A00041302000DD00D030DC000030DB000030B2
:1019B000DA00923188228B310B302000E300263090
:1019C000E2005D30890BE22CE20BE22CE30BE22C0F
:1019D000003241302000DD00D830DC000030DB0078
:1019E0000030DA00923188228B310B302000E30086
:1019F0002630E2005D30890BFB2CE20BFB2CE30B65
:101A0000FB2C003241302000DD00E030DC000030F3
:101A1000DB000030DA00923188228B310B3020005D
:101A2000E3002630E2005D30890B142DE20B142D0B
:101A3000E30B142D003241302000DD00E830DC00E3
:101A40000030DB000030DA00923188228B310B301D
:101A50002000E3002630E2005D30890B2D2DE20BE3
:101A60002D2DE30B2D2D003241302000DD00F03014
:101A7000DC000030DB000030DA00923188228B314C
:101A80000B302000E3002630E2005D30890B462D4C
:101A9000E20B462DE30B462D003241302000DD00E5
:101AA000F430DC000030DB000030DA0092318822B4
:101AB0008B3138302000E300CE30E2008F30890BCC
:101AC0005F2DE20B5F2DE30B5F2D003241302000D4
:101AD000DD00F830DC000030DB000030DA0092314D
:101AE00088228B3138302000E300CE30E2008F3086
:101AF000890B782DE20B782DE30B782D00324130E5
:101B00002000DD00FC30DC000030DB000030DA00BB
:101B1000923188228B3138302000E300CE30E20051
:101B20008F30890B912DE20B912DE30B912D00321B
:101B300042302000DD000030DC000030DB000030EF
:101B4000DA00923188228B3138302000E300CE3029
:101B5000E2008F30890BAA2DE20BAA2DE30BAA2DF0
:101B6000003242302000DD000230DC000030DB00BB
:101B70000030DA00923188228B3138302000E300C7
:101B8000CE30E2008F30890BC32DE20BC32DE30B67
:101B9000C32D003242302000DD000430DC00003074
:101BA000DB000030DA00923188228B31383020009F
:101BB000E300CE30E2008F30890BDC2DE20BDC2D10
:101BC000E30BDC2D003242302000DD000630DC006B
:101BD0000030DB000030DA00923188228B3138305F
:101BE0002000E300CE30E2008F30890BF52DE20BB0
:101BF000F52DE30BF52D003242302000DD000830DA
:101C0000DC000030DB000030DA00923188228B31BA
:101C100038302000E300CE30E2008F30890B0E2EEA
:101C2000E20B0E2EE30B0E2E003242302000DD00C0
:101C30000A30DC000030DB000030DA00923188220C
:101C40008B3138302000E300CE30E2008F30890B3A
:101C5000272EE20B272EE30B272E003242302000E6
:101C6000DD000C30DC000030DB000030DA009231A7
:101C700088228B3138302000E300CE30E2008F30F4
:101C8000890B402EE20B402EE30B402E00324230F7
:101C90002000DD001430DC000030DB000030DA0012
:101CA000923188228B312E302000E300A930E200EF
:101CB0002F30890B592EE20B592EE30B592E42304F
:101CC0002000DD002030DC000030DB000030DA00D6
:101CD000923188228B312E302000E300A930E200BF
:101CE0002F30890B712EE20B712EE30B712E4230D7
:101CF0002000DD002830DC000030DB000030DA009E
:101D0000923188228B312E302000E300A930E2008E
:101D10002F30890B892EE20B892EE30B892E42305E
:101D20002000DD003030DC000030DB000030DA0065
:101D3000923188228B312E302000E300A930E2005E
:101D40002F30890BA12EE20BA12EE30BA12E4230E6
:101D50002000DD003830DC000030DB000030DA002D
:101D6000923188228B312E302000E300A930E2002E
:101D70002F30890BB92EE20BB92EE30BB92E42306E
:101D80002000DD004030DC000030DB000030DA00F5
:101D9000923188228B312E302000E300A930E200FE
:101DA0002F30890BD12EE20BD12EE30BD12E4230F6
:101DB0002000DD004830DC000030DB000030DA00BD
:101DC000923188228B312E302000E300A930E200CE
:101DD0002F30890BE92EE20BE92EE30BE92E42307E
:101DE0002000DD005030DC000030DB000030DA0085
:101DF000923188228B312E302000E300A930E2009E
:101E00002F30890B012FE20B012FE30B012F423002
:101E10002000DD005830DC000030DB000030DA004C
:101E2000923188228B312E302000E300A930E2006D
:101E30002F30890B192FE20B192FE30B192F42308A
:101E40002000DD006030DC000030DB000030DA0014
:101E5000923188228B312E302000E300A930E2003D
:101E60002F30890B312FE20B312FE30B312F423012
:101E70002000DD006830DC000030DB000030DA00DC
:101E8000923188228B3133302000E300BB30E200F6
:101E9000DF30890B492FE20B492FE30B492F00322A
:101EA00042302000DD007030DC000030DB0000300C
:101EB000DA00923188228B3133302000E300BB30CE
:101EC000E200DF30890B622FE20B622FE30B622FFF
:101ED000003242302000DD007C30DC000030DB00CE
:101EE0000030DA00923188228B3133302000E30059
:101EF000BB30E200DF30890B7B2FE20B7B2FE30B43
:101F00007B2F003242302000DD008230DC000030C8
:101F1000DB000030DA00923188228B313330200030
:101F2000E300BB30E200DF30890B942FE20B942FEB
:101F3000E30B942F003242302000DD008830DC00BB
:101F40000030DB000030DA00923188228B313330F0
:101F50002000E300BB30E200DF30890BAD2FE20B45
:101F6000AD2FE30BAD2F003242302000DD0090306A
:101F7000DC000030DB000030DA00923188228B3147
:101F800033302000E300BB30E200DF30890BC62F86
:101F9000E20BC62FE30BC62F003242302000DD00DB
:101FA0009630DC000030DB000030DA00923188220D
:101FB0008B3133302000E300BB30E200DF30890B8F
:101FC000DF2FE20BDF2FE30BDF2F00324230200048
:101FD000DD009E30DC000030DB000030DA009231A2
:101FE00088228B3133302000E300BB30E200DF3049
:101FF000890BF82FE20BF82FE30BF82F00320800C3
:10200000FE0012001E00FE0B01280034F2007208D0
:10201000F0000330F035FF3E031D0A287035203EE6
:10202000F1007108F3007308023E8600013087005A
:1020300081017308053E8600013087000030C03FF3
:102040000030C13FC23FC33F73080A3E86000130E3
:1020500087000030C03FC13F73080C3E860001304E
:1020600087000030C03FC13F730A860001308700FF
:1020700001089A312322903108002000A500093080
:10208000A3002308F00025089B31CD239031B03EFA
:102090002000A4002408A70027089F31652790315D
:1020A0002000A3002308A600762827089A31F922E9
:1020B0009031003A03195D285E28932820006A08B1
:1020C000031D63286428682827089C31BA249031AE
:1020D000200027089A317822903120002508A3009B
:1020E0002308F0008731FF27903193282608A300AA
:1020F000A401A31BA4032408003A03198328FF3A70
:102100000319882893282308003A0319552893288F
:102110002308FD3A03199328033A03199328013A37
:10212000031993289328200026080800FD00FC01CD
:1021300021001D08F8007808F9001E08F80078084A
:10214000FA009A313A22903100308B1B0130FB00AB
:102150007D089B316E2390317D0886008701010840
:10216000F80078082000ED007D0886008701453FD3
:10217000EC002100CA01CB0120006E109B31E2234C
:102180009031F80078082000EB002100CA01CB0153
:102190002000EE108B1391314B2190317B0C031CEE
:1021A0008B1303188B179B318023903121009D18CE
:1021B000DA28DB28D62820006E1CDF28E028CA2871
:1021C000790821009D007A089E002000EE1CE92875
:1021D000EA28EE28FA30F8007808FC007C080800AD
:1021E0002000A7002708A5000330A535FF3E031DEA
:1021F000F5282535203EA6002608A800280A8600D6
:102200000130870001089C310E249031003A0319F7
:102210000A290B294A292000280A86000130870054
:1022200001089A3124229031003A031918291929FA
:102230004A29200028089B312823903120002808B3
:1022400093310923903120002808023E8600013096
:10225000870003300102031C2E292F293729280863
:10226000860001308700010890310620903120005F
:102270002808A5002508FD002808023E8600013038
:1022800087000135A03E86008701413F8A00403F1C
:102290000A009131080021001C08F7001B08F60015
:1022A00020006E1C542955295629AC296C080319A5
:1022B0005A295B29A5296A2921002D088A002C08A2
:1022C0000A0091317B2921002B088A002A080A0084
:1022D00091317B296C080139F400F5017508003A49
:1022E000031973297B297408003A03195C29013A00
:1022F000031963297B290930F4007408F0002000D9
:102300006D089B31CD239131B53E860087010108D0
:1023100020006C0603198D298E29A1296C1C912996
:1023200092299C290030F4000430F50076087402EC
:10233000F6007708753BF70076082100CA07770892
:10234000CB3D01302000EC02AC2976082100CA0701
:102350007708CB3D20006E1408007D080A3E8600F9
:1023600001308700403F2000A000413FA100EA303B
:102370002102563003192002031CBF29C029D52988
:102380007D088600013087000108903106209131D8
:102390007D0886000130870001082000A000200889
:1023A000F0009A3122229131122A7D08093E8600DE
:1023B000013087000108803AA0007D080E3E8600AB
:1023C000013087007D080E3E840001308500003614
:1023D0000102803AA0020318EE29EF29122A7D0893
:1023E000023E8600013087008101810A7D080A3E95
:1023F0008600013087000030C03FC13F7D080C3EA1
:10240000860001308700FF30C03FFB30C13F7D08B0
:102410008600013087000108A0002008F0009A31F2
:1024200022229131080003102000510D520DD300DB
:102430005308D9005908031D1E2A1F2A282A0030D4
:10244000D2000030D1000030D0000030CF00872A09
:102450004F08D3005008D4005108D5005208D600C8
:102460001F30D636D50CD40CD30C890B312A530827
:10247000D7005708D800D117FF30CF05FF30D0055F
:10248000FF30D1050030D2059630D902D91F492A34
:102490004A2A622A5908803A973E0318502A512A3C
:1024A000522A1F2A0130D236D10CD00CCF0C890B06
:1024B000532A0130D3005308D907031D602A612A2B
:1024C000522A772A20305902031C672A682A722A66
:1024D0001F2A0130CF35D00DD10DD20D890B6A2ABC
:1024E0000130D9025908031D762A772A692A58082B
:1024F00003197B2A7C2A872ACF09D009D109D2095E
:10250000CF0A0319D00A0319D10A0319D20A080005
:1025100042302000B8004830B7000030B60000302C
:10252000B5004030A300A030A2000030A100003070
:10253000A0005D08A7005C08A6005B08A5005A087B
:10254000A40085313525923120002308BC002208E3
:10255000BB002108BA002008B90096314C26923100
:1025600020003808D2003708D1003608D0003508DE
:10257000CF004130D6002030D5000030D4000030EC
:10258000D3009D31CA25923120005208E100510844
:10259000E0005008DF004F08DE006108A700600877
:1025A000A6005F08A5005E08A4004430A3007A30AE
:1025B000A2000030A1000030A00085313525923105
:1025C00020002308BC002208BB002108BA00200814
:1025D000B9004230B800C830B7000030B600003053
:1025E000B50096314C26923120003808D2003708C9
:1025F000D1003608D0003508CF0092311322923135
:10260000200050082100C90020004F082100C80008
:1026100008002000A0002008053E86000130870049
:10262000403FF000413FF100423FF200433FF300E2
:102630000430F336F20CF10CF00C890B192B200846
:10264000033E860001308700403FF400413FF50023
:102650007408F6007508F700F801F9017008F60231
:102660007108F73B7208F83B7308F93B7908A4003E
:102670007808A3007708A2007608A1002108F000DE
:102680002208F1002308F2002408F30020080F3E7E
:10269000860001308700010A512BF337F20CF10C50
:1026A000F00C890B4D2B7308A4007208A30071086D
:1026B000A2007008A100A41B6B2B2408031D6C2B27
:1026C0002308031D6C2B2208031D6C2B8030210274
:1026D000031C6B2B6C2B752B00302000A4000030EA
:1026E000A3000030A2007F30A1002000A41F832B94
:1026F00080302102FF30223BFF30233BFF30243B60
:102700000318832B842B8D2BFF302000A400FF3077
:10271000A300FF30A2008030A10020002108F000BB
:102720002008093E860001308700700881000800FB
:10273000F6008B1F9C2B9D2BE42B8B137608053EFC
:10274000860001308700403FF000413FF100423FEA
:10275000F200433FF3000430F336F20CF10CF00CBE
:10276000890BAC2B7608053E860001308700700887
:10277000810241317108813B41317208813B413115
:102780007308813B7D317608033E86000130870067
:10279000403FF000413FF1007008F2007108F30083
:1027A000F401F5017608053E8600013087007208C5
:1027B000810741317308813D41317408813D4131C8
:1027C0007508813D8B17282C7608053E8600013060
:1027D0008700403FF000413FF100423FF200433F9D
:1027E000F3000430F336F20CF10CF00C890BF22BF1
:1027F0007608053E8600013087007008810241316D
:102800007108813B41317208813B41317308813B42
:102810007D317608033E860001308700403FF0009E
:10282000413FF1007008F2007108F300F401F50176
:102830007608053E86000130870072088107413125
:102840007308813D41317408813D41317508813DF6
:1028500008007D08093E8600013087000108803AA3
:102860002000A0007D080E3E860001308700010395
:10287000FF3A803AA00203183E2C3F2C6C2C7D08B6
:102880000A3E86000130870001308107413103187C
:10289000810A7D080A3E860001308700403FA00083
:1028A000413FA10000302102413003192002031CE6
:1028B0005A2C5B2CAC2C7D080A3E86000130870028
:1028C0000030C03FC13F7D0886000130870001080D
:1028D000903106209431AC2C7D08093E86000130F1
:1028E00087000108A000A101A01BA1037D080E3EE6
:1028F0008600013087002108803A803C031D822C2D
:10290000200801020318852C862CA42C02302000FC
:10291000A0007D08023E860001308700200881006B
:102920007D080A3E8600013087000030C03FC13F6D
:102930007D088600013087000108A0002008F00013
:102940009A3122229431AC2C7D080A3E8600013057
:1029500087000030C03FC13F7D080C3E860001303B
:1029600087000130810741310318810A7D080C3E40
:102970008600013087001600403A2000A0001600B3
:10298000A004031DC42CC52CD12C7D080C3E860050
:10299000013087000030C03FC13F7D08933198234C
:1029A000943108009E3158269431013A031DD92CE8
:1029B000DA2C8E2D00309D310E259431013A031D05
:1029C000E22CE32C8E2D01309D310E259431003AFE
:1029D000031DEB2CEC2C8E2D2100C601C701F32C1E
:1029E0009E315826943100309D310E259431013AA4
:1029F000031DFB2CFC2C0F2D01309D310E25943135
:102A0000003A031D042D052D0F2D00302100470233
:102A10005C3003194602031C0E2D0F2DF02C0030E4
:102A20009D310E259431013A031D172D182D8E2D41
:102A300001309D310E259431003A031D202D212DAA
:102A40008E2D01309A319922943102302000E60017
:102A50000430E500BA30890B2B2DE50B2B2DE60B4E
:102A60002B2D000000309A319922943101309B3196
:102A70001823943101309C31542494310A30803130
:102A80006C20943101309A31A522943100309C3170
:102A9000542494312000E70133302000E600BB309D
:102AA000E500DF30890B522DE50B522DE60B522D40
:102AB000003201302000E5006508E7072430670296
:102AC000031C632D642D4C2D00309A31A5229431C6
:102AD00001309A31992294310B302000E6002630E3
:102AE000E5005D30890B722DE50B722DE60B722D22
:102AF000003200309A319922943100309B311823F2
:102B00009431852D9E315826943100309D310E250B
:102B10009431013A03198D2D8E2D822D08009E319E
:102B200058269531013A031D962D972D4B2E0130D5
:102B30009D310E259531013A031D9F2DA02D4B2E61
:102B400000309D310E259531003A031DA82DA92D89
:102B50004B2E2100C601C701B02D9E31582695315C
:102B600001309D310E259531013A031DB82DB92D47
:102B7000CC2D00309D310E259531003A031DC12D1D
:102B8000C22DCC2D0030210047025C3003194602D3
:102B9000031CCB2DCC2DAD2D01309D310E25953153
:102BA000013A031DD42DD52D4B2E00309D310E251D
:102BB0009531003A031DDD2DDE2D4B2E01309A316B
:102BC0009922953102302000E6000430E500BA3049
:102BD000890BE82DE50BE82DE60BE82D0000003011
:102BE0009A319922953101309B311823953101306A
:102BF0009C31542495310B3080316C20953101305B
:102C00009A31A522953100309C3154249531200011
:102C1000E70133302000E600BB30E500DF30890BF0
:102C20000F2EE50B0F2EE60B0F2E00320130200089
:102C3000E5006508E70724306702031C202E212EDB
:102C4000092E00309A31A522953101309A3199220E
:102C500095310B302000E6002630E5005D30890B11
:102C60002F2EE50B2F2EE60B2F2E003200309A313F
:102C70009922953100309B3118239531422E9E3197
:102C80005826953101309D310E259531013A0319B1
:102C90004A2E4B2E3F2E080020003C088039BD00F4
:102CA0003D08C6003C35BD003D08CD00BB1F592E78
:102CB0005A2E5B2E4D144D0803195F2E602E702E78
:102CC0004D0A031D642E652E6D2E0030BC000030B1
:102CD000BB000030BA000030B900BB17BC01782E31
:102CE0000030BC000030BB000030BA000030B9003A
:102CF00038088039BD003D08C6063835BD003D089E
:102D0000CE00B71F842E852E862E4E144E08031932
:102D10008A2E8B2E9B2E4E0A031D8F2E902E982EC0
:102D20000030B8000030B7000030B6000030B50009
:102D3000B717B801A32E0030B8000030B70000303C
:102D4000B6000030B5003808370436043504031DDA
:102D5000AA2EAB2EC42E0030BC000030BB000030C9
:102D6000BA000030B9008030BB047F30BC04460894
:102D7000BD003D08BC043C08B8003B08B7003A0859
:102D8000B6003908B500FF2F4D08031DC82EC92E07
:102D9000D22E0030B8000030B7000030B60000304E
:102DA000B500FF2F4D08BD00BE013E08C0004E0813
:102DB0003D02BF00031CC0033F087F3EC700003038
:102DC000403DC8003C08C5003B08C4003A08C300A9
:102DD0003908C2000030BC000030BB000030BA002F
:102DE0000030B9000030CC000030CB000030CA0009
:102DF0000030C900CE013A2F4E080319002F012FD1
:102E00001B2F0130C235C30DC40DC50D890B022F18
:102E10000130B935BA0DBB0DBC0D890B092FCC1F84
:102E2000122F132F142F39140130C935CA0DCB0DB1
:102E3000CC0D890B152F38084502031D292F3708A3
:102E40004402031D292F36084302031D292F35088C
:102E50004202031C2C2F2D2F362F4C173508C2028F
:102E60003608C33B3708C43B3808C53B0130BD00BA
:102E70003D08CE071A304E02031C3F2F402FFC2E78
:102E800045084404430442040319472F482F612F87
:102E90004914612F0130B935BA0DBB0DBC0D890B3A
:102EA0004B2FCC1F542F552F562F39140130C935B5
:102EB000CA0DCB0DCC0D890B572FFF30C707FF3044
:102EC000C83DBB1F642F652F4A2FCE01CC1F692F31
:102ED0006A2F862FFF304905BD00FF304A05BE002E
:102EE000FF304B05BF007F304C05C00040083F0459
:102EF0003E043D0403197D2F7E2F812FCE01CE0A83
:102F0000862F391C842F852F862F7E2F4E0803197C
:102F10008A2F8B2FB32F0130B9070030BA3D003014
:102F2000BB3D0030BC3D3C1C962F972FB32F39087A
:102F3000BD003A08BE003B08BF003C08C00001309D
:102F4000C100C037BF0CBE0CBD0CC10BA12F400887
:102F5000BC003F08BB003E08BA003D08B900013084
:102F6000C7070030C83D4808803ABD0080303D02A8
:102F7000031DBC2FFF304702031CBF2FC02FCD2FD6
:102F8000FF302000C7000030C8000030BC00003017
:102F9000BB000030BA000030B90020004808803A79
:102FA000BD0080303D02031DD72F013047020318BA
:102FB000DA2FDB2FE72F2000C701C8010030BC004B
:102FC0000030BB000030BA000030B900C60120005C
:102FD0004708BD003D08CD004D1CEF2FF02FF22F0C
:102FE000BB17F62F7F30BD003D08BB054D36BD0039
:102FF0003D08BC004608BD003D08BC04BB2E0800CF
:103000000034003400340034003400340034003420
:103010000034003400340034003400347E34013491
:1030200001340134003400340034003400340034FE
:103030000034003400340034003400347E34013471
:1030400000340034C8344234003400342034413475
:10343C000800080008000800080008000130080017
:10344C0020001C15080020001C110800280017156E
:10345C0008002800171108009C313C249A31080000
:10346C00163021009700080021009D0190309E002D
:10347C00080001302100C6070030C73D0800710864
:10348C002100D5007008D400080071082100D30079
:10349C007008D200080071082100D1007008D0001B
:1034AC00080071082100CF007008CE0008006400ED
:1034BC0080010131890B5E2A0034F0007008083E4F
:1034CC008600870181100800F0007008083E860015
:1034DC00870101150800F0007008083E860087017E
:1034EC0001110800F0007008083E86008701811465
:1034FC000800703021009900980122009601080004
:10350C002700131D8A2A8B2A8E2A9A31BD229A31C2
:10351C00080020006903031D942A952A982A9A31E1
:10352C0026229A310800F0007003031D9E2A9F2A60
:10353C00A22A22000E16A42A22000E120800F00065
:10354C007003031DAA2AAB2AAE2A22008E15B02ABC
:10355C0022008E110800F0007003031DB62AB72A52
:10356C00BA2A22000E15BC2A22000E1108002100D6
:10357C00540855040319C32AC42AC92A55088A00B9
:10358C0054080A009A3127001311080020009110EA
:10359C002100520853040319D42AD52ADA2A5308D5
:1035AC008A0052080A009A3108002000931021006A
:1035BC00500851040319E32AE42AE92A51088A0025
:1035CC0050080A009A3108002000931121004E087F
:1035DC004F040319F22AF32AF82A4F088A004E08DE
:1035EC000A009A310800F00070080319FE2AFF2A1D
:1035FC00062B7008083E8600870101080139072B4D
:10360C0000300800F90179089B315C239B310130B3
:10361C00F8007808F90702307902031C162B172BD7
:10362C00092B0800F0007003031D1D2B1E2B222BF1
:10363C009A312C229B31272B9A312F229B3122003D
:10364C000E110800FB008B1F2C2B2D2B342B8B13F6
:10365C007B089F31AF279B318B17382B7B089F3111
:10366C00AF279B310800C73020009B009A019110B6
:10367C00210091141F30F0001A30F1009A314B22C6
:10368C009B3120009C0108002000AA012A089031DF
:10369C00F0209B3101302000A9002908AA07023034
:1036AC002A02031C5A2B5B2B4C2B0800F7007708C3
:1036BC009B31B9239B310930F6007608F00077086E
:1036CC009B31CD239B31B03E9A3163229B31080054
:1036DC00F000700A86008701403F2100AC00413F9A
:1036EC00AD007008033E86008701403FAA00413FB1
:1036FC00AB00080020006B08F0007008F1007108A6
:10370C00031D892B8A2B8B2B922B0130F102710814
:10371C00031D912B922B8B2B08007C3028009600DC
:10372C00950120009310210093142030F0001A30E2
:10373C00F1009A3151229B31023028009700080089
:10374C00FF3028009D009C0120009311210093154F
:10375C002130F0001A30F1009A3157229B311F3082
:10376C0028009E000800F500023075020318BF2BDC
:10377C00C02BCC2B0930F4007408F00075089B3179
:10378C00CD239B31B83E8600870101140800F3005D
:10379C00F201731CD22BD32BD72B7008F1007108BC
:1037AC00F2070310F00D0310F30C7308031DDF2B4D
:1037BC00E02BCF2B7208080020006F1CE62BE72BA8
:1037CC00EC2B6F36F0007008EF00F52B6F36F00025
:1037DC007008EF006F08B43AF0007008EF006F0843
:1037EC000F3908009E312F269B319A317F229B3155
:1037FC009A3136229B319B31A6239B319B319323EB
:10380C009B319B3139239B318731F2279B31080047
:10381C00F500023075020318142C152C232C0930DA
:10382C00F4007408F00075089B31CD239C31B83E30
:10383C0086008701010C0139242C0030080000306F
:10384C009A31B1229C3100309B3118239C310030CD
:10385C009A31A5229C3100309A3199229C3100304A
:10386C009C3154249C3122008E120800F4017408FF
:10387C00F3000330F335FF3E031D402C7335203E1F
:10388C009E3182269C310130F3007308F40702301C
:10389C007402031C522C532C3D2C08002000E20017
:1038AC006203031D5A2C5B2C5E2CE901E90A6B2C7C
:1038BC004030DD004030DC000030DB000030DA004E
:1038CC00923188229C312000E9010800F700023077
:1038DC0077020318722C732C832C0930F6007608AF
:1038EC00F00077089B31CD239C31B63E86008701D2
:1038FC00403FF400413FF500852CF401F501080030
:10390C007108803AF20080307202031D8F2C013056
:10391C0070020318922C932C9F2C7009F2007109E1
:10392C00F300F20A0319F30A7208F0007308F100AD
:10393C009F2C08002000A901290890313D209C31C2
:10394C00003A0319AA2CAB2CAD2C0030B92C013049
:10395C002000A8002808A90702302902031CB72C54
:10396C00B82CA22C01300800F0008B1FBE2CBF2CF1
:10397C00CB2C8B137008063E8600870121004A0869
:10398C00C03F4B08C13F8B17D42C7008063E8600F5
:10399C00870121004A08C03F4B08C13F0800003096
:1039AC00F0009830F1002030F2000030F3002030AD
:1039BC009F3106279C31FB017B08903106209C31FE
:1039CC000130FA007A08FB0702307B02031CEF2C53
:1039DC00F02CE22C080001302100C2070030C33D5E
:1039EC0003304302E83003194202031CFE2CFF2C67
:1039FC000D2DC201C301031022000E1D0314031868
:103A0C00082D0B2D22000E150D2D22000E11080075
:103A1C00F100023071020318142D152D2A2D710896
:103A2C00F0000330F035FF3E031D182D7035223E9B
:103A3C00860001308700023001060319262D282D3F
:103A4C000130292D00302B2D00300800B030F10052
:103A5C007108F200B930F100720871020318372DA9
:103A6C00382D392D492D72089A3163229D31093038
:103A7C00F1007108F207B930F100720871020318F5
:103A8C00482D492D392D080022000E172100213018
:103A9C009D000530890B502D00008E3084000030C5
:103AAC0085000E30860001308700253080179D0080
:103ABC00003200320032003221009D14003200002E
:103ACC0022008E178013080022008E17210025304B
:103ADC009D000530890B702D00008E308400003065
:103AEC0085000E30860001308700213000179D00C4
:103AFC00003200320032003221009D1400320000EE
:103B0C0022000E170013080022000E132100213092
:103B1C009D000530890B902D00008E308400003004
:103B2C0085000E30860001308700253080179D00FF
:103B3C00003200320032003221009D1400320000AD
:103B4C0022008E138013080022008E1321002530D2
:103B5C009D000530890BB02D00008E3084000030A4
:103B6C0085000E30860001308700213000179D0043
:103B7C00003200320032003221009D14003200006D
:103B8C0022000E130013080080302000D2065608C5
:103B9C00F3005508F2005408F1005308F0005208E5
:103BAC00F7005108F6005008F5004F08F400883172
:103BBC00FC209D3173082000D2007208D1007108DE
:103BCC00D0007008CF0008008C340734293414342A
:103BDC00AD34113422341A3422341A34AA341D343C
:103BEC006A341D34FF34073400346A341D34AA346B
:103BFC001D34203400340034003401344A341D3474
:103C0C008A341D342034003400340034F800F401BC
:103C1C00F5017008F200F3017208F6007308F70062
:103C2C00781C192E1A2E1E2E7608F4077708F53DEF
:103C3C000130F635F70D890B1F2E0310F80C7808A0
:103C4C00031D292E2A2E162E7508F1007408F0007B
:103C5C00080022008C018D018E013F3021008C0068
:103C6C0070308D0003308E00033023008E00303016
:103C7C008D0003308C0024008D0104308C008E01EB
:103C8C002100951322009D019E0127001311121192
:103C9C0011151E30F0001A30F1009A3145229E3178
:103CAC008B15080021004C0803195D2E5E2E632E27
:103CBC008731F2279E312100CC01CD01CD0A9C31F8
:103CCC00A0249E31003A031D6C2E6D2E6F2E0030F9
:103CDC00812E9B314A239E31803102209E3120005F
:103CEC00AB002B082100CD009D312C259E319A3143
:103CFC0032229E3101300800F2007208023E86002A
:103D0C000130870002300106031D8D2E8E2EAC2E45
:103D1C0072080A3E8600013087000130810741316C
:103D2C000318810A72080A3E8600013087001600CB
:103D3C000104031DA22EA32EAC2E72080A3E86008F
:103D4C0001308700FF30C03FFF30C13F080020002A
:103D5C006903031DB22EB32ED52E01302100C407EA
:103D6C000030C53D49084502031DBE2E48084402DB
:103D7C00031CC12EC22EC72EC401C50122008E16F3
:103D8C00D82E20008E1ECB2ECC2ED82E2100C40176
:103D9C00C5019A3129229E3122008E12D82E210083
:103DAC00C401C5010800FC007C0A860001308700B4
:103DBC0001089C316C249E317408F8007508F900D8
:103DCC00FA01FB017C08053E86000130870078086B
:103DDC00C03F7908C13F7A08C23F7B08C33F7C08CB
:103DEC00053E860001308700043081354131810D5C
:103DFC004131810D4131810D7D31890BFB2E080044
:103E0C00F8007108F6007008F5007808F4007408E2
:103E1C00F900282F75088400760885000008F40046
:103E2C007408F7000130F5070030F63D7708F40010
:103E3C007908860001308700740881000130F40095
:103E4C007408F9070130F2020030F33B720A031DCB
:103E5C00332F730A031D332F342F102F08009B317F
:103E6C00F8239F319C3125249F318B170B178F30F2
:103E7C00F0001A30F1009A3145229F31AD30F0003C
:103E8C001E30F1009A314B229F31F130F0001C3082
:103E9C00F1009A3151229F313F30F0001A30F1007D
:103EAC009A3157229F319431D2249F3195318F25ED
:103EBC009F31883100209F31592F803142282000BA
:103ECC00A2000530A0002008A10022089A31F92296
:103EDC009F31003A031D732F742F802F0030AE2FAB
:103EEC0001302000A1022108031D7D2F7E2F802F81
:103EFC00FC30AE2F20002208903196209F31003AE2
:103F0C00031D892F8A2F762F20002208063E86005B
:103F1C008701403F21004A02F000413F4B3BF1003A
:103F2C009C3186249F310030710265300319700278
:103F3C00031CA12FA22FA82F200022089A316A223D
:103F4C009F31742F200022089A3171229F31742FD7
:103F5C000800FA007A08023E86000130870001084A
:103F6C000319B92FBA2FEE2F7A08033E86000130C1
:103F7C008700403FF800413FF900F936F80CF9365C
:103F8C00F80C7A08033E860001308700780881021D
:103F9C0041317908813B7F317A0A860001308700F4
:103FAC0001089C316C249F317408F8007508F900E5
:103FBC00F936F80CF936F80C7A08033E8600013015
:103FCC0087007808810741317908813D7F31FF2FC7
:103FDC007A0A86000130870001089C316C249F31DD
:103FEC007A08033E8600013087007408C03F7508CC
:043FFC00C13F0800B9
:020000040001F9
:08000000FF3FFF3FFF3FFF3F00
:04000E00E43DFF3E90
:00000001FF
