:1000000080312D28003008007E1480318B190B1CA4
:100010000D289231752280312B280B1F2B282100AF
:10002000931D19282000931D19289231EF22803149
:100030002B282100931C23282000931C2328923175
:10004000E32280312B282100911C2B282000911CB9
:100050002B289231D7227E10090080312F28D530ED
:10006000840095308500A030860000308700223063
:1000700092318D228031EA01EB01EC01ED01EE01BC
:10008000EF01C2308400003085000B3092318722AE
:100090008031203084000130850020309231872269
:1000A0007E1020009531B42D01309331072380312B
:1000B000013094310C2480314130DD002030DC00EF
:1000C0000030DB000030DA008A316E2280311530DA
:1000D0002000E6004B30E500BE30890B6D28E50BB3
:1000E0006D28E60B6D28000096313F2680314130A7
:1000F0002000DD003030DC000030DB000030DA00B2
:100100008A316E22803115302000E6004B30E50048
:10011000BE30890B8928E50B8928E60B8928000069
:1001200096313F26803141302000DD004030DC0038
:100130000030DB000030DA008A316E228031153069
:100140002000E6004B30E500BE30890BA528E50B0A
:10015000A528E60BA528000096313F2680314130C6
:100160002000DD005030DC000030DB000030DA0021
:100170008A316E22803115302000E6004B30E500D8
:10018000BE30890BC128E50BC128E60BC128000051
:1001900096313F26803141302000DD006030DC00A8
:1001A0000030DB000030DA008A316E2280311530F9
:1001B0002000E6004B30E500BE30890BDD28E50B62
:1001C000DD28E60BDD28000096313F2680314130E6
:1001D0002000DD007030DC000030DB000030DA0091
:1001E0008A316E22803115302000E6004B30E50068
:1001F000BE30890BF928E50BF928E60BF928000039
:1002000096313F26803141302000DD008030DC0017
:100210000030DB000030DA008A316E228031153088
:100220002000E6004B30E500BE30890B1529E50BB8
:100230001529E60B1529000096313F268031413003
:100240002000DD008830DC000030DB000030DA0008
:100250008A316E22803115302000E6004B30E500F7
:10026000BE30890B3129E50B3129E60B312900001D
:1002700096313F26803141302000DD009030DC0097
:100280000030DB000030DA008A316E228031153018
:100290002000E6004B30E500BE30890B4D29E50B10
:1002A0004D29E60B4D29000096313F268031413023
:1002B0002000DD009830DC000030DB000030DA0088
:1002C0008A316E22803115302000E6004B30E50087
:1002D000BE30890B6929E50B6929E60B6929000005
:1002E00096313F26803141302000DD00A030DC0017
:1002F0000030DB000030DA008A316E2280311530A8
:100300002000E6004B30E500BE30890B8529E50B67
:100310008529E60B8529000096313F268031413042
:100320002000DD00A830DC000030DB000030DA0007
:100330008A316E22803115302000E6004B30E50016
:10034000BE30890BA129E50BA129E60BA1290000EC
:1003500096313F26803141302000DD00B030DC0096
:100360000030DB000030DA008A316E228031153037
:100370002000E6004B30E500BE30890BBD29E50BBF
:10038000BD29E60BBD29000096313F268031413062
:100390002000DD00B830DC000030DB000030DA0087
:1003A0008A316E22803115302000E6004B30E500A6
:1003B000BE30890BD929E50BD929E60BD9290000D4
:1003C00096313F26803141302000DD00C030DC0016
:1003D0000030DB000030DA008A316E2280311530C7
:1003E0002000E6004B30E500BE30890BF529E50B17
:1003F000F529E60BF529000096313F268031413082
:100400002000DD00C830DC000030DB000030DA0006
:100410008A316E22803115302000E6004B30E50035
:10042000BE30890B112AE50B112AE60B112A0000B8
:1004300096313F26803141302000DD00D030DC0095
:100440000030DB000030DA008A316E228031153056
:100450002000E6004B30E500BE30890B2D2AE50B6D
:100460002D2AE60B2D2A000096313F26803141309F
:100470002000DD00D830DC000030DB000030DA0086
:100480008A316E22803115302000E6004B30E500C5
:10049000BE30890B492AE50B492AE60B492A0000A0
:1004A00096313F26803141302000DD00E030DC0015
:1004B0000030DB000030DA008A316E2280311530E6
:1004C0002000E6004B30E500BE30890B652AE50BC5
:1004D000652AE60B652A000096313F2680314130BF
:1004E0002000DD00E830DC000030DB000030DA0006
:1004F0008A316E22803115302000E6004B30E50055
:10050000BE30890B812AE50B812AE60B812A000087
:1005100096313F26803141302000DD00F030DC0094
:100520000030DB000030DA008A316E228031153075
:100530002000E6004B30E500BE30890B9D2AE50B1C
:100540009D2AE60B9D2A000096313F2680314130DE
:100550002000DD00F430DC000030DB000030DA0089
:100560008A316E22803152302000E6002B30E500C7
:100570000030890BB92AE50BB92AE60BB92A00002D
:1005800096313F26803141302000DD00F830DC001C
:100590000030DB000030DA008A316E2280315230C8
:1005A0002000E6002B30E5000030890BD52AE50B52
:1005B000D52AE60BD52A000096313F2680314130FE
:1005C0002000DD00FC30DC000030DB000030DA0011
:1005D0008A316E22803152302000E6002B30E50057
:1005E0000030890BF12AE50BF12AE60BF12A000015
:1005F00096313F26803142302000DD000030DC00A3
:100600000030DB000030DA008A316E228031523057
:100610002000E6002B30E5000030890B0D2BE50BA8
:100620000D2BE60B0D2B000096313F26803142301A
:100630002000DD000230DC000030DB000030DA009A
:100640008A316E22803152302000E6002B30E500E6
:100650000030890B292BE50B292BE60B292B0000F9
:1006600096313F26803142302000DD000430DC002E
:100670000030DB000030DA008A316E2280315230E7
:100680002000E6002B30E5000030890B452BE50B00
:10069000452BE60B452B000096313F26803142303A
:1006A0002000DD000630DC000030DB000030DA0026
:1006B0008A316E22803152302000E6002B30E50076
:1006C0000030890B612BE50B612BE60B612B0000E1
:1006D00096313F26803142302000DD000830DC00BA
:1006E0000030DB000030DA008A316E228031523077
:1006F0002000E6002B30E5000030890B7D2BE50B58
:100700007D2BE60B7D2B000096313F268031423059
:100710002000DD000A30DC000030DB000030DA00B1
:100720008A316E22803152302000E6002B30E50005
:100730000030890B992BE50B992BE60B992B0000C8
:1007400096313F26803142302000DD000C30DC0045
:100750000030DB000030DA008A316E228031523006
:100760002000E6002B30E5000030890BB52BE50BAF
:10077000B52BE60BB52B000096313F268031423079
:100780002000DD001430DC000030DB000030DA0037
:100790008A316E2280312E302000E600A930E5003B
:1007A0002F30890BD12BE50BD12BE60BD12B9631BA
:1007B0003F26803142302000DD001C30DC0000305C
:1007C000DB000030DA008A316E2280312E302000CA
:1007D000E600A930E5002F30890BEC2BE50BEC2B64
:1007E000E60BEC2B96313F26803142302000DD00B5
:1007F0002430DC000030DB000030DA008A316E2269
:1008000080312E302000E600A930E5002F30890B22
:10081000072CE50B072CE60B072C96313F26803181
:1008200042302000DD002C30DC000030DB000030E6
:10083000DA008A316E2280312E302000E600A930A5
:10084000E5002F30890B222CE50B222CE60B222C05
:1008500096313F26803142302000DD003430DC000C
:100860000030DB000030DA008A316E2280312E3019
:100870002000E600A930E5002F30890B3D2CE50B68
:100880003D2CE60B3D2C96313F2680314230200036
:10089000DD003C30DC000030DB000030DA008A3163
:1008A0006E2280312E302000E600A930E5002F3086
:1008B000890B582CE50B582CE60B582C96313F260B
:1008C000803142302000DD004430DC000030DB00AD
:1008D0000030DA008A316E2280312E302000E600AE
:1008E000A930E5002F30890B732CE50B732CE60B38
:1008F000732C96313F26803142302000DD004C3091
:10090000DC000030DB000030DA008A316E228031FA
:100910002E302000E600A930E5002F30890B8E2C08
:10092000E50B8E2CE60B8E2C96313F268031423023
:100930002000DD005430DC000030DB000030DA0045
:100940008A316E2280312E302000E600A930E50089
:100950002F30890BA92CE50BA92CE60BA92C96317D
:100960003F26803142302000DD005C30DC0000306A
:10097000DB000030DA008A316E2280312E30200018
:10098000E600A930E5002F30890BC42CE50BC42C00
:10099000E60BC42C96313F26803142302000DD002A
:1009A0006430DC000030DB000030DA008A316E2277
:1009B00080312E302000E600A930E5002F30890B71
:1009C000DF2CE50BDF2CE60BDF2C96313F26803148
:1009D00042302000DD006C30DC000030DB000030F5
:1009E000DA008A316E2280312E302000E600A930F4
:1009F000E5002F30890BFA2CE50BFA2CE60BFA2CCC
:100A000096313F26803142302000DD007430DC001A
:100A10000030DB000030DA008A316E2280312E3067
:100A20002000E600A930E5002F30890B152DE50BDD
:100A3000152DE60B152D96313F26803142302000D2
:100A4000DD007C30DC000030DB000030DA008A3171
:100A50006E2280312E302000E600A930E5002F30D4
:100A6000890B302DE50B302DE60B302D96313F26CE
:100A7000803142302000DD008230DC000030DB00BD
:100A80000030DA008A316E2280312E302000E600FC
:100A9000A930E5002F30890B4B2DE50B4B2DE60BD4
:100AA0004B2D96313F26803142302000DD008630CC
:100AB000DC000030DB000030DA008A316E22803149
:100AC0002E302000E600A930E5002F30890B662D7E
:100AD000E50B662DE60B662D96313F2680314230C0
:100AE0002000DD008A30DC000030DB000030DA005E
:100AF0008A316E2280312E302000E600A930E500D8
:100B00002F30890B812DE50B812DE60B812D963140
:100B10003F26803142302000DD008E30DC00003086
:100B2000DB000030DA008A316E2280312E30200066
:100B3000E600A930E5002F30890B9C2DE50B9C2D9C
:100B4000E60B9C2D96313F268031003093310723F0
:100B50008031003094310C24803101309231C32235
:100B600080312000E70166302000E6007630E500A5
:100B7000C130890BB92DE50BB92DE60BB92D01302C
:100B80002000E5006508E70712306702031CB32D5B
:100B900000309231C322803101309231B92280314C
:100BA0000B302000E6002630E5005D30890BD62DA5
:100BB000E50BD62DE60BD62D003200309231B9224E
:100BC000080023088039F9007908A8002335F900C6
:100BD0007908AE00A21B2E142E080319FC2D2E0A34
:100BE000031DFA2D0030A3000030A2000030A10048
:100BF0000030A000A217042E0030A3000030A20095
:100C00000030A1000030A00027088039F9007908E1
:100C1000A8062735F9007908A900A61B2914290878
:100C200003191F2E290A031D1D2E0030A7000030B6
:100C3000A6000030A5000030A400A617272E003023
:100C4000A7000030A6000030A5000030A40029084D
:100C5000031D2E08031D352E0030A3000030A20016
:100C60000030A1000030A00008002008F900790839
:100C7000F00026089531152585317108B4007008FB
:100C8000B3003308F900FA01FB01FC017C08AD0058
:100C90007B08AC007A08AB007908AA003408F90098
:100CA000FA01FB01FC017C08B2007B08B1007A0864
:100CB000B0007908AF002108F9007908F000250894
:100CC0009531152585317108B4007008B3003308DB
:100CD000F900FA01FB01FC017908AA077A08AB3D8B
:100CE0007B08AC3D7C08AD3D3408F900FA01FB01FE
:100CF000FC017908AF077A08B03D7B08B13D7C085C
:100D0000B23D2208F9007908F00024089531152534
:100D100085317108B4007008B3003308F900FA0196
:100D2000FB01FC017908AA077A08AB3D7B08AC3DC2
:100D30007C08AD3D3408F900FA01FB01FC0179089B
:100D4000AF077A08B03D7B08B13D7C08B23D083062
:100D5000AA35AB0DAC0DAD0D890BA82E2108F900FD
:100D60007908F00024089531152585317108B40003
:100D70007008B3003308AA073408AB3D0030AC3D1F
:100D8000AD3D2008F9007908F000250895311525BA
:100D900085317108B4007008B3003308AA0734081D
:100DA000AB3D0030AC3DAD3D0830AA35AB0DAC0DD0
:100DB000AD0D890BD52E2008F9007908F000240824
:100DC0009531152585317108B4007008B3003308DA
:100DD000AA073408AB3D0030AC3DAD3D2108F90019
:100DE0007908F00026089531152585317108B40081
:100DF0007008B3003308AF073408B03D0030B13D90
:100E0000B23D2208F9007908F00025089531152532
:100E100085317108B4007008B3003308AF07340897
:100E2000B03D0030B13DB23D2208F9007908F00034
:100E300026089531152585317108B4007008B30076
:100E40003308F9003408FA00FB01FC010830F935D9
:100E5000FA0DFB0DFC0D890B272F7908AF077A08D7
:100E6000B03D7B08B13D7C08B23D2D08F900FA0188
:100E7000FB01FC017908AF077A08B03D7B08B13D62
:100E80007C08B23D0830AA35AB0DAC0DAD0D890B19
:100E9000432F2E082907F900FA01FA0D7908823E3E
:100EA000B300FF307A3DB400B11B6B2F0130AF357A
:100EB000B00DB10DB20D890B572FAD1B2F140130A2
:100EC000AA35AB0DAC0DAD0D890B602FFF30B3070C
:100ED000FF30B43D542FA901AD1F842FFF302A05E8
:100EE000F900FF302B05FA00FF302C05FB007F30A6
:100EF0002D05FC007C087B047A04790403192F1863
:100F0000822F842FA901A90A29080319AD2F0130C6
:100F1000AF070030B03D0030B13D0030B23D321C73
:100F2000AD2F2F08F9003008FA003108FB00320815
:100F3000FC000130FD00FC37FB0CFA0CF90CFD0B3A
:100F40009B2F7C08B2007B08B1007A08B0007908BA
:100F5000AF000130B3070030B43D3408803AF900E7
:100F600080307902031DB62FFF303302031CC22FDD
:100F70007F302000B2008030B1000030B00000307F
:100F8000AF00EC2F20003408803AF900803079025D
:100F9000031DCC2F013033020318D92F003020005D
:100FA000B2000030B1000030B0000030AF00A80146
:100FB000EC2F20003308F9007908AE00FF30AF05B0
:100FC000FF30B0057F30B1050030B2052E18B117E3
:100FD0002E36F9007908B2002808F9007908B20421
:100FE0003208A3003108A2003008A1002F08A00099
:100FF0000800F0007008083E860087018114080090
:10100000F901790893318B2388310130F800780891
:10101000F90702307902031808000128A200053000
:10102000A0002008A100220893312D238831003A26
:10103000031D2328003008000130A1022108031DF0
:101040002328FC300800220888319D208831003A8E
:10105000031D1C282208063E86008701403F210010
:101060004802F000413F493BF10094317924883136
:1010700000307102653003197002031C45282000FE
:1010800022089231A12288311A28200022089231A8
:10109000A82288311A28A7002708A5000330A53503
:1010A000FF3E031D4F282535203EA6002608A80038
:1010B000280A86000130870001089331E323883134
:1010C000003A031908002000280A86000130870032
:1010D000010892314F228831003A0319080028088C
:1010E000933120238831200028088A31E722883173
:1010F0002808023E86000130870003300102031CED
:101100008928280886000130870001089731302798
:10111000883120002808A5002508FD002808023E87
:101120008600013087000135A03E86008701413FDF
:101130008A00403F0A0088310800FD00FC012100C0
:101140001D08F8007808F9001E08F8007808FA0071
:1011500092316122883100308B1B0130FB007D0809
:101160009331AD2388317D08860087010108F8009E
:1011700078082000ED007D0886008701453FEC00DF
:101180002100C801C90120006E1093315923883114
:10119000F8007808EB002100C801C9012000EE101A
:1011A0008B138831F02088317B0C031C8B130318C0
:1011B0008B179231CD22883121009D18DC28200028
:1011C0006E1CD028790821009D007A089E0020001E
:1011D000EE1CEE28FA30F8007808FC007C080800C5
:1011E00021001C08F7001B08F60020006E180800FC
:1011F0006C08031D0A29412921002D088A002C08AA
:101200000A0089311B2921002B088A002A080A00BC
:1012100089311B296C080139F400F5017508003A81
:10122000031913291B297408003A0319FC28013AF1
:10123000031903291B290930F4007408F000200069
:101240006D08933169238831B53E86008701010816
:1012500020006C0603193D296C1C38290030F4006D
:101260000430F50076087402F6007708753BF70045
:1012700076082100C8077708C93D01302000EC023C
:10128000080076082100C8077708C93D20006E14C1
:1012900008007D080A3E860001308700403FA0001C
:1012A000413FA10003302102E83003192002031C52
:1012B0006D297D08860001308700010897313027AD
:1012C00089317D0886000130870001082000A000D8
:1012D0002008F00092314B2208007D08093E86006C
:1012E000013087000108803AA0007D080E3E86008C
:1012F000013087007D080E3E8400013085000036F5
:101300000102803AA002031808007D08023E860010
:10131000013087008101810A7D080A3E8600013084
:1013200087000030C03FC13F7D080C3E8600013081
:101330008700FF30C03FFB30C13F7D088600013091
:1013400087000108A0002008F00092314B2208001D
:101350007D080A3E860001308700403FA000413FE3
:10136000A100003021020930031920020318BD2911
:101370007D08973103278931C1297D088B3171237D
:1013800089317D080A3E86000130870001308107DF
:1013900041310318810A7D080A3E8600013087002A
:1013A000403F2000A000413FA1000030210210304A
:1013B00003192002031C08007D08053E8600013049
:1013C0008700403FA000413FA100423FA200433FB1
:1013D000A3000430A336A20CA10CA00C890BEA29AF
:1013E0007D08033E8600013087002008C03F2108A9
:1013F000C13F7D08023E8600013087008101810ADD
:101400007D080A3E8600013087000030C03FC13FA2
:1014100008000310510D520DD3005308D90059088C
:10142000031D1B2A0030D2000030D1000030D00054
:101430000030CF0008004F08D3005008D4005108F6
:10144000D5005208D6001F30D636D50CD40CD30C9C
:10145000890B242A5308D7005708D800D117FF302A
:10146000CF05FF30D005FF30D1050030D2059630D2
:10147000D902D91F4E2A5908803A973E031C122AD6
:101480000130D236D10CD00CCF0C890B412A01305F
:10149000D3005308D90703195F2A402A2030590284
:1014A0000318122A590803195F2A0130CF35D00DCD
:1014B000D10DD20D890B562A0130D902522A580873
:1014C00003190800CF09D009D109D209CF0A03199D
:1014D000D00A0319D10A0319D20A08004230B80011
:1014E0004830B7000030B6000030B5004030A300EF
:1014F000A030A2000030A1000030A0005D08A700CD
:101500005C08A6005B08A5005A08A4008531E12507
:101510008A312308BC002208BB002108BA00200839
:10152000B9008C319F248A313808D2003708D100A5
:101530003608D0003508CF004130D6002030D50025
:101540000030D4000030D3009431F7248A3152089F
:10155000E1005108E0005008DF004F08DE0061089C
:10156000A7006008A6005F08A5005E08A40044303C
:10157000A3007A30A2000030A1000030A000853125
:10158000E1258A312308BC002208BB002108BA00EB
:101590002008B9004230B800C830B7000030B600AB
:1015A0000030B5008C319F248A313808D2003708CA
:1015B000D1003608D0003508CF008A310922500802
:1015C0002100C70020004F082100C6000800A0002D
:1015D0002008053E860001308700403FF000413F73
:1015E000F100423FF200433FF3000430F336F20CC7
:1015F000F10CF00C890BF62A2008033E860001301E
:101600008700403FF400413FF5007408F60075087C
:10161000F700F801F9017008F6027108F73B72084B
:10162000F83B7308F93B7908A4007808A300770811
:10163000A2007608A1002108F0002208F10023088A
:10164000F2002408F30020080F3E860001308700D6
:10165000010A2E2BF337F20CF10CF00C890B2A2B1C
:101660007308A4007208A3007108A2007008A1000A
:10167000A41B502B2408031D472B2308031D472BB5
:101680002208031D472B80302102031C502B003001
:101690002000A4000030A3000030A2007F30A10091
:1016A0002000A41F662B80302102FF30223BFF3038
:1016B000233BFF30243B0318662BFF302000A4009F
:1016C000FF30A300FF30A2008030A10020002108DD
:1016D000F0002008093E8600013087007008810074
:1016E0000800F6008B1FBB2B8B137608053E860087
:1016F00001308700403FF000413FF100423FF200DF
:10170000433FF3000430F336F20CF10CF00C890B7C
:10171000832B7608053E8600013087007008810221
:1017200041317108813B41317208813B413173087D
:10173000813B7D317608033E860001308700403FC3
:10174000F000413FF1007008F2007108F300F4016D
:10175000F5017608053E8600013087007208810792
:1017600041317308813D41317408813D4131750833
:10177000813D8B1708007608053E86000130870002
:10178000403FF000413FF100423FF200433FF30091
:101790000430F336F20CF10CF00C890BC92B7608EF
:1017A000053E8600013087007008810241317108D2
:1017B000813B41317208813B41317308813B7D316E
:1017C0007608033E860001308700403FF000413F2D
:1017D000F1007008F2007108F300F401F5017608D9
:1017E000053E860001308700720881074131730889
:1017F000813D41317408813D41317508813D0800CA
:101800007D08093E8600013087000108803AA0006B
:101810007D080E3E8600013087000103FF3A803AC2
:10182000A00203183E2C7D080A3E86000130870086
:101830000130810741310318810A7D080A3E860084
:1018400001308700403FA000413FA100003021024D
:10185000413003192002031C7C2C7D080A3E8600BF
:10186000013087000030C03FC13F7D088600013055
:1018700087000108973130278C317C2C7D08093E88
:101880008600013087000108A000A101A01BA10370
:101890007D080E3E8600013087002108803A803C9A
:1018A000031D542C200801020318742C0230200060
:1018B000A0007D08023E86000130870020088100DC
:1018C0007D080A3E8600013087000030C03FC13FDE
:1018D0007D088600013087000108A0002008F00084
:1018E00092314B228C317C2C7D080A3E86000130DF
:1018F00087000030C03FC13F7D080C3E86000130AC
:1019000087000130810741310318810A7D080C3EB0
:101910008600013087001600403A2000A000160023
:10192000A004031D08007D080C3E860001308700DE
:101930000030C03FC13F7D088B31712308003C0857
:101940008039BD003D08C6003C35BD003D08CD00D6
:10195000BB1B4D144D080319BB2C4D0A031DB82C9D
:101960000030BC000030BB000030BA000030B900CD
:10197000BB17BC01C32C0030BC000030BB000030E2
:10198000BA000030B90038088039BD003D08C606ED
:101990003835BD003D08CE00B71B4E144E08031964
:1019A000DF2C4E0A031DDC2C0030B8000030B700DD
:1019B0000030B6000030B500B717B801E72C003092
:1019C000B8000030B7000030B6000030B50038086D
:1019D000370436043504031D062D0030BC000030EA
:1019E000BB000030BA000030B9008030BB047F304B
:1019F000BC044608BD003D08BC043C08B8003B08D8
:101A0000B7003A08B6003908B50008004D08031DB4
:101A1000122D0030B8000030B7000030B6000030A2
:101A2000B50008004D08BD00BE013E08C0004E08CC
:101A30003D02BF00031CC0033F087F3EC7000030CB
:101A4000403DC8003C08C5003B08C4003A08C3003C
:101A50003908C2000030BC000030BB000030BA00C2
:101A60000030B9000030CC000030CB000030CA009C
:101A70000030C900CE011A304E020318772D4E08EF
:101A80000319592D0130C235C30DC40DC50D890B85
:101A9000432D0130B935BA0DBB0DBC0D890B4A2D54
:101AA000CC1B39140130C935CA0DCB0DCC0D890BB7
:101AB000532D38084502031D672D37084402031DC6
:101AC000672D36084302031D672D35084202031CAB
:101AD000722D4C173508C2023608C33B3708C43B89
:101AE0003808C53B0130BD003D08CE073B2D4508F9
:101AF000440443044204031D4914BB1B942D0130CC
:101B0000B935BA0DBB0DBC0D890B802DCC1B39141A
:101B10000130C935CA0DCB0DCC0D890B892DFF3095
:101B2000C707FF30C83D7D2DCE01CC1FAD2DFF3046
:101B30004905BD00FF304A05BE00FF304B05BF0020
:101B40007F304C05C00040083F043E043D040319AB
:101B50003918AB2DAD2DCE01CE0A4E080319D62D66
:101B60000130B9070030BA3D0030BB3D0030BC3D0C
:101B70003C1CD62D3908BD003A08BE003B08BF000A
:101B80003C08C0000130C100C037BF0CBE0CBD0C0A
:101B9000C10BC42D4008BC003F08BB003E08BA0082
:101BA0003D08B9000130C7070030C83D4808803AF9
:101BB000BD0080303D02031DDF2DFF304702031CB6
:101BC000EE2DFF302000C7000030C8000030BC0000
:101BD0000030BB000030BA000030B90020004808D7
:101BE000803ABD0080303D02031DF82D01304702D0
:101BF0000318062E2000C701C8010030BC000030C9
:101C0000BB000030BA000030B900C6012000470810
:101C1000BD003D08CD004D1C0F2EBB17132E7F308D
:101C2000BD003D08BB054D36BD003D08BC00F92C8C
:101C300073088039A0002008F8007335A000200840
:101C4000FA00F21B7A147A080319342E7A0A031D5B
:101C5000312E0030F3000030F2000030F10000308F
:101C6000F000F217F3013C2E0030F3000030F200D8
:101C70000030F1000030F00077088039A000200823
:101C8000F90079087806031D78177735A000200839
:101C9000F900F61B7914790803195C2E790A031DE3
:101CA000592E0030F7000030F6000030F50000300B
:101CB000F400F617F701642E0030F7000030F6004C
:101CC0000030F5000030F4007A0879020318AA2EDB
:101CD000781F6E2E8030A0002008F8067A08A00039
:101CE0002008FB007908A0002008FA007B08A0006B
:101CF0002008F9007008A0002008FB007408A0006C
:101D00002008F0007B08A0002008F4007108A00063
:101D10002008FB007508A0002008F1007B08A00047
:101D20002008F5007208A0002008FB007608A0003B
:101D30002008F2007B08A0002008F6007308A0002D
:101D40002008FB007708A0002008F3007B08A00013
:101D50002008F700FB017908A000A1012108A300D9
:101D60007A082002A200031CA3032308803AA400DF
:101D700080302402031DBE2E1A302202031CF42ED2
:101D800073087204710470040319C82E0130C92E3F
:101D900000302000A0002008FB000030F3000030DD
:101DA000F2000030F1000030F0007908A0002008B7
:101DB000FA00F82E7B1CE32E7B3601382000A000B1
:101DC0002008FB00E52E0310FB0C7018FB170130F8
:101DD0002000A000F337F20CF10CF00CA00BEA2E5F
:101DE0000130A0002008FA0779087A02031CDA2ED5
:101DF000781B2B2F7A08031D062F0030F3000030CC
:101E0000F2000030F1000030F00008007408F00724
:101E10007508F13D7608F23D7708F33D731CA62F57
:101E20007B1C192F7B3601382000A0002008FB0006
:101E30001B2F0310FB0C7018FB1701302000A000B3
:101E4000F337F20CF10CF00CA00B202F0130A000A6
:101E50002008FA07A62F7308803A2000A000770810
:101E6000803A2002031D3E2F76087202031D3E2F8A
:101E700075087102031D3E2F740870020318762F37
:101E8000FF30A000FF30A100FF30A200FF30A30010
:101E900070087402A4007108753BA5007208763BB7
:101EA000A6007308773BA7002408A0072508A13DDA
:101EB0002608A23D2708A33D2308F3002208F200CC
:101EC0002108F1002008F0008030A0002008F8066A
:101ED000FB09FB0A7B08031D7E2F0130F007003051
:101EE000F13D0030F23D0030F33D7E2F7408F002EA
:101EF0007508F13B7608F23B7708F33B73087204F0
:101F000071047004031DA42F7B08031DA42F00304F
:101F1000F3000030F2000030F1000030F000080063
:101F20000130F035F10DF20DF30D890B912FFB1BF4
:101F300070147B1C9D2F03149E2F0310FB0D7A0839
:101F40000319A42F0130FA02F21F902FF901FB1F91
:101F5000B12F7B087F3903197018AF2FB12FF9010A
:101F6000F90A79080319DE2F0130F0070030F13D3E
:101F70000030F23D0030F33D731CDE2F700820006E
:101F8000A0007108A1007208A2007308A30001302C
:101F9000A400A337A20CA10CA00CA40BC92F2308EA
:101FA000F3002208F2002108F1002008F0007A0A6C
:101FB0000319DE2F0130A0002008FA077A0A031D5A
:101FC0007A08031DEE2F0030F3000030F2000030DD
:101FD000F1000030F0007A080319F8017A1CF22FA2
:101FE000F217F72F7F302000A0002008F2057A3684
:101FF0002000A0002008F300F81F0800F3170800D5
:10248C0008000800080008000800080008001C15D7
:10249C0008000130080020001C1108002800171546
:1024AC00080028001711080094314C24080016303D
:1024BC0021009700080021009D0190309E0008002B
:1024CC007108D2007008D10008007108D0007008A3
:1024DC00CF0008007108CE007008CD00080027005E
:1024EC00131D0800933113230800703099009801D4
:1024FC0022009601080071082100D4007008D30056
:10250C000800640080010131890B882A0034FE0028
:10251C0012001E00FE0B8E2A003420006A03031DDD
:10252C00080092314D220800F0007008083E860029
:10253C00870181100800F0007008083E86008701B2
:10254C0001150800F0007008083E86008701011193
:10255C000800F0007003031DB62A22000E150800B7
:10256C0022000E110800F0007003031DC02A220087
:10257C000E16080022000E120800F0007003031D56
:10258C00CA2A22008E15080022008E1108006B0842
:10259C00F0007008F1007108031908000130F10215
:1025AC00D12A911021005108520403190800520835
:1025BC008A0051080A0092310800931021004F083C
:1025CC0050040319080050088A004F080A00923181
:1025DC000800931121004D084E04031908004E0801
:1025EC008A004D080A00923108008831002092318F
:1025FC009431C22492319331D023923192316122A1
:10260C000800F0007003031D0E2B923154220800B9
:10261C009231572222000E11080021005308540455
:10262C0003191D2B54088A0053080A009331270004
:10263C0013110800FB008B1F292B8B137B08973180
:10264C0066278B1708007B08973166270800F00077
:10265C0070080319382B7008083E860087010108A2
:10266C000139080000300800AA012A0888314B20E3
:10267C00933101302000A9002908AA0702302A0250
:10268C00031808003B2BC73020009B009A019110C7
:10269C00210091144730F0001230F1009231662283
:1026AC0020009C0108006F1C5D2B6F36632B6F366E
:1026BC00F0007008EF006F08B43AF0007008EF00FB
:1026CC006F080F390800F300F201731C712B7008AE
:1026DC00F1007108F2070310F00D0310F30C7308EE
:1026EC00031D6B2B72080800F500023075020318ED
:1026FC0008000930F4007408F00075089331692360
:10270C00B83E8600870101140800F7007708933162
:10271C007A2393310930F6007608F000770893316C
:10272C0069239331B03E92319A2208007C30960096
:10273C00950120009310210093144830F0001230C2
:10274C00F10092316B220230280097000800F00053
:10275C00700A86008701403FAC00413FAD00700815
:10276C00033E86008701403FAA00413FAB000800B2
:10277C00C73028009D009C01200093112100931567
:10278C004930F0001230F1009231702204302800F0
:10279C009E000800B030F1007108F200B930F10071
:1027AC0072087102031C0800720892319A2293314C
:1027BC000930F1007108F207D42BF50002307502D4
:1027CC000318F52B0930F4007408F00075089331E8
:1027DC006923B83E86008701010C013908000030DE
:1027EC0008009631B026933192317B22933192318D
:1027FC005D2293319331BE23933193319C239331DA
:10280C009331492393319231FB2208002000E200DE
:10281C006203031D142CEA01EA0A08004030DD00B3
:10282C004030DC000030DB000030DA008A316E22F0
:10283C002000EA0108002000A90129089731B327DC
:10284C009431003A03192C2C003008000130A800F8
:10285C002808A90702302902031C232C0130080088
:10286C0000309231AF2294310030933107239431F0
:10287C0000309231C322943100309231B92294311C
:10288C00003094310C2422008E120800F4017408DC
:10289C00F3000330F335FF3E031D502C7335203EFF
:1028AC009631892694310130F3007308F407023015
:1028BC007402031808004D2CF7000230770203183D
:1028CC00762C0930F6007608F000770893316923EE
:1028DC00B63E86008701403FF400413FF5000800FA
:1028EC00F401F50108007108803AF20080307202A0
:1028FC00031D822C01307002031808007009F200CD
:10290C007109F300F20A0319F30A7208F000730854
:10291C00F10008000130C2070030C33D0330430210
:10292C00E83003194202031C0800C201C301031062
:10293C0022000E1D0314031CA62C22000E150800E9
:10294C0022000E110800F0008B1FB82C8B1370089E
:10295C00063E8600870121004808C03F4908C13F58
:10296C008B1708007008063E860087012100480876
:10297C00C03F4908C13F08000030F0009830F1001A
:10298C002030F2000030F30020309631D8269431FC
:10299C00FB017B089731302794310130FA007A081B
:1029AC00FB0702307B0203180800CF2CF100023029
:1029BC0071020318F52C7108F0000330F035FF3E5E
:1029CC00031DE42C7035223E860001308700023056
:1029DC000106031DF32C0130080000300800003004
:1029EC0008008030D2065608F3005508F20054084F
:1029FC00F1005308F0005208F7005108F600500897
:102A0C00F5004F08F4008E31182673082000D20010
:102A1C007208D1007108D0007008CF000800F800CF
:102A2C00F401F5017008F200F3017208F600730866
:102A3C00F700781C252D7608F4077708F53D013052
:102A4C00F635F70D890B262D0310F80C7808031DAD
:102A5C001F2D7508F1007408F000080022000E17F5
:102A6C00210021309D000530890B3A2D00008E305D
:102A7C008400003085000E30860001308700253040
:102A8C0080179D00003200320032003221009D146C
:102A9C000032000022008E178013080022008E17CF
:102AAC00210025309D000530890B5A2D00008E30F9
:102ABC008400003085000E30860001308700213004
:102ACC0000179D00003200320032003221009D14AC
:102ADC000032000022000E170013080022000E1313
:102AEC00210021309D000530890B7A2D00008E309D
:102AFC008400003085000E308600013087002530C0
:102B0C0080179D00003200320032003221009D14EB
:102B1C000032000022008E138013080022008E1356
:102B2C00210025309D000530890B9A2D00008E3038
:102B3C008400003085000E30860001308700213083
:102B4C0000179D00003200320032003221009D142B
:102B5C000032000022000E13001308009331F723FB
:102B6C0095319431362495318B170B179330F00037
:102B7C001230F1009231812295311A30F00016306A
:102B8C00F1009231662295319030F0001430F10052
:102B9C0092316B229531963164269531D12DA83422
:102BAC00093400340C34493409344B3412344B346A
:102BBC00123494341534543415344C3412340034E7
:102BCC005434153494341534203400340034003427
:102BDC000134343415347434153420340034003456
:102BEC00003421004A080319FF2D9231FB22953144
:102BFC00CA01CB01CB0A943121249531003A031D33
:102C0C00092E0030080093313A239531803102208F
:102C1C009531AB002B082100CB009331D02395319B
:102C2C0092315A220130080020006A03031D3B2E0A
:102C3C0001302100C4070030C53D47084502031D83
:102C4C00292E46084402031C302EC401C501220063
:102C5C008E16080020008E1E08002100C401C5013C
:102C6C009231512222008E1208002100C401C501AC
:102C7C0008009531F7259631013A031D0800013003
:102C8C009431DC249631013A031D08000130923155
:102C9C00B92296310B302000E4002630E3005D3081
:102CAC00890B562EE30B562EE40B562E00320030B9
:102CBC009231B92296319431362408009531F7259A
:102CCC009631013A031D080000309431DC24963112
:102CDC00013A031D080001309231B92296310230BD
:102CEC002000E9000430E800BA30890B7B2EE80B99
:102CFC007B2EE90B7B2E000000309231B9229631ED
:102D0C00803154200800F2007208023E8600013027
:102D1C00870002300106031D080072080A3E860077
:102D2C00013087000130810741310318810A720894
:102D3C000A3E86000130870016000104031D0800BE
:102D4C0072080A3E860001308700FF30C03FFF301A
:102D5C00C13F080022008C018D018E012F30210013
:102D6C008C0070308D0003308E00033023008E00F9
:102D7C0030308D0003308C0024008D0104308C0029
:102D8C008E012100951322009D019E012700131135
:102D9C00121111154630F0001230F10092318122DF
:102DAC008B150800F8007108F6007008F50078081B
:102DBC00F4007408F9000130F2020030F33B720A9F
:102DCC000319730A03190800750884007608850036
:102DDC000008F4007408F7000130F5070030F63DE8
:102DEC007708F400790886000130870074088100A8
:102DFC000130F4007408F907E12EFC007C0A86000F
:102E0C000130870001089431622497317408F8006E
:102E1C007508F900FA01FB017C08053E86000130BB
:102E2C0087007808C03F7908C13F7A08C23F7B0809
:102E3C00C33F7C08053E8600013087000430813595
:102E4C004131810D4131810D4131810D7D31890B34
:102E5C00252F0800F2007208F0000330F035FF3E19
:102E6C00031D342F7035203EF1007108F3007308F8
:102E7C00023E86000130870081017308053E860002
:102E8C00013087000030C03F0030C13FC23FC33F1C
:102E9C0073080A3E8600013087000030C03FC13FF6
:102EAC0073080C3E8600013087000030C03FC13FE4
:102EBC00730A860001308700010892314A2208000B
:102ECC00FA007A08023E86000130870001080319D7
:102EDC00A22F7A08033E860001308700403FF8009D
:102EEC00413FF900F936F80CF936F80C7A08033E34
:102EFC008600013087007808810241317908813BD6
:102F0C007F317A0A860001308700010894316224EF
:102F1C007408F8007508F900F936F80CF936F80C55
:102F2C007A08033E8600013087007808810741311A
:102F3C007908813D7F3108007A0A860001308700CC
:102F4C000108943162247A08033E86000130870020
:102F5C007408C03F7508C13F0800A5000930A300E4
:102F6C002308F0002508933169239731B03E2000E7
:102F7C00A4002408A700270888310E209731A3004D
:102F8C002308A600E12F270893312D239731003A0F
:102F9C000319FE2F27089431A92497312000270804
:102FAC008731F92797312508A3002308F0009231C7
:102FBC004C229731FE2F2608A300A401A31BA403C7
:102FCC002408003A0319EE2FFF3A0319F32FFE2FB2
:102FDC002308003A0319C92FFE2F2308FD3A0319C1
:102FEC00FE2F033A0319FE2F013A0319FE2FFE2F71
:102FFC002608080000340034003400340034003457
:10300C000034003400340034003400340034003414
:10301C007D34013401340134003400340034003484
:10302C0000340034003400340034003400340034F4
:10303C007D34013400340034C8344234003400345C
:04304C0020344134B7
:020000040001F9
:08000000FF3FFF3FFF3FFF3F00
:04000E00E43DFF3E90
:00000001FF
