:1000000080312D28003008007E1480318B190B1CA4
:100010000D289231972280312B280B1F2B2821008D
:10002000931D19282000931D19289331182380311E
:100030002B282100931C23282000931C2328933174
:100040000C2380312B282100911C2B282000911C8F
:100050002B28933100237E10090080312F28013096
:10006000840088308500A030860000308700223070
:100070009231AF22803166308400003085000A3032
:100080009231A9228031CA308400003085000830C6
:100090009231A92280312030840001308500203047
:1000A0009231A9227E1020009631082E0130933122
:1000B0003023803101309431772480314130DD00AC
:1000C0002030DC000030DB000030DA008A313E22D4
:1000D000803110302000E4003930E3000D30890B0E
:1000E0006F28E30B6F28E40B6F2800329331A023B5
:1000F000803141302000DD003030DC000030DB009A
:100100000030DA008A313E22803110302000E400D5
:100110003930E3000D30890B8B28E30B8B28E40B7F
:100120008B2800329331A023803141302000DD0044
:100130004030DC000030DB000030DA008A313E2243
:10014000803110302000E4003930E3000D30890B9D
:10015000A728E30BA728E40BA72800329331A0239C
:10016000803141302000DD005030DC000030DB0009
:100170000030DA008A313E22803110302000E40065
:100180003930E3000D30890BC328E30BC328E40B9F
:10019000C32800329331A023803141302000DD009C
:1001A0006030DC000030DB000030DA008A313E22B3
:1001B000803110302000E4003930E3000D30890B2D
:1001C000DF28E30BDF28E40BDF2800329331A02384
:1001D000803141302000DD007030DC000030DB0079
:1001E0000030DA008A313E22803110302000E400F5
:1001F0003930E3000D30890BFB28E30BFB28E40BBF
:10020000FB2800329331A023803141302000DD00F3
:100210008030DC000030DB000030DA008A313E2222
:10022000803110302000E4003930E3000D30890BBC
:100230001729E30B1729E40B172900329331A02368
:10024000803141302000DD008830DC000030DB00F0
:100250000030DA008A313E22803110302000E40084
:100260003930E3000D30890B3329E30B3329E40BDC
:10027000332900329331A023803141302000DD004A
:100280009030DC000030DB000030DA008A313E22A2
:10029000803110302000E4003930E3000D30890B4C
:1002A0004F29E30B4F29E40B4F2900329331A02350
:1002B000803141302000DD009830DC000030DB0070
:1002C0000030DA008A313E22803110302000E40014
:1002D0003930E3000D30890B6B29E30B6B29E40BFC
:1002E0006B2900329331A023803141302000DD00A2
:1002F000A030DC000030DB000030DA008A313E2222
:10030000803110302000E4003930E3000D30890BDB
:100310008729E30B8729E40B872900329331A02337
:10032000803141302000DD00A830DC000030DB00EF
:100330000030DA008A313E22803110302000E400A3
:100340003930E3000D30890BA329E30BA329E40B1B
:10035000A32900329331A023803141302000DD00F9
:10036000B030DC000030DB000030DA008A313E22A1
:10037000803110302000E4003930E3000D30890B6B
:10038000BF29E30BBF29E40BBF2900329331A0231F
:10039000803141302000DD00B830DC000030DB006F
:1003A0000030DA008A313E22803110302000E40033
:1003B0003930E3000D30890BDB29E30BDB29E40B3B
:1003C000DB2900329331A023803141302000DD0051
:1003D000C030DC000030DB000030DA008A313E2221
:1003E000803110302000E4003930E3000D30890BFB
:1003F000F729E30BF729E40BF72900329331A02307
:10040000803141302000DD00C830DC000030DB00EE
:100410000030DA008A313E22803110302000E400C2
:100420003930E3000D30890B132AE30B132AE40B58
:10043000132A00329331A023803141302000DD00A7
:10044000D030DC000030DB000030DA008A313E22A0
:10045000803110302000E4003930E3000D30890B8A
:100460002F2AE30B2F2AE40B2F2A00329331A023EB
:10047000803141302000DD00D830DC000030DB006E
:100480000030DA008A313E22803110302000E40052
:100490003930E3000D30890B4B2AE30B4B2AE40B78
:1004A0004B2A00329331A023803141302000DD00FF
:1004B000E030DC000030DB000030DA008A313E2220
:1004C000803110302000E4003930E3000D30890B1A
:1004D000672AE30B672AE40B672A00329331A023D3
:1004E000803141302000DD00E830DC000030DB00EE
:1004F0000030DA008A313E22803110302000E400E2
:100500003930E3000D30890B832AE30B832AE40B97
:10051000832A00329331A023803141302000DD0056
:10052000F030DC000030DB000030DA008A313E229F
:10053000803110302000E4003930E3000D30890BA9
:100540009F2AE30B9F2AE40B9F2A00329331A023BA
:10055000803141302000DD00F430DC000030DB0071
:100560000030DA008A313E22803133302000E4004E
:10057000BB30E300DF30890BBB2AE30BBB2AE40B63
:10058000BB2A00329331A023803141302000DD00AE
:10059000F830DC000030DB000030DA008A313E2227
:1005A000803133302000E400BB30E300DF30890BC2
:1005B000D72AE30BD72AE40BD72A00329331A023A2
:1005C000803141302000DD00FC30DC000030DB00F9
:1005D0000030DA008A313E22803133302000E400DE
:1005E000BB30E300DF30890BF32AE30BF32AE40B83
:1005F000F32A00329331A023803142302000DD0005
:100600000030DC000030DB000030DA008A313E22AE
:10061000803133302000E400BB30E300DF30890B51
:100620000F2BE30B0F2BE40B0F2B00329331A02386
:10063000803142302000DD000230DC000030DB0081
:100640000030DA008A313E22803133302000E4006D
:10065000BB30E300DF30890B2B2BE30B2B2BE40BA0
:100660002B2B00329331A023803142302000DD005B
:100670000430DC000030DB000030DA008A313E223A
:10068000803133302000E400BB30E300DF30890BE1
:10069000472BE30B472BE40B472B00329331A0236E
:1006A000803142302000DD000630DC000030DB000D
:1006B0000030DA008A313E22803133302000E400FD
:1006C000BB30E300DF30890B632BE30B632BE40BC0
:1006D000632B00329331A023803142302000DD00B3
:1006E0000830DC000030DB000030DA008A313E22C6
:1006F000803133302000E400BB30E300DF30890B71
:100700007F2BE30B7F2BE40B7F2B00329331A02355
:10071000803142302000DD000A30DC000030DB0098
:100720000030DA008A313E22803133302000E4008C
:10073000BB30E300DF30890B9B2BE30B9B2BE40BDF
:100740009B2B00329331A023803142302000DD000A
:100750000C30DC000030DB000030DA008A313E2251
:10076000803133302000E400BB30E300DF30890B00
:10077000B72BE30BB72BE40BB72B00329331A0233D
:10078000803142302000DD001430DC000030DB001E
:100790000030DA008A313E2280311F302000E40030
:1007A0007130E3001E30890BD32BE30BD32BE40B0A
:1007B000D32B00009331A023803142302000DD0094
:1007C0001C30DC000030DB000030DA008A313E22D1
:1007D00080311F302000E4007130E3001E30890BAF
:1007E000EF2BE30BEF2BE40BEF2B00009331A02357
:1007F000803142302000DD002430DC000030DB009E
:100800000030DA008A313E2280311F302000E400BF
:100810007130E3001E30890B0B2CE30B0B2CE40B27
:100820000B2C00009331A023803142302000DD00EA
:100830002C30DC000030DB000030DA008A313E2250
:1008400080311F302000E4007130E3001E30890B3E
:10085000272CE30B272CE40B272C00009331A0233B
:10086000803142302000DD003430DC000030DB001D
:100870000030DA008A313E2280311F302000E4004F
:100880007130E3001E30890B432CE30B432CE40B47
:10089000432C00009331A023803142302000DD0042
:1008A0003C30DC000030DB000030DA008A313E22D0
:1008B00080311F302000E4007130E3001E30890BCE
:1008C0005F2CE30B5F2CE40B5F2C00009331A02323
:1008D000803142302000DD004430DC000030DB009D
:1008E0000030DA008A313E2280311F302000E400DF
:1008F0007130E3001E30890B7B2CE30B7B2CE40B67
:100900007B2C00009331A023803142302000DD0099
:100910004C30DC000030DB000030DA008A313E224F
:1009200080311F302000E4007130E3001E30890B5D
:10093000972CE30B972CE40B972C00009331A0230A
:10094000803142302000DD005430DC000030DB001C
:100950000030DA008A313E2280311F302000E4006E
:100960007130E3001E30890BB32CE30BB32CE40B86
:10097000B32C00009331A023803142302000DD00F1
:100980005C30DC000030DB000030DA008A313E22CF
:1009900080311F302000E4007130E3001E30890BED
:1009A000CF2CE30BCF2CE40BCF2C00009331A023F2
:1009B000803142302000DD006430DC000030DB009C
:1009C0000030DA008A313E2280311F302000E400FE
:1009D0007130E3001E30890BEB2CE30BEB2CE40BA6
:1009E000EB2C00009331A023803142302000DD0049
:1009F0006C30DC000030DB000030DA008A313E224F
:100A000080311F302000E4007130E3001E30890B7C
:100A1000072DE30B072DE40B072D00009331A023D6
:100A2000803142302000DD007430DC000030DB001B
:100A30000030DA008A313E2280311F302000E4008D
:100A40007130E3001E30890B232DE30B232DE40BC3
:100A5000232D00009331A023803142302000DD009F
:100A60007C30DC000030DB000030DA008A313E22CE
:100A700080311F302000E4007130E3001E30890B0C
:100A80003F2DE30B3F2DE40B3F2D00009331A023BE
:100A9000803142302000DD008230DC000030DB009D
:100AA0000030DA008A313E2280311F302000E4001D
:100AB0007130E3001E30890B5B2DE30B5B2DE40BE3
:100AC0005B2D00009331A023803142302000DD00F7
:100AD0008630DC000030DB000030DA008A313E2254
:100AE00080311F302000E4007130E3001E30890B9C
:100AF000772DE30B772DE40B772D00009331A023A6
:100B0000803142302000DD008A30DC000030DB0024
:100B10000030DA008A313E2280311F302000E400AC
:100B20007130E3001E30890B932DE30B932DE40B02
:100B3000932D00009331A023803142302000DD004E
:100B40008E30DC000030DB000030DA008A313E22DB
:100B500080311F302000E4007130E3001E30890B2B
:100B6000AF2DE30BAF2DE40BAF2D00009331A0238D
:100B7000803100309331302380310030943177243C
:100B8000803101309231EC2280312000E501663065
:100B90002000E4007630E300C130890BCD2DE30B5B
:100BA000CD2DE40BCD2D01302000E3006308E507D7
:100BB00012306502031CC72D00309231EC228031C7
:100BC00001309231E22280310B302000E4002630E7
:100BD000E3005D30890BEA2DE30BEA2DE40BEA2DEF
:100BE000003200309231E222080073088039A00000
:100BF0002008F8007335A0002008FA00F21B7A14D0
:100C00007A080319112E7A0A031D0E2E0030F30004
:100C10000030F2000030F1000030F000F217F30174
:100C2000192E0030F3000030F2000030F1000030E7
:100C3000F00077088039A0002008F90079087806CC
:100C4000031D78177735A0002008F900F61B7914EA
:100C500079080319392E790A031D362E0030F70062
:100C60000030F6000030F5000030F400F617F70110
:100C7000412E0030F7000030F6000030F500003063
:100C8000F4007A0879020318872E781F4B2E8030E3
:100C9000A0002008F8067A08A0002008FB007908C8
:100CA000A0002008FA007B08A0002008F9007008C6
:100CB000A0002008FB007408A0002008F0007B08BA
:100CC000A0002008F4007108A0002008FB007508AF
:100CD000A0002008F1007B08A0002008F5007208A1
:100CE000A0002008FB007608A0002008F2007B0886
:100CF000A0002008F6007308A0002008FB00770879
:100D0000A0002008F3007B08A0002008F700FB01EA
:100D10007908A000A1012108A3007A082002A200FE
:100D2000031CA3032308803AA40080302402031D7F
:100D30009B2E1A302202031CD12E730872047104F8
:100D400070040319A52E0130A62E00302000A0004B
:100D50002008FB000030F3000030F2000030F1000A
:100D60000030F0007908A0002008FA00D52E7B1C86
:100D7000C02E7B3601382000A0002008FB00C22EC8
:100D80000310FB0C7018FB1701302000A000F33794
:100D9000F20CF10CF00CA00BC72E0130A0002008C3
:100DA000FA0779087A02031CB72E781B082F7A08F5
:100DB000031DE32E0030F3000030F2000030F1009C
:100DC0000030F00008007408F0077508F13D76085F
:100DD000F23D7708F33D731C832F7B1CF62E7B3688
:100DE00001382000A0002008FB00F82E0310FB0CA7
:100DF0007018FB1701302000A000F337F20CF10C43
:100E0000F00CA00BFD2E0130A0002008FA07832F64
:100E10007308803A2000A0007708803A2002031D62
:100E20001B2F76087202031D1B2F75087102031D0C
:100E30001B2F740870020318532FFF30A000FF30DF
:100E4000A100FF30A200FF30A30070087402A400CC
:100E50007108753BA5007208763BA6007308773BC6
:100E6000A7002408A0072508A13D2608A23D2708C1
:100E7000A33D2308F3002208F2002108F100200816
:100E8000F0008030A0002008F806FB09FB0A7B0870
:100E9000031D5B2F0130F0070030F13D0030F23DC3
:100EA0000030F33D5B2F7408F0027508F13B7608C3
:100EB000F23B7708F33B7308720471047004031D5E
:100EC000812F7B08031D812F0030F3000030F200DA
:100ED0000030F1000030F00008000130F035F10D75
:100EE000F20DF30D890B6E2FFB1B70147B1C7A2FF8
:100EF00003147B2F0310FB0D7A080319812F013097
:100F0000FA02F21F6D2FF901FB1F8E2F7B087F392C
:100F1000031970188C2F8E2FF901F90A790803191B
:100F2000BB2F0130F0070030F13D0030F23D0030C2
:100F3000F33D731CBB2F70082000A0007108A100B6
:100F40007208A2007308A3000130A400A337A20C0A
:100F5000A10CA00CA40BA62F2308F3002208F2007A
:100F60002108F1002008F0007A0A0319BB2F013094
:100F7000A0002008FA077A0A031D7A08031DCB2F68
:100F80000030F3000030F2000030F1000030F000DB
:100F90007A080319F8017A1CCF2FF217D42F7F306B
:100FA0002000A0002008F2057A362000A0002008CA
:100FB000F300F81F0800F317080020006908031960
:100FC000E62F9331242387312000E901EA01EA0A60
:100FD00094314E248731003A031DF02F0030080071
:100FE000933171238731803102208731AB002B0888
:100FF000EA0094312724873192317C2201300800A5
:10100000080078340934D0340B34193409346E3480
:1010100012346E341234E8341534A83415340034E4
:1010200008340034A8341534E8341534203400343E
:1010300000340034013488341534C8341534203475
:10104000003400340034FD00FC0121001D08F800CC
:101050007808F9001E08F8007808FA009231832217
:10106000883100308B1B0130FB007D089431042453
:1010700088317D08860087010108F8007808200083
:10108000ED007D0886008701453FEC00E601E701A1
:101090006E10933190238831F8007808EB00E60158
:1010A000E701EE108B138831C42088317B0C031CC0
:1010B0008B1303188B179231F622883121009D186B
:1010C0005E2820006E1C5228790821009D007A08B5
:1010D0009E002000EE1C7028FA30F8007808FC0012
:1010E0007C080800A7002708A5000330A535FF3EAF
:1010F000031D76282535203EA6002608A800280ACC
:10110000860001308700010894313A248831003A82
:10111000031908002000280A860001308700010812
:10112000923171228831003A03190800280893315E
:1011300049238831200028088A31B72288312808BD
:10114000023E86000130870003300102031CB028F4
:10115000280886000130870001089631F52688317D
:1011600020002808A5002508FD002808023E86006A
:10117000013087000135A03E86008701413F8A008B
:10118000403F0A008831080021001C08F7001B08B6
:10119000F60020006E1808006C08031DDE281329D5
:1011A00021002D088A002C080A008831EF28210030
:1011B0002B088A002A080A008831EF286C080139B8
:1011C000F400F5017508003A0319E728EF287408C0
:1011D000003A0319D028013A0319D728EF2809301B
:1011E000F4007408F00020006D089331C0238831AA
:1011F000B53E86008701010820006C0603191029FE
:101200006C1C0C290030F4000430F50076087402E0
:10121000F6007708753BF7007608E6077708E73DA4
:101220000130EC0208007608E6077708E73D6E1407
:1012300008007D080A3E860001308700403FA0007C
:10124000413FA10003302102E83003192002031CB2
:101250003D297D0886000130870001089631F5267A
:1012600089317D0886000130870001082000A00038
:101270002008F00092316E2208007D08093E8600A9
:10128000013087000108803AA0007D080E3E8600EC
:10129000013087007D080E3E840001308500003655
:1012A0000102803AA002031808007D08023E860071
:1012B000013087008101810A7D080A3E86000130E5
:1012C00087000030C03FC13F7D080C3E86000130E2
:1012D0008700FF30C03FFB30C13F7D0886000130F2
:1012E00087000108A0002008F00092316E2208005B
:1012F0007D080A3E860001308700403FA000413F44
:10130000A1000030210209300319200203188D29A1
:101310007D089631C826893191297D088B3141237A
:1013200089317D080A3E860001308700013081073F
:1013300041310318810A7D080A3E8600013087008A
:10134000403F2000A000413FA100003021021030AA
:1013500003192002031C08007D08053E86000130A9
:101360008700403FA000413FA100423FA200433F11
:10137000A3000430A336A20CA10CA00C890BBA293F
:101380007D08033E8600013087002008C03F210809
:10139000C13F7D08023E8600013087008101810A3D
:1013A0007D080A3E8600013087000030C03FC13F03
:1013B00008000310510D520DD3005308D9005908ED
:1013C000031DEB290030D2000030D1000030D000E6
:1013D0000030CF0008004F08D3005008D400510857
:1013E000D5005208D6001F30D636D50CD40CD30CFD
:1013F000890BF4295308D7005708D800D117FF30BC
:10140000CF05FF30D005FF30D1050030D205963032
:10141000D902D91F1E2A5908803A973E031CE22997
:101420000130D236D10CD00CCF0C890B112A0130EF
:10143000D3005308D90703192F2A102A2030590244
:101440000318E229590803192F2A0130CF35D00D8E
:10145000D10DD20D890B262A0130D902222A580833
:1014600003190800CF09D009D109D209CF0A0319FD
:10147000D00A0319D10A0319D20A08004230B80071
:101480004830B7000030B6000030B5004030A3004F
:10149000A030A2000030A1000030A0005D08A7002D
:1014A0005C08A6005B08A5005A08A4008D31E82559
:1014B0008A312308BC002208BB002108BA0020089A
:1014C000B9008C316F248A313808D2003708D10036
:1014D0003608D0003508CF004130D6002030D50086
:1014E0000030D4000030D30095314B258A315208AA
:1014F000E1005108E0005008DF004F08DE006108FD
:10150000A7006008A6005F08A5005E08A40044309C
:10151000A3007A30A2000030A1000030A0008D317D
:10152000E8258A312308BC002208BB002108BA0044
:101530002008B9004230B800C830B7000030B6000B
:101540000030B5008C316F248A313808D20037085A
:10155000D1003608D0003508CF008931D921500894
:101560002100CF0020004F082100CE000800A0007D
:101570002008053E860001308700403FF000413FD3
:10158000F100423FF200433FF3000430F336F20C27
:10159000F10CF00C890BC62A2008033E86000130AE
:1015A0008700403FF400413FF5007408F6007508DD
:1015B000F700F801F9017008F6027108F73B7208AC
:1015C000F83B7308F93B7908A4007808A300770872
:1015D000A2007608A1002108F0002208F1002308EB
:1015E000F2002408F30020080F3E86000130870037
:1015F000010AFE2AF337F20CF10CF00C890BFA2ADF
:101600007308A4007208A3007108A2007008A1006A
:10161000A41B202B2408031D172B2308031D172BA5
:101620002208031D172B80302102031C202B0030C1
:101630002000A4000030A3000030A2007F30A100F1
:101640002000A41F362B80302102FF30223BFF30C8
:10165000233BFF30243B0318362BFF302000A4002F
:10166000FF30A300FF30A2008030A100200021083D
:10167000F0002008093E86000130870070088100D4
:101680000800F6008B1F8B2B8B137608053E860017
:1016900001308700403FF000413FF100423FF2003F
:1016A000433FF3000430F336F20CF10CF00C890BDD
:1016B000532B7608053E86000130870070088102B2
:1016C00041317108813B41317208813B41317308DE
:1016D000813B7D317608033E860001308700403F24
:1016E000F000413FF1007008F2007108F300F401CE
:1016F000F5017608053E86000130870072088107F3
:1017000041317308813D41317408813D4131750893
:10171000813D8B1708007608053E86000130870062
:10172000403FF000413FF100423FF200433FF300F1
:101730000430F336F20CF10CF00C890B992B76087F
:10174000053E860001308700700881024131710832
:10175000813B41317208813B41317308813B7D31CE
:101760007608033E860001308700403FF000413F8D
:10177000F1007008F2007108F300F401F501760839
:10178000053E8600013087007208810741317308E9
:10179000813D41317408813D41317508813D08002A
:1017A0007D08093E8600013087000108803AA000CC
:1017B0007D080E3E8600013087000103FF3A803A23
:1017C000A00203180E2C7D080A3E86000130870017
:1017D0000130810741310318810A7D080A3E8600E5
:1017E00001308700403FA000413FA10000302102AE
:1017F000413003192002031C4C2C7D080A3E860050
:10180000013087000030C03FC13F7D0886000130B5
:10181000870001089631F5268B314C2C7D08093E56
:101820008600013087000108A000A101A01BA103D0
:101830007D080E3E8600013087002108803A803CFA
:10184000031D242C200801020318442C0230200020
:10185000A0007D08023E860001308700200881003C
:101860007D080A3E8600013087000030C03FC13F3E
:101870007D088600013087000108A0002008F000E4
:1018800092316E228B314C2C7D080A3E860001304D
:1018900087000030C03FC13F7D080C3E860001300C
:1018A00087000130810741310318810A7D080C3E11
:1018B0008600013087001600403A2000A000160084
:1018C000A004031D08007D080C3E8600013087003F
:1018D0000030C03FC13F7D088B31412308003C08E8
:1018E0008039BD003D08C6003C35BD003D08CD0037
:1018F000BB1B4D144D0803198B2C4D0A031D882C5E
:101900000030BC000030BB000030BA000030B9002D
:10191000BB17BC01932C0030BC000030BB00003072
:10192000BA000030B90038088039BD003D08C6064D
:101930003835BD003D08CE00B71B4E144E080319C4
:10194000AF2C4E0A031DAC2C0030B8000030B7009D
:101950000030B6000030B500B717B801B72C003022
:10196000B8000030B7000030B6000030B5003808CD
:10197000370436043504031DD62C0030BC0000307B
:10198000BB000030BA000030B9008030BB047F30AB
:10199000BC044608BD003D08BC043C08B8003B0838
:1019A000B7003A08B6003908B50008004D08031D15
:1019B000E22C0030B8000030B7000030B600003034
:1019C000B50008004D08BD00BE013E08C0004E082D
:1019D0003D02BF00031CC0033F087F3EC70000302C
:1019E000403DC8003C08C5003B08C4003A08C3009D
:1019F0003908C2000030BC000030BB000030BA0023
:101A00000030B9000030CC000030CB000030CA00FC
:101A10000030C900CE011A304E020318472D4E087F
:101A20000319292D0130C235C30DC40DC50D890B15
:101A3000132D0130B935BA0DBB0DBC0D890B1A2D14
:101A4000CC1B39140130C935CA0DCB0DCC0D890B17
:101A5000232D38084502031D372D37084402031D86
:101A6000372D36084302031D372D35084202031C6B
:101A7000422D4C173508C2023608C33B3708C43B19
:101A80003808C53B0130BD003D08CE070B2D450889
:101A9000440443044204031D4914BB1B642D01305C
:101AA000B935BA0DBB0DBC0D890B502DCC1B3914AB
:101AB0000130C935CA0DCB0DCC0D890B592DFF3026
:101AC000C707FF30C83D4D2DCE01CC1F7D2DFF3007
:101AD0004905BD00FF304A05BE00FF304B05BF0081
:101AE0007F304C05C00040083F043E043D0403190C
:101AF00039187B2D7D2DCE01CE0A4E080319A62D57
:101B00000130B9070030BA3D0030BB3D0030BC3D6C
:101B10003C1CA62D3908BD003A08BE003B08BF009A
:101B20003C08C0000130C100C037BF0CBE0CBD0C6A
:101B3000C10B942D4008BC003F08BB003E08BA0012
:101B40003D08B9000130C7070030C83D4808803A59
:101B5000BD0080303D02031DAF2DFF304702031C46
:101B6000BE2DFF302000C7000030C8000030BC0090
:101B70000030BB000030BA000030B9002000480837
:101B8000803ABD0080303D02031DC82D0130470260
:101B90000318D62D2000C701C8010030BC0000305A
:101BA000BB000030BA000030B900C6012000470871
:101BB000BD003D08CD004D1CDF2DBB17E32D7F3050
:101BC000BD003D08BB054D36BD003D08BC00C92C1D
:101BD00023088039F9007908A8002335F90079082D
:101BE000AE00A21B2E142E080319032E2E0A031D6D
:101BF000012E0030A3000030A2000030A100003010
:101C0000A000A2170B2E0030A3000030A20000306D
:101C1000A1000030A00027088039F9007908A80643
:101C20002735F9007908A900A61B291429080319EA
:101C3000262E290A031D242E0030A7000030A600FE
:101C40000030A5000030A400A6172E2E0030A700FB
:101C50000030A6000030A5000030A4002908031DB4
:101C60002E08031D3C2E0030A3000030A2000030DF
:101C7000A1000030A00008002008F9007908F00059
:101C80002608953169258D317108B4007008B300BC
:101C90003308F900FA01FB01FC017C08AD007B0868
:101CA000AC007A08AB007908AA003408F900FA0100
:101CB000FB01FC017C08B2007B08B1007A08B0008F
:101CC0007908AF002108F9007908F000250895315E
:101CD00069258D317108B4007008B3003308F9002C
:101CE000FA01FB01FC017908AA077A08AB3D7B08E1
:101CF000AC3D7C08AD3D3408F900FA01FB01FC0164
:101D00007908AF077A08B03D7B08B13D7C08B23D49
:101D10002208F9007908F0002408953169258D31F1
:101D20007108B4007008B3003308F900FA01FB0130
:101D3000FC017908AA077A08AB3D7B08AC3D7C081A
:101D4000AD3D3408F900FA01FB01FC017908AF0749
:101D50007A08B03D7B08B13D7C08B23D0830AA3519
:101D6000AB0DAC0DAD0D890BAF2E2108F900790834
:101D7000F0002408953169258D317108B400700890
:101D8000B3003308AA073408AB3D0030AC3DAD3D8D
:101D90002008F9007908F0002508953169258D3172
:101DA0007108B4007008B3003308AA073408AB3DCB
:101DB0000030AC3DAD3D0830AA35AB0DAC0DAD0DDE
:101DC000890BDC2E2008F9007908F00024089531F1
:101DD00069258D317108B4007008B3003308AA0773
:101DE0003408AB3D0030AC3DAD3D2108F900790829
:101DF000F0002608953169258D317108B40070080E
:101E0000B3003308AF073408B03D0030B13DB23DF8
:101E10002208F9007908F0002508953169258D31EF
:101E20007108B4007008B3003308AF073408B03D40
:101E30000030B13DB23D2208F9007908F0002608D3
:101E4000953169258D317108B4007008B3003308ED
:101E5000F9003408FA00FB01FC010830F935FA0DED
:101E6000FB0DFC0D890B2E2F7908AF077A08B03DCA
:101E70007B08B13D7C08B23D2D08F900FA01FB0159
:101E8000FC017908AF077A08B03D7B08B13D7C08BA
:101E9000B23D0830AA35AB0DAC0DAD0D890B4A2F04
:101EA0002E082907F900FA01FA0D7908823EB300DD
:101EB000FF307A3DB400B11B722F0130AF35B00D49
:101EC000B10DB20D890B5E2FAD1B2F140130AA3559
:101ED000AB0DAC0DAD0D890B672FFF30B307FF3095
:101EE000B43D5B2FA901AD1F8B2FFF302A05F900F0
:101EF000FF302B05FA00FF302C05FB007F302D054D
:101F0000FC007C087B047A04790403192F18892FBC
:101F10008B2FA901A90A29080319B42F0130AF0793
:101F20000030B03D0030B13D0030B23D321CB42F26
:101F30002F08F9003008FA003108FB003208FC00D5
:101F40000130FD00FC37FB0CFA0CF90CFD0BA22F45
:101F50007C08B2007B08B1007A08B0007908AF00B5
:101F60000130B3070030B43D3408803AF9008030C6
:101F70007902031DBD2FFF303302031CC92F7F30B0
:101F80002000B2008030B1000030B0000030AF005F
:101F9000F32F20003408803AF90080307902031DC5
:101FA000D32F013033020318E02F00302000B2009D
:101FB0000030B1000030B0000030AF00A801F32FB6
:101FC00020003308F9007908AE00FF30AF05FF307C
:101FD000B0057F30B1050030B2052E18B1172E368E
:101FE000F9007908B2002808F9007908B20432082B
:101FF000A3003108A2003008A1002F08A0000800AB
:1024D2000800080008000800080008001C15080091
:1024E2000130080020001C11080028001715080000
:1024F2002800171108009431A22408001630210088
:102502009700080021009D0190309E00080071088C
:10251200C7007008C60008007108C5007008C40032
:1025220008007108C3007008C20008002700131DCC
:10253200080093313C230800703099009801220072
:102542009601080071082100C9007008C80008003F
:10255200640080010131890BAA2A0034FE001200B6
:102562001E00FE0BB02A003420006803031D080081
:1025720092316F220800F0007008083E8600870141
:1025820081100800F0007008083E860087010115DE
:102592000800F0007008083E86008701011108005B
:1025A200F0007008083E8600870181140800F000E0
:1025B2007003031DDF2A22000E15080022000E11EF
:1025C2000800F0007003031DE92A22000E1608001D
:1025D20022000E120800F0007003031DF32A2200ED
:1025E2008E15080022008E1108006B08F00070089A
:1025F200F1007108031908000130F102FA2A911062
:102602002100460847040319080047088A004608C3
:102612000A0093310800931021004408450403196D
:10262200080045088A0044080A0093310800931103
:102632002100420843040319080043088A004208A3
:102642000A009331080093316323933195311625A3
:102652009331943127249331923183220800F00080
:102662007003031D372B92317622080092317922B2
:1026720022000E1108002100480849040319462BC4
:1026820049088A0048080A009331270013110800FC
:10269200FB008B1F522B8B137B089731B3278B17B1
:1026A20008007B089731B3270800F000700803196F
:1026B200612B7008083E8600870101080139080075
:1026C20000300800F90179089331E2239331013097
:1026D200F8007808F9070230790203180800642B21
:1026E200AA012A0888317220933101302000A90002
:1026F2002908AA0702302A0203180800722BC730E1
:1027020020009B009A019110210091146A30F00080
:102712001230F1009231882220009C0108006F1CC7
:10272200942B6F369A2B6F36F0007008EF006F080B
:10273200B43AF0007008EF006F080F3908008731D3
:10274200DD279331013A031D080001309531302510
:102752009331013A031D080094318C24080087311B
:10276200DD279331013A031D0800003095313025F1
:102772009331013A031D0800803156200800F3000E
:10278200F201731CC82B7008F1007108F2070310E4
:10279200F00D0310F30C7308031DC22B720808001E
:1027A200F50002307502031808000930F4007408BD
:1027B200F00075089331C023B83E860087010114EA
:1027C2000800F70077089331D12393310930F600DE
:1027D2007608F00077089331C0239331B03E9231EE
:1027E200BC2208007C309600950120009310210045
:1027F20093146B30F0001230F10092318D220230CE
:10280200280097000800F000700A86008701403F08
:10281200AC00413FAD007008033E86008701403F97
:10282200AA00413FAB000800C73028009D009C0170
:1028320020009311210093156C30F0001230F1004A
:1028420092319222043028009E000800B030F1003C
:102852007108F200B930F10072087102031C08001D
:1028620072089231BC2294310930F1007108F207EA
:102872002B2CF5000230750203184C2C0930F400A1
:102882007408F00075089331C023B83E86008701B2
:10289200010C0139080000300800A901290897310C
:1028A20067279431003A0319582C00300800013090
:1028B200A8002808A90702302902031C4F2C013066
:1028C200080096317526943192319D2294319231CD
:1028D2007F2294319431152494319331F32394312E
:1028E2009331802394319331242308002000E200A5
:1028F2006203031D7F2CE801E80A08004030DD0076
:102902004030DC000030DB000030DA008A313E2249
:102912002000E801080000309231D82294310030C2
:1029220093313023943100309231EC2294310030D3
:102932009231E222943100309431772422008E12B7
:102942000800F4017408F3000330F335FF3E031D61
:10295200A62C7335203E96314E2694310130F30079
:102962007308F4070230740203180800A32CF7005E
:10297200023077020318CC2C0930F6007608F000FA
:1029820077089331C023B63E86008701403FF400AA
:10299200413FF5000800F401F50108007108803A92
:1029A200F20080307202031DD82C0130700203182D
:1029B20008007009F2007109F300F20A0319F30A20
:1029C2007208F0007308F1000800F0008B1FF42C6D
:1029D2008B137008063E860087016608C03F6708B1
:1029E200C13F8B1708007008063E86008701660803
:1029F200C03F6708C13F08000130CA070030CB3D25
:102A020003304B02E83003194A02031C0800CA01D2
:102A1200CB01031022000E1D0314031C132D2200F0
:102A22000E15080022000E1108000030F000983048
:102A3200F1002030F2000030F300203096319D2664
:102A42009531FB017B089631F52695310130FA006C
:102A52007A08FB0702307B0203180800232DF100DD
:102A6200023071020318492D7108F0000330F0356D
:102A7200FF3E031D382D7035223E8600013087004F
:102A820002300106031D472D013008000030080006
:102A9200003008008030D2065608F3005508F200D4
:102AA2005408F1005308F0005208F7005108F600EC
:102AB2005008F5004F08F4008531F5257308200011
:102AC200D2007208D1007108D0007008CF0008004F
:102AD200F800F401F5017008F200F3017208F60043
:102AE2007308F700781C792D7608F4077708F53D0E
:102AF2000130F635F70D890B7A2D0310F80C7808A2
:102B0200031D732D7508F1007408F00008002200FF
:102B12000E17210021309D000530890B8E2D0000FB
:102B22008E308400003085000E3086000130870030
:102B3200253080179D000032003200320032210021
:102B42009D140032000022008E178013080022001C
:102B52008E17210025309D000530890BAE2D000017
:102B62008E308400003085000E30860001308700F0
:102B7200213000179D000032003200320032210065
:102B82009D140032000022000E17001308002200DC
:102B92000E13210021309D000530890BCE2D00003F
:102BA2008E308400003085000E30860001308700B0
:102BB200253080179D0000320032003200322100A1
:102BC2009D140032000022008E13801308002200A0
:102BD2008E13210025309D000530890BEE2D00005B
:102BE2008E308400003085000E3086000130870070
:102BF200213000179D0000320032003200322100E5
:102C02009D140032000022000E13001308009431BC
:102C12006224963194318C2496318B170B17B53080
:102C2200F0001230F1009231A32296312930F000E7
:102C32001630F100923188229631FD30F0001430C6
:102C4200F10092318D2296319331B0239631252EA7
:102C520020006803031D4A2E01302100CC070030FA
:102C6200CD3D4F084D02031D382E4E084C02031C69
:102C72003F2ECC01CD0122008E16080020008E1EB0
:102C820008002100CC01CD019231732222008E1264
:102C920008002100CC01CD010800F2007208023EBA
:102CA20086000130870002300106031D0800720809
:102CB2000A3E860001308700013081074131031846
:102CC200810A72080A3E860001308700160001045C
:102CD200031D080072080A3E860001308700FF309B
:102CE200C03FFF30C13F080022008C018D018E01E0
:102CF2002F3021008C0070308D0003308E000330A5
:102D020023008E0030308D0003308C0024008D01B2
:102D120004308C008E012100951322009D019E013A
:102D220027001311121111156930F0001230F10051
:102D32009231A3228B150800F8007108F600700882
:102D4200F5007808F4007408F9000130F20200304E
:102D5200F33B720A0319730A031908007508840009
:102D6200760885000008F4007408F7000130F507C2
:102D72000030F63D7708F4007908860001308700BC
:102D8200740881000130F4007408F907A62EFC00D3
:102D92007C0A86000130870001089431B8249631FC
:102DA2007408F8007508F900FA01FB017C08053E79
:102DB2008600013087007808C03F7908C13F7A0851
:102DC200C23F7B08C33F7C08053E86000130870076
:102DD200043081354131810D4131810D4131810D07
:102DE2007D31890BEA2E0800F2007208F0000330F0
:102DF200F035FF3E031DF92E7035203EF1007108BB
:102E0200F3007308023E86000130870081017308D7
:102E1200053E8600013087000030C03F0030C13FD0
:102E2200C23FC33F73080A3E86000130870000306C
:102E3200C03FC13F73080C3E86000130870000305E
:102E4200C03FC13F730A86000130870001089231FA
:102E52006D220800A2000530A0002008A10022086F
:102E6200933156239731003A031D402F003008005A
:102E72000130A1022108031D402FFC300800220866
:102E8200883123209731003A031D392F2208063E4C
:102E920086008701403F6602F000413F673BF10038
:102EA2009431CF24973100307102653003197002DA
:102EB200031C612F200022089231C3229731372F41
:102EC200200022089231CA229731372FA5000930FB
:102ED200A3002308F00025089331C0239731B03EA8
:102EE2002000A4002408A700270897312B27973138
:102EF200A3002308A600942F270893315623973165
:102F0200003A0319B12F27089431E6249731270894
:102F12009231D12297312508A3002308F00088318D
:102F220000209731B12F2608A300A401A31BA403FC
:102F32002408003A0319A12FFF3A0319A62FB12F33
:102F42002308003A03197D2FB12F2308FD3A0319F4
:102F5200B12F033A0319B12F013A0319B12FB12F3F
:102F620026080800FA007A08023E8600013087002F
:102F720001080319EF2F7A08033E8600013087000B
:102F8200403FF800413FF900F936F80CF936F80CE9
:102F92007A08033E860001308700780881024131B9
:102FA2007908813B7F317A0A860001308700010867
:102FB2009431B8247408F8007508F900F936F80C51
:102FC200F936F80C7A08033E86000130870078084B
:102FD200810741317908813D7F3108007A0A8600F4
:102FE2000130870001089431B8247A08033E860034
:102FF200013087007408C03F7508C13F08000034E3
:10300200003400340034003400340034003400341E
:1030120000340034003400340034643401340134A8
:1030220001340034003400340034003400340034FD
:103032000034003400340034003464340134003489
:0E3042000034C83442340034003420344134A9
:020000040001F9
:08000000FF3FFF3FFF3FFF3F00
:04000E00E43DFF3E90
:00000001FF
