:1000000080314228003008007E1480318B1D092881
:100010000A2812280B1C0D280E2812289C311F2498
:10002000803140280B1F1528162840282100931DD9
:100030001A281B2824282000931D1F282028242844
:100040009C319024803140282100931C28282928A5
:1000500032282000931C2D282E2832289C31812400
:10006000803140282100911C362837284028200064
:10007000911C3B283C2840289C3172248031402828
:100080007E10090080314428923084009F30850022
:10009000A03086000030870022309B31FD23803164
:1000A000FC01EC01ED01EE01EF01C23084000030F3
:1000B00085000D309B31F7238031203084000130E2
:1000C000850020309B31F72380317E102000903155
:1000D00089280B306806031D6E286F282D2D4130AE
:1000E000E0002030DF000030DE000030DD00943121
:1000F000AB2480310B302000E7002630E6005D3075
:10010000890B8028E60B8028E70B802800324130DD
:100110002000E0003030DF000030DE000030DD0085
:100120009431AB2480310B302000E7002630E6000C
:100130005D30890B9928E60B9928E70B9928003246
:1001400041302000E0004030DF000030DE000030B1
:10015000DD009431AB2480310B302000E7002630E5
:10016000E6005D30890BB228E60BB228E70BB22817
:10017000003241302000E0005030DF000030DE006F
:100180000030DD009431AB2480310B302000E700DB
:100190002630E6005D30890BCB28E60BCB28E70B39
:1001A000CB28003241302000E0006030DF0000301A
:1001B000DE000030DD009431AB2480310B302000B4
:1001C000E7002630E6005D30890BE428E60BE428E2
:1001D000E70BE428003241302000E0007030DF00FF
:1001E0000030DE000030DD009431AB2480310B3074
:1001F0002000E7002630E6005D30890BFD28E60B85
:10020000FD28E70BFD28003241302000E00080305F
:10021000DF000030DE000030DD009431AB2480319F
:100220000B302000E7002630E6005D30890B1629F0
:10023000E60B1629E70B1629003241302000E000BA
:100240008830DF000030DE000030DD009431AB2468
:1002500080310B302000E7002630E6005D30890B4E
:100260002F29E60B2F29E70B2F29003241302000E0
:10027000E0009030DF000030DE000030DD0094311F
:10028000AB2480310B302000E7002630E6005D30E3
:10029000890B4829E60B4829E70B482900324130F1
:1002A0002000E0009830DF000030DE000030DD008C
:1002B0009431AB2480310B302000E7002630E6007B
:1002C0005D30890B6129E60B6129E70B612900325A
:1002D00041302000E000A030DF000030DE000030C0
:1002E000DD009431AB2480310B302000E700263054
:1002F000E6005D30890B7A29E60B7A29E70B7A292B
:10030000003241302000E000A830DF000030DE0085
:100310000030DD009431AB2480310B302000E70049
:100320002630E6005D30890B9329E60B9329E70B15
:100330009329003241302000E000B030DF0000306F
:10034000DE000030DD009431AB2480310B30200022
:10035000E7002630E6005D30890BAC29E60BAC29BE
:10036000E70BAC29003241302000E000B830DF005C
:100370000030DE000030DD009431AB2480310B30E2
:100380002000E7002630E6005D30890BC529E60B2A
:10039000C529E70BC529003241302000E000C030FC
:1003A000DF000030DE000030DD009431AB2480310E
:1003B0000B302000E7002630E6005D30890BDE2997
:1003C000E60BDE29E70BDE29003241302000E00099
:1003D000C830DF000030DE000030DD009431AB2497
:1003E00080310B302000E7002630E6005D30890BBD
:1003F000F729E60BF729E70BF729003241302000F7
:10040000E000D030DF000030DE000030DD0094314D
:10041000AB2480310B302000E7002630E6005D3051
:10042000890B102AE60B102AE70B102A0032413004
:100430002000E000D830DF000030DE000030DD00BA
:100440009431AB2480310B302000E7002630E600E9
:100450005D30890B292AE60B292AE70B292A00326D
:1004600041302000E000E030DF000030DE000030EE
:10047000DD009431AB2480310B302000E7002630C2
:10048000E6005D30890B422AE60B422AE70B422A3E
:10049000003241302000E000E830DF000030DE00B4
:1004A0000030DD009431AB2480310B302000E700B8
:1004B0002630E6005D30890B5B2AE60B5B2AE70BF2
:1004C0005B2A003241302000E000F030DF000030D5
:1004D000DE000030DD009431AB2480310B30200091
:1004E000E7002630E6005D30890B742AE60B742A9B
:1004F000E70B742A003241302000E000F430DF00C6
:100500000030DE000030DD009431AB248031383023
:100510002000E700CE30E6008F30890B8D2AE60BF5
:100520008D2AE70B8D2A003241302000E000F830A0
:10053000DF000030DE000030DD009431AB2480317C
:1005400038302000E700CE30E6008F30890BA62A35
:10055000E60BA62AE70BA62A003241302000E00075
:10056000FC30DF000030DE000030DD009431AB24D1
:10057000803138302000E700CE30E6008F30890B24
:10058000BF2AE60BBF2AE70BBF2A00324230200009
:10059000E0000030DF000030DE000030DD0094318C
:1005A000AB24803138302000E700CE30E6008F30B9
:1005B000890BD82AE60BD82AE70BD82A003242301A
:1005C0002000E0000230DF000030DE000030DD00FF
:1005D0009431AB24803138302000E700CE30E60083
:1005E0008F30890BF12AE60BF12AE70BF12A003252
:1005F00042302000E0000430DF000030DE00003038
:10060000DD009431AB24803138302000E700CE305B
:10061000E6008F30890B0A2BE60B0A2BE70B0A2B1F
:10062000003242302000E0000630DF000030DE0003
:100630000030DD009431AB24803138302000E700F9
:10064000CE30E6008F30890B232BE60B232BE70BF4
:10065000232B003242302000E0000830DF00003061
:10066000DE000030DD009431AB24803138302000D2
:10067000E700CE30E6008F30890B3C2BE60B3C2B9D
:10068000E70B3C2B003242302000E0000A30DF0054
:100690000030DE000030DD009431AB248031383092
:1006A0002000E700CE30E6008F30890B552BE60B9B
:1006B000552BE70B552B003242302000E0000C3068
:1006C000DF000030DE000030DD009431AB248031EB
:1006D00038302000E700CE30E6008F30890B6E2BDB
:1006E000E60B6E2BE70B6E2B003242302000E00051
:1006F0001430DF000030DE000030DD009431AB2428
:1007000080312E302000E700A930E6002F30890B21
:10071000872BE60B872BE70B872B42302000E0006E
:100720002030DF000030DE000030DD009431AB24EB
:1007300080312E302000E700A930E6002F30890BF1
:100740009F2BE60B9F2BE70B9F2B42302000E000F6
:100750002830DF000030DE000030DD009431AB24B3
:1007600080312E302000E700A930E6002F30890BC1
:10077000B72BE60BB72BE70BB72B42302000E0007E
:100780003030DF000030DE000030DD009431AB247B
:1007900080312E302000E700A930E6002F30890B91
:1007A000CF2BE60BCF2BE70BCF2B42302000E00006
:1007B0003830DF000030DE000030DD009431AB2443
:1007C00080312E302000E700A930E6002F30890B61
:1007D000E72BE60BE72BE70BE72B42302000E0008E
:1007E0004030DF000030DE000030DD009431AB240B
:1007F00080312E302000E700A930E6002F30890B31
:10080000FF2BE60BFF2BE70BFF2B42302000E00015
:100810004830DF000030DE000030DD009431AB24D2
:1008200080312E302000E700A930E6002F30890B00
:10083000172CE60B172CE70B172C42302000E0009A
:100840005030DF000030DE000030DD009431AB249A
:1008500080312E302000E700A930E6002F30890BD0
:100860002F2CE60B2F2CE70B2F2C42302000E00022
:100870005830DF000030DE000030DD009431AB2462
:1008800080312E302000E700A930E6002F30890BA0
:10089000472CE60B472CE70B472C42302000E000AA
:1008A0006030DF000030DE000030DD009431AB242A
:1008B00080312E302000E700A930E6002F30890B70
:1008C0005F2CE60B5F2CE70B5F2C42302000E00032
:1008D0006830DF000030DE000030DD009431AB24F2
:1008E000803133302000E700BB30E600DF30890B79
:1008F000772CE60B772CE70B772C00324230200068
:10090000E0007030DF000030DE000030DD009431A8
:10091000AB24803133302000E700BB30E600DF300D
:10092000890B902CE60B902CE70B902C0032423078
:100930002000E0007C30DF000030DE000030DD0011
:100940009431AB24803133302000E700BB30E60027
:10095000DF30890BA92CE60BA92CE70BA92C003260
:1009600042302000E0008230DF000030DE00003046
:10097000DD009431AB24803133302000E700BB3000
:10098000E600DF30890BC22CE60BC22CE70BC22C31
:10099000003242302000E0008830DF000030DE000E
:1009A0000030DD009431AB24803133302000E7008B
:1009B000BB30E600DF30890BDB2CE60BDB2CE70BD2
:1009C000DB2C003242302000E0009030DF000030AD
:1009D000DE000030DD009431AB2480313330200064
:1009E000E700BB30E600DF30890BF42CE60BF42C7B
:1009F000E70BF42C003242302000E0009630DF009C
:100A00000030DE000030DD009431AB248031333023
:100A10002000E700BB30E600DF30890B0D2DE60B30
:100A20000D2DE70B0D2D003242302000E0009E30EE
:100A3000DF000030DE000030DD009431AB24803177
:100A400033302000E700BB30E600DF30890B262D75
:100A5000E60B262DE70B262D003201309C314A246F
:100A6000803100309D31E22580312000E9013330B2
:100A70002000E700BB30E600DF30890B3D2DE60BA0
:100A80003D2DE70B3D2D003201302000E6006608C9
:100A9000E90724306902031C4E2D4F2D372D0030FD
:100AA0009C314A24803101309C313E2480310B300E
:100AB0002000E7002630E6005D30890B5D2DE60B57
:100AC0005D2DE70B5D2D003200309C313E248031DE
:100AD00000309C31AE24803108002000230880398A
:100AE000A8002808AD002335A8002808B300A21FDD
:100AF0007A2D7B2D7C2D331433080319802D812D05
:100B0000902D330A031D852D862D8E2D0030A300D8
:100B10000030A2000030A1000030A000A217982DE4
:100B20000030A3000030A2000030A1000030A0007F
:100B300027088039A8002808AD062735A80028080E
:100B4000B200A61FA42DA52DA62D3214320803191C
:100B5000AA2DAB2DBA2D320A031DAF2DB02DB82D05
:100B60000030A7000030A6000030A5000030A4002F
:100B7000A617C22D0030A7000030A6000030A50047
:100B80000030A40032080319C62DC72DCC2D330820
:100B9000031DCB2DCC2DD52D0030A3000030A2009D
:100BA0000030A1000030A000C32F2008A8002808B2
:100BB000F10026089F31B427853172082000B90062
:100BC0007108B8003808A800A901AA01AB012B08D8
:100BD000B1002A08B0002908AF002808AE00390883
:100BE000A800A901AA01AB012B08B7002A08B6008A
:100BF0002908B5002808B4002108A8002808F10039
:100C000025089F31B427853172082000B90071088A
:100C1000B8003808A800A901AA01AB012808AE074E
:100C20002908AF3D2A08B03D2B08B13D3908A8007E
:100C3000A901AA01AB012808B4072908B53D2A0873
:100C4000B63D2B08B73D2208A8002808F10024086B
:100C50009F31B427853172082000B9007108B800AF
:100C60003808A800A901AA01AB012808AE07290885
:100C7000AF3D2A08B03D2B08B13D3908A800A901B5
:100C8000AA01AB012808B4072908B53D2A08B63DDA
:100C90002B08B73D0830AE35AF0DB00DB10D890B47
:100CA0004B2E2108A8002808F10024089F31B42702
:100CB000853172082000B9007108B8003808AE0705
:100CC0003908AF3D0030B03DB13D2008A8002808EC
:100CD000F10025089F31B427853172082000B90042
:100CE0007108B8003808AE073908AF3D0030B03D94
:100CF000B13D0830AE35AF0DB00DB10D890B7A2E78
:100D00002008A8002808F10024089F31B427853165
:100D100072082000B9007108B8003808AE07390819
:100D2000AF3D0030B03DB13D2108A8002808F100DA
:100D300026089F31B427853172082000B900710858
:100D4000B8003808B4073908B53D0030B63DB73DA6
:100D50002208A8002808F10025089F31B427853112
:100D600072082000B9007108B8003808B4073908C3
:100D7000B53D0030B63DB73D2208A8002808F10077
:100D800026089F31B427853172082000B900710808
:100D9000B8003808A8003908A900AA01AB0108303A
:100DA000A835A90DAA0DAB0D890BD02E2808B407C4
:100DB0002908B53D2A08B63D2B08B73D2E08A800E6
:100DC0002F08A9003008AA003108AB001830AB3654
:100DD000AA0CA90CA80C890BE72E2808B40729082F
:100DE000B53D2A08B63D2B08B73D0830AE35AF0DEE
:100DF000B00DB10D890BF62E33083207A800A901FA
:100E0000A90D2808823EB800FF30293DB9001F2FE8
:100E10000130B435B50DB60DB70D890B092FB11FD3
:100E2000122F132F142F34140130AE35AF0DB00D27
:100E3000B10D890B152FFF30B807FF30B93DB61F34
:100E4000222F232F082FB201B11F272F282F442F25
:100E5000FF302E05A800FF302F05A900FF30300518
:100E6000AA007F303105AB002B082A04290428048E
:100E700003193B2F3C2F3F2FB201B20A442F341CE1
:100E8000422F432F442F3C2F32080319482F492F5C
:100E9000712F0130B4070030B53D0030B63D003051
:100EA000B73D371C542F552F712F3408A800350833
:100EB000A9003608AA003708AB000130AC00AB37F8
:100EC000AA0CA90CA80CAC0B5F2F2B08B7002A08A2
:100ED000B6002908B5002808B4000130B807003072
:100EE000B93D3908803AA80080302802031D7A2FC6
:100EF000FF303802031C7D2F7E2F882F7F3020008B
:100F0000B7008030B6000030B5000030B400B72F15
:100F100020003908803AA80080302802031D922F53
:100F2000013038020318952F962FA12F0030200092
:100F3000B7000030B6000030B5000030B400AD019D
:100F4000B72F20003808A8002808B300FF30B405E8
:100F5000FF30B5057F30B6050030B705331CB12F23
:100F6000B22FB32FB6173336A8002808B7002D08C4
:100F7000A8002808B7043708A3003608A2003508DF
:100F8000A1003408A0000800F3007308F10003304A
:100F9000F135FF3E031DC82F7135203EF200720867
:100FA000F4007408023E8600013087008101740855
:100FB000053E8600013087000030C03F0030C13F51
:100FC000C23FC33F74080A3E8600013087000030EC
:100FD000C03FC13F74080C3E8600013087000030DE
:100FE000C03FC13F740A86000130870001089B3171
:100FF000C3238731080021009D0190309E00080026
:10100000013008002000A6000530FA007A08A5008B
:1010100026089C319F248831003A031D102811288E
:101020001D2800304B2801302000A5022508031D93
:101030001A281B281D28FC304B2820002608933135
:1010400007238831003A031D26282728132820006B
:101050002608063E86008701403F21004802F10035
:10106000413F493BF2009E312C268831003072020C
:10107000653003197102031C3E283F2845282000D3
:1010800026089C31112488311128200026089C3123
:10109000182488311128080020002408093E860001
:1010A000013087000108803AFA0024080E3E8600CD
:1010B000013087000103FF3A803AFA0203186128E1
:1010C00062288F2824080A3E8600013087000130FC
:1010D000810741310318810A24080A3E8600013045
:1010E0008700403FFA00413FFB0000307B02413067
:1010F00003197A02031C7D287E28D02824080A3E82
:101100008600013087000030C03FC13F24088600C0
:101110000130870001088731C4278831D02824088E
:10112000093E8600013087000108FA00FB01FA1B26
:10113000FB0324080E3E8600013087007B08803ABE
:10114000803C031DA5287A0801020318A828A928B5
:10115000C7280230FA0020002408023E8600013031
:1011600087007A08810024080A3E86000130870043
:101170000030C03FC13F24088600013087000108CD
:10118000FA007A08F1009B31C4238831D02820006E
:1011900024080A3E8600013087000030C03FC13F6E
:1011A000200024080C3E86000130870001308107B2
:1011B00041310318810A24080C3E86000130870063
:1011C0001600403AFA001600FA04031DE828E92840
:1011D000F52824080C3E8600013087000030C03F0F
:1011E000C13F24089531BB25883108007408803937
:1011F0002000A0002008A8007435A0002008AA0044
:10120000F31F0329042905292A142A080319092987
:101210000A291A292A0A031D0E290F291729003025
:10122000F4000030F3000030F2000030F100F3175A
:10123000F40122290030F4000030F3000030F20005
:101240000030F10078088039A0002008A9002908A2
:10125000280603192C292D292E2928177835A000B6
:101260002008A900F71F352936293729291429080C
:1012700003193B293C294C29290A031D40294129EE
:1012800049290030F8000030F7000030F600003047
:10129000F500F717F80154290030F8000030F70086
:1012A0000030F6000030F5002A08290203185929F9
:1012B0005A299E29281F5D295E2962298030A000B5
:1012C0002008A8062A08A0002008AB002908A000D2
:1012D0002008AA002B08A0002008A9007108A0007F
:1012E0002008AB007508A0002008F1002B08A00022
:1012F0002008F5007208A0002008AB007608A000C6
:101300002008F2002B08A0002008F6007308A000B7
:101310002008AB007708A0002008F3002B08A000ED
:101320002008F7007408A0002008AB007808A0008F
:101330002008F4002B08A0002008F800AB012908C1
:10134000A000A1012108A3002A082002A200031C7A
:10135000A3032308803AA40080302402031DB2298D
:101360001A302202031CB529B629EE297408730429
:1013700072047104031DBD29BF290130C02900304A
:101380002000A0002008AB000030F4000030F30083
:101390000030F2000030F1002908A0002008AA0067
:1013A000F5292B1CD429D529DB292B360138A0009F
:1013B0002008AB00DD290310AB0C711CE029E129EA
:1013C000E229AB170130A000F437F30CF20CF10C5A
:1013D000A00BE4290130A0002008AA07200029085A
:1013E0002A02031CF429F529D129281BF829F929F7
:1013F000312A2A08031DFD29FE29072A0030F4009E
:101400000030F3000030F2000030F1002D2B7508A1
:10141000F1077608F23D7708F33D7808F43D741C37
:10142000122A132ABD2A2B1C162A172A1D2A2B36EC
:101430000138A0002008AB001F2A0310AB0C711C60
:10144000222A232A242AAB170130A000F437F30CF8
:10145000F20CF10CA00B262A0130A0002008AA07EC
:10146000BD2A7408803AA0007808803A2002031D43
:10147000432A77087302031D432A76087202031D6C
:10148000432A750871020318462A472A7F2AFF302B
:10149000A000FF30A100FF30A200FF30A3007108C0
:1014A0007502A4007208763BA5007308773BA6007E
:1014B0007408783BA7002408A0072508A13D26084A
:1014C000A23D2708A33D2308F4002208F3002108C9
:1014D000F2002008F1008030A0002008A806AB0927
:1014E000AB0A2B08031D752A762A872A0130F107DB
:1014F0000030F23D0030F33D0030F43D872A75089E
:10150000F1027608F23B7708F33B7808F43B740865
:10151000730472047104031D8E2A8F2AB92A2B08C2
:10152000031D932A942AB92A0030F4000030F300F6
:101530000030F2000030F1002D2B0130F135F20DBA
:10154000F30DF40D890B9E2AAB1FA72AA82AA92AFE
:1015500071142B1CAC2AAD2AB02A0314AB0DB22A8D
:101560000310AB0D2A080319B62AB72AB92A01308D
:10157000AA02F31FBC2ABD2A9D2AA901AB1FC12ABA
:10158000C22AD02A2B087F390319C72AC82ACB2A96
:10159000A901A90AD02A711CCE2ACF2AD02AC82A8A
:1015A00029080319D42AD52A022B0130F10700306B
:1015B000F23D0030F33D0030F43D741CE02AE12A96
:1015C000022B7108A0007208A1007308A200740821
:1015D000A3000130A400A337A20CA10CA00CA40B03
:1015E000EB2A2308F4002208F3002108F200200867
:1015F000F1002A0A0319FD2AFE2A022B0130A0005D
:101600002008AA072A0A0319062B072B0C2B2A08E5
:10161000031D0B2B0C2B1A2B0030F4000030F300B1
:101620000030F2000030F1002A08031D182B192B9E
:101630001A2BA8012A1C1D2B1E2B202BF317242B41
:101640007F30A0002008F3052A36A0002008F4000F
:10165000A81F2B2B2C2B2D2BF41708002000E800A3
:1016600001309C31AE248B3101309D31E2258B312C
:101670000A3020006806031D3E2B402B803169286C
:101680004130E0002030DF000030DE000030DD00BF
:101690009431AB248B310B302000E7002630E6007C
:1016A0005D30890B512BE60B512BE70B512B003290
:1016B00041302000E0003030DF000030DE0000303C
:1016C000DD009431AB248B310B302000E700263055
:1016D000E6005D30890B6A2BE60B6A2BE70B6A2B61
:1016E000003241302000E0004030DF000030DE00FA
:1016F0000030DD009431AB248B310B302000E7004B
:101700002630E6005D30890B832BE60B832BE70B3D
:10171000832B003241302000E0005030DF000030E9
:10172000DE000030DD009431AB248B310B30200023
:10173000E7002630E6005D30890B9C2BE60B9C2BE6
:10174000E70B9C2B003241302000E0006030DF00CE
:101750000030DE000030DD009431AB248B310B30E3
:101760002000E7002630E6005D30890BB52BE60B44
:10177000B52BE70BB52B003241302000E000703074
:10178000DF000030DE000030DD009431AB248B310F
:101790000B302000E7002630E6005D30890BCE2BB1
:1017A000E60BCE2BE70BCE2B003241302000E000C1
:1017B0008030DF000030DE000030DD009431AB24EB
:1017C0008B310B302000E7002630E6005D30890BBE
:1017D000E72BE60BE72BE70BE72B0032413020002D
:1017E000E0008830DF000030DE000030DD009431A2
:1017F000AB248B310B302000E7002630E6005D3053
:10180000890B002CE60B002CE70B002C003241303A
:101810002000E0009030DF000030DE000030DD000E
:101820009431AB248B310B302000E7002630E600EA
:101830005D30890B192CE60B192CE70B192C0032A3
:1018400041302000E0009830DF000030DE00003042
:10185000DD009431AB248B310B302000E7002630C3
:10186000E6005D30890B322CE60B322CE70B322C74
:10187000003241302000E000A030DF000030DE0008
:101880000030DD009431AB248B310B302000E700B9
:101890002630E6005D30890B4B2CE60B4B2CE70B1A
:1018A0004B2C003241302000E000A830DF00003037
:1018B000DE000030DD009431AB248B310B30200092
:1018C000E7002630E6005D30890B642CE60B642CC3
:1018D000E70B642C003241302000E000B030DF0024
:1018E0000030DE000030DD009431AB248B310B3052
:1018F0002000E7002630E6005D30890B7D2CE60BEA
:101900007D2CE70B7D2C003241302000E000B83008
:10191000DF000030DE000030DD009431AB248B317D
:101920000B302000E7002630E6005D30890B962C56
:10193000E60B962CE70B962C003241302000E0009D
:10194000C030DF000030DE000030DD009431AB2419
:101950008B310B302000E7002630E6005D30890B2C
:10196000AF2CE60BAF2CE70BAF2C00324130200040
:10197000E000C830DF000030DE000030DD009431D0
:10198000AB248B310B302000E7002630E6005D30C1
:10199000890BC82CE60BC82CE70BC82C0032413051
:1019A0002000E000D030DF000030DE000030DD003D
:1019B0009431AB248B310B302000E7002630E60059
:1019C0005D30890BE12CE60BE12CE70BE12C0032BA
:1019D00041302000E000D830DF000030DE00003071
:1019E000DD009431AB248B310B302000E700263032
:1019F000E6005D30890BFA2CE60BFA2CE70BFA2C8B
:101A0000003241302000E000E030DF000030DE0036
:101A10000030DD009431AB248B310B302000E70027
:101A20002630E6005D30890B132DE60B132DE70BF6
:101A3000132D003241302000E000E830DF0000309C
:101A4000DE000030DD009431AB248B310B30200000
:101A5000E7002630E6005D30890B2C2DE60B2C2D9F
:101A6000E70B2C2D003241302000E000F030DF0089
:101A70000030DE000030DD009431AB248B310B30C0
:101A80002000E7002630E6005D30890B452DE60B8F
:101A9000452DE70B452D003241302000E000F430A9
:101AA000DF000030DE000030DD009431AB248B31EC
:101AB0002E302000E700A930E6002F30890B5E2D84
:101AC000E60B5E2DE70B5E2D41302000E000F83084
:101AD000DF000030DE000030DD009431AB248B31BC
:101AE0002E302000E700A930E6002F30890B762D3C
:101AF000E60B762DE70B762D41302000E000FC3020
:101B0000DF000030DE000030DD009431AB248B318B
:101B10002E302000E700A930E6002F30890B8E2DF3
:101B2000E60B8E2DE70B8E2D42302000E0000030BA
:101B3000DF000030DE000030DD009431AB248B315B
:101B40002E302000E700A930E6002F30890BA62DAB
:101B5000E60BA62DE70BA62D42302000E000023058
:101B6000DF000030DE000030DD009431AB248B312B
:101B70002E302000E700A930E6002F30890BBE2D63
:101B8000E60BBE2DE70BBE2D42302000E0000430F6
:101B9000DF000030DE000030DD009431AB248B31FB
:101BA0002E302000E700A930E6002F30890BD62D1B
:101BB000E60BD62DE70BD62D42302000E000063094
:101BC000DF000030DE000030DD009431AB248B31CB
:101BD0002E302000E700A930E6002F30890BEE2DD3
:101BE000E60BEE2DE70BEE2D42302000E000083032
:101BF000DF000030DE000030DD009431AB248B319B
:101C00002E302000E700A930E6002F30890B062E89
:101C1000E60B062EE70B062E42302000E0000A30CD
:101C2000DF000030DE000030DD009431AB248B316A
:101C30002E302000E700A930E6002F30890B1E2E41
:101C4000E60B1E2EE70B1E2E42302000E0000C306B
:101C5000DF000030DE000030DD009431AB248B313A
:101C60002E302000E700A930E6002F30890B362EF9
:101C7000E60B362EE70B362E42302000E000143003
:101C8000DF000030DE000030DD009431AB248B310A
:101C90001F302000E7007130E6001E30890B4E2E09
:101CA000E60B4E2EE70B4E2E000042302000E000E7
:101CB0001C30DF000030DE000030DD009431AB244A
:101CC0008B311F302000E7007130E6001E30890B99
:101CD000672EE60B672EE70B672E000042302000D0
:101CE000E0002430DF000030DE000030DD00943101
:101CF000AB248B311F302000E7007130E6001E302E
:101D0000890B802EE60B802EE70B802E00004230E0
:101D10002000E0002C30DF000030DE000030DD006D
:101D20009431AB248B311F302000E7007130E60086
:101D30001E30890B992EE60B992EE70B992E000089
:101D400042302000E0003430DF000030DE000030A0
:101D5000DD009431AB248B311F302000E70071305F
:101D6000E6001E30890BB22EE60BB22EE70BB22E28
:101D7000000042302000E0003C30DF000030DE0098
:101D80000030DD009431AB248B311F302000E700A0
:101D90007130E6001E30890BCB2EE60BCB2EE70B05
:101DA000CB2E000042302000E0004430DF00003045
:101DB000DE000030DD009431AB248B311F30200079
:101DC000E7007130E6001E30890BE42EE60BE42EAE
:101DD000E70BE42E000042302000E0004C30DF0032
:101DE0000030DE000030DD009431AB248B311F3039
:101DF0002000E7007130E6001E30890BFD2EE60B57
:101E0000FD2EE70BFD2E000042302000E000543094
:101E1000DF000030DE000030DD009431AB248B3178
:101E20001F302000E7007130E6001E30890B162FAE
:101E3000E60B162FE70B162F000042302000E000C3
:101E40005C30DF000030DE000030DD009431AB2478
:101E50008B311F302000E7007130E6001E30890B07
:101E60002F2FE60B2F2FE70B2F2F000042302000E3
:101E7000E0006430DF000030DE000030DD0094312F
:101E8000AB248B311F302000E7007130E6001E309C
:101E9000890B482FE60B482FE70B482F00004230F4
:101EA0002000E0006C30DF000030DE000030DD009C
:101EB0009431AB248B311F302000E7007130E600F5
:101EC0001E30890B612FE60B612FE70B612F00009D
:101ED00042302000E0007430DF000030DE000030CF
:101EE000DD009431AB248B311F302000E7007130CE
:101EF000E6001E30890B7A2FE60B7A2FE70B7A2F3C
:101F0000000042302000E0007C30DF000030DE00C6
:101F10000030DD009431AB248B311F302000E7000E
:101F20007130E6001E30890B932FE60B932FE70BE1
:101F3000932F000042302000E0008230DF000030AC
:101F4000DE000030DD009431AB248B311F302000E7
:101F5000E7007130E6001E30890BAC2FE60BAC2F8A
:101F6000E70BAC2F000042302000E0008630DF009D
:101F70000030DE000030DD009431AB248B311F30A7
:101F80002000E7007130E6001E30890BC52FE60BFC
:101F9000C52FE70BC52F000042302000E0008A303B
:101FA000DF000030DE000030DD009431AB248B31E7
:101FB0001F302000E7007130E6001E30890BDE2F55
:101FC000E60BDE2FE70BDE2F000042302000E000A2
:101FD0008E30DF000030DE000030DD009431AB24B5
:101FE0008B311F302000E7007130E6001E30890B76
:101FF000F72FE60BF72FE70BF72F000085312D2D7C
:102000000800F1007108083E86008701811408006D
:1020100021004A0803190D280E2813289C31562444
:1020200090312100CA01CB01CB0A9E314626903166
:10203000003A031D1C281D281F28003031289D311F
:10204000032590318031022090312000AF002F080D
:102050002100CB009E31B62690319B31D5239031A3
:1020600001300800F3007308023E8600013087004B
:1020700002300106031D3D283E285C2873080A3EF5
:102080008600013087000130810741310318810A41
:1020900073080A3E86000130870016000104031D04
:1020A000522853285C2873080A3E860001308700B6
:1020B000FF30C03FFF30C13F080020006C03031D0C
:1020C00062286328852801302100C4070030C53DFF
:1020D00047084502031D6E2846084402031C712868
:1020E00072287728C401C50122008E168828200096
:1020F0008E1E7B287C2888282100C401C5019B31C5
:10210000C823903122008E1288282100C401C50105
:1021100008009D319E2590319D31B42590318B175B
:102120000B172830F1001C30F2009B31DF23903177
:102130005D30F1001030F2009B31E52390317B30AF
:10214000F1001E30F2009B31EB239031D930F100C9
:102150001B30F2009B31F1239031913113219031EA
:10216000913159219031AD2880314228F900790A06
:1021700086000130870001089E31122690317508D3
:102180002000A0007608A100A201A3017908053E65
:102190008600013087002008C03F2108C13F220887
:1021A000C23F2308C33F7908053E860001308700FF
:1021B000043081354131810D4131810D4131810D35
:1021C0007D31890BD9280800F9007208F8007108E0
:1021D000F7007908F5007508FA00062977088400E9
:1021E000780885000008F5007508F6000130F7074B
:1021F0000030F83D7608F5007A0886000130870047
:10220000750881000130F5007508FA070130F30206
:102210000030F43B730A031D1129740A031D1129B0
:102220001229EE2808002000ED011929903108201C
:10223000913100309E31D4269131013A031D21297C
:10224000222929295C3020006D02031C2829292914
:10225000162900309E31D4269131013A031D3129CF
:1022600032295829362990310820913100309E3189
:10227000D4269131013A03193E293F2933290130EF
:102280009C313E24913102302000EB000430EA0002
:10229000BA30890B4929EA0B4929EB0B492900007F
:1022A00000309C313E2491310A308B312E23913104
:1022B00008002000ED015F299031082091310130A4
:1022C0009E31D4269131013A031D672968296F296F
:1022D0005C3020006D02031C6E296F295C290130DF
:1022E0009E31D4269131013A031D772978299E2900
:1022F0007C2990310820913101309E31D4269131D2
:10230000013A031984298529792901309C313E2419
:10231000913102302000EB000430EA00BA30890B22
:102320008F29EA0B8F29EB0B8F29000000309C319D
:102330003E2491310B308B312E2391310800FB006C
:102340007B08023E86000130870001080319A92995
:10235000AA29DE297B08033E860001308700403F22
:10236000F900413FFA00FA36F90CFA36F90C7B080D
:10237000033E8600013087007908810241317A08E6
:10238000813B7F317B0A86000130870001089E3146
:10239000122691317508F9007608FA00FA36F90C20
:1023A000FA36F90C7B08033E860001308700790875
:1023B000810741317A08813D7F31EF297B0A860010
:1023C0000130870001089E31122691317B08033EBF
:1023D0008600013087007508C03F7608C13F0800BD
:1023E0002000A9000930A7002708F10029089D3125
:1023F00074259131B03E2000A8002808AB002B08BE
:102400008831022091312000A7002708AA002A2A3B
:102410002B089C319F249131003A0319102A112A6C
:10242000472A21004C08031D162A172A1C2A2000BF
:102430002B089E316026913120002B08903101201D
:10244000913120002908A7002708F10090310020D1
:102450009131472A2A08A700A801A71BA80328082A
:10246000003A0319372AFF3A03193C2A472A27085A
:10247000003A0319082A472A2708FD3A0319472A70
:10248000033A0319472A013A0319472A472A200029
:102490002A0808002000AB002B08A9000330A9354A
:1024A000FF3E031D4F2A2935203EAA002A08AC0012
:1024B0002C0A86000130870001089D31CB2592311E
:1024C000003A0319642A652AA42A20002C0A8600EF
:1024D000013087000108883100209231003A031949
:1024E000722A732AA42A20002C089C31F1249231EC
:1024F00020002C0895312C25923120002C08023E1A
:1025000086000130870003300102031C882A892AD3
:10251000912A2C0886000130870001088731C427E2
:10252000923120002C08A9002908A4002C08023EA2
:102530008600013087000135A03E86008701413FBB
:102540008A00403F0A009231080021001C08F80070
:102550001B08F70020006F1CAE2AAF2AB02A062BFA
:102560006E080319B42AB52AFF2AC42A21002D08AF
:102570008A002C080A009231D52A21002B088A00F3
:102580002A080A009231D52A6E080139F500F601B1
:102590007608003A0319CD2AD52A7508003A03199E
:1025A000B62A013A0319BD2AD52A0930F500750863
:1025B000F10021004E089D3174259231B53E860010
:1025C0008701010820006E060319E72AE82AFB2A82
:1025D0006E1CEB2AEC2AF62A0030F5000430F600D7
:1025E00077087502F7007808763BF8007708210035
:1025F000C8077808C93D01302000EE02062B770895
:102600002100C8077808C93D20006F140800200089
:10261000A400A30121001D08F90079082000A000F2
:1026200021001E08F90079082000A1008731FB274E
:10263000933100308B1B01302000A20024089D3113
:102640001525933120002408860087010108F90030
:1026500079082100CE002000240886008701453F2C
:10266000EE002100C801C90120006F109D318925AD
:102670009331F90079082100CD00C801C90120007B
:10268000EF108B139231A52293312000220C031CF2
:102690008B1303188B179D314D25933121009D1805
:1026A000522B532B4E2B20006F1C572B582B412B9A
:1026B000200821009D002000210821009E0020000C
:1026C000EF1C632B642B682BFA30F9007908A30008
:1026D00023080800200024080A3E860001308700F5
:1026E000403FFA00413FFB0003307B02E830031912
:1026F0007A02031C7C2B7D2B922B24088600013050
:10270000870001088731C427933120002408860000
:10271000013087000108FA007A08F1009B31C423D8
:102720009331CF2B2408093E860001308700010831
:10273000803AFA0024080E3E860001308700240803
:102740000E3E84000130850000360102803AFA0214
:102750000318AB2BAC2BCF2B2408023E8600013094
:1027600087008101810A24080A3E86000130870023
:102770000030C03FC13F24080C3E86000130870076
:10278000FF30C03FFB30C13F240886000130870086
:102790000108FA007A08F1009B31C4239331080044
:1027A000200024080A3E860001308700403FA50033
:1027B000413FA60000302602093003192502031804
:1027C000E22BE32BE82B24089031B6209331EC2B3D
:1027D00024089531BB259331200024080A3E860049
:1027E000013087000130810741310318810A240834
:1027F0000A3E860001308700403FA500413FA60009
:1028000000302602103003192502031C082C092C65
:10281000352C2408053E860001308700403FA50086
:10282000413FA600423FA700433FA8000430A8361E
:10283000A70CA60CA50C890B172C2408033E8600B8
:10284000013087002508C03F2608C13F2408023E0A
:102850008600013087008101810A24080A3E860033
:10286000013087000030C03FC13F08000310200046
:10287000560D570DD8005808FB007B08031D412C4E
:10288000422C4B2C0030D7000030D6000030D50051
:102890000030D400AA2C5408D8005508D900560896
:1028A000DA005708DB001F30DB36DA0CD90CD80C05
:1028B000890B542C5808DC005C08FA00D617FF304E
:1028C000D405FF30D505FF30D6050030D70596304A
:1028D000FB02FB1F6C2C6D2C852C7B08803A973EED
:1028E0000318732C742C752C422C0130D736D60C5F
:1028F000D50CD40C890B762C0130D8005808FB0776
:10290000031D832C842C752C9A2C20307B02031CF5
:102910008A2C8B2C952C422C0130D435D50DD60D1C
:10292000D70D890B8D2C0130FB027B08031D992CE0
:102930009A2C8C2C7A0803199E2C9F2CAA2CD40933
:10294000D509D609D709D40A0319D50A0319D60A15
:102950000319D70A080042302000BD004830BC00EF
:102960000030BB000030BA004030A300A030A2000D
:102970000030A1000030A0006008A7005F08A6009A
:102980005E08A5005D08A40085316D259431200006
:102990002308C1002208C0002108BF002008BE0093
:1029A00096314C26943120003D08D7003C08D600D3
:1029B0003B08D5003A08D4004130DB002030DA0073
:1029C0000030D9000030D8009E31F226943120002A
:1029D0005708E4005608E3005508E2005408E100F7
:1029E0006408A7006308A6006208A5006108A400A7
:1029F0004430A3007A30A2000030A1000030A000D3
:102A000085316D25943120002308C1002208C000C3
:102A10002108BF002008BE004230BD00C830BC0005
:102A20000030BB000030BA0096314C2694312000B3
:102A30003D08D7003C08D6003B08D5003A08D40032
:102A4000943136249431200055082100C70020001D
:102A500054082100C60008002000A0002008053E00
:102A6000860001308700403FF100413FF200423FC5
:102A7000F300433FF4000430F436F30CF20CF10C95
:102A8000890B3C2D2008033E860001308700403F23
:102A9000F500413FF6007508F7007608F800F901E7
:102AA000FA017108F7027208F83B7308F93B7408E1
:102AB000FA3B7A08A4007908A3007808A2007708F6
:102AC000A1002108F1002208F2002308F3002408E5
:102AD000F40020080F3E860001308700010A742DA3
:102AE000F437F30CF20CF10C890B702D7408A40070
:102AF0007308A3007208A2007108A100A41B8E2D08
:102B00002408031D8F2D2308031D8F2D2208031D6C
:102B10008F2D80302102031C8E2D8F2D982D00309B
:102B20002000A4000030A3000030A2007F30A100EC
:102B30002000A41FA62D80302102FF30223BFF3051
:102B4000233BFF30243B0318A62DA72DB02DFF30CB
:102B50002000A400FF30A300FF30A2008030A100BD
:102B600020002108F1002008093E8600013087007E
:102B7000710881000800F7008B1FBF2DC02D072EA4
:102B80008B137708053E860001308700403FF10037
:102B9000413FF200423FF300433FF4000430F4367B
:102BA000F30CF20CF10C890BCF2D7708053E860053
:102BB000013087007108810241317208813B413147
:102BC0007308813B41317408813B7D317708033EB6
:102BD000860001308700403FF100413FF20071085C
:102BE000F3007208F400F501F6017708053E86004F
:102BF000013087007308810741317408813D4131FC
:102C00007508813D41317608813D8B174B2E770841
:102C1000053E860001308700403FF100413FF20051
:102C2000423FF300433FF4000430F436F30CF20C5F
:102C3000F10C890B152E7708053E860001308700C0
:102C40007108810241317208813B41317308813B37
:102C500041317408813B7D317708033E86000130A5
:102C60008700403FF100413FF2007108F300720815
:102C7000F400F501F6017708053E86000130870073
:102C80007308810741317408813D41317508813DE8
:102C900041317608813D0800200041088039C2009A
:102CA0004208CB004135C2004208D200C01F592E55
:102CB0005A2E5B2E5214520803195F2E602E702E6E
:102CC000520A031D642E652E6D2E0030C1000030A7
:102CD000C0000030BF000030BE00C017C101782E18
:102CE0000030C1000030C0000030BF000030BE0026
:102CF0003D088039C2004208CB063D35C20042087B
:102D0000D300BC1F842E852E862E5314530803191E
:102D10008A2E8B2E9B2E530A031D8F2E902E982EBB
:102D20000030BD000030BC000030BB000030BA00F5
:102D3000BC17BD01A32E0030BD000030BC00003028
:102D4000BB000030BA003D083C043B043A04031DBC
:102D5000AA2EAB2EC42E0030C1000030C0000030BF
:102D6000BF000030BE008030C0047F30C1044B087B
:102D7000C2004208C1044108BD004008BC003F0831
:102D8000BB003E08BA00FF2F5208031DC82EC92EF3
:102D9000D22E0030BD000030BC000030BB0000303F
:102DA000BA00FF2F5208C200C3014308C5005308F0
:102DB0004202C400031CC50344087F3ECC0000301F
:102DC000453DCD004108CA004008C9003F08C80081
:102DD0003E08C7000030C1000030C0000030BF0016
:102DE0000030BE000030D1000030D0000030CF00F5
:102DF0000030CE00D3013A2F53080319002F012FC2
:102E00001B2F0130C735C80DC90DCA0D890B022F04
:102E10000130BE35BF0DC00DC10D890B092FD11F6B
:102E2000122F132F142F3E140130CE35CF0DD00D9D
:102E3000D10D890B152F3D084A02031D292F3C088F
:102E40004902031D292F3B084802031D292F3A0878
:102E50004702031C2C2F2D2F362F51173A08C7027B
:102E60003B08C83B3C08C93B3D08CA3B0130C20097
:102E70004208D3071A305302031C3F2F402FFC2E69
:102E80004A084904480447040319472F482F612F73
:102E90004E14612F0130BE35BF0DC00DC10D890B21
:102EA0004B2FD11F542F552F562F3E140130CE35A6
:102EB000CF0DD00DD10D890B572FFF30CC07FF3030
:102EC000CD3DC01F642F652F4A2FD301D11F692F1D
:102ED0006A2F862FFF304E05C200FF304F05C3001A
:102EE000FF305005C4007F305105C500450844043B
:102EF0004304420403197D2F7E2F812FD301D30A6F
:102F0000862F3E1C842F852F862F7E2F5308031972
:102F10008A2F8B2FB32F0130BE070030BF3D00300A
:102F2000C03D0030C13D411C962F972FB32F3E0866
:102F3000C2003F08C3004008C4004108C50001307A
:102F4000C600C537C40CC30CC20CC60BA12F450864
:102F5000C1004408C0004308BF004208BE00013061
:102F6000CC070030CD3D4D08803AC200803042028F
:102F7000031DBC2FFF304C02031CBF2FC02FCD2FD1
:102F8000FF302000CC000030CD000030C100003008
:102F9000C0000030BF000030BE0020004D08803A65
:102FA000C20080304202031DD72F01304C020318AB
:102FB000DA2FDB2FE72F2000CC01CD010030C1003C
:102FC0000030C0000030BF000030BE00CB01200048
:102FD0004C08C2004208D200521CEF2FF02FF22FF3
:102FE000C017F62F7F30C2004208C0055236C2001B
:102FF0004208C1004B08C2004208C104BB2E0800B1
:103000000034003400340034003400340034003420
:103010000034003400340034003400347E34013491
:1030200001340134003400340034003400340034FE
:103030000034003400340034003400347E34013471
:1030400000340034C8344234003400342034413475
:10377E0008000800080008000800080020001C15BA
:10378E00080020001C11080028001715080028004A
:10379E001711080016302100970008009D31FA25F8
:1037AE009B3108000130F00070082000ED07080082
:1037BE0072082100D6007108D50008007208210099
:1037CE00D4007108D300080072082100D2007108DD
:1037DE00D100080072082100D0007108CF00080047
:1037EE00640080010131890BF82B0034FE001200B9
:1037FE001E00FE0BFE2B0034F1007108083E860001
:10380E008701811008007030210099009801220074
:10381E0096010800F1007108083E86008701011527
:10382E000800F1007108083E8600870101110800AA
:10383E002700131D232C242C272C9C3163249C3110
:10384E00080020006C03031D2D2C2E2C312C9B31D7
:10385E00C5239C310800F1007103031D372C382C51
:10386E003B2C22000E153D2C22000E110800F100FB
:10387E007103031D432C442C472C22000E16492C99
:10388E0022000E120800F1007103031D4F2C502C64
:10389E00532C22008E15552C22008E1108009C31BF
:1038AE00BE249C319E3198269C319E31B6269C3189
:1038BE008731FB279C310800210055085604031957
:1038CE00692C6A2C6F2C56088A0055080A009C3108
:1038DE0027001311080020009110210053085404F2
:1038EE0003197A2C7B2C802C54088A0053080A006A
:1038FE009C31080020009310210051085204031936
:10390E00892C8A2C8F2C52088A0051080A009C316F
:10391E0008002000931121004F0850040319982C21
:10392E00992C9E2C50088A004F080A009C310800E2
:10393E00F10071080319A42CA52CAC2C7108083EBB
:10394E008600870101080139AD2C00300800F10016
:10395E007103031DB32CB42CB82C9B31CB239C319B
:10396E00BD2C9B31CE239C3122000E110800FA0192
:10397E007A089C31DF249C310130F9007908FA076E
:10398E0002307A02031CCC2CCD2CBF2C0800C73081
:10399E0020009B009A01911021009114C030F1007B
:1039AE001B30F2009B31E5239C3120009C01080066
:1039BE00F80078089D3160259C310930F7007708B2
:1039CE00F10078089D3174259C31B03E9C31032462
:1039DE009C3108002000A0008B1FF62CF72CFE2C2B
:1039EE008B13200891319F219C318B17022D2008BB
:1039FE0091319F219C3108002000AE012E0892319A
:103A0E004A229D3101302000AD002D08AE07023054
:103A1E002E02031C132D142D052D0800F100710A22
:103A2E0086008701403F2100AC00413FAD00710888
:103A3E00033E86008701403FAA00413FAB000800CD
:103A4E007C302800960095012000931021009314DD
:103A5E00C130F1001B30F2009B31EB239D3102305F
:103A6E00280097000800FF3028009D009C012000D0
:103A7E00931121009315C230F1001B30F2009B31DF
:103A8E00F1239D311F3028009E00080021004D08B3
:103A9E00F1007108F2007208031D562D572D582D96
:103AAE005F2D0130F2027208031D5E2D5F2D582D21
:103ABE000800F600023076020318662D672D732D6E
:103ACE000930F5007508F10076089D3174259D3199
:103ADE00B83E8600870101140800F400F301741C3F
:103AEE00792D7A2D7E2D7108F2007208F3070310DE
:103AFE00F10D0310F40C7408031D862D872D762D01
:103B0E00730808007C1C8C2D8D2D922D7C36F100B7
:103B1E007108FC009B2D7C36F1007108FC007C08BE
:103B2E00B43AF1007108FC007C080F3908009F318F
:103B3E00D7279D319C310A249D319B31D1239D3154
:103B4E009D313A259D319D3127259D319C31CE24C5
:103B5E009D319C3156249D31080000309C31322419
:103B6E009D3100309C31AE249D3100309C314A2471
:103B7E009D3100309C313E249D3100309D31E22537
:103B8E009D3122008E120800F600023076020318D4
:103B9E00D12DD22DE02D0930F5007508F1007608F3
:103BAE009D3174259D31B83E86008701010C013987
:103BBE00E12D003008002000E5006503031DE82D0F
:103BCE00E92DEC2DEC01EC0AF92D4030E0004030EF
:103BDE00DF000030DE000030DD009431AB249D317B
:103BEE002000EC010800F5017508F4000330F435EF
:103BFE00FF3E031DFE2D7435203E903132209D3147
:103C0E000130F4007408F50702307502031C102E03
:103C1E00112EFB2D0800F800023078020318182E22
:103C2E00192E292E0930F7007708F10078089D31FA
:103C3E0074259E31B63E86008701403FF500413F18
:103C4E00F6002B2EF501F60108007208803AF300FB
:103C5E0080307302031D352E013071020318382E89
:103C6E00392E452E7109F3007209F400F30A031977
:103C7E00F40A7308F1007408F200452E08002000C3
:103C8E00AC012C089131F0219E31003A0319502ECF
:103C9E00512E532E00305F2E0130FB007B0820008A
:103CAE00AC0702302C02031C5D2E5E2E482E013016
:103CBE000800F1008B1F642E652E712E8B13710878
:103CCE00063E8600870121004808C03F4908C13FD3
:103CDE008B177A2E7108063E860087012100480850
:103CEE00C03F4908C13F080001302100C207003023
:103CFE00C33D03304302E83003194202031C882EF1
:103D0E00892E972EC201C301031022000E1D03142B
:103D1E000318922E952E22000E15972E22000E11AC
:103D2E0008000030F1009830F2002030F30000302F
:103D3E00F40020309031E4209E312000A0012008B4
:103D4E008731C4279E310130FB007B082000A0077D
:103D5E0002302002031CB42EB52EA62E0800B03061
:103D6E00F2007208F300B930F20073087202031801
:103D7E00C12EC22EC32ED32E73089C3103249E3126
:103D8E000930F2007208F307B930F20073087202BC
:103D9E000318D22ED32EC32E0800F2000230720268
:103DAE000318DA2EDB2EF02E7208F1000330F135F7
:103DBE00FF3E031DDE2E7135223E86000130870048
:103DCE00023001060319EC2EEE2E0130EF2E0030DC
:103DDE00F12E0030080080302000D7065B08F4007A
:103DEE005A08F3005908F2005808F1005708F80075
:103DFE005608F7005508F6005408F5008831F620ED
:103E0E009E3174082000D7007308D6007208D500C2
:103E1E007108D400080022000E17210021309D00E9
:103E2E000530890B182F00008E308400003085007D
:103E3E000E30860001308700253080179D0000323D
:103E4E0000320032003221009D14003200002200A8
:103E5E008E178013080022008E17210025309D003A
:103E6E000530890B382F00008E308400003085001D
:103E7E000E30860001308700213000179D00003281
:103E8E0000320032003221009D1400320000220068
:103E9E000E170013080022000E13210021309D0082
:103EAE000530890B582F00008E30840000308500BD
:103EBE000E30860001308700253080179D000032BD
:103ECE0000320032003221009D1400320000220028
:103EDE008E138013080022008E13210025309D00C2
:103EEE000530890B782F00008E308400003085005D
:103EFE000E30860001308700213000179D00003201
:103F0E0000320032003221009D14003200002200E7
:103F1E000E1300130800D03413344C3408346A34B2
:103F2E001334C4341B34C4341B3472341F3432344F
:103F3E001F3400341034003432341F3472341F34C2
:103F4E002034003400340034013412341F3452341F
:103F5E001F342034003400340034F900F501F6012A
:103F6E007108F300F4017308F7007408F800791C67
:103F7E00C12FC22FC62F7708F5077808F63D0130FE
:103F8E00F735F80D890BC72F0310F90C7908031DAF
:103F9E00D12FD22FBE2F7608F2007508F10008003F
:103FAE0022008C018D018E013F3021008C0070307B
:103FBE008D0003308E00033023008E0030308D00D4
:103FCE0003308C0024008D0104308C008E01210002
:103FDE00951322009D019E01270013111211111538
:103FEE00BF30F1001B30F2009B31DF239F318B1568
:023FFE000800B9
:020000040001F9
:08000000FF3FFF3FFF3FFF3F00
:04000E00E43DFF3E90
:00000001FF
