:08000000803102288731F22F44
:10025E00080021009D1408001630210097000800A8
:10026E0021001C08F1001B08F00008007108210095
:10027E00E9007008E800080071082100ED00700820
:10028E00EC00080071082100EB007008EA0008007D
:10029E00640080010131890B5029003403102100C4
:1002AE009D1C03140030093D080070302100990098
:1002BE009801220096010800A03021009E009B01AB
:1002CE009C0101309D000800F0002000111E7029D5
:1002DE0071296C29700823009A000800F10071083A
:1002EE00F000F00DF00D21001D0870068339700628
:1002FE009D001D140800F100813190218131003ADA
:10030E0003198A298B298F29710881316B2181313B
:10031E000800F0012000111E952996299D29230021
:10032E009E1E9A299B299D29F001F00A700808004B
:10033E008131F621813181315C218131813133214D
:10034E008131813163218131823112228131080064
:10035E00813155218131003A0319B629B729AF29C8
:10036E008131372181317108F5007008F40075086C
:10037E00F3007408F2000800F4007408F20072082A
:10038E00F300CD290130F2007208F40774088600DC
:10039E0087010108031DD429D529C92973087402C0
:1003AE00F000F101F01BF10308007408803AF5002B
:1003BE0080307502031DE529013073020318E82908
:1003CE00E929F5297309F5007409F600F50A0319F0
:1003DE00F60A7508F3007608F400F52908002200E5
:1003EE008C018D018E012F3021008C0070308D001C
:1003FE00E3308E00C33023008E0010308D000730A6
:10040E008C0024008D018C018E0121009517220095
:10041E009D019E010800083023009F0090309D0032
:10042E0024309E00CF309B009C010030F000003045
:10043E00F1008131432182310030F0000030F100B3
:10044E008131492182310030F0000030F1008131DC
:10045E003D2182312100AA0108002100E20068300E
:10046E00FD007D08E1006208FD007D08E300E40167
:10047E00E501E601E70120006708DF006608DE00FF
:10048E00E130FD007D08E000E330823180228231D0
:10049E00210064086207FD007D0886008701810146
:1004AE0008002000A300A101A201702A2008F90073
:1004BE00FA017908F0007A08F1007808FB007B0851
:1004CE00F20083311B23823101302000A10700305E
:1004DE00A23D21082307F90079088600870101084B
:1004EE00FA007A08A0002008031D7E2A7F2A5D2AC2
:1004FE0008002000E3005F08E5005E08E40021002C
:10050E00A201A3019E2A6430E1006108CE006008BA
:10051E00E2006208CF0063088331C02382312000DD
:10052E004E082100A20720004F082100A33D200005
:10053E0064088400650885001200031DA72AA82AF6
:10054E008A2A210023082000DF0021002208200033
:10055E00DE000800F90079088131C321823171086B
:10056E00F8007008F700FA01D12A7A087907F50029
:10057E0075088600870101088131822182310D3094
:10058E00F500FC30890BC92AF50BC92A0130F5009C
:10059E007508FA077A08F500F60178087602031D49
:1005AE00DA2A77087502031CDD2ADE2ABC2A0A30F5
:1005BE00813182218231080081319F2182312200D6
:1005CE000E150A308131752182318131302182310F
:1005DE008131AF21823173082000ED007208EC00EA
:1005EE006D08ED006C08EC000030E6008830E70086
:1005FE006D08E9006C08E800CB308231342282317C
:10060E00CB308231B122823106302000EB00133024
:10061E00EA00AD30890B112BEA0B112BEB0B112BD2
:10062E000032EC2A80310228720803191F2B202B6E
:10063E00252B7208031D242B252B2A2B70088131A4
:10064E002F218331692B7208033E86008701160025
:10065E0001040319332B342B512B7208033E8600F1
:10066E008701403FF300413FF400720A8600870184
:10067E00403FF500413FF6007608803AF7007408D7
:10068E00803A7702031D4D2B730875020318502B09
:10069E00512B692B7008F300720886008701720ACD
:1006AE008400850100080107F400740886008701A4
:1006BE0073088100720A860087010130810741317B
:1006CE000318810A08002000AB006E1C6F2B702BE4
:1006DE00782B2B08FC007C08F80024088231582265
:1006EE0083312000A61B7C2B7D2B822B2608AA0093
:1006FE002508A900842BA901AA01A701A801982BFE
:10070E002030F0000030F10020002B08FC007C08A7
:10071E00F20083311B23833101302000A707003004
:10072E00A83D2808803AFC002A08803A7C02031D66
:10073E00A22B29082702031CA52BA62B872B2000F2
:10074E006E18AA2BAB2BB32B2B08FC007C08F800E1
:10075E002408823158228331200024088131C3219C
:10076E008331200029087007A4002A08713DA500D6
:10077E0008002000DD004E0886008701403FD000B3
:10078E00413FD10050088400510885001200253ADF
:10079E00031DD22BD32B792C4E08860087010130F6
:1007AE00810741310318810A2100A401A50120000F
:1007BE00EE01EF01FF302100A600FF30A700200060
:1007CE004E0886008701403FD000413FD1005008BF
:1007DE008400510885001200643A0319F72BF82B98
:1007EE00092C4E0886008701403FD000413FD100C2
:1007FE0050088400510885001200693A031D082C28
:10080E00092C442C4E0886008701013081074131A6
:10081E000318810A4F0886008701010884008501AC
:10082E0002308107003FD000013FD1005008D500B3
:10083E005108D600890D893B8909D700D800D90007
:10084E00DA00DB00DC005508B0005608B10057088E
:10085E00B2005808B3005908B4005A08B5005B0836
:10086E00B6005C08B7005D0886318826833120000B
:10087E003108CF003008CE009C2C4E088600870130
:10088E00403FD000413FD100500884005108850000
:10089E001200253A031D542C552C6E2C4E08860042
:1008AE0087010130810741310318810A2530F0009C
:1008BE000030F1005D08D0005008F20083311B2398
:1008CE00833101302000CE000030CF009C2C4E082A
:1008DE00860087010130810741310318810ACE015C
:1008EE00CF019C2C4E0886008701403FD000413F2F
:1008FE00D10050088400510885000008D200D301B1
:10090E005208F0005308F1005D08D4005408F200BC
:10091E0083311B23833120004E088600870101306E
:10092E00810741310318810A682C0800F201283032
:10093E00860000308700473FF000F01FA72CA82C40
:10094E00C92C2000A809A909AA09AB09AC09AD094F
:10095E00AE09AF09A80A031DC72CA90A031DC72C8F
:10096E00AA0A031DC72CAB0A031DC72CAC0A031D14
:10097E00C72CAD0A031DC72CAE0A031DC72CAF0A28
:10098E00F201F20A2030860000308700473FF00067
:10099E00F01FD22CD32CF22C2000A009A109A20901
:1009AE00A309A409A509A609A709A00A031DF22CEB
:1009BE00A10A031DF22CA20A031DF22CA30A031D89
:1009CE00F22CA40A031DF22CA50A031DF22CA60A72
:1009DE00031DF22CA70A2000200821042204230460
:1009EE0024042504260427040319FE2CFF2C522D63
:1009FE00F101F10A0E2DA035A10DA20DA30DA40D2E
:100A0E00A50DA60DA70D0130F0007008F107A71F68
:100A1E00112D122D022D27082F02031D302D260811
:100A2E002E02031D302D25082D02031D302D240806
:100A3E002C02031D302D23082B02031D302D2208FE
:100A4E002A02031D302D21082902031D302D2008F6
:100A5E002802031C332D342D442D2008A802210812
:100A6E00A93B2208AA3B2308AB3B2408AC3B250834
:100A7E00AD3B2608AE3B2708AF3BA736A60CA50C10
:100A8E00A40CA30CA20CA10CA00C0130F102031DAE
:100A9E00512D522D122D72080319562D572D752DCD
:100AAE00A809A909AA09AB09AC09AD09AE09AF0994
:100ABE00A80A031D752DA90A031D752DAA0A031D6B
:100ACE00752DAB0A031D752DAC0A031D752DAD0AD0
:100ADE00031D752DAE0A031D752DAF0A20002808C3
:100AEE00A0002908A1002A08A2002B08A3002C08A8
:100AFE00A4002D08A5002E08A6002F08A7000800A8
:100B0E00F2012030860000308700473FF000F01FD2
:100B1E00912D922DB32D2000A009A109A209A309A0
:100B2E00A409A509A609A709A00A031DB12DA10AAA
:100B3E00031DB12DA20A031DB12DA30A031DB12D54
:100B4E00A40A031DB12DA50A031DB12DA60A031D6E
:100B5E00B12DA70AF201F20A283086000030870074
:100B6E00473FF000F01FBC2DBD2DE02D2000A80941
:100B7E00A909AA09AB09AC09AD09AE09AF09A80AC2
:100B8E00031DDC2DA90A031DDC2DAA0A031DDC2D75
:100B9E00AB0A031DDC2DAC0A031DDC2DAD0A031DB3
:100BAE00DC2DAE0A031DDC2DAF0A0130F0007008FB
:100BBE00F20673308600003087000830F0000030F7
:100BCE001E00F00BE72D2000200821042204230430
:100BDE0024042504260427040319F62DF72D532E7D
:100BEE00F101F10A062EA035A10DA20DA30DA40D43
:100BFE00A50DA60DA70D0130F0007008F107A71F77
:100C0E00092E0A2EFA2DF335F40DF50DF60DF70D0E
:100C1E00F80DF90DFA0D27082F02031D302E2608A8
:100C2E002E02031D302E25082D02031D302E240802
:100C3E002C02031D302E23082B02031D302E2208FA
:100C4E002A02031D302E21082902031D302E2008F2
:100C5E002802031C332E342E452E2008A80221080C
:100C6E00A93B2208AA3B2308AB3B2408AC3B250832
:100C7E00AD3B2608AE3B2708AF3B7314A736A60C38
:100C8E00A50CA40CA30CA20CA10CA00C0130F1021B
:100C9E00031D522E532E0A2E72080319572E582E4C
:100CAE00762EF309F409F509F609F709F809F90999
:100CBE00FA09F30A031D762EF40A031D762EF50AA1
:100CCE00031D762EF60A031D762EF70A031D762EC9
:100CDE00F80A031D762EF90A031D762EFA0A7308FA
:100CEE002000A0007408A1007508A2007608A300D9
:100CFE007708A4007808A5007908A6007A08A7004E
:100D0E0008002000BD003008C4003108C5003208BC
:100D1E00C6003308C7003408C8003508C9003608B5
:100D2E00CA003708CB004430860000308700473FAA
:100D3E00B800B81BA32EA52E0130A62E0030200021
:100D4E00B900BA013908C2003A08C3004208430488
:100D5E000319B22EB32ED12EC409C509C609C7096F
:100D6E00C809C909CA09CB09C40A031DD12EC50A6F
:100D7E00031DD12EC60A031DD12EC70A031DD12E67
:100D8E00C80A031DD12EC90A031DD12ECA0A031D7E
:100D9E00D12ECB0A2100A71BD52ED62EDB2EFD3051
:100DAE002000EE05FF30EF0521002708803A2000D5
:100DBE00B80080303802031DE72E013021002602D4
:100DCE000318EA2EEB2EF12E01302000BE0000306B
:100DDE00BF00F92E210027082000BF0021002608A1
:100DEE002000BE00210025082000C100210024089B
:100DFE002000C00042084304031D062F072F0B2FAF
:100E0E006E1D0A2F0B2F0F2FFF30C007FF30C13D75
:100E1E001F30CC000030CD002100CA017E2FFF30E4
:100E2E002000CC07FF30CD3D0A30A000A101A20169
:100E3E00A301A401A501A601A7014408A800450825
:100E4E00A9004608AA004708AB004808AC004908AC
:100E5E00AD004A08AE004B08AF0084319D248631A8
:100E6E0020002108F4002008F3008131DC218631B6
:100E7E007308303E2000B8004C08AB3E8600870158
:100E8E0038088100FF30BE07FF30BF3DFF30C0077E
:100E9E00FF30C13D0A30A000A101A201A301A401AF
:100EAE00A501A601A7014408A8004508A900460807
:100EBE00AA004708AB004808AC004908AD004A0834
:100ECE00AE004B08AF008531872586312000200803
:100EDE00C4002108C5002208C6002308C700240844
:100EEE00C8002508C9002608CA002708CB00200024
:100EFE004D08803AB80080303802031D882F01302B
:100F0E004C02031C8B2F8C2FB92F20004408450454
:100F1E0046044704480449044A044B04031D982F11
:100F2E00992F162F3F08803AB80080303802031DE3
:100F3E00A22F01303E020318A52FA62F162F200038
:100F4E004108803AB80080303802031DB02F0130BE
:100F5E004002031CB32FB42FB92F2000EE18B82F68
:100F6E00B92F162F200042084304031DBF2FC02F98
:100F7E00C42F6E1DC32FC42FDF2FFF30CC07FF30C1
:100F8E00CD3D42084304031DCD2FCE2FD32F2B3042
:100F9E00BB000030BC00D72F2D30BB000030BC0092
:100FAE003B08B8004C08AB3E86008701380881002C
:100FBE004C08AB3EB8003808A4004108A600400813
:100FCE00A5003D0883316A23863120002508B10033
:100FDE002408B00008002000EE01EF01A0308400CC
:100FEE00003085003F3081314F2187312000823122
:100FFE00E32A2534643420340A3400346034423415
:04100E00A2340D34C7
:020000040001F9
:08000000FF3FFF3FFF3FFF3F00
:04000E00E43FFF3E8E
:00000001FF
