:10000000803123281C1508007E1480318B190B1CAD
:100010000D2889313821803121280B1F212821000A
:10002000931C19282000931C192889319E218031A6
:1000300021282100911C21282000911C2128893190
:1000400092217E10090080312528563084008B30A3
:100050008500A0308600003087002230893156218B
:100060008031733084008A3085005430860001303E
:100070008700183089315621803165308400003086
:1000800085000730893150218031C2308400003032
:1000900085001D30893150218031203084000130AD
:1000A00085003430893150217E1020008B31352B72
:1000B000013089316A21803101308A314622803114
:1000C0004130DD002030DC000030DB000030DA00A1
:1000D0008C31262480311F302000E4007130E30091
:1000E0001E30890B7128E30B7128E40B7128000086
:1000F00041302000DD003030DC000030DB0000301B
:10010000DA008C31262480311F302000E400713069
:10011000E3001E30890B8A28E30B8A28E40B8A2827
:10012000000041302000DD004030DC000030DB000A
:100130000030DA008C31262480311F302000E400AA
:100140007130E3001E30890BA328E30BA328E40BD6
:10015000A328000041302000DD005030DC000030DA
:10016000DB000030DA008C31262480311F30200083
:10017000E4007130E3001E30890BBC28E30BBC287F
:10018000E40BBC28000041302000DD006030DC00C2
:100190000030DB000030DA008C31262480311F3043
:1001A0002000E4007130E3001E30890BD528E30BFA
:1001B000D528E40BD528000041302000DD00703048
:1001C000DC000030DB000030DA008C312624803186
:1001D0001F302000E4007130E3001E30890BEE2850
:1001E000E30BEE28E40BEE28000041302000DD0098
:1001F0008030DC000030DB000030DA008C31262457
:1002000080311F302000E4007130E3001E30890B84
:100210000729E30B0729E40B0729000041302000E0
:10022000DD008830DC000030DB000030DA008C318B
:10023000262480311F302000E4007130E3001E309E
:10024000890B2029E30B2029E40B202900004130F1
:100250002000DD009030DC000030DB000030DA00F0
:100260008C31262480311F302000E4007130E300FF
:100270001E30890B3929E30B3929E40B3929000099
:1002800041302000DD009830DC000030DB00003021
:10029000DA008C31262480311F302000E4007130D8
:1002A000E3001E30890B5229E30B5229E40B52293B
:1002B000000041302000DD00A030DC000030DB0019
:1002C0000030DA008C31262480311F302000E40019
:1002D0007130E3001E30890B6B29E30B6B29E40BB3
:1002E0006B29000041302000DD00A830DC00003028
:1002F000DB000030DA008C31262480311F302000F2
:10030000E4007130E3001E30890B8429E30B84295B
:10031000E40B8429000041302000DD00B030DC0017
:100320000030DB000030DA008C31262480311F30B1
:100330002000E4007130E3001E30890B9D29E30B9F
:100340009D29E40B9D29000041302000DD00B830DC
:10035000DC000030DB000030DA008C3126248031F4
:100360001F302000E4007130E3001E30890BB629F5
:10037000E30BB629E40BB629000041302000DD0074
:10038000C030DC000030DB000030DA008C31262485
:1003900080311F302000E4007130E3001E30890BF3
:1003A000CF29E30BCF29E40BCF29000041302000F7
:1003B000DD00C830DC000030DB000030DA008C31BA
:1003C000262480311F302000E4007130E3001E300D
:1003D000890BE829E30BE829E40BE8290000413008
:1003E0002000DD00D030DC000030DB000030DA001F
:1003F0008C31262480311F302000E4007130E3006E
:100400001E30890B012AE30B012AE40B012A0000AC
:1004100041302000DD00D830DC000030DB0000304F
:10042000DA008C31262480311F302000E400713046
:10043000E3001E30890B1A2AE30B1A2AE40B1A2A4E
:10044000000041302000DD00E030DC000030DB0047
:100450000030DA008C31262480311F302000E40087
:100460007130E3001E30890B332AE30B332AE40B8F
:10047000332A000041302000DD00E830DC0000308D
:10048000DB000030DA008C31262480311F30200060
:10049000E4007130E3001E30890B4C2AE30B4C2A38
:1004A000E40B4C2A000041302000DD00F030DC007D
:1004B0000030DB000030DA008C31262480311F3020
:1004C0002000E4007130E3001E30890B652AE30B45
:1004D000652AE40B652A000041302000DD00F4307D
:1004E000DC000030DB000030DA008C312624803163
:1004F0005C302000E4005130E3006030890B7E2A3C
:10050000E30B7E2AE40B7E2A000041302000DD0050
:10051000F830DC000030DB000030DA008C312624BB
:1005200080315C302000E4005130E3006030890B02
:10053000972AE30B972AE40B972A0000413020000A
:10054000DD00FC30DC000030DB000030DA008C31F4
:10055000262480315C302000E4005130E30060301C
:10056000890BB02AE30BB02AE40BB02A000042301A
:100570002000DD000030DC000030DB000030DA005D
:100580008C31262480315C302000E4005130E300BF
:100590006030890BC92AE30BC92AE40BC92A000081
:1005A00042302000DD000230DC000030DB00003093
:1005B000DA008C31262480315C302000E400513098
:1005C000E3006030890BE22AE30BE22AE40BE22A23
:1005D000000042302000DD000430DC000030DB0091
:1005E0000030DA008C31262480315C302000E400B9
:1005F0005130E3006030890BFB2AE30BFB2AE40B4C
:10060000FB2A000042302000DD000630DC00003014
:10061000DB000030DA008C31262480315C30200091
:10062000E4005130E3006030890B142BE30B142BF2
:10063000E40B142B000042302000DD000830DC0009
:100640000030DB000030DA008C31262480315C3051
:100650002000E4005130E3006030890B2D2BE30BC8
:100660002D2BE40B2D2B000042302000DD000A3042
:10067000DC000030DB000030DA008C3126248031D1
:100680005C302000E4005130E3006030890B462BE1
:10069000E30B462BE40B462B000042302000DD002C
:1006A0000C30DC000030DB000030DA008C31262416
:1006B00080315C302000E4005130E3006030890B71
:1006C0005F2BE30B5F2BE40B5F2B0000423020001D
:1006D000DD000E30DC000030DB000030DA008C3151
:1006E000262480311A302000E4005E30E3006E30B2
:1006F000890B782BE30B782BE40B782B000042302E
:100700002000DD001030DC000030DB000030DA00BB
:100710008C31262480311A302000E4005E30E30062
:100720006E30890B912BE30B912BE40B912B000086
:1007300042302000DD001230DC000030DB000030F1
:10074000DA008C31262480311A302000E4005E303B
:10075000E3006E30890BAA2BE30BAA2BE40BAA2B28
:10076000000042302000DD001430DC000030DB00EF
:100770000030DA008C31262480311A302000E40069
:100780005E30E3006E30890BC32BE30BC32BE40B0D
:10079000C32B000042302000DD001630DC000030AA
:1007A000DB000030DA008C31262480311A30200042
:1007B000E4005E30E3006E30890BDC2BE30BDC2BB6
:1007C000E40BDC2B000042302000DD001830DC00A0
:1007D0000030DB000030DA008C31262480311A3002
:1007E0002000E4005E30E3006E30890BF52BE30B54
:1007F000F52BE40BF52B000042302000DD001A3011
:10080000DC000030DB000030DA008C31262480313F
:100810001A302000E4005E30E3006E30890B0E2CAD
:10082000E30B0E2CE40B0E2C000042302000DD0008
:100830001C30DC000030DB000030DA008C31262474
:1008400080311A302000E4005E30E3006E30890B06
:10085000272CE30B272CE40B272C00004230200030
:10086000DD001E30DC000030DB000030DA008C31AF
:10087000262480311A302000E4005E30E3006E3020
:10088000890B402CE30B402CE40B402C0000423041
:100890002000DD002030DC000030DB000030DA001A
:1008A0008C31262480311A302000E4005E30E300D1
:1008B0006E30890B592CE30B592CE40B592C00009A
:1008C00042302000DD002230DC000030DB00003050
:1008D000DA008C31262480311A302000E4005E30AA
:1008E000E3006E30890B722CE30B722CE40B722C3C
:1008F000000042302000DD002430DC000030DB004E
:100900000030DA008C31262480311A302000E400D7
:100910005E30E3006E30890B8B2CE30B8B2CE40BE9
:100920008B2C000042302000DD002630DC0000303F
:10093000DB000030DA008C31262480311A302000B0
:10094000E4005E30E3006E30890BA42CE30BA42C92
:10095000E40BA42C000042302000DD002830DC0035
:100960000030DB000030DA008C31262480311A3070
:100970002000E4005E30E3006E30890BBD2CE30BF9
:10098000BD2CE40BBD2C000042302000DD002A30DD
:10099000DC000030DB000030DA008C3126248031AE
:1009A0001A302000E4005E30E3006E30890BD62C54
:1009B000E30BD62CE40BD62C000042302000DD00E7
:1009C0002C30DC000030DB000030DA008C312624D3
:1009D00080311A302000E4005E30E3006E30890B75
:1009E000EF2CE30BEF2CE40BEF2C00004230200047
:1009F000DD002E30DC000030DB000030DA008C310E
:100A0000262480311A302000E4005E30E3006E308E
:100A1000890B082DE30B082DE40B082D0000423054
:100A20002000DD003030DC000030DB000030DA0078
:100A30008C31262480311A302000E4005E30E3003F
:100A40006E30890B212DE30B212DE40B212D0000AD
:100A500042302000DD003230DC000030DB000030AE
:100A6000DA008C31262480311A302000E4005E3018
:100A7000E3006E30890B3A2DE30B3A2DE40B3A2D4F
:100A8000000042302000DD003430DC000030DB00AC
:100A90000030DA008C31262480311A302000E40046
:100AA0005E30E3006E30890B532DE30B532DE40BC6
:100AB000532D0000013089317E2180310130893190
:100AC0007421803115302000E4004B30E300BE304B
:100AD000890B682DE30B682DE40B682D00000030B6
:100AE00089317421803100308A31462280310030D2
:100AF00089316A21080023088039F9007908A800A3
:100B00002335F9007908AE00A21B2E142E08031914
:100B1000962D2E0A031D942D0030A3000030A20054
:100B20000030A1000030A000A2179E2D0030A300CD
:100B30000030A2000030A1000030A000270880395A
:100B4000F9007908A8062735F9007908A900A61B3D
:100B5000291429080319B92D290A031DB72D0030BE
:100B6000A7000030A6000030A5000030A400A617A2
:100B7000C12D0030A7000030A6000030A5000030D5
:100B8000A4002908031D2E08031DCF2D0030A3004B
:100B90000030A2000030A1000030A00008002008B2
:100BA000F9007908F00026088A31F62285317108AB
:100BB000B4007008B3003308F900FA01FB01FC012E
:100BC0007C08AD007B08AC007A08AB007908AA006D
:100BD0003408F900FA01FB01FC017C08B2007B0833
:100BE000B1007A08B0007908AF002108F90079084F
:100BF000F00025088A31F62285317108B4007008AA
:100C0000B3003308F900FA01FB01FC017908AA07D7
:100C10007A08AB3D7B08AC3D7C08AD3D3408F9005B
:100C2000FA01FB01FC017908AF077A08B03D7B08A7
:100C3000B13D7C08B23D2208F9007908F000240893
:100C40008A31F62285317108B4007008B300330888
:100C5000F900FA01FB01FC017908AA077A08AB3D0B
:100C60007B08AC3D7C08AD3D3408F900FA01FB017E
:100C7000FC017908AF077A08B03D7B08B13D7C08DC
:100C8000B23D0830AA35AB0DAC0DAD0D890B422E2F
:100C90002108F9007908F00024088A31F62285310C
:100CA0007108B4007008B3003308AA073408AB3DDC
:100CB0000030AC3DAD3D2008F9007908F000250872
:100CC0008A31F62285317108B4007008B300330808
:100CD000AA073408AB3D0030AC3DAD3D0830AA3525
:100CE000AB0DAC0DAD0D890B6F2E2008F900790806
:100CF000F00024088A31F62285317108B4007008AA
:100D0000B3003308AA073408AB3D0030AC3DAD3D1D
:100D10002108F9007908F00026088A31F622853189
:100D20007108B4007008B3003308AF073408B03D51
:100D30000030B13DB23D2208F9007908F0002508E5
:100D40008A31F62285317108B4007008B300330887
:100D5000AF073408B03D0030B13DB23D2208F90084
:100D60007908F00026088A31F62285317108B4002E
:100D70007008B3003308F9003408FA00FB01FC01E5
:100D80000830F935FA0DFB0DFC0D890BC12E7908E1
:100D9000AF077A08B03D7B08B13D7C08B23D2D0815
:100DA000F900FA01FB01FC017908AF077A08B03DB0
:100DB0007B08B13D7C08B23D0830AA35AB0DAC0DC7
:100DC000AD0D890BDD2E2E082907F900FA01FA0D69
:100DD0007908823EB300FF307A3DB400B11B052F85
:100DE0000130AF35B00DB10DB20D890BF12EAD1B39
:100DF0002F140130AA35AB0DAC0DAD0D890BFA2EB9
:100E0000FF30B307FF30B43DEE2EA901AD1F1E2FFA
:100E1000FF302A05F900FF302B05FA00FF302C05C2
:100E2000FB007F302D05FC007C087B047A047904EC
:100E300003192F181C2F1E2FA901A90A290803190D
:100E4000472F0130AF070030B03D0030B13D0030DA
:100E5000B23D321C472F2F08F9003008FA00310844
:100E6000FB003208FC000130FD00FC37FB0CFA0CE3
:100E7000F90CFD0B352F7C08B2007B08B1007A0815
:100E8000B0007908AF000130B3070030B43D34083A
:100E9000803AF90080307902031D502FFF30330271
:100EA000031C5C2F7F302000B2008030B100003086
:100EB000B0000030AF00862F20003408803AF900DF
:100EC00080307902031D662F013033020318732F1F
:100ED00000302000B2000030B1000030B00000301F
:100EE000AF00A801862F20003308F9007908AE0072
:100EF000FF30AF05FF30B0057F30B1050030B205DF
:100F00002E18B1172E36F9007908B2002808F9001A
:100F10007908B2043208A3003108A2003008A10009
:100F20002F08A00008000310510D520DD3005308E4
:100F3000D9005908031DA52F0030D2000030D10080
:100F40000030D0000030CF0008004F08D300500818
:100F5000D4005108D5005208D6001F30D636D50C23
:100F6000D40CD30C890BAE2F5308D7005708D800E8
:100F7000D117FF30CF05FF30D005FF30D10500304D
:100F8000D2059630D902D91FD82F5908803A973EFA
:100F9000031C9C2F0130D236D10CD00CCF0C890B06
:100FA000CB2F0130D3005308D9070319E92FCA2FDB
:100FB0002030590203189C2F59080319E92F0130DA
:100FC000CF35D00DD10DD20D890BE02F0130D902D4
:100FD000DC2F580803190800CF09D009D109D2091C
:100FE000CF0A0319D00A0319D10A0319D20A08003B
:100FF000F0007008083E8600870181100800080094
:10121E0008000800080020001C11080028001715FF
:10122E00080028001711080016302100970008004A
:10123E007108E4007008E30008007108E600700809
:10124E00E500080021009D0190309E000800710805
:10125E00E2007008E10008007108E0007008DF008D
:10126E0008002700131D08008931B62108007108F7
:10127E002100E8007008E70008007030990098011E
:10128E0022009601080071082100EA007008E900AA
:10129E000800640080010131890B51290034FE00E1
:1012AE0012001E00FE0B5729003420006503031D9B
:1012BE00080080310220080010309E009B019C0126
:1012CE0001309D000800F0007003031D7129893163
:1012DE0015210800893118210800F0007003031D44
:1012EE007B2922000E16080022000E120800F000C4
:1012FE007003031D852922008E15080022008E1111
:10130E000800F0007003031D8F2922000E1508003F
:10131E0022000E11080091102100610862040319C9
:10132E00080062088A0061080A00893108009310DB
:10133E0021005F0860040319080060088A005F0836
:10134E000A00893108008931D02189318A31BE22C3
:10135E0089318A31332289318931292108002100CE
:10136E0069086A040319C0296A088A0069080A0014
:10137E008931270013110800F1007108F000F00DFB
:10138E00F00D21001D087006833970069D001D1496
:10139E000800F90179088A31102289310130F800EC
:1013AE007808F9070230790203180800D129C730EE
:1013BE0020009B009A019110210091141030F00032
:1013CE000930F10089312E2120009C010800F30024
:1013DE00F201731CF6297008F1007108F207031070
:1013EE00F00D0310F30C7308031DF02972080800AA
:1013FE00F50002307502031808000930F400740875
:10140E00F00075088931EE21B83E8600870101147F
:10141E000800F70077088931FF218A310930F6007C
:10142E007608F00077088931EE218A31B03E873197
:10143E00F82708007C3028009600950120009310B4
:10144E00210093141130F0000930F100893133215D
:10145E000230280097000800B030F1007108F20049
:10146E00B930F10072087102031C0800720887314E
:10147E00F8278A310930F1007108F207372A200067
:10148E00E2006203031D4E2AE501E50A0800403022
:10149E00DD004030DC000030DB000030DA008C3143
:1014AE0026242000E50108008B319D238A318931E5
:1014BE0044218A3189311B218A31893163218A3154
:1014CE008A3121228A318931DE218A318B311523ED
:1014DE008A318931AA210800003440349C344534C5
:1014EE00003440349C344534003440349C3445340C
:1014FE00003400342034413400340034A0344134FC
:10150E0000340034483442340130D0070030D13D2D
:10151E0003305102E83003195002031C0800D001B9
:10152E00D101031022000E1D0314031CA12A220058
:10153E000E15080022000E11080000308931882196
:10154E008A31003089316A218A31003089317E2119
:10155E008A310030893174218A3100308A31462235
:10156E008A3122008E120A308931C32108000030E0
:10157E00F0009030F1002030F2000030F3003430F3
:10158E008B31C5238A31FB017B088B31F0238A31E5
:10159E000130FA007A08FB0702307B0203180800BC
:1015AE00CB2A8030D2065608F3005508F2005408B4
:1015BE00F1005308F0005208F7005108F6005008E9
:1015CE00F5004F08F4008E31182673082000D20063
:1015DE007208D1007108D0007008CF000800F80022
:1015EE00F401F5017008F200F3017208F6007308B9
:1015FE00F700781C062B7608F4077708F53D0130C6
:10160E00F635F70D890B072B0310F80C7808031D20
:10161E00002B7508F1007408F00008000830230054
:10162E009F0090309D0024309E00CF309B009C0187
:10163E000030F0000030F10089313E218B31003056
:10164E00F0000030F100893124218B310030F000A0
:10165E000030F10089311F21DC0108008A315B2244
:10166E008B318A31A4228B318B170B175C30F00033
:10167E000930F10089314A218B317830F0000B307E
:10168E00F10089312E218B318B30F0000A30F100C0
:10169E00893133218B31803158208B31552B0034D9
:1016AE00003400340034003400340034003400348C
:1016BE00003400340034003400340034003400347C
:1016CE00003400340034003420340034003400344C
:1016DE00013400340034003400342034003400343B
:1016EE00003420006503031D992B01302100D20721
:1016FE000030D33D57085302031D872B5608520264
:10170E00031C8E2BD201D30122008E16080020005E
:10171E008E1E08002100D201D30189311221220030
:10172E008E1208002100D201D301080022008C0184
:10173E008D018E012F3021008C0070308D00033012
:10174E008E00033023008E0010308D0003308C008D
:10175E0024008D0104308C008E012100951322008F
:10176E009D019E0127001311121111150F30F0006B
:10177E000930F10089314A218B150800F8007108F3
:10178E00F6007008F5007808F4007408F9000130CE
:10179E00F2020030F33B720A0319730A03190800B0
:1017AE0075088400760885000008F4007408F700B8
:1017BE000130F5070030F63D7708F4007908860011
:1017CE0001308700740881000130F4007408F907B5
:1017DE00CE2BF2007208F0000330F035FF3E031DF1
:1017EE00F42B7035343EF1007108F3007308023E9D
:1017FE0086000130870081017308053E86000130A6
:10180E0087000030C03F0030C13FC23FC33F730866
:10181E000A3E8600013087000030C03FC13F73088A
:10182E000C3E8600013087000030C03FC13F730A76
:10183E0086000130870001088731FF2708004230FB
:10184E00B8004830B7000030B6000030B500403068
:10185E00A300A030A2000030A1000030A0005D085F
:10186E00A7005C08A6005B08A5005A08A4008531F5
:10187E007B258C312308BC002208BB002108BA004E
:10188E002008B9008C319F248C313808D2003708DB
:10189E00D1003608D0003508CF004130D6002030B8
:1018AE00D5000030D4000030D3008A31D8228C31DC
:1018BE005208E1005108E0005008DF004F08DE003A
:1018CE006108A7006008A6005F08A5005E08A400D6
:1018DE004430A3007A30A2000030A1000030A000F6
:1018EE0085317B258C312308BC002208BB002108E2
:1018FE00BA002008B9004230B800C830B700003036
:10190E00B6000030B5008C319F248C313808D200DF
:10191E003708D1003608D0003508CF00873193271D
:10192E0050082100D70020004F082100D6000800E3
:10193E003C088039BD003D08C6003C35BD003D0861
:10194E00CD00BB1B4D144D080319BB2C4D0A031DB6
:10195E00B82C0030BC000030BB000030BA000030A4
:10196E00B900BB17BC01C32C0030BC000030BB005B
:10197E000030BA000030B90038088039BD003D088B
:10198E00C6063835BD003D08CE00B71B4E144E08B6
:10199E000319DF2C4E0A031DDC2C0030B80000307A
:1019AE00B7000030B6000030B500B717B801E72C0D
:1019BE000030B8000030B7000030B6000030B5007F
:1019CE003808370436043504031D062D0030BC00DC
:1019DE000030BB000030BA000030B9008030BB04CC
:1019EE007F30BC044608BD003D08BC043C08B8006E
:1019FE003B08B7003A08B6003908B50008004D0894
:101A0E00031D122D0030B8000030B7000030B600B4
:101A1E000030B50008004D08BD00BE013E08C000F4
:101A2E004E083D02BF00031CC0033F087F3EC700A7
:101A3E000030403DC8003C08C5003B08C4003A08D1
:101A4E00C3003908C2000030BC000030BB000030BB
:101A5E00BA000030B9000030CC000030CB000030AE
:101A6E00CA000030C900CE011A304E020318772D7D
:101A7E004E080319592D0130C235C30DC40DC50DC5
:101A8E00890B432D0130B935BA0DBB0DBC0D890B39
:101A9E004A2DCC1B39140130C935CA0DCB0DCC0DD6
:101AAE00890B532D38084502031D672D3708440254
:101ABE00031D672D36084302031D672D35084202AC
:101ACE00031C722D4C173508C2023608C33B37086B
:101ADE00C43B3808C53B0130BD003D08CE073B2D49
:101AEE004508440443044204031D4914BB1B942DB2
:101AFE000130B935BA0DBB0DBC0D890B802DCC1B39
:101B0E0039140130C935CA0DCB0DCC0D890B892D79
:101B1E00FF30C707FF30C83D7D2DCE01CC1FAD2D48
:101B2E00FF304905BD00FF304A05BE00FF304B05B2
:101B3E00BF007F304C05C00040083F043E043D040A
:101B4E0003193918AB2DAD2DCE01CE0A4E0803194F
:101B5E00D62D0130B9070030BA3D0030BB3D003004
:101B6E00BC3D3C1CD62D3908BD003A08BE003B08D2
:101B7E00BF003C08C0000130C100C037BF0CBE0C16
:101B8E00BD0CC10BC42D4008BC003F08BB003E0875
:101B9E00BA003D08B9000130C7070030C83D4808FB
:101BAE00803ABD0080303D02031DDF2DFF3047021D
:101BBE00031CEE2DFF302000C7000030C80000309F
:101BCE00BC000030BB000030BA000030B90020006D
:101BDE004808803ABD0080303D02031DF82D0130CB
:101BEE0047020318062E2000C701C8010030BC00B2
:101BFE000030BB000030BA000030B900C601200032
:101C0E004708BD003D08CD004D1C0F2EBB17132EEF
:101C1E007F30BD003D08BB054D36BD003D08BC0004
:101C2E00F92C73088039A0002008F8007335A00045
:101C3E002008FA00F21B7A147A080319342E7A0A55
:101C4E00031D312E0030F3000030F2000030F100A1
:101C5E000030F000F217F3013C2E0030F30000309C
:101C6E00F2000030F1000030F00077088039A0005B
:101C7E002008F90079087806031D78177735A0003B
:101C8E002008F900F61B7914790803195C2E790ADD
:101C9E00031D592E0030F7000030F6000030F5001D
:101CAE000030F400F617F701642E0030F700003014
:101CBE00F6000030F5000030F4007A0879020318BF
:101CCE00AA2E781F6E2E8030A0002008F8067A0803
:101CDE00A0002008FB007908A0002008FA007B086D
:101CEE00A0002008F9007008A0002008FB0074086E
:101CFE00A0002008F0007B08A0002008F400710866
:101D0E00A0002008FB007508A0002008F1007B0849
:101D1E00A0002008F5007208A0002008FB0076083D
:101D2E00A0002008F2007B08A0002008F60073082F
:101D3E00A0002008FB007708A0002008F3007B0815
:101D4E00A0002008F700FB017908A000A1012108DE
:101D5E00A3007A082002A200031CA3032308803AE2
:101D6E00A40080302402031DBE2E1A302202031C52
:101D7E00F42E73087204710470040319C82E013016
:101D8E00C92E00302000A0002008FB000030F30018
:101D9E000030F2000030F1000030F0007908A000B1
:101DAE002008FA00F82E7B1CE32E7B36013820002B
:101DBE00A0002008FB00E52E0310FB0C7018FB178B
:101DCE0001302000A000F337F20CF10CF00CA00B48
:101DDE00EA2E0130A0002008FA0779087A02031CC7
:101DEE00DA2E781B2B2F7A08031D062F0030F300F6
:101DFE000030F2000030F1000030F00008007408EE
:101E0E00F0077508F13D7608F23D7708F33D731C37
:101E1E00A62F7B1C192F7B3601382000A00020082E
:101E2E00FB001B2F0310FB0C7018FB17013020005A
:101E3E00A000F337F20CF10CF00CA00B202F0130A8
:101E4E00A0002008FA07A62F7308803A2000A000F1
:101E5E007708803A2002031D3E2F76087202031D7A
:101E6E003E2F75087102031D3E2F74087002031871
:101E7E00762FFF30A000FF30A100FF30A200FF3010
:101E8E00A30070087402A4007108753BA5007208C7
:101E9E00763BA6007308773BA7002408A007250809
:101EAE00A13D2608A23D2708A33D2308F3002208E2
:101EBE00F2002108F1002008F0008030A000200878
:101ECE00F806FB09FB0A7B08031D7E2F0130F00785
:101EDE000030F13D0030F23D0030F33D7E2F7408AE
:101EEE00F0027508F13B7608F23B7708F33B730876
:101EFE00720471047004031DA42F7B08031DA42F0C
:101F0E000030F3000030F2000030F1000030F0003D
:101F1E0008000130F035F10DF20DF30D890B912F04
:101F2E00FB1B70147B1C9D2F03149E2F0310FB0DA7
:101F3E007A080319A42F0130FA02F21F902FF9012B
:101F4E00FB1FB12F7B087F3903197018AF2FB12FEC
:101F5E00F901F90A79080319DE2F0130F007003074
:101F6E00F13D0030F23D0030F33D731CDE2F700862
:101F7E002000A0007108A1007208A2007308A3003F
:101F8E000130A400A337A20CA10CA00CA40BC92FE6
:101F9E002308F3002208F2002108F1002008F000C7
:101FAE007A0A0319DE2F0130A0002008FA077A0AF8
:101FBE00031D7A08031DEE2F0030F3000030F200EF
:101FCE000030F1000030F0007A080319F8017A1C95
:101FDE00F22FF217F72F7F302000A0002008F20515
:101FEE007A362000A0002008F300F81F0800F3172F
:101FFE00080000340034003400340034003400345F
:10200E0000340034003400340034003400346434BE
:10201E00013401340134003400340034003400340F
:10202E00003400340034003400340034003464349E
:10203E00013460344234A2340D3400340034803420
:10204E003F3400340034C834423400340034A034F9
:10205E0040340034003420344134CD34CC34143484
:0C206E00423400340034C83442340034E2
:020000040001F9
:08000000FF3FFF3FFF3FFF3F00
:04000E00E43DFF3E90
:00000001FF
