:1000000080311928080008007E1480318B190B1CE0
:100010000D289A31C622803117280B1F172821007E
:10002000911C17282000911C17289B3147237E1014
:10003000090080311B280030840088308500E230C0
:100040008600013087000A309A31EA2280319330ED
:1000500084009B30850044308600023087000F30DA
:100060009A31EA228031A0308400013085002330AB
:100070009A31E4228031203084000230850024301F
:100080009A31E4228031A030840002308500503063
:100090009A31E4227E1020009231C62ABC00BA01B7
:1000A000BB01210067082200D00021006608220061
:1000B000CF00210065082200CE0021006408220044
:1000C000CD0050082000BD0022004F082000BC00D9
:1000D00022004E082000BB0022004D082000BA007C
:1000E0000030C1000030C0000030BF000030BE0052
:1000F00087316E2780310318952801302200BA001D
:100100000030BB005008F3004F08F2004E08F10029
:100110004D08F0009B311E2380317308D000720817
:10012000CF007108CE007008CD002200D301D401A9
:1001300023002D082200C00023002C082200BF004D
:100140003A083B04031DA7282300301DC1282200C4
:100150003A083B04031DAE282B30AF282D30A000F9
:100160000030A10020082100E90069082500A00056
:1001700001302200D3070030D43DFF30BF07FF30ED
:10018000C03D22005008F3004F08F2004E08F10075
:100190004D08F00091311221803170037104031D6C
:1001A0001B2921006808BF3EE900FF30031800301A
:1001B000EA0000306A021A30031969020318E228C3
:1001C0000130E3280030EB00EC016B082200A200B4
:1001D00021006C082200A300220823040319F4283C
:1001E0003430F0009830F7283C30F0009830F100BF
:1001F0005308A03E9C31B8248031FD30BF07FF304A
:10020000C03DA0302100E90069082000A4002200C0
:1002100040082000A60022003F082000A500220080
:100220003C089F310E2725082100E5002000240806
:100230002100E400080022005008F3004F08F200FB
:100240004E08F1004D08F000913112218031700804
:100250007104031D752921006808BF3EE900FF30C5
:1002600003180030EA0000306A021A3003196902EC
:1002700003183C2901303D290030EB00EC016B08EC
:100280002200A40021006C082200A50024082504F7
:1002900003194E293830F000983051294030F000D1
:1002A0009830F1005308A03E9C31B8248031FD30D5
:1002B000BF07FF30C03DA0302100E90069082000E1
:1002C000A400220040082000A60022003F082000D1
:1002D000A50022003C089F310E2725082100E500DB
:1002E000200024082100E40008003F302200D8004C
:1002F0008030D7000030D6000030D500D101D201C7
:100300005008F3004F08F2004E08F1004D08F000CD
:100310000030F7000030F6000030F5000030F40047
:100320009E317A268031031CC429502A4130A30013
:100330002030A2000030A1000030A00022005808A8
:100340002000A700220057082000A600220056081F
:100350002000A500220055082000A4008A31F422C4
:10036000803123082200D800200022082200D70074
:10037000200021082200D600200020082200D500FD
:100380000130D1070030D23D50082000BD002200CE
:100390004F082000BC0022004E082000BB002200B5
:1003A0004D082000BA004130A3002030A2000030E8
:1003B000A1000030A000220058082000A700220061
:1003C00057082000A600220056082000A5002200A1
:1003D00055082000A4008A31F42280312308C1008E
:1003E0002208C0002108BF002008BE0087316E2708
:1003F0008031031C2B2A962941302100CB0020306C
:10040000CA000030C9000030C8002200580821008E
:10041000CF00220057082100CE00220056082100FC
:10042000CD00220055082100CC0094314F248031AA
:100430004B082200D80021004A082200D7002100E2
:1004400049082200D600210048082200D500FF30CC
:10045000D107FF30D23D220050082000BD0022000D
:100460004F082000BC0022004E082000BB002200E4
:100470004D082000BA00220058082000C1002200C8
:1004800057082000C000220056082000BF002200AC
:1004900055082000BE0087316E278031031CFC29DF
:1004A00021006808E900EA016908F6006A08F70017
:1004B0009C31F824803176082100EB006B08220083
:1004C000C20042082100E90069082200C10067302B
:1004D0004206031D872A23002E082F04031D742AB9
:1004E0000130AE000030AF002F08803A2100E90053
:1004F00080306902031D7F2A013023002E02031879
:100500008A2A06302200BD000030BE00922A230055
:10051000AF1B812A23002F082200BE0023002E08D3
:100520002200BD0067304206031DC52A5208803AEA
:100530002100E9007F306902031DA12AFC3022005E
:100540005102031CBF2A22003D08FF3E2100E900A2
:10055000FF3022003E3D2100EA006A08803AEB00AD
:1005600022005208803A21006B02031DBB2A2200A0
:10057000510821006902031CBF2A6630C02A653079
:100580002100E90069082200C1003E08B3003D08CF
:10059000B20067304206031DD22A663041060319B5
:1005A000D21FD62A0130B2070030B33D6630410673
:1005B000031DEE2AD21FE62A3F30D8008030D70034
:1005C0000030D6000030D500D101D201673042069C
:1005D0000319EE2A5108B2075208B33DCB01CC01F2
:1005E0005008C6004F08C5004E08C4004D08C3009F
:1005F0005808B7005708B6005608B5005508B400AB
:100600004C08803A2100E90022003308803A21009A
:100610006902031D0E2B220032084B020318E42B43
:10062000220058082100CB00220057082100CA00F0
:10063000220056082100C900220055082100C800E8
:10064000220046082100CF00220045082100CE00EC
:10065000220044082100CD00220043082100CC00E4
:1006600094314F2480314B08D3004A08D200490806
:10067000D1004808D0008831412080312100530842
:100680002200CA00210052082200C900210051089E
:100690002200C800210050082200C7004A0821009B
:1006A000D300220049082100D2002200480821007E
:1006B000D100220047082100D00090312D20803148
:1006C000210051082200B900210050082200B80082
:1006D0004A082000A700220049082000A6002200A6
:1006E00048082000A500220047082000A40022009E
:1006F00058082000A300220057082000A200220072
:1007000056082000A100220055082000A0008A31D0
:10071000F42280312308D1002208D0002108CF0024
:100720002008CE00220046082000D50022004508FF
:100730002000D400220044082000D30022004308F7
:100740002000D2009C317C24803151082200C60058
:10075000200050082200C50020004F082200C400DD
:1007600020004E082200C30041302100CB00203081
:10077000CA000030C9000030C8002200580821001B
:10078000CF00220057082100CE0022005608210089
:10079000CD00220055082100CC0094314F24803137
:1007A0004B082200D80021004A082200D70021006F
:1007B00049082200D600210048082200D500013057
:1007C000CB070030CC3D002B40302000A300A030F0
:1007D000A2000030A1000030A00022005808200034
:1007E000A700220057082000A6002200560820007B
:1007F000A500220055082000A4008A31F42280318F
:1008000023082200CA00200022082200C90020007C
:1008100021082200C800200020082200C700460846
:100820002000BD00220045082000BC002200440832
:100830002000BB00220043082000BA0022004A0822
:100840002000C100220049082000C0002200480802
:100850002000BF00220047082000BE0087316E271D
:1008600080310318362C003022004E2C220046081E
:10087000F3004508F2004408F1004308F0004A087C
:10088000F7004908F6004808F5004708F4009E31D3
:100890007A26803103183818552C0030CA000030F1
:1008A000C9000030C8000030C7004A082000BD0061
:1008B000220049082000BC00220048082000BB009C
:1008C000220047082000BA00220050082000C10082
:1008D00022004F082000C00022004E082000BF0068
:1008E00022004D082000BE008931132180313D08CF
:1008F0002200C60020003C082200C50020003B0862
:100900002200C40020003A082200C300460820004C
:10091000BD00220045082000BC0022004408200041
:10092000BB00220043082000BA004130A300203061
:10093000A2000030A1000030A000220037082000F3
:10094000A700220036082000A6002200350820005B
:10095000A500220034082000A4008A31F42280314E
:100960002308C1002208C0002108BF002008BE00E3
:1009700087316E278031031CF52C01302200D1070E
:100980000030D23D41302000A3002030A2000030D2
:10099000A1000030A000220037082000A70022009C
:1009A00036082000A600220035082000A5002200FD
:1009B00034082000A4008A31F42280312308220068
:1009C000B700200022082200B600200021082200E3
:1009D000B500200020082200B40066304106031D47
:1009E000F52C0130B2070030B33D22003708D800A3
:1009F0003608D7003508D6003408D50065304106E2
:100A00000319072D5208B1005108B000092DB0019B
:100A1000B101AE01AF01AC01AD01CB01CC014C2E57
:100A2000220058082100CB00220057082100CA00EC
:100A3000220056082100C900220055082100C800E4
:100A4000220046082100CF00220045082100CE00E8
:100A5000220044082100CD00220043082100CC00E0
:100A600094314F2480314B08D3004A08D200490802
:100A7000D1004808D000883141208031210053083E
:100A80002200CA00210052082200C900210051089A
:100A90002200C800210050082200C7004A08210097
:100AA000D300220049082100D2002200480821007A
:100AB000D100220047082100D00090312D20803144
:100AC000210051082200B900210050082200B8007E
:100AD0002300301A7A2D220038083904031D7A2D9C
:100AE000673042060319B11F7A2D0130AC07003080
:100AF000AD3DCD2D22002E082F040319B11F992DD5
:100B00002E302100E90022005308A03E860002306A
:100B1000870021006908810001302200D3070030DE
:100B2000D43DFF30BF07FF30C03D0130AE00003084
:100B3000AF002C082D040319B72D30302100E90037
:100B400022005308A03E8600023087002100690879
:100B5000810001302200D3070030D43DFF30BF07B1
:100B6000FF30C03DFF30AC07FF30AD3D992D380858
:100B7000303E2100E90022005308A03E86000230EA
:100B8000870021006908810001302200D30700306E
:100B9000D43DFF30BF07FF30C03D4A082000A7000A
:100BA000220049082000A600220048082000A500D5
:100BB000220047082000A400220058082000A300BB
:100BC000220057082000A200220056082000A100A1
:100BD000220055082000A0008A31F4228031230829
:100BE000D1002208D0002108CF002008CE0022002A
:100BF00046082000D500220045082000D40022002D
:100C000044082000D300220043082000D2009C3179
:100C10007C24803151082200C600200050082200A8
:100C2000C50020004F082200C40020004E0822000A
:100C3000C30041302100CB002030CA000030C90081
:100C40000030C800220058082100CF0022005708B9
:100C50002100CE00220056082100CD0022005508B8
:100C60002100CC0094314F2480314B082200D80061
:100C700021004A082200D700210049082200D6009E
:100C8000210048082200D500FF30B007FF30B13DF9
:100C90000130CB070030CC3D4C08803A2100E90000
:100CA00022003308803A21006902031D5A2E2200D7
:100CB00032084B0203186A2E22005408803A2100A1
:100CC000E90080306902031D682E4B302200530278
:100CD000031C102D22002E082F04031D832E230039
:100CE000301E832E2E302100E90022005308A03E42
:100CF000860002308700210069088100013022004F
:100D0000D3070030D43D22005308A03E86000230B5
:100D10008700810165304106031D542F4F30CB0001
:100D20000030CC004B08A03E8600023087008101D5
:100D3000BA01BB01D21FA52E0130BA000030BB00A2
:100D4000D109D209D10A0319D20A0230BD000030FC
:100D5000BE00510852040319E32EFF302200CB07D6
:100D6000FF30CC3D0A30F0000030F1005208F300B3
:100D70005108F2009E31352680317008303E210046
:100D8000E90022004B08A03E8600023087002100C7
:100D9000690881000A30F0000030F100220052089A
:100DA000F3005108F2009F315E2780317108D200B4
:100DB0007008D100FF30BD07FF30BE3DFF30BF07D8
:100DC000FF30C03DA92E3E08803A2100E900803066
:100DD0006902031DEE2E013022003D020318AD2EE4
:100DE000FF302200CB07FF30CC3D3A083B04031D07
:100DF000FB2E2B30FC2E2D30A6000030A70026083D
:100E00002100E90022004B08A03E86000230870046
:100E1000210069088100FF302200BF07FF30C03D7C
:100E2000FF30CB07FF30CC3D21006808BF3EE90012
:100E3000FF3003180030EA0000306A021A3003194C
:100E400069020318252F0130262F0030EB00EC013A
:100E50006B082200AA0021006C082200AB002A08BF
:100E60002B04031D352F6530362F4530A800003088
:100E7000A90028082100E90022004B08A03E8600B6
:100E800002308700210069088100FF302200BF077F
:100E9000FF30C03D4B08A03EF0000230F100530887
:100EA000A03E9C31B8248031A0302100E9006908BF
:100EB0002000A400220040082000A60022003F08D5
:100EC0002000A50022003C089F310E2725082100A4
:100ED000E500200024082100E400080000303A0565
:100EE000C20000303B05C30080303C05C4007F30A9
:100EF0003D05C5004508440443044204031D882FF2
:100F00000030BD000030BC000030BB000030BA0033
:100F100000303E05C20000303F05C3008030400570
:100F2000C4007F304105C500450844044304420421
:100F3000031DA22F0030C1000030C0000030BF00F0
:100F40000030BE00BD1FBC2F0030C2000030C30007
:100F50000030C4008030C5003A08C2023B08C33BE1
:100F60003C08C43B3D08C53B4508BD004408BC00E7
:100F70004308BB004208BA00C11FD62F0030C20090
:100F80000030C3000030C4008030C5003E08C202FB
:100F90003F08C33B4008C43B4108C53B4508C1006E
:100FA0004408C0004308BF004208BE008030BD06B0
:100FB0008030C10641083D02031D080040083C0284
:100FC000031D08003F083B02031D08003E083A02CB
:100FD00008007008BF3EF200FF30713DF3000030A2
:100FE00073021A30031972020318F82F0130F92F17
:100FF0000030F400F5017408F0007508F1000800F5
:101000000034003400340034003400340034003440
:10101000003400342200EC0021006E082200EE00B3
:1010200021006D082200ED002300AA01AB0122007F
:101030006D0884006E0885001200031938286D3091
:10104000EA006A082000EE0021006F082200EB0091
:101050006B082000EF0022006C08963120268831B2
:101060006E082300AA0720006F082300AB3D172855
:1010700023002B082100EE0023002A082100ED00A8
:101080000800230023082100E30023002208210098
:10109000E200230021082100E100230020082100B4
:1010A000E0005308E3005208E2005108E100500854
:1010B000E0006008D4006108D5006208D60063082B
:1010C000D7001730D736D60CD50CD40C890B622834
:1010D000FF305405D80000305505D9005808813E2E
:1010E000DE00FF30593DDF005F08803AD4008030D9
:1010F0005402031D7D2817305E02031808002100EA
:10110000DF1BD728FF30D400FF30D5007F30D6005A
:101110000030D7005E0A9028D737D60CD50CD40CF7
:10112000890B8C285708DD005608DC005508DB00C9
:101130005408DA0060085A05D40061085B05D50040
:1011400062085C05D60063085D05D70057085604A1
:1011500055045404031908006008D4006108D50040
:101160006208D6006308D7001F30D736D60CD50CDE
:10117000D40C890BB52854080319C6285A08E0076F
:101180005B08E13D5C08E23D5D08E33D5A09D4009F
:101190005B09D5005C09D6005D09D7005408E0055D
:1011A0005508E1055608E2055708E3050A296008D5
:1011B000D4006108D5006208D6006308D7001F304C
:1011C000D736D60CD50CD40C890BE0285408031D57
:1011D000ED280030E300003005296008D4006108E4
:1011E000D5006208D6006308D7000130D435D50D8C
:1011F000D60DD70D890BF62857085604550454040C
:1012000003190A29BF30E3008030E2000030E1001A
:101210000030E0006308D3006208D2006108D1000A
:101220006008D00008003D088039C2004208CA00AA
:101230003D35C2004208CC00BC1B4C144C080319BD
:101240002F294C0A031D2C290030BD000030BC00A2
:101250000030BB000030BA00BC17BD013729003098
:10126000BD000030BC000030BB000030BA004108B7
:101270008039C2004208CB004B084A06031D4A17BA
:101280004135C2004208CB00C01B4B144B08031968
:1012900057294B0A031D54290030C1000030C000FB
:1012A0000030BF000030BE00C017C1015F29003010
:1012B000C1000030C0000030BF000030BE004C084C
:1012C0004B020318A5294A1F69298030C200420831
:1012D000CA064C08C2004208CD004B08C2004208B2
:1012E000CC004D08C2004208CB003A08C2004208B8
:1012F000CD003E08C2004208BA004D08C2004208B4
:10130000BE003B08C2004208CD003F08C2004208B0
:10131000BB004D08C2004208BF003C08C2004208A2
:10132000CD004008C2004208BC004D08C20042087F
:10133000C0003D08C2004208CD004108C20042087A
:10134000BD004D08C2004208C100CD014B08C200DB
:10135000C3014308C5004C084202C400031CC50376
:101360004508803AC60080304602031DB9291A306C
:101370004402031CED2920003D083C043B043A04D0
:101380000319C4290130C5290030C2004208CD002C
:101390000030BD000030BC000030BB000030BA009F
:1013A0004B08C2004208CC00F2294D1CDD294D3605
:1013B0000138C2004208CD00DF290310CD0C3A18D5
:1013C000CD170130C200BD37BC0CBB0CBA0CC20B30
:1013D000E3290130C2004208CC0720004B084C0230
:1013E000031CD5294A1B232A4C08031D002A003060
:1013F000BD000030BC000030BB000030BA00080067
:101400003E08BA073F08BB3D4008BC3D4108BD3D12
:101410003D1C9D2A4D1C122A4D360138C20042083F
:10142000CD00142A0310CD0C3A18CD170130C2009C
:10143000BD37BC0CBB0CBA0CC20B182A0130C20061
:101440004208CC079D2A3D08803AC2004108803AF4
:101450004202031D352A40083C02031D352A3F087D
:101460003B02031D352A3E083A0203186D2AFF305D
:10147000C200FF30C300FF30C400FF30C5003A088F
:101480003E02C6003B083F3BC7003C08403BC8004B
:101490003D08413BC9004608C2074708C33D48080C
:1014A000C43D4908C53D4508BD004408BC0043088B
:1014B000BB004208BA008030C2004208CA06CD090B
:1014C000CD0A4D08031D752A0130BA070030BB3D17
:1014D0000030BC3D0030BD3D752A3E08BA023F08D1
:1014E000BB3B4008BC3B4108BD3B3D083C043B04C2
:1014F0003A04031D9B2A4D08031D9B2A0030BD00A2
:101500000030BC000030BB000030BA0008000130E1
:10151000BA35BB0DBC0DBD0D890B882ACD1B3A1405
:101520004D1C942A0314952A0310CD0D4C08031961
:101530009B2A0130CC02BC1F872ACB01CD1FA82AD1
:101540004D087F3903193A18A62AA82ACB01CB0ADD
:101550004B080319D42A0130BA070030BB3D0030D4
:10156000BC3D0030BD3D3D1CD42A3A08C2003B08BA
:10157000C3003C08C4003D08C5000130C600C537A3
:10158000C40CC30CC20CC60BBF2A4508BD004408DE
:10159000BC004308BB004208BA004C0A0319D42A15
:1015A0000130C2004208CC074C0A031D4C08031D41
:1015B000E42A0030BD000030BC000030BB00003029
:1015C000BA004C080319CA014C1CE82ABC17EC2AC3
:1015D0007F30C2004208BC054C36C2004208BD0044
:1015E000CA1F0800BD17080023088039A800280872
:1015F000AD002335A8002808B300A21B331433081C
:1016000003190F2B330A031D0D2B0030A3000030EC
:10161000A2000030A1000030A000A217172B00305C
:10162000A3000030A2000030A1000030A000270875
:101630008039A8002808AD062735A8002808AE0084
:10164000A61B2E142E080319322B2E0A031D302B35
:101650000030A7000030A6000030A5000030A40034
:10166000A6173A2B0030A7000030A6000030A500D6
:101670000030A4002E08031D3308031D482B003042
:10168000A3000030A2000030A1000030A00008003C
:101690002008A8002808F00026089C3199248A31E7
:1016A0007108B9007008B8003808A800A901AA019B
:1016B000AB012B08B2002A08B1002908B0002808A5
:1016C000AF003908A800A901AA01AB012B08B70097
:1016D0002A08B6002908B5002808B4002108A80087
:1016E0002808F00025089C3199248A317108B90036
:1016F0007008B8003808A800A901AA01AB012808A1
:10170000AF072908B03D2A08B13D2B08B23D390882
:10171000A800A901AA01AB012808B4072908B53D12
:101720002A08B63D2B08B73D2208A8002808F0007B
:1017300024089C3199248A317108B9007008B800D6
:101740003808A800A901AA01AB012808AF07290899
:10175000B03D2A08B13D2B08B23D3908A800A901C7
:10176000AA01AB012808B4072908B53D2A08B63DEF
:101770002B08B73D0830AF35B00DB10DB20D890B58
:10178000BB2B2108A8002808F00024089C319924CC
:101790008A317108B9007008B8003808AF073908F5
:1017A000B03D0030B13DB23D2008A8002808F0004F
:1017B00025089C3199248A317108B9007008B80055
:1017C0003808AF073908B03D0030B13DB23D0830B0
:1017D000AF35B00DB10DB20D890BE82B2008A80074
:1017E0002808F00024089C3199248A317108B90036
:1017F0007008B8003808AF073908B03D0030B13D77
:10180000B23D2108A8002808F00026089C31992440
:101810008A317108B9007008B8003808B40739086F
:10182000B53D0030B63DB73D2208A8002808F000BD
:1018300025089C3199248A317108B9007008B800D4
:101840003808B4073908B53D0030B63DB73D220829
:10185000A8002808F00026089C3199248A317108D4
:10186000B9007008B8003808A8003908A900AA0112
:10187000AB010830A835A90DAA0DAB0D890B3A2C88
:101880002808B4072908B53D2A08B63D2B08B73DFE
:101890003208A800A901AA01AB012808B407290849
:1018A000B53D2A08B63D2B08B73D0830AF35B00D21
:1018B000B10DB20D890B562C33082E07A800A901D3
:1018C000A90D2808823EB800FF30293DB900B61B9B
:1018D0007E2C0130B435B50DB60DB70D890B6A2CD1
:1018E000B21B34140130AF35B00DB10DB20D890B00
:1018F000732CFF30B807FF30B93D672CAE01B21F23
:10190000972CFF302F05A800FF303005A900FF30CD
:101910003105AA007F303205AB002B082A042904C8
:10192000280403193418952C972CAE01AE0A2E0802
:101930000319C02C0130B4070030B53D0030B63D6E
:101940000030B73D371CC02C3408A8003508A9006A
:101950003608AA003708AB000130AC00AB37AA0C40
:10196000A90CA80CAC0BAE2C2B08B7002A08B600AB
:101970002908B5002808B4000130B8070030B93D87
:101980003908803AA80080302802031DC92CFF3096
:101990003802031CD52C7F302000B7008030B60001
:1019A0000030B5000030B400FF2C20003908803A28
:1019B000A80080302802031DDF2C013038020318F4
:1019C000EC2C00302000B7000030B6000030B5002D
:1019D0000030B400AD01FF2C20003808A800280812
:1019E000B300FF30B405FF30B5057F30B6050030D9
:1019F000B7053318B6173336A8002808B7002D08E6
:101A0000A8002808B7043708A3003608A200350844
:101A1000A1003408A000080051082100AF002000F8
:101A200050082100AE0020004F082100AD0020002A
:101A30004E082100AC002F08C7002E08C6002D0854
:101A4000C5002C08C400003044052000D20000303E
:101A5000210045052000D3008030210046052000EC
:101A6000D4007F30210047052000D5008030540687
:101A70007F300319550652045304031D6E2D2000B8
:101A80005108BD005008BC004F08BB004E08BA000A
:101A90005108A3005008A2004F08A1004E08A00062
:101AA0005108A7005008A6004F08A5004E08A40042
:101AB0008A31F4228D312308C1002208C000210898
:101AC000BF002008BE00893113213D08D1003C0829
:101AD000D0003B08CF003A08CE0008002100C71B09
:101AE0007E2D4708031DB02D4608031DB02D450867
:101AF000031DB02D013044020318B02DFF3021002A
:101B000044052000D200FF30210045052000D3000D
:101B1000FF30210046052000D4007F30210047051A
:101B20002000D5005508540453045204031908003A
:101B30002100C71FB02D21302300A8000030A900CC
:101B40001B30F0009830F1009B31B2237308200065
:101B5000D1007208D0007108CF007008CE000800D4
:101B6000210044082000D200210045082000D300B5
:101B7000210046082000D400210047082000D5009D
:101B80001730D600D537D40CD30CD20CD60BC22DBF
:101B900055082100BF00200054082100BE0020008D
:101BA00053082100BD00200052082100BC003F085E
:101BB0003E043D043C04031D1F2E0030AB000030EA
:101BC000AA000030A9000030A800C61BF72D013084
:101BD000C435C50DC60DC70D890BE82D0130A8070A
:101BE0000030A93D0030AA3D0030AB3DE52DFF306F
:101BF0002000D200FF30D300FF30D400FF30D500EA
:101C0000210028082000D207210029082000D33D08
:101C100021002A082000D43D21002B082000D53DBA
:101C200052082100BC02200053082100BD3B2000C7
:101C300054082100BE3B200055082100BF3B8130E5
:101C4000BC07FF30BD3DFF30BE3DFF30BF3D003023
:101C50002000D2000030D3008030D4000030D50006
:101C6000FF30210044052000D600FF30210045054B
:101C70002000D7007F30210046052000D80000302A
:101C8000210047052000D9005608D2045708D30484
:101C90005808D4045908D50455082100C70020006D
:101CA00054082100C600200053082100C500200070
:101CB00052082100C4003C1C652E4408C407450896
:101CC000C53D4608C63D4708C73D01302000D2004B
:101CD0002100BF37BE0CBD0CBC0C2000D20B682EFF
:101CE00021004408C4074508C53D4608C63D4708CD
:101CF000C73D0030A7000030A6000030A50000302E
:101D0000A4002708B3002608B2002508B100240863
:101D1000B0000130C3000030C2000030C10000300C
:101D2000C00043084204410440040319132F400833
:101D300024072000D20021004108253D2000D300C7
:101D400021004208263D2000D40021004308273D01
:101D50002000D50055082100B700200054082100BC
:101D6000B600200053082100B500200052082100D1
:101D7000B4004708803A2000D20021003708803A9A
:101D8000200052022100031DCF2E36084602031DFB
:101D9000CF2E35084502031DCF2E34084402031C04
:101DA000032F400834072000D20021004108353DB0
:101DB0002000D30021004208363D2000D40021003D
:101DC0004308373D2000D50055082100A70020001A
:101DD00054082100A600200053082100A50020007F
:101DE00052082100A4003408C4023508C53B360857
:101DF000C63B3708C73B4008B0074108B13D420821
:101E0000B23D4308B33D4408C4074508C53D4608F4
:101E1000C63D4708C73D0130C336C20CC10CC00CDB
:101E2000890B0C2F912E47084604450444040319DE
:101E3000902F3F30BB008030BA000030B900003036
:101E4000B8003B082000BD0021003A082000BC007B
:101E5000210039082000BB00210038082000BA000A
:101E60003F30C1008030C0000030BF000030BE00F5
:101E700087316E278D31031C902F3F302100BB002E
:101E80008030BA000030B9000030B8003F30200088
:101E9000BD008030BC000030BB000030BA00210023
:101EA0003B082000C10021003A082000C0002100AA
:101EB00039082000BF00210038082000BE0087310B
:101EC0006E278D3103186D2F02302100B0070030CE
:101ED000B13D0030B23D00308F2F01302100300580
:101EE0002000D2000030210031052000D300003056
:101EF000210032052000D4000030210033052000ED
:101F0000D50052082100B007200053082100B13D40
:101F1000200054082100B23D200055082100B33DA7
:101F2000210030082000D200210031082000D30019
:101F3000210032082000D400210033082000D50001
:101F40000130D600D537D40CD30CD20CD60BA22F2F
:101F5000003052072100C40000302000533D210012
:101F6000C50000302000543D2100C6003F30200055
:101F7000553D2100C7003C082000D20021003D084B
:101F80002000D30021003E082000D40021003F089B
:101F90002000D5001730D235D30DD40DD50D890BC7
:101FA000CB2F52082100C407200053082100C53D53
:101FB000200054082100C63D200055082100C73DDF
:101FC0004708AF004608AE004508AD004408AC0025
:101FD0002F08BB002E08BA002D08B9002C08B80045
:101FE0003B082000D10021003A082000D000210049
:101FF00039082000CF00210038082000CE0008005A
:102000000800CB00C5302200EF006F082300CC0091
:102010004B082200EF006F082300CD00CE01CF0156
:10202000D001D10144082100EE0023004308210023
:10203000ED00CC302200EF006F082100EF00CD3022
:1020400088310A2023004E084B072200EF006F085A
:10205000860002308700810108000310520D530DE5
:10206000D40054082000ED006D08031D4128003005
:102070002100D3000030D2000030D1000030D00069
:10208000080021005008D4005108D5005208D6009D
:102090005308D7001F30D736D60CD50CD40C890B7B
:1020A0004B285408D80058082000EC002100D21713
:1020B000FF30D005FF30D105FF30D2050030D30509
:1020C00096302000ED02ED1F7A286D08803A973E89
:1020D000031C372801302100D336D20CD10CD00C90
:1020E000890B6B280130D40054082000ED07031938
:1020F0008D286A2820306D02031837286D080319CF
:102100008D2801302100D035D10DD20DD30D890B92
:10211000822801302000ED027E286C080319080097
:102120002100D009D109D209D309D00A0319D10A53
:102130000319D20A0319D30A080053082000D1005A
:10214000210052082000D000210051082000CF00BB
:10215000210050082000CE004230D500C830D40005
:102160000030D3000030D2009C317C2490315108E3
:102170002100CB00200050082100CA0020004F0899
:102180002100C90020004E082100C8004230200074
:10219000A300C830A2000030A1000030A000210040
:1021A00053082000A700210052082000A6002100AB
:1021B00051082000A500210050082000A4008A3109
:1021C000F422903123082100CF00200022082100B2
:1021D000CE00200021082100CD0020002008210091
:1021E000CC0094314F244B082000EF0021004A0816
:1021F0002000EE00210049082000ED0021004808E1
:102200002000EC006F082100D30020006E082100A0
:10221000D20020006D082100D10020006C082100B0
:10222000D0000800230027082000A500230026086E
:102230002000A400230025082000A3002300240878
:102240002000A2007308A5007208A4007108A30072
:102250007008A2002208F4002308F5002408F60004
:102260002508F7001730F736F60CF50CF40C890B3F
:102270003329FF307405A00000307505A100200847
:102280002104031D62292208F4002308F500240814
:10229000F6002508F7000130F435F50DF60DF70DC1
:1022A000890B4C297708760475047404031D5D2995
:1022B0000230F0000030F10008000330F000003080
:1022C000F1000800200A2104031D85292208F400DA
:1022D0002308F5002408F6002508F7000930F43536
:1022E000F50DF60DF70D890B6F2977087604750447
:1022F0007404031D7D2901307E290030F800F901A6
:102300007808F0007908F10008000430F00000308F
:10231000F1000800F8007808031DF31F9F297009D9
:10232000FA007109FB007209FC007309FD00FA0A4A
:102330000319FB0A0319FC0A0319FD0AA7297308EC
:10234000FD007208FC007108FB007008FA007308B9
:10235000720471047004031DB6290030F3000030CC
:10236000F2000030F1000030F00008009630F40078
:102370007408F900FE307D050319DD290130F400F1
:102380007408F9070130FD36FC0CFB0CFA0C890BC4
:10239000C329BA290130F4007408F9070130FA079B
:1023A0000030FB3D0030FC3D0030FD3D0130FD368E
:1023B000FC0CFB0CFA0C890BD729FF307D050319A7
:1023C000EF29CA2902307902031CF1290130F902F0
:1023D0000130FA35FB0DFC0DFD0D890BE929FC1FC1
:1023E000E2297918FB29FF30FA05FF30FB057F3021
:1023F000FC05FF30FD050310F90C7908F400F50128
:10240000F601F7011830F435F50DF60DF70D890BCF
:10241000032A7408FA047508FB047608FC0477089C
:10242000FD047808031DF31F162AFD177D08F3002D
:102430007C08F2007B08F1007A08F00008004230C6
:10244000CB004830CA000030C9000030C80040301E
:102450002000A300A030A2000030A1000030A000A6
:1024600021005C082000A70021005B082000A600D6
:1024700021005A082000A500210059082000A400CE
:102480008A31F422923123082100CF002000220853
:102490002100CE00200021082100CD0020002008CE
:1024A0002100CC0094314F2492314B082000D10000
:1024B00021004A082000D000210049082000CF0058
:1024C000210048082000CE004130D5002030D40043
:1024D0000030D3000030D2009C317C24923151086E
:1024E0002100E000200050082100DF0020004F08FC
:1024F0002100DE0020004E082100DD0060082000E1
:10250000A70021005F082000A60021005E0820002F
:10251000A50021005D082000A4004430A3007A300B
:10252000A2000030A1000030A0008A31F4229231D4
:1025300023082100CF00200022082100CE00200027
:1025400021082100CD00200020082100CC004230CD
:10255000CB00C830CA000030C9000030C800943138
:102560004F2492314B08D3004A08D2004908D100C9
:102570004808D00090312D2021005108E200500879
:10258000E1006208DA006108D90008009C311A24D1
:1025900092319B317923923101309B312723923143
:1025A00041302100DC00C830DB000030DA000030B0
:1025B000D90092311F2292315A082300B500210020
:1025C00059082300B4008B170B17A530F0001A3000
:1025D000F1009A31D82292316030F0001C30F100C5
:1025E0009A31DE2292310A309B316C2392319A313A
:1025F000AB2292319B31C323923173082300E10057
:102600007208E00061082100D10023006008210069
:10261000D0009D31F325923153082300D7002100CB
:1026200052082300D600210051082300D5002100C4
:1026300050082300D40057082100D3002300560877
:102640002100D200230055082100D10023005408A6
:102650002100D00090319D20923153082300DB00EF
:10266000210052082300DA00210051082300D9007C
:10267000210050082300D8005B082100D30023006C
:102680005A082100D200230059082100D10023005C
:1026900058082100D00093317F2392315308230042
:1026A000DF00210052082300DE0021005108230032
:1026B000DD00210050082300DC001030C3009830FA
:1026C000C4005F08C8005E08C7005D08C6005C085B
:1026D000C500203090310120923120309D3191256C
:1026E000923106302300D3001330D200AD30890B75
:1026F000772BD20B772BD30B772B0032F72A37307F
:102700002000BD009330BC008330BB001730BA00FE
:10271000B230A300C630A2006D30A1007030A0001E
:10272000210053082000A700210052082000A60025
:10273000210051082000A500210050082000A4001D
:102740008A31F42293312308C1002208C0002108F5
:10275000BF002008BE008931132193313D082100BC
:10276000DB0020003C082100DA0020003B082100AB
:10277000D90020003A082100D8005B082000D100D1
:1027800021005A082000D000210059082000CF0065
:10279000210058082000CE008D310C2593315108BE
:1027A0002100DF00200050082100DE0020004F083B
:1027B0002100DD0020004E082100DC00B530CB00F8
:1027C0009B30CA000530C9007F30C800BB302000F4
:1027D000BD008030BC001130BB003230BA00210097
:1027E0005F082000C10021005E082000C000210019
:1027F0005D082000BF0021005C082000BE00893178
:10280000132193313D082100CF0020003C08210016
:10281000CE0020003B082100CD0020003A08210016
:10282000CC0094314F2493314B08E3004A08E20076
:102830004908E1004808E000C2302000BD00143023
:10284000BC00CC30BB00CD30BA00210063082000B2
:10285000C100210062082000C000210061082000A2
:10286000BF00210060082000BE00893113213D080F
:102870002100D70020003C082100D60020003B08A2
:102880002100D50020003A082100D4005708D300C9
:102890005608D2005508D1005408D00008004F084F
:1028A00080392000DA005A08E30021004F3520006B
:1028B000DA005A08EA002100CE1F602C20006A14BA
:1028C00020006A080319742C6A0A031D702C00305A
:1028D0002100CF000030CE000030CD000030CC0011
:1028E0002100CE17CF017D2C00302100CF00003019
:1028F000CE000030CD000030CC004B0880392000E5
:10290000DA005A08E30621004B352000DA005A08A5
:10291000EB002100CA1F8E2C20006B1420006B08D6
:102920000319A22C6B0A031D9E2C00302100CB0042
:102930000030CA000030C9000030C8002100CA17AA
:10294000CB01AB2C00302100CB000030CA0000309E
:10295000C9000030C8004B084A0449044804031D5C
:10296000CC2C0030CF000030CE000030CD00003045
:10297000CC008030CE047F30CF0420006308DA0022
:102980005A082100CF044F08CB004E08CA004D085A
:10299000C9004C08C800080020006A08031DDA2C92
:1029A00000302100CB000030CA000030C9000030E8
:1029B000C80008006A08DA00DB015B08DD006B086C
:1029C0005A02DC00031CDD035C087F3EE40000309B
:1029D0005D3DE50021004F082000E20021004E0887
:1029E0002000E10021004D082000E00021004C08FB
:1029F0002000DF0000302100CF000030CE0000308A
:102A0000CD000030CC0000302000E9000030E800AC
:102A10000030E7000030E600EB011A306B020318CB
:102A20005E2D6B080319302D0130DF35E00DE10D0F
:102A3000E20D890B152D01302100CC35CD0DCE0DC9
:102A4000CF0D890B1C2D2000E91F282D21004C14CF
:102A500001302000E635E70DE80DE90D890B292D41
:102A600021004B0820006202031D462D21004A0868
:102A700020006102031D462D21004908200060024C
:102A8000031D462D2100480820005F02031C592D1C
:102A90006917210048082000DF02210049082000B2
:102AA000E03B21004A082000E13B21004B082000C8
:102AB000E23B0130DA005A08EB070D2D6208610491
:102AC00060045F04031D66142100CE1B802D0130BD
:102AD000CC35CD0DCE0DCF0D890B682D2000E91F13
:102AE000732D21004C1401302000E635E70DE80D70
:102AF000E90D890B742DFF30E407FF30E53D642DAF
:102B00002000EB01E91F9C2DFF306605DA00FF3045
:102B10006705DB00FF306805DC007F306905DD00FC
:102B20005D085C045B045A04031D992D21004C1CB4
:102B30009C2D2000EB01EB0A20006B080319D62D19
:102B400001302100CC070030CD3D0030CE3D0030BB
:102B5000CF3D4F1CD62D4C082000DA0021004D0837
:102B60002000DB0021004E082000DC0021004F087F
:102B70002000DD000130DE00DD37DC0CDB0CDA0C80
:102B8000DE0BBC2D5D082100CF0020005C08210079
:102B9000CE0020005B082100CD0020005A08210053
:102BA000CC0001302000E4070030E53D200065083E
:102BB000803ADA0080305A02031DE02DFF306402B3
:102BC000031CF02DFF302000E4000030E500003051
:102BD0002100CF000030CE000030CD000030CC000E
:102BE00020006508803ADA0080305A02031DFA2D71
:102BF0000130640203180A2E2000E401E5010030D0
:102C00002100CF000030CE000030CD000030CC00DD
:102C10002000E30120006408DA005A08EA006A1C78
:102C2000142E2100CE17192E7F30DA005A08210009
:102C3000CE0520006A36DA005A082100CF00BD2CEC
:102C4000E90020006E08860001308700403F220026
:102C5000D900413FDA00590884005A088500120063
:102C6000253A031DD92F20006E0886000130870009
:102C70000130810741310318810A2300AC01AD0105
:102C8000B001B101FF30AE00FF30AF0020006E0890
:102C9000860001308700403F2200D900413FDA0022
:102CA000590884005A0885000008DB00DC015B0835
:102CB000F6005C08F7009C31F82496317608220073
:102CC000DD005D08E50065080319A92E20006E08E7
:102CD000860001308700403F2200D900413FDA00E2
:102CE0000130590784005A0803185A0A8500000861
:102CF000DB00DC015B08F6005C08F7009C31F8247F
:102D0000963176082200DD005D08E60066080319AA
:102D1000A92E20006E08860001308700403F220067
:102D2000D900413FDA000230590784005A080318DD
:102D30005A0A85000008DB00DC015B08F6005C082D
:102D4000F7009C31F824963176082200DD005D08FA
:102D5000E70066306506031DFD2E20006E08860024
:102D600001308700403F2200D900413FDA00590876
:102D700084005A0885000008DB005B08E80020009A
:102D80006E08860001308700013081074131031849
:102D9000810A6F0886000130870001088400013035
:102DA000850004308107003F2200E100013FE2007E
:102DB000023FE300033FE40064082100E700220033
:102DC00063082100E600220062082100E5002200DD
:102DD00061082100E40022006808D9005908210098
:102DE000E8002200690880314E2065082000EF00CD
:102DF000210064082000EE0008004430F000983004
:102E0000F1000230F2000030F30065309F31AF274F
:102E1000963170087104031D9F2F20006E088600F4
:102E200001308700403F2200D900413FDA000130E5
:102E3000590784005A0803185A0A85000008DB0065
:102E40005B08E80020006E08860001308700403FE4
:102E50002200D900413FDA00590884005A08850051
:102E60000008BF3EDB00FF3003180030DC000030FC
:102E70005C021A3003195B020318402F0130412F06
:102E80000030DD00DE015D08DF005E08E0005F0865
:102E9000600403195F2F20006F088600013087004F
:102EA000010884000130850004308107003F2200C2
:102EB000E100013FE200023FE300033F722F2000E8
:102EC0006F0886000130870001088400013085000A
:102ED00004308107003F2200E100013FE200023F91
:102EE000E300033FE40020006E0886000130870005
:102EF0000230810741310318810A22006408210051
:102F0000E700220063082100E60022006208210099
:102F1000E500220061082100E40022006808D900D1
:102F200059082100E8002200690880314E20650818
:102F30002000EF00210064082000EE0008002000BF
:102F40006E08860001308700403F2200D900413FD3
:102F5000DA00590884005A0885001200253A031D3A
:102F6000CC2F20006E0886000130870001308107D9
:102F700041310318810A2530F0000030F1002200B1
:102F80006908D9005908F2009E31C226013020009C
:102F9000EE000030EF00080020006E0886000130CF
:102FA00087000130810741310318810AEE01EF01EA
:102FB000080020006E08860001308700403F220094
:102FC000D900413FDA00590884005A0885000008FA
:102FD000DB00DC015B08F0005C08F1006908DD0043
:102FE0005D08F2009E31C226963120006E088600F0
:102FF000013087000130810741310318810AC62F53
:103000000034003400340034003400340034003420
:1030100000340034003400340034003464340134AB
:10302000253466342034433465346C347334693465
:10303000753473340A34003460344234A2340D34AD
:1030400000340034C834423400340034A0344034F6
:103050000034003420344134CD34CC341434423480
:1030600000340034C834423449344E3446340034D9
:103070004E3441344E34003469346E346634003496
:0E3080006E3461346E3400346C3466340034C7
:10354200080020001C1508009A31A2220800200061
:103552001C11080021009D1408001630210097005C
:1035620008001C08F1001B08F00008007108D400D4
:103572007008D30008007108D6007008D500080052
:1035820021009D0190309E0008002700131D0800B5
:103592009B315F23080003109D1C03140030093D7A
:1035A200080071082400D8007008D70008007108CC
:1035B2002300EF007008EE00080071082300ED0000
:1035C2007008EC000800640080010131890BE52AD3
:1035D2000034FE0012001E00FE0BEB2A0034A03065
:1035E2009E009B019C0101309D000800703021006B
:1035F20099009801220096010800F0007003031D53
:10360200042B0E1608000E120800F0007003031DB2
:103612000C2B8E1508008E110800F0007008083E71
:1036220086000230870081100800F0002000111E81
:10363200172B700823009A000800730872047104A3
:103642007004031908008030F3060800F0007003CC
:10365200031D2E2B22000E15080022000E11080059
:10366200F0012000111E3A2B23009E1E3A2BF0017E
:10367200F00A70080800F1009B3131239B31003AB7
:103682000319080071089B311623080091102300CA
:103692006C086D04031908006D088A006C080A00A2
:1036A2009B3108009B3186239B319C3147249B31FF
:1036B2009C3107249B319A31C122080023006E08F5
:1036C2006F040319692B6F088A006E080A009B3188
:1036D200270013110800F1007108F000F00DF00D41
:1036E20021001D087006833970069D001D14080014
:1036F20000309B3127239B3100309B3106239B31C5
:1037020000309A31FE228E120800F90179089B31AD
:10371200F6239B310130F8007808F9077908031D78
:103722000800872B003400340034003400340034A5
:1037320000340034003400340034203400340034C7
:103742000034C73020009B009A019110210091148F
:103752000030F0001030F1009A31DE2220009C018E
:1037620008007F30F700FF30F600FF30F500FF3031
:10377200F4007708F3007608F2007508F100740887
:10378200F00008009A31CC229B31003A0319C32B76
:103792009A31B2227108F5007008F4007508F3003E
:1037A2007408F2000800F300F201731CDC2B7008AD
:1037B200F1007108F2070310F00D0310F30C730807
:1037C200031DD62B72080800F5007508031D0800BA
:1037D2000930F4007408F00075089B31D423523E7E
:1037E20086000230870001140800F70077089B3139
:1037F200E5239B310930F6007608F00077089B310B
:10380200D4239B314A3E9B310E2308004A30F100FB
:103812007108F2004A30F10072087102031C0800BC
:1038220072089B310E239C310930F1007108F207B6
:103832000B2C9D313E259C319A31F7229C319A31D5
:10384200AE229C319A31F0229C319B31A2239C31D1
:103852009C31D7249C319B3153230800F400740817
:10386200F2007208F3007408860002308700010833
:103872000319402C0130F2007208F407342C73084B
:103882007402F000F101F01BF10308000030F000B7
:103892009830F1001030F2000030F30034309D31E6
:1038A20066259C31FB017B089D31BD259C31013091
:1038B200FA007A08FB077B08031D0800542C01302C
:1038C200B2070030B33D35083302031D6A2C3408B9
:1038D2003202031C712CB201B30122008E160800C1
:1038E20020008E1E08002300B201B3019A31A822E3
:1038F20022008E1208008030D1065508BD005408FF
:10390200BC005308BB005208BA005108C10050085D
:10391200C0004F08BF004E08BE00893113213D0888
:10392200D1003C08D0003B08CF003A08CE00080086
:10393200F800F401F5017008F200F3017208F600D4
:103942007308F700781CA92C7608F4077708F53D70
:103952000130F635F70D890BAA2C0310F80C780804
:10396200031DA32C7508F1007408F0000800F7008D
:103972007108F5007008F4007708F2007208F6008A
:103982007608860002308700F60A7508F30074088C
:10399200F200F40A0319F50A72088400730885001C
:1039A2000008C03F890803190800C12C0830230011
:1039B2009F0090309D0024309E00CF309B009C01E0
:1039C2000030F0000030F1009A31D2229C310030F8
:1039D200F0000030F1009A31BC229C310030F0003E
:1039E2000030F1009A31B7222300BA0108007608AC
:1039F200BF3EF800FF30773DF900003079021A30FF
:103A0200031978020318072D0130082D0030FA003F
:103A1200FB017A08FC007B08FD007C087D04031989
:103A2200080020307604F60000307704F700080022
:103A3200A300A101A20121082307F9007908860049
:103A4200023087000108FA007A08A0002008031952
:103A520008002008F900FA017908F0007A08F1005C
:103A62007808FB007B08F2009E31C2269D310130AE
:103A72002000A1070030A23D1C2D22008C018D01E7
:103A82008E012F3021008C0070308D0083308E002B
:103A9200833023008E0010308D0003308C00240010
:103AA2008D0104308C008E012100951322009D01AE
:103AB2009E012700131112111115A130F0001A30C6
:103AC200F1009A31D8228B150800F8007108F6002F
:103AD2007008F5007808F4007408F9000130F20269
:103AE2000030F33B720A0319730A031908007508C0
:103AF2008400760885000008F4007408F70001309D
:103B0200F5070030F63D7708F400790886000230A8
:103B12008700740881000130F4007408F9076F2DE2
:103B2200F90079089C312F249D317108F800700842
:103B3200F700FA017A08F500F60178087602031D0B
:103B4200A42D77087502031808007A087907F50092
:103B5200750886000230870001089B313C239D31A5
:103B62000D30F500FC30890BB42DF50BB42D01306E
:103B7200F5007508FA079B2DF2007208F000033079
:103B8200F035FF3E031DC12D7035343EF100710842
:103B9200F3007308023E8600023087008101730839
:103BA200053E8600023087000030C03F0030C13F32
:103BB200C23FC33F73080A3E8600023087000030CE
:103BC200C03FC13F73080C3E8600023087000030C0
:103BD200C03FC13F730A860002308700010880316E
:103BE200022008004430CB007F30CA00C030C90038
:103BF2000030C80040302000A300A030A2000030F6
:103C0200A1000030A00021005008F0005108F1008E
:103C1200F201F301003091318A219D3173082000B5
:103C2200A7007208A6007108A5007008A4008A31D6
:103C3200F4229D3123082100CF0020002208210018
:103C4200CE00200021082100CD0020002008210004
:103C5200CC0094314F244B08D3004A08D2004908C3
:103C6200D1004808D0000800F601F31F3F2EF209E8
:103C7200F309F20A0319F30AF601F60AF11F462EB6
:103C8200F009F109F00A0319F10A70087104031925
:103C92006D2EF501F50AF11B582E0130F035F10DAC
:103CA200890B4F2E0130F4007408F5074C2E710871
:103CB2007302031D5E2E70087202031C642E7008CC
:103CC200F2027108F33B0130F136F00C890B652EDC
:103CD2000130F502031D582E76080319752EF209DC
:103CE200F309F20A0319F30A7308F1007208F000EB
:103CF200080000307005F80000307105F9008030CE
:103D02007205FA007F307305FB007B087A047904A0
:103D12007804031D942E0030F3000030F2000030CE
:103D2200F1000030F00000307405F8000030750535
:103D3200F90080307605FA007F307705FB007B08BA
:103D42007A0479047804031DAE2E0030F7000030A7
:103D5200F6000030F5000030F40077087306031D0A
:103D6200BC2E76087206031DBC2E75087106031D53
:103D7200BC2E740870060319C02E03100800031429
:103D820008007208031D7208031DCB2E70088031D3
:103D9200032008007208033E8600013087001600E7
:103DA20001040319F12E7208033E860001308700D8
:103DB200403FF300413FF400720A86000130870061
:103DC200403FF500413FF6007608803AF70074085C
:103DD200803A7702031DEF2E73087502031808005C
:103DE2007008F3007208860001308700720A8400AE
:103DF2000130850000080107F400740886000230D3
:103E0200870073088100720A860001308700013042
:103E1200810741310318810A08002000AB0023000A
:103E2200301C1C2F20002B08FC007C08F800240802
:103E32009D3119259F312000A61B242F2608AA0098
:103E42002508A900262FA901AA01A701A80128086F
:103E5200803AFC002A08803A7C02031D322F29088E
:103E620027020318462F2030F0000030F100200016
:103E72002B08FC007C08F2009E31C2269F310130E3
:103E82002000A7070030A83D282F23003018522F0A
:103E920020002B08FC007C08F80024089D3119251D
:103EA2009F31200024089C312F242000290870070C
:103EB200A4002A08713DA5000800F601F11F682F31
:103EC200F009F109F00A0319F10AF601F60AF31FE3
:103ED200732FF209F309F20A0319F30A0130F4000D
:103EE2007408F606F701F801700871040319A22F8D
:103EF200F501F50AF11B872F0130F035F10D890B21
:103F02007E2F0130F4007408F5077B2F0130F7355E
:103F1200F80D890B882F71087302031D922F700808
:103F22007202031C992F7008F2027108F33B771496
:103F32000130F136F00C890B9A2F0130F502031D86
:103F4200872F76080319AA2FF709F809F70A031928
:103F5200F80A7808F1007708F0000800F500750803
:103F6200F4007408F8007108F7007008F6000130D8
:103F7200F2020030F33B720A031DEA2F730A031D9B
:103F8200EA2FF001F1010800760884007708850025
:103F920012000319F12F720873040319F12F760826
:103FA2008400770885000008F40078088600013054
:103FB200870001087406031DF12F0130F400740814
:103FC200F8070130F6070030F73D0130F202003009
:103FD200F33B78088600013087000108031DC52FD6
:103FE200780886000130870076088400770885000B
:0E3FF20000080102F000F101031CF1030800B9
:020000040001F9
:08000000FF3FFF3FFF3FFF3F00
:04000E00E43DFF3E90
:00000001FF
