:1000000080314228003008007E1480318B1D092881
:100010000A2812280B1C0D280E28122890310020C7
:10002000803140280B1F1528162840282100931DD9
:100030001A281B2824282000931D1F282028242844
:100040009B316823803140282100931C28282928CF
:1000500032282000931C2D282E2832289B3159232A
:10006000803140282100911C362837284028200064
:10007000911C3B283C2840289B314A238031402852
:100080007E100900803144286A3084009E3085004B
:10009000A03086000030870022309A31D72280318C
:1000A000FC01EB01EC01ED01EE01EF01C230840037
:1000B000003085000C309A31D1228031203084000C
:1000C0000130850020309A31D12280317E1020000D
:1000D000883103282000E7000A306706031D7128D5
:1000E00073288B313B2B4130E0002030DF000030A3
:1000F000DE000030DD009231D52280310B3020004F
:10010000E6002630E5005D30890B8428E50B842865
:10011000E60B8428003241302000E0003030DF0060
:100120000030DE000030DD009231D52280310B300E
:100130002000E6002630E5005D30890B9D28E50BA8
:100140009D28E60B9D28003241302000E000403021
:10015000DF000030DE000030DD009231D52280313A
:100160000B302000E6002630E5005D30890BB62814
:10017000E50BB628E60BB628003241302000E0003F
:100180005030DF000030DE000030DD009231D5223B
:1001900080310B302000E6002630E5005D30890B11
:1001A000CF28E50BCF28E60BCF28003241302000C6
:1001B000E0006030DF000030DE000030DD00923112
:1001C000D52280310B302000E6002630E5005D307E
:1001D000890BE828E50BE828E60BE82800324130D7
:1001E0002000E0007030DF000030DE000030DD0075
:1001F0009231D52280310B302000E6002630E50018
:100200005D30890B0129E50B0129E60B012900323C
:1002100041302000E0008030DF000030DE000030A0
:10022000DD009231D52280310B302000E6002630EF
:10023000E5005D30890B1A29E50B1A29E60B1A290E
:10024000003241302000E0008830DF000030DE0066
:100250000030DD009231D52280310B302000E600E5
:100260002630E5005D30890B3329E50B3329E60B99
:100270003329003241302000E0009030DF000030B0
:10028000DE000030DD009231D52280310B302000BD
:10029000E6002630E5005D30890B4C29E50B4C2942
:1002A000E60B4C29003241302000E0009830DF009E
:1002B0000030DE000030DD009231D52280310B307D
:1002C0002000E6002630E5005D30890B6529E50B4E
:1002D0006529E60B6529003241302000E000A0309E
:1002E000DF000030DE000030DD009231D5228031A9
:1002F0000B302000E6002630E5005D30890B7E29BA
:10030000E50B7E29E60B7E29003241302000E0001B
:10031000A830DF000030DE000030DD009231D52251
:1003200080310B302000E6002630E5005D30890B7F
:100330009729E50B9729E60B9729003241302000D9
:10034000E000B030DF000030DE000030DD00923130
:10035000D52280310B302000E6002630E5005D30EC
:10036000890BB029E50BB029E60BB02900324130EA
:100370002000E000B830DF000030DE000030DD009B
:100380009231D52280310B302000E6002630E50086
:100390005D30890BC929E50BC929E60BC929003253
:1003A00041302000E000C030DF000030DE000030CF
:1003B000DD009231D52280310B302000E60026305E
:1003C000E5005D30890BE229E50BE229E60BE22925
:1003D000003241302000E000C830DF000030DE0095
:1003E0000030DD009231D52280310B302000E60054
:1003F0002630E5005D30890BFB29E50BFB29E60B78
:10040000FB29003241302000E000D030DF00003016
:10041000DE000030DD009231D52280310B3020002B
:10042000E6002630E5005D30890B142AE50B142A1E
:10043000E60B142A003241302000E000D830DF0003
:100440000030DE000030DD009231D52280310B30EB
:100450002000E6002630E5005D30890B2D2AE50BF3
:100460002D2AE60B2D2A003241302000E000E0303A
:10047000DF000030DE000030DD009231D522803117
:100480000B302000E6002630E5005D30890B462A5F
:10049000E50B462AE60B462A003241302000E000F8
:1004A000E830DF000030DE000030DD009231D52280
:1004B00080310B302000E6002630E5005D30890BEE
:1004C0005F2AE50B5F2AE60B5F2A003241302000ED
:1004D000E000F030DF000030DE000030DD0092315F
:1004E000D52280310B302000E6002630E5005D305B
:1004F000890B782AE50B782AE60B782A00324130FE
:100500002000E000F430DF000030DE000030DD00CD
:100510009231D52280312E302000E600A930E5004E
:100520002F30890B912AE50B912AE60B912A413055
:100530002000E000F830DF000030DE000030DD0099
:100540009231D52280312E302000E600A930E5001E
:100550002F30890BA92AE50BA92AE60BA92A4130DD
:100560002000E000FC30DF000030DE000030DD0065
:100570009231D52280312E302000E600A930E500EE
:100580002F30890BC12AE50BC12AE60BC12A423064
:100590002000E0000030DF000030DE000030DD0031
:1005A0009231D52280312E302000E600A930E500BE
:1005B0002F30890BD92AE50BD92AE60BD92A4230EC
:1005C0002000E0000230DF000030DE000030DD00FF
:1005D0009231D52280312E302000E600A930E5008E
:1005E0002F30890BF12AE50BF12AE60BF12A423074
:1005F0002000E0000430DF000030DE000030DD00CD
:100600009231D52280312E302000E600A930E5005D
:100610002F30890B092BE50B092BE60B092B4230F8
:100620002000E0000630DF000030DE000030DD009A
:100630009231D52280312E302000E600A930E5002D
:100640002F30890B212BE50B212BE60B212B423080
:100650002000E0000830DF000030DE000030DD0068
:100660009231D52280312E302000E600A930E500FD
:100670002F30890B392BE50B392BE60B392B423008
:100680002000E0000A30DF000030DE000030DD0036
:100690009231D52280312E302000E600A930E500CD
:1006A0002F30890B512BE50B512BE60B512B423090
:1006B0002000E0000C30DF000030DE000030DD0004
:1006C0009231D52280312E302000E600A930E5009D
:1006D0002F30890B692BE50B692BE60B692B423018
:1006E0002000E0001430DF000030DE000030DD00CC
:1006F0009231D52280311F302000E6007130E500B4
:100700001E30890B812BE50B812BE60B812B000022
:1007100042302000E0001C30DF000030DE000030FE
:10072000DD009231D52280311F302000E60071308B
:10073000E5001E30890B9A2BE50B9A2BE60B9A2BC2
:10074000000042302000E0002430DF000030DE00F6
:100750000030DD009231D52280311F302000E600CC
:100760007130E5001E30890BB32BE50BB32BE60B84
:10077000B32B000042302000E0002C30DF000030BE
:10078000DE000030DD009231D52280311F302000A4
:10079000E6007130E5001E30890BCC2BE50BCC2B2D
:1007A000E60BCC2B000042302000E0003430DF00AC
:1007B0000030DE000030DD009231D52280311F3064
:1007C0002000E6007130E5001E30890BE52BE50BBB
:1007D000E52BE60BE52B000042302000E0003C302A
:1007E000DF000030DE000030DD009231D5228031A4
:1007F0001F302000E6007130E5001E30890BFE2B13
:10080000E50BFE2BE60BFE2B000042302000E00043
:100810004430DF000030DE000030DD009231D522B0
:1008200080311F302000E6007130E5001E30890B5A
:10083000172CE50B172CE60B172C0000423020007C
:10084000E0004C30DF000030DE000030DD0092318F
:10085000D52280311F302000E6007130E5001E30C7
:10086000890B302CE50B302CE60B302C000042308D
:100870002000E0005430DF000030DE000030DD00FA
:100880009231D52280311F302000E6007130E50022
:100890001E30890B492CE50B492CE60B492C000036
:1008A00042302000E0005C30DF000030DE0000302D
:1008B000DD009231D52280311F302000E6007130FA
:1008C000E5001E30890B622CE50B622CE60B622CD6
:1008D000000042302000E0006430DF000030DE0025
:1008E0000030DD009231D52280311F302000E6003B
:1008F0007130E5001E30890B7B2CE50B7B2CE60B61
:100900007B2C000042302000E0006C30DF00003023
:10091000DE000030DD009231D52280311F30200012
:10092000E6007130E5001E30890B942CE50B942C09
:10093000E60B942C000042302000E0007430DF0011
:100940000030DE000030DD009231D52280311F30D2
:100950002000E6007130E5001E30890BAD2CE50B60
:10096000AD2CE60BAD2C000042302000E0007C30C6
:10097000DF000030DE000030DD009231D522803112
:100980001F302000E6007130E5001E30890BC62CB8
:10099000E50BC62CE60BC62C000042302000E00020
:1009A0008230DF000030DE000030DD009231D522E1
:1009B00080311F302000E6007130E5001E30890BC9
:1009C000DF2CE50BDF2CE60BDF2C00004230200093
:1009D000E0008630DF000030DE000030DD009231C4
:1009E000D52280311F302000E6007130E5001E3036
:1009F000890BF82CE50BF82CE60BF82C00004230A4
:100A00002000E0008A30DF000030DE000030DD0032
:100A10009231D52280311F302000E6007130E50090
:100A20001E30890B112DE50B112DE60B112D000049
:100A300042302000E0008E30DF000030DE00003069
:100A4000DD009231D52280311F302000E600713068
:100A5000E5001E30890B2A2DE50B2A2DE60B2A2DE9
:100A600000008F31FF2F200023088039A8002808BC
:100A7000AD002335A8002808B300A21F402D412D4A
:100A8000422D331433080319462D472D562D330AB2
:100A9000031D4B2D4C2D542D0030A3000030A2001F
:100AA0000030A1000030A000A2175E2D0030A3008E
:100AB0000030A2000030A1000030A00027088039DB
:100AC000A8002808AD062735A8002808B200A61FF0
:100AD0006A2D6B2D6C2D321432080319702D712D77
:100AE000802D320A031D752D762D7E2D0030A70036
:100AF0000030A6000030A5000030A400A617882D05
:100B00000030A7000030A6000030A5000030A4008F
:100B1000320803198C2D8D2D922D3308031D912D34
:100B2000922D9B2D0030A3000030A2000030A100C8
:100B30000030A000892F2008A8002808F10026080E
:100B40009E318C26853172082000B9007108B800EA
:100B50003808A800A901AA01AB012B08B1002A0896
:100B6000B0002908AF002808AE003908A800A90184
:100B7000AA01AB012B08B7002A08B6002908B50066
:100B80002808B4002108A8002808F10025089E3193
:100B90008C26853172082000B9007108B800380829
:100BA000A800A901AA01AB012808AE072908AF3D9A
:100BB0002A08B03D2B08B13D3908A800A901AA01B7
:100BC000AB012808B4072908B53D2A08B63D2B0813
:100BD000B73D2208A8002808F10024089E318C2681
:100BE000853172082000B9007108B8003808A800E3
:100BF000A901AA01AB012808AE072908AF3D2A08C0
:100C0000B03D2B08B13D3908A800A901AA01AB01EC
:100C10002808B4072908B53D2A08B63D2B08B73D7A
:100C20000830AE35AF0DB00DB10D890B112E210876
:100C3000A8002808F10024089E318C26853172080E
:100C40002000B9007108B8003808AE073908AF3D78
:100C50000030B03DB13D2008A8002808F10025086B
:100C60009E318C26853172082000B9007108B800C9
:100C70003808AE073908AF3D0030B03DB13D08300F
:100C8000AE35AF0DB00DB10D890B402E2008A80078
:100C90002808F10024089E318C2685317208200036
:100CA000B9007108B8003808AE073908AF3D003008
:100CB000B03DB13D2108A8002808F10026089E316A
:100CC0008C26853172082000B9007108B8003808F8
:100CD000B4073908B53D0030B63DB73D2208A8003D
:100CE0002808F10025089E318C26853172082000E5
:100CF000B9007108B8003808B4073908B53D0030AC
:100D0000B63DB73D2208A8002808F10026089E310C
:100D10008C26853172082000B9007108B8003808A7
:100D2000A8003908A900AA01AB010830A835A90D0F
:100D3000AA0DAB0D890B962E2808B4072908B53DDE
:100D40002A08B63D2B08B73D2E08A8002F08A90099
:100D50003008AA003108AB001830AB36AA0CA90C39
:100D6000A80C890BAD2E2808B4072908B53D2A0820
:100D7000B63D2B08B73D0830AE35AF0DB00DB10D07
:100D8000890BBC2E33083207A800A901A90D280839
:100D9000823EB800FF30293DB900E52E0130B43560
:100DA000B50DB60DB70D890BCF2EB11FD82ED92E8C
:100DB000DA2E34140130AE35AF0DB00DB10D890B04
:100DC000DB2EFF30B807FF30B93DB61FE82EE92E05
:100DD000CE2EB201B11FED2EEE2E0A2FFF302E05C2
:100DE000A800FF302F05A900FF303005AA007F3092
:100DF0003105AB002B082A04290428040319012F0C
:100E0000022F052FB201B20A0A2F341C082F092F16
:100E10000A2F022F320803190E2F0F2F372F013000
:100E2000B4070030B53D0030B63D0030B73D371C4B
:100E30001A2F1B2F372F3408A8003508A9003608B1
:100E4000AA003708AB000130AC00AB37AA0CA90CE4
:100E5000A80CAC0B252F2B08B7002A08B6002908D0
:100E6000B5002808B4000130B8070030B93D390892
:100E7000803AA80080302802031D402FFF3038023E
:100E8000031C432F442F4E2F7F302000B7008030AB
:100E9000B6000030B5000030B4007D2F20003908C6
:100EA000803AA80080302802031D582F01303802F4
:100EB00003185B2F5C2F672F00302000B700003035
:100EC000B6000030B5000030B400AD017D2F200029
:100ED0003808A8002808B300FF30B405FF30B50576
:100EE0007F30B6050030B705331C772F782F792F68
:100EF000B6173336A8002808B7002D08A800280820
:100F0000B7043708A3003608A2003508A10034084A
:100F1000A000080003102000560D570DD8005808F7
:100F2000FB007B08031D952F962F9F2F0030D700C5
:100F30000030D6000030D5000030D400FE2F540819
:100F4000D8005508D9005608DA005708DB001F30D2
:100F5000DB36DA0CD90CD80C890BA82F5808DC002A
:100F60005C08FA00D617FF30D405FF30D505FF30F6
:100F7000D6050030D7059630FB02FB1FC02FC12FCE
:100F8000D92F7B08803A973E0318C72FC82FC92F47
:100F9000962F0130D736D60CD50CD40C890BCA2F1E
:100FA0000130D8005808FB07031DD72FD82FC92FB1
:100FB000EE2F20307B02031CDE2FDF2FE92F962F30
:100FC0000130D435D50DD60DD70D890BE12F013069
:100FD000FB027B08031DED2FEE2FE02F7A0803198B
:100FE000F22FF32FFE2FD409D509D609D709D40A39
:100FF0000319D50A0319D60A0319D70A08000800ED
:101000002800171108009C31762488319C31A324D4
:1010100088318B170B170030F1001B30F2009A312A
:10102000B92288312D30F1001F30F2009A31BF22F1
:1010300088315330F1001D30F2009A31C5228831D9
:10104000B330F1001A30F2009A31CB22883194315A
:101050007624883195310C258831883133208831C8
:1010600027288031422800309D3170258831013A8F
:10107000031D3B283C28022901309D317025883111
:10108000013A031D44284528022949289E31D826C3
:10109000883100309D3170258831013A031D512877
:1010A0005228622801309D3170258831013A031D94
:1010B0005A285B2862285C3020006C02031C6128DF
:1010C0006228462800309D3170258831013A031D81
:1010D0006A286B28022901309D3170258831013A38
:1010E000031D73287428022978289E31D826883158
:1010F00000309D3170258831013A031D80288128F8
:101100008A2801309D3170258831013A03198928D8
:101110008A28752801309B310A2388310630200047
:10112000E9001330E800AD30890B9428E80B9428CF
:10113000E90B9428003200309B310A2388310130BA
:101140009B319623883101309C31D22488310A307A
:1011500080316A2088312000EA014030E0004030D0
:10116000DF000030DE000030DD009231D522883112
:1011700033302000E900BB30E800DF30890BBE28A7
:10118000E80BBE28E90BBE28003242302000E00008
:101190008E30DF000030DE000030DD009231D522DD
:1011A000883115302000E9004B30E800BE30890B53
:1011B000D728E80BD728E90BD728000001302000FA
:1011C000E8006808EA07AA306A02031CE828E92850
:1011D000AD2801309B310A2388310B302000E90013
:1011E0002630E8005D30890BF328E80BF328E90B83
:1011F000F328003200309B310A23883100309B31C4
:10120000962388310800740880392000A000200847
:10121000A8007435A0002008AA00F31F1029112986
:1012200012292A142A0803191629172927292A0AF4
:10123000031D1B291C2924290030F4000030F30071
:101240000030F2000030F100F317F4012F290030D4
:10125000F4000030F3000030F2000030F1007808B4
:101260008039A0002008A900290828060319392977
:101270003A293B2928177835A0002008A900F71F34
:1012800042294329442929142908031948294929AD
:101290005929290A031D4D294E2956290030F800E5
:1012A0000030F7000030F6000030F500F717F801C5
:1012B00061290030F8000030F7000030F6000030FF
:1012C000F5002A082902031866296729AB29281F77
:1012D0006A296B296F298030A0002008A8062A08F7
:1012E000A0002008AB002908A0002008AA002B08B5
:1012F000A0002008A9007108A0002008AB00750814
:10130000A0002008F1002B08A0002008F5007208BA
:10131000A0002008AB007608A0002008F2002B08EF
:10132000A0002008F6007308A0002008AB00770892
:10133000A0002008F3002B08A0002008F700740884
:10134000A0002008AB007808A0002008F4002B08BB
:10135000A0002008F800AB012908A000A101210885
:10136000A3002A082002A200031CA3032308803A3A
:10137000A40080302402031DBF291A302202031C5E
:10138000C229C329FB297408730472047104031D64
:10139000CA29CC290130CD2900302000A000200826
:1013A000AB000030F4000030F3000030F2000030F9
:1013B000F1002908A0002008AA00022A2B1CE1291C
:1013C000E229E8292B360138A0002008AB00EA29E1
:1013D0000310AB0C711CED29EE29EF29AB1701307E
:1013E000A000F437F30CF20CF10CA00BF129013042
:1013F000A0002008AA07200029082A02031C012AAD
:10140000022ADE29281B052A062A3E2A2A08031D4D
:101410000A2A0B2A142A0030F4000030F3000030AE
:10142000F2000030F1003A2B7508F1077608F23D22
:101430007708F33D7808F43D741C1F2A202ACA2A35
:101440002B1C232A242A2A2A2B360138A000200804
:10145000AB002C2A0310AB0C711C2F2A302A312A26
:10146000AB170130A000F437F30CF20CF10CA00B19
:10147000332A0130A0002008AA07CA2A7408803A3B
:10148000A0007808803A2002031D502A77087302D2
:10149000031D502A76087202031D502A7508710236
:1014A0000318532A542A8C2AFF30A000FF30A100D1
:1014B000FF30A200FF30A30071087502A40072087B
:1014C000763BA5007308773BA6007408783BA7001D
:1014D0002408A0072508A13D2608A23D2708A33D12
:1014E0002308F4002208F3002108F2002008F1008C
:1014F0008030A0002008A806AB09AB0A2B08031D0A
:10150000822A832A942A0130F1070030F23D00300C
:10151000F33D0030F43D942A7508F1027608F23B61
:101520007708F33B7808F43B740873047204710481
:10153000031D9B2A9C2AC62A2B08031DA02AA12A28
:10154000C62A0030F4000030F3000030F200003012
:10155000F1003A2B0130F135F20DF30DF40D890B4A
:10156000AB2AAB1FB42AB52AB62A71142B1CB92A90
:10157000BA2ABD2A0314AB0DBF2A0310AB0D2A08EB
:101580000319C32AC42AC62A0130AA02F31FC92A92
:10159000CA2AAA2AA901AB1FCE2ACF2ADD2A2B08E4
:1015A0007F390319D42AD52AD82AA901A90ADD2A04
:1015B000711CDB2ADC2ADD2AD52A29080319E12A35
:1015C000E22A0F2B0130F1070030F23D0030F33DED
:1015D0000030F43D741CED2AEE2A0F2B7108A00098
:1015E0007208A1007308A2007408A3000130A400CF
:1015F000A337A20CA10CA00CA40BF82A2308F4001A
:101600002208F3002108F2002008F1002A0A031939
:101610000A2B0B2B0F2B0130A0002008AA072A0A47
:101620000319132B142B192B2A08031D182B192B04
:10163000272B0030F4000030F3000030F2000030BF
:10164000F1002A08031D252B262B272BA8012A1C75
:101650002A2B2B2B2D2BF317312B7F30A0002008AA
:10166000F3052A36A0002008F400A81F382B392BD8
:101670003A2BF41708000B306706031D402B412B53
:10168000FF2F4130E0002030DF000030DE0000306E
:10169000DD009231D5228B310B302000E600263060
:1016A000E5005D30890B522BE50B522BE60B522BDC
:1016B000003241302000E0003030DF000030DE003A
:1016C0000030DD009231D5228B310B302000E60056
:1016D0002630E5005D30890B6B2BE50B6B2BE60BA1
:1016E0006B2B003241302000E0004030DF00003042
:1016F000DE000030DD009231D5228B310B3020002E
:10170000E6002630E5005D30890B842BE50B842B49
:10171000E60B842B003241302000E0005030DF0027
:101720000030DE000030DD009231D5228B310B30ED
:101730002000E6002630E5005D30890B9D2BE50B8F
:101740009D2BE60B9D2B003241302000E0006030E5
:10175000DF000030DE000030DD009231D5228B3119
:101760000B302000E6002630E5005D30890BB62BFB
:10177000E50BB62BE60BB62B003241302000E00023
:101780007030DF000030DE000030DD009231D52205
:101790008B310B302000E6002630E5005D30890BF0
:1017A000CF2BE50BCF2BE60BCF2B003241302000A7
:1017B000E0008030DF000030DE000030DD009231DC
:1017C000D5228B310B302000E6002630E5005D305D
:1017D000890BE82BE50BE82BE60BE82B00324130B8
:1017E0002000E0008830DF000030DE000030DD0047
:1017F0009231D5228B310B302000E6002630E500F7
:101800005D30890B012CE50B012CE60B012C00321D
:1018100041302000E0009030DF000030DE0000307A
:10182000DD009231D5228B310B302000E6002630CE
:10183000E5005D30890B1A2CE50B1A2CE60B1A2CEF
:10184000003241302000E0009830DF000030DE0040
:101850000030DD009231D5228B310B302000E600C4
:101860002630E5005D30890B332CE50B332CE60B7D
:10187000332C003241302000E000A030DF00003087
:10188000DE000030DD009231D5228B310B3020009C
:10189000E6002630E5005D30890B4C2CE50B4C2C26
:1018A000E60B4C2C003241302000E000A830DF0075
:1018B0000030DE000030DD009231D5228B310B305C
:1018C0002000E6002630E5005D30890B652CE50B35
:1018D000652CE60B652C003241302000E000B03072
:1018E000DF000030DE000030DD009231D5228B3188
:1018F0000B302000E6002630E5005D30890B7E2CA1
:10190000E50B7E2CE60B7E2C003241302000E000FF
:10191000B830DF000030DE000030DD009231D5222B
:101920008B310B302000E6002630E5005D30890B5E
:10193000972CE50B972CE60B972C003241302000BA
:10194000E000C030DF000030DE000030DD0092310A
:10195000D5228B310B302000E6002630E5005D30CB
:10196000890BB02CE50BB02CE60BB02C00324130CB
:101970002000E000C830DF000030DE000030DD0075
:101980009231D5228B310B302000E6002630E50065
:101990005D30890BC92CE50BC92CE60BC92C003234
:1019A00041302000E000D030DF000030DE000030A9
:1019B000DD009231D5228B310B302000E60026303D
:1019C000E5005D30890BE22CE50BE22CE60BE22C06
:1019D000003241302000E000D830DF000030DE006F
:1019E0000030DD009231D5228B310B302000E60033
:1019F0002630E5005D30890BFB2CE50BFB2CE60B5C
:101A0000FB2C003241302000E000E030DF000030ED
:101A1000DE000030DD009231D5228B310B3020000A
:101A2000E6002630E5005D30890B142DE50B142D02
:101A3000E60B142D003241302000E000E830DF00DA
:101A40000030DE000030DD009231D5228B310B30CA
:101A50002000E6002630E5005D30890B2D2DE50BDA
:101A60002D2DE60B2D2D003241302000E000F0300E
:101A7000DF000030DE000030DD009231D5228B31F6
:101A80000B302000E6002630E5005D30890B462D46
:101A9000E50B462DE60B462D003241302000E000DC
:101AA000F430DF000030DE000030DD009231D5225E
:101AB0008B3138302000E600CE30E5008F30890BC6
:101AC0005F2DE50B5F2DE60B5F2D003241302000CE
:101AD000E000F830DF000030DE000030DD00923141
:101AE000D5228B3138302000E600CE30E5008F3033
:101AF000890B782DE50B782DE60B782D00324130DF
:101B00002000E000FC30DF000030DE000030DD00AF
:101B10009231D5228B3138302000E600CE30E500FE
:101B20008F30890B912DE50B912DE60B912D003215
:101B300042302000E0000030DF000030DE000030E6
:101B4000DD009231D5228B3138302000E600CE30D6
:101B5000E5008F30890BAA2DE50BAA2DE60BAA2DE7
:101B6000003242302000E0000230DF000030DE00B2
:101B70000030DD009231D5228B3138302000E60074
:101B8000CE30E5008F30890BC32DE50BC32DE60B5E
:101B9000C32D003242302000E0000430DF0000306E
:101BA000DE000030DD009231D5228B31383020004C
:101BB000E600CE30E5008F30890BDC2DE50BDC2D07
:101BC000E60BDC2D003242302000E0000630DF0062
:101BD0000030DE000030DD009231D5228B3138300C
:101BE0002000E600CE30E5008F30890BF52DE50BA7
:101BF000F52DE60BF52D003242302000E0000830D4
:101C0000DF000030DE000030DD009231D5228B3164
:101C100038302000E600CE30E5008F30890B0E2EE4
:101C2000E50B0E2EE60B0E2E003242302000E000B7
:101C30000A30DF000030DE000030DD009231D522B6
:101C40008B3138302000E600CE30E5008F30890B34
:101C5000272EE50B272EE60B272E003242302000E0
:101C6000E0000C30DF000030DE000030DD0092319B
:101C7000D5228B3138302000E600CE30E5008F30A1
:101C8000890B402EE50B402EE60B402E00324230F1
:101C90002000E0001430DF000030DE000030DD0006
:101CA0009231D5228B312E302000E600A930E5009C
:101CB0002F30890B592EE50B592EE60B592E423049
:101CC0002000E0002030DF000030DE000030DD00CA
:101CD0009231D5228B312E302000E600A930E5006C
:101CE0002F30890B712EE50B712EE60B712E4230D1
:101CF0002000E0002830DF000030DE000030DD0092
:101D00009231D5228B312E302000E600A930E5003B
:101D10002F30890B892EE50B892EE60B892E423058
:101D20002000E0003030DF000030DE000030DD0059
:101D30009231D5228B312E302000E600A930E5000B
:101D40002F30890BA12EE50BA12EE60BA12E4230E0
:101D50002000E0003830DF000030DE000030DD0021
:101D60009231D5228B312E302000E600A930E500DB
:101D70002F30890BB92EE50BB92EE60BB92E423068
:101D80002000E0004030DF000030DE000030DD00E9
:101D90009231D5228B312E302000E600A930E500AB
:101DA0002F30890BD12EE50BD12EE60BD12E4230F0
:101DB0002000E0004830DF000030DE000030DD00B1
:101DC0009231D5228B312E302000E600A930E5007B
:101DD0002F30890BE92EE50BE92EE60BE92E423078
:101DE0002000E0005030DF000030DE000030DD0079
:101DF0009231D5228B312E302000E600A930E5004B
:101E00002F30890B012FE50B012FE60B012F4230FC
:101E10002000E0005830DF000030DE000030DD0040
:101E20009231D5228B312E302000E600A930E5001A
:101E30002F30890B192FE50B192FE60B192F423084
:101E40002000E0006030DF000030DE000030DD0008
:101E50009231D5228B312E302000E600A930E500EA
:101E60002F30890B312FE50B312FE60B312F42300C
:101E70002000E0006830DF000030DE000030DD00D0
:101E80009231D5228B3133302000E600BB30E500A3
:101E9000DF30890B492FE50B492FE60B492F003224
:101EA00042302000E0007030DF000030DE00003003
:101EB000DD009231D5228B3133302000E600BB307B
:101EC000E500DF30890B622FE50B622FE60B622FF6
:101ED000003242302000E0007C30DF000030DE00C5
:101EE0000030DD009231D5228B3133302000E60006
:101EF000BB30E500DF30890B7B2FE50B7B2FE60B3A
:101F00007B2F003242302000E0008230DF000030C2
:101F1000DE000030DD009231D5228B3133302000DD
:101F2000E600BB30E500DF30890B942FE50B942FE2
:101F3000E60B942F003242302000E0008830DF00B2
:101F40000030DE000030DD009231D5228B3133309D
:101F50002000E600BB30E500DF30890BAD2FE50B3C
:101F6000AD2FE60BAD2F003242302000E000903064
:101F7000DF000030DE000030DD009231D5228B31F1
:101F800033302000E600BB30E500DF30890BC62F80
:101F9000E50BC62FE60BC62F003242302000E000D2
:101FA0009630DF000030DE000030DD009231D522B7
:101FB0008B3133302000E600BB30E500DF30890B89
:101FC000DF2FE50BDF2FE60BDF2F00324230200042
:101FD000E0009E30DF000030DE000030DD00923196
:101FE000D5228B3133302000E600BB30E500DF30F6
:101FF000890BF82FE50BF82FE60BF82F00320800BD
:102000002700131D0428052808289B313B23903105
:102010000800F3007308F1000330F135FF3E031DA3
:102020000D287135203EF2007208F4007408023E5B
:1020300086000130870081017408053E860001306A
:1020400087000030C03F0030C13FC23FC33F74082B
:102050000A3E8600013087000030C03FC13F74084F
:102060000C3E8600013087000030C03FC13F740A3B
:1020700086000130870001089A319A2290310800C9
:10208000FB007B08023E860001308700010803192F
:102090004A284B287F287B08033E860001308700B2
:1020A000403FF900413FFA00FA36F90CFA36F90CD4
:1020B0007B08033E860001308700790881024131A8
:1020C0007A08813B7F317B0A860001308700010856
:1020D0009C31EA2490317508F9007608FA00FA3646
:1020E000F90CFA36F90C7B08033E860001308700B4
:1020F0007908810741317A08813D7F3190287B0A38
:1021000086000130870001089C31EA2490317B0869
:10211000033E8600013087007508C03F7608C13F46
:1021200008002000A9000930A7002708F1002908AD
:102130009C314C249031B03E2000A8002808AB0010
:102140002B089F31B62790312000A7002708AA004E
:10215000CB282B089B3177239031003A0319B12803
:10216000B228E82821004C08031DB728B828BD284C
:1021700020002B089D313825903120002B089A3102
:10218000F222903120002908A7002708F1008731AA
:10219000FF279031E8282A08A700A801A71BA80359
:1021A0002808003A0319D828FF3A0319DD28E8283F
:1021B0002708003A0319A928E8282708FD3A031937
:1021C000E828033A0319E828013A0319E828E8281F
:1021D00020002A0808002000AB002B08A9000330CB
:1021E000A935FF3E031DF0282935203EAA002A0804
:1021F000AC002C0A86000130870001089C318C2439
:102200009031003A031905290629452920002C0A96
:1022100086000130870001089A319B229031003AF4
:10222000031913291429452920002C089B31B723B1
:10223000903120002C0893315623903120002C0837
:10224000023E86000130870003300102031C292969
:102250002A2932292C088600013087000108903194
:102260000920903120002C08A9002908A4002C087E
:10227000023E8600013087000135A03E86008701BE
:10228000413F8A00403F0A00913108002000A4002D
:10229000A30121001D08F90079082000A0002100F9
:1022A0001E08F90079082000A1009A31AE22913170
:1022B00000308B1B01302000A20024089B31ED234D
:1022C000913120002408860087010108F90079086F
:1022D000EE00240886008701453FED002100C8017B
:1022E000C90120006F109C3161249131F9007908F7
:1022F0002100CD00C801C9012000EF108B139131DE
:10230000A72191312000220C031C8B1303188B177B
:102310009B31FF23913121009D188F2990298B2912
:1023200020006F1C942995297E29200821009D00FA
:102330002000210821009E002000EF1CA029A129D7
:10234000A529FA30F9007908A30023080800210024
:102350001C08F8001B08F70020006F1CB029B129E9
:10236000B229082A6D080319B629B729012AC629F6
:1023700021002D088A002C080A009131D72921005C
:102380002B088A002A080A009131D7296D080139E3
:10239000F500F6017608003A0319CF29D729750808
:1023A000003A0319B829013A0319BF29D72909307E
:1023B000F5007508F10020006E089C314C24913125
:1023C000B53E86008701010820006D060319E92942
:1023D000EA29FD296D1CED29EE29F8290030F500C8
:1023E0000430F60077087502F7007808763BF800AD
:1023F00077082100C8077808C93D01302000ED02A8
:10240000082A77082100C8077808C93D20006F1402
:102410000800200024080A3E860001308700403F63
:10242000FA00413FFB0003307B02E83003197A02D7
:10243000031C1B2A1C2A312A24088600013087002D
:1024400001089031092092312000240886000130D3
:1024500087000108FA007A08F1009A319922923136
:102460006E2A2408093E8600013087000108803A60
:10247000FA0024080E3E86000130870024080E3E34
:1024800084000130850000360102803AFA02031808
:102490004A2A4B2A6E2A2408023E86000130870011
:1024A0008101810A24080A3E86000130870000303D
:1024B000C03FC13F24080C3E860001308700FF303A
:1024C000C03FFB30C13F240886000130870001086F
:1024D000FA007A08F1009A3199229231080020001E
:1024E00024080A3E860001308700403FA500413F96
:1024F000A600003026020930031925020318812A9C
:10250000822A872A24089F31592792318B2A24084E
:102510009331E5239231200024080A3E86000130E1
:1025200087000130810741310318810A24080A3EDF
:10253000860001308700403FA500413FA6000030E3
:102540002602103003192502031CA72AA82AD42A20
:102550002408053E860001308700403FA500413F2A
:10256000A600423FA700433FA8000430A836A70CAE
:10257000A60CA50C890BB62A2408033E8600013060
:1025800087002508C03F2608C13F2408023E860078
:10259000013087008101810A24080A3E860001304B
:1025A00087000030C03FC13F080042302000BD001E
:1025B0004830BC000030BB000030BA004030A300FF
:1025C000A030A2000030A1000030A0006008A700E9
:1025D0005F08A6005E08A5005D08A40085313325CC
:1025E000923120002308C1002208C0002108BF004A
:1025F0002008BE0096314C26923120003D08D700BD
:102600003C08D6003B08D5003A08D4004130DB0036
:102610002030DA000030D9000030D8009E314A2640
:10262000923120005708E4005608E3005508E20004
:102630005408E1006408A7006308A6006208A5002A
:102640006108A4004430A3007A30A2000030A10049
:102650000030A00085313325923120002308C100CD
:102660002208C0002108BF002008BE004230BD0083
:10267000C830BC000030BB000030BA0096314C2698
:10268000923120003D08D7003C08D6003B08D50019
:102690003A08D40087318A2792312000550821005A
:1026A000C700200054082100C60008002000A00038
:1026B0002008053E860001308700403FF100413F81
:1026C000F200423FF300433FF4000430F436F30CD1
:1026D000F20CF10C890B662B2008033E86000130BA
:1026E0008700403FF500413FF6007508F700760887
:1026F000F800F901FA017108F7027208F83B730853
:10270000F93B7408FA3B7A08A4007908A30078081A
:10271000A2007708A1002108F1002208F200230896
:10272000F3002408F40020080F3E860001308700E3
:10273000010A9E2BF437F30CF20CF10C890B9A2B47
:102740007408A4007308A3007208A2007108A10015
:10275000A41BB82B2408031DB92B2308031DB92B78
:102760002208031DB92B80302102031CB82BB92B82
:10277000C22B00302000A4000030A3000030A200D3
:102780007F30A1002000A41FD02B80302102FF3019
:10279000223BFF30233BFF30243B0318D02BD12BAF
:1027A000DA2BFF302000A400FF30A300FF30A2008E
:1027B0008030A10020002108F1002008093E860099
:1027C00001308700710881000800F7008B1FE92B9A
:1027D000EA2B312C8B137708053E860001308700E9
:1027E000403FF100413FF200423FF300433FF4001D
:1027F0000430F436F30CF20CF10C890BF92B77084A
:10280000053E86000130870071088102413172085F
:10281000813B41317308813B41317408813B7D31FB
:102820007708033E860001308700403FF100413FBA
:10283000F2007108F3007208F400F501F601770860
:10284000053E860001308700730881074131740816
:10285000813D41317508813D41317608813D8B17BD
:10286000752C7708053E860001308700403FF10057
:10287000413FF200423FF300433FF4000430F4369E
:10288000F30CF20CF10C890B3F2C7708053E860007
:10289000013087007108810241317208813B41316A
:1028A0007308813B41317408813B7D317708033ED9
:1028B000860001308700403FF100413FF20071087F
:1028C000F3007208F400F501F6017708053E860072
:1028D000013087007308810741317408813D41311F
:1028E0007508813D41317608813D080000309D31F9
:1028F00070259431013A031D7E2C7F2C0B2D200076
:10290000EC01852C9E31D826943100309D31702504
:102910009431013A031D8D2C8E2C952C5C302000B7
:102920006C02031C942C952C822C00309D31702558
:102930009431013A031D9D2C9E2C0B2DA22C9E310F
:10294000D826943100309D3170259431013A031915
:10295000AA2CAB2C9F2C01309B310A2394310230DE
:102960002000E9000430E800BA30890BB52CE80BF0
:10297000B52CE90BB52C000000309B310A239431B3
:1029800001309B319623943101309C31D224943113
:102990000A3080316A20943101309B3122239431F6
:1029A00000309C31D22494312000EA0133302000E1
:1029B000E900BB30E800DF30890BDC2CE80BDC2CB5
:1029C000E90BDC2C003201302000E8006808EA073F
:1029D00024306A02031CED2CEE2CD62C00309B31E7
:1029E0002223943101309B310A2394310B30200093
:1029F000E9002630E8005D30890BFC2CE80BFC2C4C
:102A0000E90BFC2C003200309B310A23943100305A
:102A10009B3196239431080001309D31702595310A
:102A2000013A031D142D152DA12D2000EC011B2DA5
:102A30009E31D826953101309D3170259531013A6E
:102A4000031D232D242D2B2D5C3020006C02031C34
:102A50002A2D2B2D182D01309D3170259531013AED
:102A6000031D332D342DA12D382D9E31D8269531BF
:102A700001309D3170259531013A0319402D412DCA
:102A8000352D01309B310A23953102302000E900B9
:102A90000430E800BA30890B4B2DE80B4B2DE90BC5
:102AA0004B2D000000309B310A23953101309B31C2
:102AB0009623953101309C31D22495310B308031F1
:102AC0006A20953101309B312223953100309C31B1
:102AD000D22495312000EA0133302000E900BB30D8
:102AE000E800DF30890B722DE80B722DE90B722D97
:102AF000003201302000E8006808EA0724306A024A
:102B0000031C832D842D6C2D00309B3122239531A5
:102B100001309B310A2395310B302000E90026302B
:102B2000E8005D30890B922DE80B922DE90B922D78
:102B3000003200309B310A23953100309B319623BF
:102B40009531080020002408093E860001308700E6
:102B50000108803AFA0024080E3E86000130870002
:102B60000103FF3A803AFA020318B72DB82DE52D7C
:102B700024080A3E86000130870001308107413178
:102B80000318810A24080A3E860001308700403F6E
:102B9000FA00413FFB0000307B02413003197A020A
:102BA000031CD32DD42D262E24080A3E8600013086
:102BB00087000030C03FC13F2408860001308700F5
:102BC0000108903109209531262E2408093E8600FF
:102BD000013087000108FA00FB01FA1BFB032408FF
:102BE0000E3E8600013087007B08803A803C031D42
:102BF000FB2D7A0801020318FE2DFF2D1D2E023039
:102C0000FA0020002408023E8600013087007A087E
:102C1000810024080A3E8600013087000030C03F52
:102C2000C13F24088600013087000108FA007A08B5
:102C3000F1009A3199229531262E200024080A3E6F
:102C40008600013087000030C03FC13F20002408CB
:102C50000C3E8600013087000130810741310318A6
:102C6000810A24080C3E8600013087001600403A95
:102C7000FA001600FA04031D3E2E3F2E4B2E2408A8
:102C80000C3E8600013087000030C03FC13F240861
:102C90009331E52395310800200041088039C200B6
:102CA0004208CB004135C2004208D200C01F592E55
:102CB0005A2E5B2E5214520803195F2E602E702E6E
:102CC000520A031D642E652E6D2E0030C1000030A7
:102CD000C0000030BF000030BE00C017C101782E18
:102CE0000030C1000030C0000030BF000030BE0026
:102CF0003D088039C2004208CB063D35C20042087B
:102D0000D300BC1F842E852E862E5314530803191E
:102D10008A2E8B2E9B2E530A031D8F2E902E982EBB
:102D20000030BD000030BC000030BB000030BA00F5
:102D3000BC17BD01A32E0030BD000030BC00003028
:102D4000BB000030BA003D083C043B043A04031DBC
:102D5000AA2EAB2EC42E0030C1000030C0000030BF
:102D6000BF000030BE008030C0047F30C1044B087B
:102D7000C2004208C1044108BD004008BC003F0831
:102D8000BB003E08BA00FF2F5208031DC82EC92EF3
:102D9000D22E0030BD000030BC000030BB0000303F
:102DA000BA00FF2F5208C200C3014308C5005308F0
:102DB0004202C400031CC50344087F3ECC0000301F
:102DC000453DCD004108CA004008C9003F08C80081
:102DD0003E08C7000030C1000030C0000030BF0016
:102DE0000030BE000030D1000030D0000030CF00F5
:102DF0000030CE00D3013A2F53080319002F012FC2
:102E00001B2F0130C735C80DC90DCA0D890B022F04
:102E10000130BE35BF0DC00DC10D890B092FD11F6B
:102E2000122F132F142F3E140130CE35CF0DD00D9D
:102E3000D10D890B152F3D084A02031D292F3C088F
:102E40004902031D292F3B084802031D292F3A0878
:102E50004702031C2C2F2D2F362F51173A08C7027B
:102E60003B08C83B3C08C93B3D08CA3B0130C20097
:102E70004208D3071A305302031C3F2F402FFC2E69
:102E80004A084904480447040319472F482F612F73
:102E90004E14612F0130BE35BF0DC00DC10D890B21
:102EA0004B2FD11F542F552F562F3E140130CE35A6
:102EB000CF0DD00DD10D890B572FFF30CC07FF3030
:102EC000CD3DC01F642F652F4A2FD301D11F692F1D
:102ED0006A2F862FFF304E05C200FF304F05C3001A
:102EE000FF305005C4007F305105C500450844043B
:102EF0004304420403197D2F7E2F812FD301D30A6F
:102F0000862F3E1C842F852F862F7E2F5308031972
:102F10008A2F8B2FB32F0130BE070030BF3D00300A
:102F2000C03D0030C13D411C962F972FB32F3E0866
:102F3000C2003F08C3004008C4004108C50001307A
:102F4000C600C537C40CC30CC20CC60BA12F450864
:102F5000C1004408C0004308BF004208BE00013061
:102F6000CC070030CD3D4D08803AC200803042028F
:102F7000031DBC2FFF304C02031CBF2FC02FCD2FD1
:102F8000FF302000CC000030CD000030C100003008
:102F9000C0000030BF000030BE0020004D08803A65
:102FA000C20080304202031DD72F01304C020318AB
:102FB000DA2FDB2FE72F2000CC01CD010030C1003C
:102FC0000030C0000030BF000030BE00CB01200048
:102FD0004C08C2004208D200521CEF2FF02FF22FF3
:102FE000C017F62F7F30C2004208C0055236C2001B
:102FF0004208C1004B08C2004208C104BB2E0800B1
:103000000034003400340034003400340034003420
:103010000034003400340034003400347E34013491
:1030200001340134003400340034003400340034FE
:103030000034003400340034003400347E34013471
:1030400000340034C8344234003400342034413475
:10352A000800080008000800080008000130080028
:10353A0020001C15080020001C110800280017157F
:10354A0008009C31BA249A310800163021009700ED
:10355A00080021009D0190309E0008000130F00013
:10356A0070082000EC07080072082100D5007108D5
:10357A00D400080072082100D3007108D2000800A4
:10358A0072082100D1007108D000080072082100D9
:10359A00CF007108CE000800640080010131890B58
:1035AA00D22A0034FE0012001E00FE0BD82A003474
:1035BA00F1007108083E8600870181100800F100B9
:1035CA007108083E8600870101150800F10071089C
:1035DA00083E8600870101110800F1007108083EC3
:1035EA008600870181140800703021009900980133
:1035FA0022009601080020006B03031D052B062BF1
:10360A00092B9A319D229B310800F1007103031D99
:10361A000F2B102B132B22000E16152B22000E1225
:10362A000800F1007103031D1B2B1C2B1F2B22000A
:10363A000E15212B22000E110800F1007103031D43
:10364A00272B282B2B2B22008E152D2B22008E1197
:10365A0008009B3186239B319D318E259B319D31FC
:10366A00AC259B319A31AE229B31080021005408C7
:10367A0055040319412B422B472B55088A0054083D
:10368A000A009B3127001311080020009110210025
:10369A00520853040319522B532B582B53088A00F0
:1036AA0052080A009B31080020009310210050089C
:1036BA0051040319612B622B672B51088A005008A9
:1036CA000A009B3108002000931121004E084F0484
:1036DA000319702B712B762B4F088A004E080A00AB
:1036EA009B310800F100710803197C2B7D2B842B78
:1036FA007108083E8600870101080139852B0030D0
:10370A000800FA017A089B31DB239B310130F9006A
:10371A007908FA0702307A02031C942B952B872B1F
:10372A000800F1007103031D9B2B9C2BA02B9A31DF
:10373A00A3229B31A52B883100209B3122000E1138
:10374A000800C73020009B009A01911021009114B3
:10375A009630F1001A30F2009A31BF229B312000D4
:10376A009C0108002000A0008B1FBC2BBD2BC42B82
:10377A008B132008903140209B318B17C82B2008CF
:10378A00903140209B3108002000AE012E08903174
:10379A00EB209B3101302000AD002D08AE0702302E
:1037AA002E02031CD92BDA2BCB2B0800F800780841
:1037BA009C3138249B310930F7007708F1007808EA
:1037CA009C314C249B31B03E9A31DD229B3108005A
:1037DA00F100710A86008701403F2100AC00413F99
:1037EA00AD007108033E86008701403FAA00413FB1
:1037FA00AB00080021004D08F1007108F2007208C0
:10380A00031D082C092C0A2C112C0130F202720813
:10381A00031D102C112C0A2C08007C30280096005D
:10382A00950120009310210093149730F1001A306B
:10383A00F2009A31C5229C31023028009700080014
:10384A00FF3028009D009C01200093112100931550
:10385A009830F1001A30F2009A31CB229C311F3095
:10386A0028009E000800F6000230760203183E2C5B
:10387A003F2C4B2C0930F5007508F10076089C3175
:10388A004C249C31B83E8600870101140800F400DC
:10389A00F301741C512C522C562C7108F200720838
:1038AA00F3070310F10D0310F40C7408031D5E2CCA
:1038BA005F2C4E2C730808007C1C642C652C6A2C27
:1038CA007C36F1007108FC00732C7C36F10071081B
:1038DA00FC007C08B43AF1007108FC007C080F393E
:1038EA0008009E31AF269C319A31F9229C319A31D7
:1038FA00AA229C319C3125249C319C3112249C3172
:10390A009B31A6239C319B312E239C310800F60063
:10391A00023076020318922C932CA12C0930F50060
:10392A007508F10076089C314C249C31B83E86001B
:10393A008701010C0139A22C0030080000309B31AC
:10394A0016239C3100309B3196239C3100309B31E9
:10395A0022239C3100309B310A239C3100309C3158
:10396A00D2249C3122008E120800F5017508F40059
:10397A000330F435FF3E031DBE2C7435203E9F31C3
:10398A0002279C310130F4007408F50702307502F1
:10399A00031CD02CD12CBB2C08002000E5006503A9
:1039AA00031DD82CD92CDC2CEB01EB0AE92C403076
:1039BA00E0004030DF000030DE000030DD009231F0
:1039CA00D5229C312000EB010800F8000230780271
:1039DA000318F02CF12C012D0930F7007708F100BB
:1039EA0078089C314C249C31B63E86008701403FC2
:1039FA00F500413FF600032DF501F60108007208B3
:103A0A00803AF30080307302031D0D2D01307102DC
:103A1A000318102D112D1D2D7109F3007209F400E0
:103A2A00F30A0319F40A7308F1007408F2001D2D51
:103A3A0008002000AC012C08903191209D31003AF9
:103A4A000319282D292D2B2D0030372D0130FB008D
:103A5A007B082000AC0702302C02031C352D362DC2
:103A6A00202D01300800F1008B1F3C2D3D2D492DE2
:103A7A008B137108063E8600870121004808C03F63
:103A8A004908C13F8B17522D7108063E86008701EF
:103A9A0021004808C03F4908C13F08000130210001
:103AAA00C2070030C33D03304302E8300319420223
:103ABA00031C602D612D6F2DC201C301031022006A
:103ACA000E1D031403186A2D6D2D22000E156F2D7D
:103ADA0022000E110800F200023072020318762D3D
:103AEA00772D8C2D7208F1000330F135FF3E031D4E
:103AFA007A2D7135223E8600013087000230010698
:103B0A000319882D8A2D01308B2D00308D2D003020
:103B1A0008000030F1009830F2002030F300003045
:103B2A00F40020309F3187279D312000A001200812
:103B3A00903109209D310130FB007B082000A0074D
:103B4A0002302002031CAA2DAB2D9C2D0800B03098
:103B5A00F2007208F300B930F20073087202031817
:103B6A00B72DB82DB92DC92D73089A31DD229D3193
:103B7A000930F2007208F307B930F20073087202D2
:103B8A000318C82DC92DB92D080022000E172100CF
:103B9A0021309D000530890BD02D00008E30840025
:103BAA00003085000E3086000130870025308017EE
:103BBA009D00003200320032003221009D14003292
:103BCA00000022008E178013080022008E172100A1
:103BDA0025309D000530890BF02D00008E308400C1
:103BEA00003085000E308600013087002130001732
:103BFA009D00003200320032003221009D14003252
:103C0A00000022000E170013080022000E132100E4
:103C1A0021309D000530890B102E00008E30840063
:103C2A00003085000E30860001308700253080176D
:103C3A009D00003200320032003221009D14003211
:103C4A00000022008E138013080022008E13210028
:103C5A0025309D000530890B302E00008E308400FF
:103C6A00003085000E3086000130870021300017B1
:103C7A009D00003200320032003221009D140032D1
:103C8A00000022000E130013080080302000D7061F
:103C9A005B08F4005A08F3005908F2005808F100CA
:103CAA005708F8005608F7005508F6005408F500BA
:103CBA00893103219E3174082000D7007308D60089
:103CCA007208D5007108D40008006F341234A23487
:103CDA0015340934123499341A3499341A342A347A
:103CEA001E34EA341D34FF3407340034EA341D34F8
:103CFA002A341E3420340034003400340134CA34E7
:103D0A001D340A341E342034003400340034F900DF
:103D1A00F501F6017108F300F4017308F70074085D
:103D2A00F800791C992E9A2E9E2E7708F5077808A6
:103D3A00F63D0130F735F80D890B9F2E0310F90C6B
:103D4A007908031DA92EAA2E962E7608F200750868
:103D5A00F100080022008C018D018E013F30210004
:103D6A008C0070308D0003308E00033023008E00EB
:103D7A0030308D0003308C0024008D0104308C001B
:103D8A008E012100951322009D019E012700131127
:103D9A00121111159530F1001A30F2009A31B92238
:103DAA009E318B15080021004A080319DD2EDE2EEC
:103DBA00E32E9B312E239E312100CA01CB01CB0A6F
:103DCA009D311E259E31003A031DEC2EED2EEF2E5D
:103DDA000030012F9B31C9239E31803102209E3150
:103DEA002000AF002F082100CB009D31AC259E3169
:103DFA009A31A6229E3101300800F3007308023E70
:103E0A0086000130870002300106031D0D2F0E2F98
:103E1A002C2F73080A3E8600013087000130810783
:103E2A0041310318810A73080A3E8600013087006F
:103E3A0016000104031D222F232F2C2F73080A3E7C
:103E4A00860001308700FF30C03FFF30C13F0800C5
:103E5A0020006B03031D322F332F552F0130210011
:103E6A00C4070030C53D47084502031D3E2F4608DA
:103E7A004402031C412F422F472FC401C5012200CF
:103E8A008E16582F20008E1E4B2F4C2F582F210094
:103E9A00C401C5019A31A0229F3122008E12582FE7
:103EAA002100C401C5010800F900790A8600013021
:103EBA00870001089C31EA249F3175082000A00080
:103ECA007608A100A201A3017908053E8600013007
:103EDA0087002008C03F2108C13F2208C23F2308AB
:103EEA00C33F7908053E86000130870004308135DA
:103EFA004131810D4131810D4131810D7D31890B76
:103F0A007C2F0800F9007208F8007108F700790898
:103F1A00F5007508FA00A92F77088400780885004B
:103F2A000008F5007508F6000130F7070030F83D83
:103F3A007608F5007A088600013087007508810046
:103F4A000130F5007508FA070130F3020030F43B3E
:103F5A00730A031DB42F740A031DB42FB52F912FB2
:103F6A0008002000A6000530FA007A08A5002608F5
:103F7A009B3177239F31003A031DC42FC52FD12FC0
:103F8A000030FF2F01302000A5022508031DCE2F87
:103F9A00CF2FD12FFC30FF2F200026089131462148
:103FAA009F31003A031DDA2FDB2FC72F2000260886
:103FBA00063E86008701403F21004802F100413F4A
:103FCA00493BF2009D3104259F3100307202653071
:103FDA0003197102031CF22FF32FF92F2000260870
:103FEA009A31E4229F31C52F200026089A31EB220C
:063FFA009F31C52F0800F5
:020000040001F9
:08000000FF3FFF3FFF3FFF3F00
:04000E00E43DFF3E90
:00000001FF
